:020000040800F2
:10000000588C00209D01000861360008ED29000889
:100010005D360008ED0900080947000800000000EF
:10002000000000000000000000000000213C00086B
:100030008D0B00080000000091370008A141000866
:10004000B7010008B7010008B7010008B7010008B0
:10005000B7010008B7010008B7010008B7010008A0
:10006000B7010008B7010008B7010008B701000890
:10007000B7010008B7010008B7010008B701000880
:10008000B7010008B7010008B7010008B701000870
:10009000B7010008B7010008B7010008B701000860
:1000A000B7010008B7010008B7010008B701000850
:1000B000B7010008B7010008B7010008B701000840
:1000C000B7010008B7010008B7010008B701000830
:1000D000B7010008B7010008B7010008B701000820
:1000E000B7010008B7010008B7010008B701000810
:1000F000B7010008B7010008B7010008B701000800
:10010000B7010008B7010008B7010008B7010008EF
:10011000B7010008B7010008B701000875420008E0
:10012000B7010008B7010008B7010008B7010008CF
:10013000B7010008B7010008B7010008B7010008BF
:10014000B7010008B7010008B7010008B7010008AF
:10015000B7010008B7010008B7010008B70100089F
:10016000B7010008B7010008B7010008B70100088F
:10017000B7010008B7010008B7010008000000003F
:10018000B7010008B7010008DFF80CD000F086FBCB
:1001900000480047115C0008588C00200648804742
:1001A00006480047FEE7FEE7FEE7FEE7FEE7FEE75C
:1001B000FEE7FEE7FEE7FEE761420008890100086E
:1001C0002DE9F05F0546002092469B46884606468C
:1001D000814640241BE0284641464746224600F01F
:1001E0005EFA53465A46C01A914110D3114618463A
:1001F000224600F045FA2D1A67EB01084F462246C9
:100200000120002100F03CFA17EB00094E41201EAE
:10021000A4F10104DFDC484631462A464346BDE8E6
:10022000F09F2DE9F0410024061B254671F10006E0
:1002300005DA01240027D0EB070067EB0101161E49
:1002400073F1000605DA0027D2EB0702012567EB00
:100250000303FFF7B5FF86460E4617469C46AC42A1
:1002600004D00025D0EB050E65EB010624B100207B
:10027000D2EB000760EB030C704631463A4663460A
:10028000BDE8F08140EA01039B0703D009E008C9FB
:10029000121F08C0042AFAD203E011F8013B00F84B
:1002A000013B521EF9D27047D2B201E000F8012B97
:1002B000491EFBD270470022F6E710B513460A46E6
:1002C00004461946FFF7F0FF204610BD30B504463E
:1002D0000020034600E05B1C934203D2E05CCD5C4F
:1002E000401BF8D030BD2DE9FE4F804681EA030067
:1002F000C00F0C46009021F0004123F00045B8EB00
:100300000200A94105D24046214690461C460B46B4
:10031000024623F00040104347D0270DC7F30A00E0
:10032000C3F30A510290401A019040286BDAC3F3DC
:10033000130040F4801B0098924620B10023D2EBBA
:10034000030A63EB0B0B01985946C0F1400250467B
:1003500000F096F906460D4650465946019A00F0BF
:10036000AEF910EB08006141002487EA115284EADB
:10037000E7731A4340D0009A62B3019A012A4FEA08
:10038000075215DC001B61EB02014FF0004202EA4C
:100390000752CDE90042001C41F5801132462B4640
:1003A00000F0E5F903B0BDE8F08F40462146F9E7DB
:1003B000001B61EB0201001C41F5801300185B413A
:1003C0002018A2F5001747EB030140EAD570B619D3
:1003D0006D4111E06D084FEA360645EAC0754FEAF7
:1003E0000752001B61EB0201001C41F58011490816
:1003F0004FEA30000019514132462B4603B0BDE8A8
:10040000F04F00F0A5B90098012240000023D0EB86
:10041000020263EBE073009821464FEAE074B8EB08
:10042000000061EB0401E9E783F000435BE781F042
:10043000004158E72DE9FE4F81EA030404F000442F
:1004400021F0004100944FF0000B23F0004350EAEC
:1004500001045ED052EA03045BD0C3F30A54C1F333
:100460000A552C44A4F2F3340194A0FB0254C1F3C6
:10047000130141F48011C3F3130343F4801301FB10
:10048000024400FB034E840A970A44EA815447EA77
:100490008357A4FB076802958D0A05FB07854FEA81
:1004A000932C04FB0C542705029D4FEA065847EA9B
:1004B0001637B5EB08056EEB070C870E920E47EA70
:1004C000811742EA8312A7FB0201B6EB0B0164EB32
:1004D00000042B0D43EA0C335E1844EB1C50DA4643
:1004E0005146E7FB0201C5F313044FEA0B3343EA1D
:1004F00014534FEA0432019C43EA0603A4F10C04AE
:100500000294009CCDE900B400F031F903B0BDE8DD
:10051000F08F00200146F9E72DE9F04D81EA030450
:1005200004F0004B21F0004514464FF0000A23F080
:10053000004150EA050220D054EA01021DD0C5F363
:100540000A570246C5F31303C1F31300C1F30A5659
:1005500040F4801543F48013A7EB0608101BD64621
:1005600008F2FD3873EB050002D308F1010801E041
:1005700092185B41B8F1000F03DA00200146BDE894
:10058000F08D00204FF48011064684460EE0171BC4
:1005900073EB050705D3121B63EB050306434CEA17
:1005A000010C49084FEA300092185B4150EA0107FC
:1005B000EDD152EA030012D082EA040083EA050179
:1005C000084305D0101BAB4106D20122002306E0F0
:1005D00000224FF0004302E06FF0010253101AEBCB
:1005E00006004CEB085110EB0A0041EB0B01BDE893
:1005F000F04D00F0ADB800F0004230F000400AD0FD
:10060000C10D01F56071C0F3160042EA0151C20844
:1006100040071143704700200146704701F0004336
:1006200030B421F0004150EA010206D00A0DA2F5D3
:100630006072C1F31301002A02DC30BC0020704755
:10064000440F44EAC104C100E01830BC00EBC250C2
:1006500000F047B830B50B460146002020220124A7
:1006600009E021FA02F59D4205D303FA02F5491B80
:1006700004FA02F52844151EA2F10102F1DC30BD96
:10068000202A04DB203A00FA02F100207047914052
:10069000C2F1200320FA03F3194390407047202A47
:1006A00004DB203A21FA02F00021704721FA02F31C
:1006B000D040C2F120029140084319467047202AD9
:1006C00006DBCB17203A41FA02F043EAE07306E07A
:1006D00041FA02F3D040C2F120029140084319468A
:1006E00070470029A8BF7047401C490008BF20F090
:1006F0000100704710B4B0FA80FC00FA0CF050EA28
:10070000010404BF10BC704749B1CCF1200421FAA8
:1007100004F411FA0CF118BF012121430843A3EBA3
:100720000C01CB1D4FEA00614FEA102042BF0020B0
:1007300010BC704700EBC35010440029A4BF10BC8C
:100740007047401C490008BF20F0010010BC7047F2
:1007500010B5141E73F1000408DA401C41F10001C9
:1007600092185B411A4301D120F0010010BD2DE920
:10077000F04D92469B4611B1B1FA81F202E0B0FA17
:1007800080F220329046FFF77BFF04460F4640EA96
:100790000A0041EA0B0153465A46084313D011465A
:1007A00053EA010019D0C8F140025046FFF777FF25
:1007B00005460E46504659464246FFF761FF08433C
:1007C00005D0012004E020463946BDE8F08D002028
:1007D000054346EAE0762C4337430A986305E40A6A
:1007E000A0EB08000022FD0A44EA47540A3002D573
:1007F00000200146E9E7010510196941DDE90845D6
:1008000000196941BDE8F04DA2E7C1F30A52C1F3F6
:10081000130140F2FF3341F480119A4202DA0020C2
:100820000146704740F233439A42A2F2334202DC5F
:100830005242FFF734BFFFF723BF000030B5041E5C
:1008400071F1000404DB4FF00044404264EB01010D
:10085000141E73F1000405DB1C464FF000435242A6
:1008600063EB04038B4208BF824230BD30B5041EE7
:1008700071F1000404DB4FF00044404264EB0101DD
:10088000141E73F1000405DB1C464FF00043524276
:1008900063EB0403994208BF904230BD064C074DFC
:1008A00006E0E06840F0010394E807009847103440
:1008B000AC42F6D3FFF76CFC0012010820120108CD
:1008C0002DE9F04D00231A461B1A8A4103DB002054
:1008D0000146BDE8F08DC1F30A52C1F3130141F4A2
:1008E00080154FF0000BD10702D100186D41521E48
:1008F0000027044640F2FF11384601EB620A3E46EB
:100900008046024600204FF48011FFF7C8FEC2194E
:100910007141BB1846EB0100B4EB030C75EB000C06
:1009200004D3E41A65EB000517460E46241908F1B6
:1009300001006D4180463428E3DDF91946EB0600DD
:10094000091BA84103D24FF0FF32134601E00022F9
:1009500013461BEB070046EB0A51BDE8F04DFFF7CD
:10096000F7BE000070B540F2DC44C2F20004054658
:1009700020460E4601F02CFC701E062888BF70BD74
:1009800049F6DE50C0F6000030F8160044F240216F
:10099000C0F20F01B1FBF0F02168C862E0604008CE
:1009A000486306F04DF840F2AC412844C2F2000121
:1009B00008602046002101F07DFE70BD10B540F2B8
:1009C000AC44C2F20004206870B106F039F8216826
:1009D000884238BF10BD0020206040F2DC40C2F2E7
:1009E0000000002101F0E2FE10BD0000FEE7000063
:1009F00041EA00207047000070B514460D460646D7
:100A000002F0F8FECC2000F061F84E2000F05EF815
:100A1000204600F05BF8284600F058F8304600F019
:100A200055F802F0E7FECC2000F050F8482000F026
:100A30004DF841F20004C4F2020400BF2046012137
:100A400000F08AFF0028F9D070BD000070B541F2B7
:100A50000004C4F2020420460121012200F082FFBA
:100A6000052004F039F80825204601210022C6F3AC
:100A7000460600F077FF052004F02EF820460121FD
:100A8000012200F06FFF052004F026F82046012126
:100A900000F062FF00284FF0410018BF66F07F06AB
:100AA00004F01AF820460121012200F05BFF013D0D
:100AB0002806D9D1F0B270BD80B502F09BFECC20E3
:100AC00000F004F8442000F001F880BDF0B581B0DA
:100AD00041F2000405460826C4F202042046012122
:100AE000002200F03FFF052003F0F6FF05F00102B1
:100AF00020460121EFB200F035FF412003F0ECFF6A
:100B000020460121012200F02DFF022003F0E4FF26
:100B1000013E30064FEA5705E0D101B0F0BD0000BC
:100B200080B586B000200590CDE90300CDE9010035
:100B3000009043F63000C4F20200016841F0100159
:100B40000160006801A900F01000009000980120E9
:100B5000CDE9010041F20000C4F2020000F030FED5
:100B600006B080BD4EF6FC50CEF20000016841F0A8
:100B70008071016041F20000CEF20000016841F096
:100B800001010160002141607047000070470000D2
:100B900070B504464D1E00202A1A215CB2FA82F27A
:100BA000461C5209C0B203F0E7FD012005F038FFF2
:100BB000042E3046F0D170BD2DE9F04381B00646D9
:100BC000147803F007000D46089F40F26009904634
:100BD000C2F20009DFE800F004132231404F5E6DDD
:100BE00099F81C0061B2421E18BF0122002948BFBB
:100BF0000246B0B2A9B202F005FF013F6CD099F8ED
:100C00001C00731C421E18BF0122610648BF024629
:100C1000A9B298B202F0F6FE013F5DD099F81C002F
:100C2000B31C421E18BF0122A10648BF0246A9B24A
:100C300098B202F0E7FE013F4ED099F81C00F31C79
:100C4000421E18BF0122E10648BF0246A9B298B26F
:100C500002F0D8FE013F3FD099F81C00331D421E20
:100C600018BF0122210748BF0246A9B298B202F07C
:100C7000C9FE013F30D099F81C00731D421E18BFF9
:100C80000122610748BF0246A9B298B202F0BAFE3B
:100C9000013F21D099F81C00B31D421E18BF01224C
:100CA000A10748BF0246A9B298B202F0ABFE013FCD
:100CB00012D099F81C00F31D421E18BF0122E10753
:100CC00018BF0246A9B298B202F09CFE013F03D0C1
:100CD00018F8014F083683E701B0BDE8F083000043
:100CE000B0B586B000F0E4FB4BF65850C0F60000FB
:100CF00000F022FD002000F015FD40F64270C0F625
:100D000001000021002200F071FC012000F00AFD2A
:100D100040F63970C0F6010000210E2200F066FC9A
:100D200040F62D70C0F6010000211A2200F05EFC92
:100D300040F62470C0F601000021272200F056FC86
:100D400040F64E70C0F601000021342200F04EFC47
:100D500034200021802200F071FC30200021342258
:100D600000F078FC40F2BD50C2F20000007802288A
:100D700036D0012858D0002840F07781C9A0322110
:100D8000002200F033FCCAA032211A2200F02EFC0F
:100D900040F63830C2F200000068FFF72CFC01ACCE
:100DA00002460B46C5A1204607F0C6FD20465A2143
:100DB0000D2200F01BFC40F2BC50C2F20000017892
:100DC00040F64B7240F63670C0F60102C0F60100E4
:100DD000002908BF10465A21272200F007FC44E1F1
:100DE00040F2D445C2F20005B5F9002001ACA1A142
:100DF000204607F0A1FD20463221002200F0F6FB3C
:100E0000B5F90010B5F90000012931DB372148435D
:100E1000C11700EB51405A2101EBE0325A200D215D
:100E2000102300F01BFC35E040F2A445C2F200059F
:100E3000B5F9002001AC95A1204607F07DFD2046C4
:100E40003221002200F0D2FBB5F90010B5F9000004
:100E5000012943DB37214843C11700EB51405A2198
:100E600001EBE0325A200D21102300F0F7FB47E0A0
:100E7000B0F1FF3F0EDCB5F9000037214843C11740
:100E800000EB51405A21A1EBE0325A200D211023F2
:100E900000F0DCFB40F2D645C2F20005B5F90020B7
:100EA00001AC76A1204607F047FD204632211122F1
:100EB00000F09CFBB5F90010B5F90000012943DBF7
:100EC00037214843C11700EB51405A2101EBE03272
:100ED0005A201E21212300F0C1FB47E0B0F1FF3F63
:100EE0000EDCB5F9000037214843C11700EB514033
:100EF0005A21A1EBE0325A200D21102300F0A6FB6D
:100F000040F2A645C2F20005B5F9002001AC61A18E
:100F1000204607F011FD20463221112200F066FB29
:100F2000B5F90010B5F90000012943DB372148432A
:100F3000C11700EB51405A2101EBE0325A201E212B
:100F4000212300F08BFB47E0B0F1FF3F0EDCB5F949
:100F5000000037214843C11700EB51405A21A1EB53
:100F6000E0325A201E21212300F070FB40F2D845C8
:100F7000C2F20005B5F9002001AC42A1204607F0FD
:100F8000DBFC20463221222200F030FBB5F90010B4
:100F9000B5F90000012943DB37214843C11700EBB5
:100FA00051405A2101EBE0325A202F21322300F028
:100FB00055FB5AE0B0F1FF3F0EDCB5F900003721D8
:100FC0004843C11700EB51405A21A1EBE0325A20AF
:100FD0001E21212300F03AFB40F2A845C2F2000591
:100FE000B5F9002001AC2DA1204607F0A5FC204654
:100FF0003221222200F0FAFAB5F90010B5F900000A
:10100000012920DB37214843C11700EB51405A2109
:1010100001EBE0325A202F21322300F01FFB24E0A5
:10102000B0F1FF3F21DCB5F9000037214843C1177B
:1010300000EB51405A21A1EBE0325A202F213223FC
:1010400000F004FB11E0B0F1FF3F0EDCB5F9000049
:1010500037214843C11700EB51405A21A1EBE03240
:101060005A202F21322300F0F1FA00F07BFB06B06A
:10107000B0BD00BF67783A253664000067793A252D
:1010800036640000677A3A253664000061783A25B4
:101090003664000061793A2536640000617A3A25A9
:1010A00036640000B5B1C7B0CEC2B6C8A3BA00005E
:1010B000D5F0B6AFB1A8BEAFA3BA0000252E3166F9
:1010C000A1E6000080B500F0F3F94BF65850C0F6E9
:1010D000000000F031FB40F64270C0F60100002134
:1010E000002200F083FA002000F01CFB40F639706B
:1010F000C0F6010000210E2200F078FA012000F075
:1011000011FB40F62D70C0F6010000211A2200F0FC
:101110006DFA40F62470C0F601000021272200F08D
:1011200065FA40F64E70C0F601000021342200F04E
:101130005DFA34200021802200F080FA3020002166
:10114000342200F087FA00F00DFB80BD80B500F07E
:10115000AFF94BF65850C0F6000000F0EDFA40F63B
:101160004270C0F601000021002200F03FFA40F674
:101170003970C0F6010000210E2200F037FA00207D
:1011800000F0D0FA40F62D70C0F6010000211A22BE
:1011900000F02CFA012000F0C5FA40F62470C0F6E9
:1011A00001000021272200F021FA40F64E70C0F61F
:1011B00001000021342200F019FA3420002180229D
:1011C00000F03CFA30200021342200F043FA00F015
:1011D000C9FA80BD80B500F06BF94BF65850C0F6E7
:1011E000000000F0A9FA40F64270C0F601000021AC
:1011F000002200F0FBF940F63970C0F60100002132
:101200000E2200F0F3F940F62D70C0F60100002127
:101210001A2200F0EBF9002000F084FA40F6247066
:10122000C0F601000021272200F0E0F9012000F0C3
:1012300079FA40F64E70C0F601000021342200F029
:10124000D5F934200021802200F0F8F93020002167
:10125000342200F0FFF900F085FA80BDB0B540F20D
:10126000B054C2F20004256805F0EAFBA5B121687C
:1012700001F5FA61884211D905F0E2FB216841F2DB
:1012800088321144884219D905F0DAFB216801F54A
:10129000FA51884222D900202060B0BD00F008F940
:1012A0004BF63850C0F6000000F046FA16A0402178
:1012B0000C2200F0A5F900F055FAB0BD00F0F8F8E6
:1012C0004BF61850C0F6000000F036FA15A00021C9
:1012D000002200F08BF900F045FAB0BD00F0E8F80C
:1012E00040F2AC20C0F601000021002200F0A2F97B
:1012F00040F2BC20C0F601004021002200F09AF923
:1013000000F030FAB0BD00BFB7C0BBF0A1A2B7C0BB
:10131000B5C1D4B60AB3CCBCECB2E2C6F7C9E8BCDE
:10132000C6000000B3C9D4B131A3BACBEFEABBC841
:10133000BB0A2020202020202031383034313832A0
:10134000300AB3C9D4B132A3BAB7BDBEC5B4A80A76
:101350002020202020202031383034313831310015
:10136000EFF3108072B600BFFEE7000080B50D28D5
:1013700008BF80BD0A2802D100F0B4F880BD40F259
:101380006001C2F2000109690968884780BD000058
:1013900010B582B0944602884388B0F804E08468AF
:1013A00008466146CDF800E0019401F02DFD02B041
:1013B00010BD00002DE9F04383B040F26008C2F296
:1013C0000008D8F810500446A9690846214600F0E4
:1013D0003DF8C0B301884668671A06EBC70999F85B
:1013E0000240B8F91400B8F9161016F837202B7D12
:1013F000D9F80450CDE9004501F006FDD8F81000F9
:10140000027D417D914213D9B8F81400B8F8163026
:1014100016F8377098F81C601A4407440B44013ED4
:1014200091B2BAB29BB218BF0126009602F028FA18
:10143000D8F8100099F80110807DB8F8142010FB3E
:101440000120A8F8140003B0BDE8F08301E000BF5C
:10145000806838B102888A42FAD842888A4228BF16
:101460007047F5E770470000B0B540F26001C2F286
:1014700000010D690446A96908462146FFF7E6FF09
:1014800038B101884068611A10F83100A97D4843DD
:10149000B0BD0020B0BD00000120088070470000F2
:1014A00080B58069FFF7D2FF002818BF012080BDFA
:1014B00080B50020002100F00DF9002000218022DD
:1014C000402300F001F880BD80B582B04FF0000CE1
:1014D00080B289B292B29BB2CDF800C002F0D0F9CE
:1014E00002B080BD80B500F0D5F840F26001C2F2D4
:1014F0000001CA8A1044C88280BD0000002808BFCD
:1015000070472DE9F04F83B0074600F0C3F840F272
:101510006006C2F20006B6F814A0834600F0C2F8D6
:10152000F18A0090081AF08211E000BF708B00F081
:10153000030001380228504628BF0020B0823878C6
:101540000A2808BFF48217F8010B002841D0387828
:1015500000283ED0384647F6FF7100F019F90546DD
:101560003846294600F010F9718B01F0030101297A
:1015700006D0022912BF002100EBD071491000E013
:101580000146B28AB6F81690511A01EB0008A8F18C
:10159000010009EB0B04ADF80800601EB182ADF844
:1015A0000410ADF80A003846294601AAADF80690A5
:1015B00000F0DCF838462946A6F8169000F0D0F87E
:1015C000395C07440D29B1D00A29AFD0A6F81480A0
:1015D000B9E7F08A00990844718BF08221F003008A
:1015E000708303B0BDE8F04F7047000080B540F253
:1015F0006003C2F200039982DA82FFF77FFF80BDA9
:10160000F0B581B00D4640F26001C2F20001B1F9BF
:101610001A10064641F00200144600F097F80746FB
:10162000304629462246FFF7E1FF384600F08EF8A3
:1016300001B0F0BD80B5FFF7ABFE80BD80B50346BD
:101640000846194601F02AFC80BD000080B503F071
:101650001DF980BD80B501F047FC80BDF0B581B0BB
:1016600099420BDA1C4615460E4607463846314667
:101670002A4601F013FC0136B442F7D101B0F0BDA7
:1016800080B540F26001C2F20001096949688847EB
:1016900080BD000040F26000C2F200000069407DA1
:1016A0007047000040F26000C2F20000418B01F080
:1016B0000C010C2918BF082903D10069007D4008DE
:1016C000704704291CBF002070470069007D013865
:1016D0007047000010B50C4603F03AF9204603F0BD
:1016E0003DF9002010BD000080B540F28000C2F23C
:1016F00000002E21017040F260007F22C2F2000043
:101700000021C0F23F02C0E9001249F64062C0F673
:101710000002C0E9042101214172017702F0FEF9C3
:10172000002080BD40F26001C2F200010A7F8242C7
:1017300018BF08777047000040F26002C2F2000252
:1017400001461069002918BF1161704740F260031B
:10175000C2F20003B3F91A10024608465A837047D2
:101760000846704780B502F083F980BD80B51268E5
:1017700040F2600C130CC2F2000CACF81420ACF870
:10178000163003F063F880BD80B503F09BF880BD90
:1017900080B503F0BFF880BDB0B5044600F0E8F8AE
:1017A000054640F24800C2F200000078611C18BFF4
:1017B000044400BF00F0DCF8401BA042FAD3B0BDE7
:1017C0002DE9F04F83B000F13E4202F1FF724FEA83
:1017D000B22241F600470192C4F2020708224FF0FC
:1017E000010E00254FF0000A4FF00008B84208BF74
:1017F000072200920AE000BF08F101080AF1040A7A
:10180000B8F1100F05F1020500F0A2800C680EFA85
:1018100008FB14EA0B09EFD04C6804F0030CACF1A0
:10182000010EBEF1010F12D882680323CE6803FABD
:1018300005F7BA4306FA05F73A4382604268C4F3F3
:10184000001722EA0B0207FA08F73A434260BCF19C
:10185000030F1CD0C26803238E6803FA05F7BA434E
:1018600006FA05F73A43BCF1020FC2600FD16FF0E0
:10187000030202EA580202440AF01C060F23176A08
:1018800003FA06F40B69A743B3403B4313620268B3
:1018900003234F68AB409A4307F00303AB401A435E
:1018A000FB004FF0010E0260A6D5002243F6440370
:1018B0000292C4F202031A6843F6004442F48042E2
:1018C0001A601A68C4F2010402F480420292029A79
:1018D00028F003024FF6084B2244CFF6FF7B52F864
:1018E0000B300AF00C070F26BE4023EA060C019BC2
:1018F000009E072B38BF1E4606FA07F747EA0C037F
:1019000042F80B3022684B6842EA0907DE0358BFF1
:1019100022EA0907276062689E0342EA090758BF66
:1019200022EA09076760A268DE0242EA090758BF97
:1019300022EA0907A76043F60C47C4F201073A6898
:101940009B0242EA090358BF22EA09033B6053E7BE
:1019500003B0BDE8F08F00000069084018BF012007
:1019600070470000002A08BF090481617047000029
:1019700048F27400C2F200000068704740F248006C
:1019800048F27401C2F20000C2F2000100780A6855
:10199000104408607047000080B543F60040C4F270
:1019A0000200016841F400710160016841F4806146
:1019B0000160016841F480710160032000F088F843
:1019C000002000F005F800F04BF8002080BD00007A
:1019D00010B586B0014637200022002400F068F8D8
:1019E000372000F061F843F640000194C4F2020091
:1019F000016841F0200101600068694600F02000A4
:101A00000190019801A800F017F900F03BF94DF69C
:101A100083614000C4F21B31A0FB01014FF0FF3095
:101A200000EB914140F2245041F20042C2F200002A
:101A3000C4F2000240F2E733C0E90021C0E90243EA
:101A4000046100F07BFB10B1012006B010BD40F234
:101A50002450C2F2000000F00BFC06B010BD0000E4
:101A600080B582B0002043F640010190C4F202012B
:101A70004A6842F480424A604A6802F48042019215
:101A8000019A00900868002240F0805008600868C1
:101A90000F2100F08050009000986FF0010000F0DE
:101AA00007F802B080BD000080B502F05DFF80BD88
:101AB00070B514460D46064602F066FF29462246DA
:101AC00001F0D0FD0146304602F066FF70BD000017
:101AD00080B502F07BFF80BD2DE9F041002800F0C9
:101AE0008B8043F60808C4F202080446D8F8F803CD
:101AF0000D4600F00700884207D288F8F853D8F85E
:101B0000F80300F00700A84276D12068810717D5B6
:101B1000410705D5D8F8001041F4E051C8F800108D
:101B2000010705D5D8F8001041F46041C8F800104D
:101B3000D8F80010A26821F0F0011143C8F8001095
:101B4000C0073FD1D8F8F80300F00700A84207D932
:101B500088F8F853D8F8F80300F00700A8424BD1F2
:101B60002068410707D5D8F80010E26821F4E05159
:101B70001143C8F80010000708D5D8F80000216903
:101B800020F4604040EAC100C8F8000000F09EF870
:101B9000D8F8001049F6C652C1F30311C0F600028E
:101BA000515C40F2080220FA01F140F24C00C2F20E
:101BB00000000068C2F200021160FFF709FF002078
:101BC000BDE8F0816068811E022907D258F8081C20
:101BD00089015CBF0120BDE8F08110E0012807D138
:101BE00058F8081C89035CBF0120BDE8F08106E0BD
:101BF00058F8081C890702D40120BDE8F081D8F804
:101C0000001021F003010843C8F80000FFF7B0FE00
:101C1000064641F2883700BFD8F80000616800F03E
:101C20000C00B0EB810F8DD0FFF7A2FE801BB842F5
:101C3000F2D90320BDE8F0810F22026043F60802CA
:101C4000C4F20202136803F003034360136803F055
:101C5000F0038360136803F4E053C360D2F800C05C
:101C60004FF4E05303EADC030361D2F8F80300F019
:101C7000070008607047000040F20800C2F2000050
:101C80000068704780B5FFF7F7FF43F60801C4F21C
:101C90000201096849F6D652C1F38221C0F600025A
:101CA000515CC84080BD000080B5FFF7E5FF43F6FA
:101CB0000801C4F20201096849F6D652C1F3423163
:101CC000C0F60002515CC84080BD000010B543F66C
:101CD0000404C4F20204606800F00C0142F2004007
:101CE0000829C0F2F40007D0042918BF10BD41F242
:101CF0000020C0F27A0010BD216801F03F02216887
:101D000023684902C3F3881105D4A1FB0001002315
:101D1000FEF756FA06E041F20020C0F27A0048438E
:101D2000B0FBF2F021680222C1F3014102EB410154
:101D3000B0FBF1F010BD00002DE9F04182B00028A9
:101D400000F09F800446007843F60006C007C4F206
:101D5000020641D0B06800F00C00042805D13068BC
:101D6000800339D56068B8BB8BE0B06800F00C0028
:101D7000082802D170684002F1D46568B5F5803F4B
:101D800006D03068B5F5A02F06D140F48020306031
:101D9000306840F4803005E020F4803030603068F6
:101DA00020F480203060FFF7E3FD002D054610D0C1
:101DB0003068800310D4FFF7DBFD401B6428F7D99F
:101DC00022E100BFFFF7D4FD401B64284FF0030061
:101DD00054D830688003F5D4207880071AD5B068CD
:101DE00010F00C0F09D0B06800F00C00082840F08B
:101DF0008C807068400200F188803068800702D5CE
:101E0000E06801283DD13068216920F0F80040EAFF
:101E1000C10030602078000737D4207840074AD4CA
:101E2000A56955B3B06800F00C00082840F0A08008
:101E3000012D26D07068E16900F480028A4220D129
:101E4000216A00F03F028A421BD147F6C071626AE4
:101E50000140B1EB821F14D1A16A4FF6FF73C90391
:101E6000994300F44032A1F580318A4209D1E16AF8
:101E700000F07060B0EB016F03D1002002B0BDE84C
:101E8000F081012002B0BDE8F0816069002840F2D5
:101E90000000C4F247205AD00121C0F8801EFFF78D
:101EA00067FD0546706F8007B7D4FFF761FD401BE3
:101EB0000228F7D9A8E0306C4FF00008C0000CD41D
:101EC000CDF80480306C4FF0010840F08050306451
:101ED000306C00F080500190019847F20007C4F286
:101EE00000073868C00525D4386840F48070386031
:101EF000FFF73EFD054600BF3868C0051AD4FFF75E
:101F000037FD401B0228F7D97EE0E068002851D059
:101F10000020C4F2472001210160FFF729FD05469A
:101F2000306880073FF56FAFFFF722FD401B0228A6
:101F3000F6D969E0A568012D05D0306F052D4DD18A
:101F400040F004003067306F40F001004CE00021A9
:101F5000C0F8801EFFF70CFD054600BF706F8007BC
:101F60007FF55BAFFFF704FD401B0228F6D94BE07D
:101F70000027C4F2472700203866FFF7F9FC022D3E
:101F800005460BD13068800156D5FFF7F1FC401BA8
:101F900002284FF00300F5D970E700BF30688001D8
:101FA0007FF56BAFFFF7E4FC401B02284FF0030006
:101FB000F4D963E70020C4F2472000210160FFF755
:101FC000D7FC0546306880077FF524AFFFF7D0FCCB
:101FD000401B02284FF00300F4D94FE720F0010026
:101FE0003067306F20F004003067FFF7C1FC002D30
:101FF000054641F2883713D0306F800713D4FFF7BE
:10200000B7FC401BB842F7D9032002B0BDE8F0810D
:10201000FFF7AEFC401BB8424FF003003FF62EAF77
:10202000306F8007F4D4B8F1000F3FF4F9AE306C94
:1020300020F080503064F3E604F11C052FCD0843F6
:1020400040EA8210D9034FF6FF729143A1F5803127
:1020500040EA05600843706001203866FFF788FC9D
:10206000044600BF306880013FF507AFFFF780FCF2
:10207000001B02284FF00300F4D9FFE67047000070
:102080007047000010B590F83C20012A4FF0020282
:1020900052D0012380F83C3080F83D200268D2F80D
:1020A00004E0D2F808C00C682EF07003234341F21C
:1020B000FF74C4F20004A24253600DDC40F2FF73CF
:1020C000C4F200039A4215DCB2F1804F29D040F2ED
:1020D0000043C4F2000322E040F2FF33C4F20103E4
:1020E0009A4212DC41F60003C4F200039A4218D06F
:1020F000002312E040F60003C4F200039A4210D01D
:1021000040F60043C4F2000309E044F20003C4F2C5
:1021100001039A4205D040F20043C4F201039A42FF
:1021200004D149682CF080031943916001210022F9
:1021300080F83D1080F83C20104610BD002804BFF8
:102140000120704710B5044690F83D0028B90020E2
:1021500084F83C00204600F01FF8022084F83D007F
:102160002068211D02F08EF8012084F8460084F8D2
:102170003E0084F83F0084F8400084F8410084F871
:10218000420084F8430084F8440084F8450084F851
:102190003D00002010BD000081B0006840F2004109
:1021A000C4F20001884201D001B0704700200090C5
:1021B00043F64000C4F20200016841F002010160F0
:1021C000006800F002000090009801B07047000025
:1021D00090F83D1001291CBF01207047022180F8B2
:1021E0003D10006841F2FF71C4F2000188420DDC2D
:1021F00040F2FF71C4F20001884215DCB0F1804F5B
:1022000029D040F20041C4F2000122E040F2FF3147
:10221000C4F20101884212DC41F60001C4F200015F
:10222000884218D0002112E040F60001C4F20001FB
:10223000884210D040F60041C4F2000109E044F2A7
:102240000001C4F20101884205D040F20041C4F20D
:102250000101884206D1816801F00701062904BF07
:1022600000207047016841F00101016000207047C3
:1022700090F83D1001291CBF01207047022180F811
:102280003D10006841F2FF72C168C4F20002904242
:1022900041F00101C1600DDC40F2FF71C4F20001A8
:1022A000884215DCB0F1804F29D040F20041C4F2E1
:1022B000000122E040F2FF31C4F20101884212DC49
:1022C00041F60001C4F20001884218D0002112E05A
:1022D00040F60001C4F20001884210D040F60041EF
:1022E000C4F2000109E044F20001C4F20101884295
:1022F00005D040F20041C4F20101884206D1816854
:1023000001F00701062904BF00207047016841F071
:10231000010101600020704710B5044690F83C00B0
:1023200001284FF0020008BF10BD012284F83C20B4
:1023300084F83D0020684FF6777382689A43826084
:102340000A683F2A14DD5F2A18DD602A28D0B2F51A
:10235000005F2DD0702A40D1D1E9012CCB686146B5
:1023600002F034F82068816841F07701816034E040
:102370001F2A0FDC92B1102A10D02EE0402A23D061
:10238000502A2AD14B68CA68194602F0F9F8206829
:10239000502120E0202A01D0302A1ED111461AE017
:1023A0004B68CA68194602F0FDF82068602112E007
:1023B000D1E9012CCB68614602F008F820688168F9
:1023C00041F48041816008E04B68CA68194602F018
:1023D000D7F82068402102F005F8012084F83D007C
:1023E000002084F83C0010BD7047000010B5044682
:1023F00000680169890744BFC1685FEA817138D408
:1024000020680169490744BFC1685FEA41713CD453
:1024100020680169090744BFC1685FEA017141D4BE
:1024200020680169C90644BFC1685FEAC16145D43B
:1024300020680169C9071CBFC1685FEAC1714AD140
:1024400020680169090644BFC1685FEA016149D497
:1024500020680169490644BFC1685FEA416148D408
:1024600020680169890644BFC1685FEA816147D479
:1024700010BD6FF0020101610121217780698007A1
:1024800045D02046FFF7B0FF47E06FF0040101613F
:1024900002212177806910F4407F41D02046FFF768
:1024A000A3FF43E06FF00801016104212177C069B7
:1024B00080073ED02046FFF797FF40E06FF0100105
:1024C000016108212177C06910F4407F3AD020468D
:1024D000FFF78AFF3CE06FF001010161204600F048
:1024E000A7F9ADE76FF0800101612046FFF7C6FD57
:1024F000AEE76FF040010161204600F0A5F9AFE7BB
:102500006FF0200101612046FFF7BAFD10BD2046A3
:1025100000F050F8204600F0CBF8002020776FE75D
:10252000204600F047F8204600F0C2F8002020774F
:102530006EE7204600F03EF8204600F0B9F8002093
:1025400020776DE7204600F035F8204600F0B0F81F
:10255000002020776CE7000080B586B0002205924D
:10256000CDE9032240F200410068C4F20001884234
:102570000292019201D006B080BD43F63000009275
:10258000C4F20200036843F002030360006800F035
:10259000020000900098102001900220CDE9020274
:1025A000CDE9042001F5003001A9FFF709F906B0D3
:1025B00080BD000070470000B0B5044690F83C00B4
:1025C000012804BF0220B0BD4FEAB2000D46012130
:1025D000032884F83C1036D8DFE800F0020A122203
:1025E0002068294601F006FF206850F8181F0EE009
:1025F0002068294601F030FF206850F8181F16E0C7
:102600002068294601F05EFF206850F81C1F41F049
:1026100008010160016821F00401016029690FE0EF
:102620002068294601F084FF206850F81C1F41F4FF
:1026300000610160016821F480610160296909027B
:10264000026811430160002084F83C00B0BD000026
:10265000002804BF0120704710B5044690F83D00E3
:1026600028B9002084F83C00204600F01FF8022022
:1026700084F83D002068211D01F004FE012084F84B
:10268000460084F83E0084F83F0084F8400084F857
:10269000410084F8420084F8430084F8440084F840
:1026A000450084F83D00002010BD00007047000088
:1026B0007047000010B5044641B1082909D004292B
:1026C00014BF04F1410004F13F0004E004F13E00B6
:1026D00001E004F14000007801281CBF012010BD7A
:1026E000022041B1082909D0042914BF84F841000F
:1026F00084F83F0004E084F83E0001E084F84000E4
:102700002068012201F050FE206840F2004140F4B0
:102710008062C4F201018A4203D1426C42F4004259
:10272000426441F2FF72C4F2000290420DDC40F2BA
:10273000FF71C4F20001884217DCB0F1804F27D04E
:1027400040F20041C4F2000120E040F2FF32C4F246
:102750000102904214DC41F60001C4F200018842FB
:1027600016D00021C4F2010110E040F60001C4F2CD
:10277000000188420CD040F60041C4F2000105E09F
:1027800044F20002C4F20102904201D0884206D114
:10279000816801F00701062904BF002010BD01680F
:1027A00041F001010160002010BD0000B0B50446F9
:1027B000006800220D4601F0F7FD206840F200425B
:1027C00040F48061C4F2010291420DD1016A41F2EC
:1027D0001112114208D1016A40F24442114203D160
:1027E000416C21F400414164016A41F2111211422D
:1027F00008D1016A40F24442114203D1016821F03C
:10280000010101600120082D09D0042D0BD0002DFD
:1028100014BF84F8410084F83E000020B0BD84F865
:1028200040000020B0BD84F83F000020B0BD000093
:1028300080B5006841F20041C4F20001884208BF3F
:10284000FFF79CF880BD000070470000002804BF1F
:102850000120704710B5044690F83D0028B90020CB
:1028600084F83C00204600F021F8242084F83D0044
:102870002068C16821F40051C160204601F0A4FE27
:102880002068016921F490410161416921F02A0128
:102890004161C16841F40051C160002020212064E1
:1028A00084F83D1084F83E1010BD000080B586B05D
:1028B00000220592CDE9032241F200010068C4F232
:1028C000010188420292019201D006B080BD43F618
:1028D00030000092C4F20200436943F010034361E8
:1028E000436903F010030093009B0092036843F0D8
:1028F00001030360006800F00100009000984FF4AD
:10290000C06001900220CDE902020320049007205C
:10291000059001F5704001A9FEF752FF06B080BD99
:102920002DE9F04381B0044690F83D0020280BD1FA
:102930000E4600294FF0010055D01746002A52D00C
:1029400094F83C00012803D1022001B0BDE8F083D7
:10295000012084F83C004FF0000921201D46C4F8F6
:10296000409084F83D00FFF703F8A784E784A1684E
:102970000746B1F5805F07D1206900281CBF3046AB
:102980004E46B046064601E04FF0000884F83C9001
:1029900007E000BF16F8010B21684860E08C0138A1
:1029A000E084E08C80B1204680213A462B4601F03D
:1029B00079FE80B9002EEDD138F8020B21686FF353
:1029C0005F2048600026E9E7204640213A462B4632
:1029D00001F068FE18B1032001B0BDE8F0832020AB
:1029E00084F83D00002001B0BDE8F083FEE7000060
:1029F00010B540F20044C4F2020420464FF40041F6
:102A00000022FEF7AFFF00F03BF920464FF40051E3
:102A10000022FEF7A7FF00F033F920464FF40041F3
:102A20000122FEF79FFF00F02BF920464FF40041F2
:102A30000022FEF797FF00F023F910BD10B540F219
:102A40000044C4F2020420464FF400410022FEF785
:102A500089FF00F015F920464FF400510122FEF7DE
:102A600081FF00F00DF920464FF400410122FEF7EE
:102A700079FF00F005F920464FF400410022FEF7EF
:102A800071FF00F0FDF810BD70B540F20044C4F2D3
:102A9000020420464FF400510122FEF763FF08268E
:102AA000002500BF20464FF400410022013EFEF702
:102AB00059FF00F0E5F820464FF400410122FEF7EF
:102AC00051FF00F0DDF820464FF40051FEF744FFBF
:102AD000002818BF0120310640EA4505E2D1204612
:102AE0004FF400410022FEF73DFFE8B270BD000048
:102AF000F0B581B040F20045C4F202050446284614
:102B00004FF400410022FEF72DFF072600F0B8F831
:102B1000E0B2C20928464FF40051FEF723FF6400DB
:102B200000F0AEF828464FF400410122FEF71AFFEC
:102B300000F0A6F828464FF400410022771EFEF769
:102B400011FF30063E46E1D101B0F0BDB0B540F214
:102B50000044C4F2020420464FF400510122FEF763
:102B600001FF20464FF400410122FEF7FBFE00F07A
:102B700087F820464FF40051FEF7EEFE80B1204664
:102B80004FF4005100220025FEF7ECFE00F078F82B
:102B900020464FF40051FEF7DFFE18B12846B0BDC5
:102BA0000020B0BD20464FF400510022FEF7DAFEAF
:102BB00000F066F801252846B0BD000010B540F2CF
:102BC0000044C4F2020420464FF400410022FEF704
:102BD000C9FE00F055F820464FF400510022FEF7E0
:102BE000C1FE00F04DF820464FF400410122FEF7EF
:102BF000B9FE00F045F820464FF400510122FEF7DF
:102C0000B1FE00F03DF810BDB0B540F20044C4F292
:102C1000020420464FF400410022FEF7A3FE00F01C
:102C20002FF820464FF400510122FEF79BFE00F0E2
:102C300027F820464FF400410122FEF793FE00F0F2
:102C40001FF820464FF40051FEF786FEB0FA80F0E0
:102C5000450920464FF400410022FEF783FE284636
:102C6000B0BD000081B00A200090009830B100BFD4
:102C700000980138009000980028F9D101B0704701
:102C800081B00A200090009830B100BF0098013850
:102C9000009000980028F9D101B07047B0B541F21A
:102CA0000004C4F2020420460221FEF755FEB0FAE9
:102CB00080F0450920460421FEF74EFEB0FA80F070
:102CC000400945EA400520460821FEF745FEB0FAD6
:102CD00080F0400945EA800520461021FEF73CFEC1
:102CE000B0FA80F0400945EAC00520462021FEF7F1
:102CF00033FE0138B0FA80F0400945EA001520465D
:102D00004021FEF729FE0138B0FA80F040F2890C2C
:102D10004009C2F2000C45EA40109CF80020010670
:102D200015D0C4B2944212D140F2880EC2F2000E05
:102D30009EF8001003464D1CE9B2022918BF00237B
:102D400094428EF800500ED0022909D10BE0C1B296
:102D500040F28805C2F20005002391422B7002D098
:102D600000238CF80000D8B2B0BD0000B0B541F22D
:102D70000004C4F2020420460221FEF7EDFDB0FA81
:102D800080F0450920460421FEF7E6FD0028204694
:102D90004FF0080108BF0135FEF7DEFD0028204690
:102DA0004FF0100108BF0135FEF7D6FD40F28B0C45
:102DB000C2F2000C002808BF0135E9B29CF80030CF
:102DC000042914D3994212D140F28A0EC2F2000EA5
:102DD0009EF80020501CC4B2022C2A4618BF0022C4
:102DE00099428EF800000DD0022C08D10AE040F282
:102DF0008A00C2F2000000229942027002D0002232
:102E00008CF80050D0B2B0BD2DE9F04383B040F251
:102E10006006C2F200068E46B6F90210DDF82C906C
:102E2000DDF82880A1EB0E079C46012F06DBACEBFA
:102E30000703012B2FDB07FB089901E0634671466E
:102E4000B6F906700CEB0E05FF432F44012F02DB91
:102E5000DB1B012B1FDBB6F904401518B6F9007017
:102E6000E6432E44002EC8BF921B87420BDD3F1A5B
:102E700027F00706D21B09EBE709304407F00706E5
:102E8000012A03DA07E00026012A04DBCDE90089E4
:102E9000029600F04FF803B0BDE8F08380B582B031
:102EA00040F2600CC2F2000CBCF902308B4219DC1B
:102EB000BCF906308B4215DBBCF90030BCF904E0EC
:102EC0008342C8BF18469645B8BF7246824209DBA6
:102ED0009CF81CC089B280B292B20B46CDF800C0FB
:102EE00000F0FAFC02B080BD80B582B040F2600C08
:102EF000C2F2000CBCF90030834219DCBCF904308A
:102F0000834215DBBCF90230BCF906E08B42C8BF36
:102F100019469645B8BF72468A4209DB9CF81CC028
:102F200080B289B293B20246CDF800C000F0D4FC62
:102F300002B080BD2DE9F04782B0012B15DBDDF832
:102F40003080DDE90AA51C4691460E46074600BFC3
:102F5000384631462A464346CDF80090FDF72CFE10
:102F60005544013C06F10106F2D102B0BDE8F087FC
:102F70002DE9F04381B02DED0A8B8CB00DF11E00D0
:102F80000DF11D0700900DF1260008A903AA0BAB57
:102F9000019701F019FFBDF81E00C00540F1D18076
:102FA0009DED030A9FED844A9DED041A9DED052ACF
:102FB0009DED063AB8EEC00A40F2180820EE040A69
:102FC000C2F2000888ED000AB8EEC11A40F62C39AA
:102FD00021EE041AC2F2000989ED001AB8EEC22AE5
:102FE00040F6303622EE042AC2F2000686ED002AB0
:102FF000B8EEC33A23EE043A31EE011A30EE000A7D
:1030000021EE031A20EE020A40F6343730EE410A70
:10301000C2F2000710EE100A87ED003AFDF7EBFA56
:1030200041EC100B05F0B4FC51EC100B9FED600B64
:1030300054EC105B2A462346FDF7FCF9FDF7EEFA47
:1030400040F2C441C2F20001086096ED009A98ED8A
:10305000001A97ED000A99ED00BA39EE09AA31EE8F
:10306000011A2AEE000A21EE0B1A30EE010A10EEC8
:10307000100AFDF7C0FAB8EE000A2BEE000A2BEE9C
:10308000000A29EE0A1A30EE410AB7EE001A30EEB5
:10309000010A41EC180B10EE100AFDF7ACFA41ECF6
:1030A000110BB0EE480AF0EE680A05F08DFF51EC06
:1030B000100B2A462346FDF7BDF9FDF7AFFA40F2A3
:1030C000C841C2F20001086099ED009A96ED00AA8D
:1030D00098ED00BA97ED00CA29EE0A0A2BEE0C1AF9
:1030E00030EE010A30EE000A10EE100AFDF783FA06
:1030F0002BEE0B0A29EE091A31EE000A2AEE0A1A03
:1031000030EE410A2CEE0C1A30EE410A41EC180B5D
:1031100010EE100AFDF76FFA41EC110BB0EE480A01
:10312000F0EE680A05F050FF51EC100B2A462346DA
:10313000FDF780F9FDF772FA40F2CC41C2F20001CE
:103140000860BDF81E0010F0700F14D0BDF82610F6
:1031500040F2D442C2F200021180BDF8281040F2C1
:10316000D642C2F200021180BDF82A1040F2D842C5
:10317000C2F200021180000714D5BDF8200040F211
:10318000A441C2F200010880BDF8220040F2A6412D
:10319000C2F200010880BDF8240040F2A841C2F24A
:1031A000000108800CB0BDEC0A8B01B0BDE8F083D3
:1031B0006666666666A64C400000803010B502F078
:1031C0000DFE00281CBF002010BD43A006F034FDFA
:1031D000782003F095FB10B1002448A077E041F27D
:1031E0006400C0F6010006F027FD782002F022FD01
:1031F00010B100244BA06AE041F24100C0F601008A
:1032000006F01AFD322003F035FB28B141F28300AD
:103210000024C0F601005AE040F6B570C0F6010087
:1032200006F00AFD01F0C2FD28B141F2A40000241D
:10323000C0F601004BE040F66270C0F6010006F0F7
:10324000FBFC02F0B1FC01F07FFF28B141F25F10FE
:103250000024C0F601003AE041F21D00C0F6010072
:1032600006F0EAFC40F2731001F06EFC28B141F266
:10327000DD000024C0F6010029E040F69270C0F69F
:10328000010006F0D9FC322001F0CEFE28B141F257
:1032900009100024C0F6010019E040F6D970C0F60C
:1032A000010006F0C9FC04F0C7F9012003F0F0F9B1
:1032B0000146B0FA80F0440941F2341040F6FB7246
:1032C000C0F60100C0F60102002908BF104606F052
:1032D000B3FC204610BD00BF6D707520696E697427
:1032E00069616C697A6174696F6E20636F6D706C6F
:1032F0006574652E2E2E2E2E2E0000006D70755FCB
:103300007365745F73656E736F7220636F6D652094
:103310006163726F7373206572726F72202E2E2E2E
:103320002E2E2E006D70755F636F6E666967757205
:10333000655F6669666F20636F6D65206163726F9C
:103340007373206572726F72202E2E2E2E2E2E0019
:1033500080B544F205004BF69C52C0F60000C0F662
:103360000002002103F0A4FB40F29001C2F2000130
:10337000086043F6A9604BF67852C0F60000C0F62C
:103380000002002103F094FB40F28C01C2F2000124
:10339000086044F299104BF6C052C0F60000C0F627
:1033A0000002002103F084FB40F29841C2F20001C8
:1033B000086043F6656049F61062C0F60000C0F68A
:1033C0000002002103F074FB40F25C01C2F2000134
:1033D000086043F6D14049F6EC52C0F60000C0F652
:1033E0000002002103F064FB40F25801C2F2000128
:1033F000086080BD2DE9F04F87B0002543F630000E
:103400000695CDE90455CDE902550195C4F20200B7
:10341000016841F2000741F0100101600168C4F247
:10342000020701F010010191019901950168012243
:1034300041F08001016001684FF0010A01F0800154
:10344000019101990195016841F002010160016853
:1034500001F00201019101990195016841F0040117
:103460000160016801F00401019101990195016871
:1034700041F00101016000684FF47F4100F001005C
:10348000019001983846FEF76DFAA7F54066304680
:103490004AF2C0410022FEF765FAA7F500694846E6
:1034A0004FF4706100224FF4706BFEF75BFAA7F5E2
:1034B000805840464FF419410022FEF753FA38462F
:1034C00001210022FEF74EFA1E2002A902AC81E87B
:1034D000210438462146FEF773F96020CDE9020544
:1034E0000220049038462146FEF76AF94FF6017033
:1034F000CDE9020A38462146CDE90455FEF760F9C8
:103500004FF48060CDE9020A30462146CDE90455EA
:10351000FEF756F94AF2C00002901120CDE90305EA
:10352000304621460595FEF74BF948462146CDE940
:1035300002BACDE90455FEF743F94FF41940CDE93D
:10354000020A40462146CDE90455FEF739F907B095
:10355000BDE8F08F10B58EB040F2DC4040F2004282
:103560000021C2F20000C4F20002532340F2E7340B
:103570000D91CDE90B11CDE90911CDE90711CDE987
:103580000511CDE90311CDE90111C0E90023C0E91E
:10359000021401618161FEF7D1FD002818BFFDF71B
:1035A000DFFE4FF480500A9040F2DC40C2F200008F
:1035B0000AA9FEF7B1FE002818BFFDF7D1FE40F2C0
:1035C000DC40C2F20000FFF743F8002818BFFDF707
:1035D000C7FE40F2DC400024C2F2000008A9CDE999
:1035E0000844FEF74FFD002818BFFDF7B9FE602024
:1035F00001904FF4FA70CDE9020440F2DC40C2F2CF
:10360000000001A900220594FEF7D6FF002818BF8C
:10361000FDF7A6FE40F2DC40C2F20000FEF79CFF80
:103620000EB010BD80B540F26C5041F20001C2F204
:103630000000C4F2010100234FF00C0C4FF4E13202
:1036400080E80E00C0E90333C0E905C3C361FFF79A
:10365000FDF8002818BFFDF783FE80BDFEE70000DF
:10366000FEE7000000F0070080F00703042B28BFEE
:1036700004234FF0FF3C03380CFA03F338BF00205B
:10368000994381400CFA00F022EA00000843704799
:1036900010B540F20044C4F2020420468021012209
:1036A000FEF760F9FFF7DEFA204640210122FEF71F
:1036B00059F9FFF7D7FA204640210022FEF752F9C8
:1036C00010BD000070B540F20045C4F2020504468A
:1036D0002846402100220026FEF744F9E0B2C20944
:1036E00028468021FEF73EF96400FFF7BBFA284622
:1036F00040210122FEF736F9FFF7B4FA28464021AF
:103700000022FEF72FF9FFF7ADFA072E06F10106AA
:10371000E4D370BD10B540F20044C4F20204204668
:1037200080210122FEF71EF9204640210122FEF7EA
:1037300019F9FFF797FA204680210022FEF712F9C7
:10374000FFF790FA204640210022FEF70BF910BD4A
:1037500010B540F20044C4F2020420464021002289
:10376000FEF700F9204680210022FEF7FBF8FFF764
:1037700079FA204640210122FEF7F4F82046802104
:103780000122FEF7EFF8FFF76DFA10BD0000000010
:10379000EFF30980BFF36F8F154B1A681EF0100FFF
:1037A00008BF20ED108A20E9F04F10602DE90900D4
:1037B0004FF0500080F31188BFF34F8FBFF36F8F2E
:1037C00004F020FA4FF0000080F31188BDE80900F2
:1037D00019680868B0E8F04F1EF0100F08BFB0EC91
:1037E000108A80F30988BFF36F8F704700BF00BF56
:1037F000B406002070B541F20004C4F20204204671
:1038000001210122FEF7AEF8322001F065F92046D1
:10381000012100220025FEF7A5F84FF4FA7001F00F
:103820005BF9204601210122FEF79CF8282001F0D7
:1038300053F920460121FEF78FF8A8B1002000BF00
:103840000646012001F048F920460121FEF784F8E0
:10385000B6F5F97F03D8002806F10100F0D1002564
:10386000B6F5F97F88BF01254FF4FA7001F034F9FD
:10387000204601210122FEF775F8284670BD0000A0
:103880002DE9F04381B07F2823D889463F2920D8ED
:1038900004461044DDF820807F2888BFC4F18002F0
:1038A00003EB090011193F2888BFC9F1400300202C
:1038B0008EB29FB2002500BF484481B220463246F6
:1038C0000B46CDF8008000F007F80135E8B28742DA
:1038D000F2D201B0BDE8F0832DE9F04F85B0054686
:1038E0007F280C464FF07F0128BF0D467F2A38BF46
:1038F00011463F2C4FF03F0A28BF54463F2B38BF9C
:103900009A46681A38BF481BB4EB0A0338BFAAEBC3
:1039100004034FF0FF328D424FF0FF360E9F38BF49
:1039200001260396544538BF0122049202043DD07B
:1039300006B20FFA83FB5E45CBF100000296D8BFBA
:1039400006B2BBF1000F46D00191284621463A4607
:1039500000F058F80E9A544502D1019885424DD096
:1039600006EBD6704FEA60090298C0F1000800BF6C
:103970000FFA89F003994045C8BF0D440499584592
:10398000B8BF0C440299AFB2A6B2B8BF8944404553
:1039900038463146C8BFA9EB0B0900F033F80E9A40
:1039A0005645E5D101988742E2D127E0A245564627
:1039B00038BF2646A94238BF0D46A24538BF5446F7
:1039C000A1B228463A4600F01DF801340E9F20B2FD
:1039D000B042F5DD12E0A2450E4638BF5446A9427A
:1039E0003CBF2E460D4600BFA8B221463A4600F025
:1039F00009F801350E9F28B2B042F5DD05B0BDE8EB
:103A0000F08F00007F2898BF3F2900D9704740F20F
:103A10009403C2F200031B78B2FA82FC002B6FF011
:103A2000700318BF4FEA5C1201F0070C03EA0111A2
:103A3000084440F29801C2F200010123012A0A5C05
:103A400003FA0CF302BF1A430A5470479A430A540C
:103A50007047000080B50246002840F29800C2F28C
:103A600000004FF4806118BFFF22FCF71DFC80BDF1
:103A7000B0B540F298040025C2F20004A5F1500050
:103A8000C0B2002100F014F80120002100F010F86D
:103A90001020002100F00CF820468021402200F088
:103AA0001FF80135082D04F18004E7D1B0BD0000F6
:103AB000B0B50C460546FFF72DFE7820FFF702FE55
:103AC000FFF7E6FD2046FFF7FDFDFFF7E1FD284685
:103AD000FFF7F8FDFFF7DCFDFFF73AFEB0BD000091
:103AE00070B516460C460546FFF714FE7820FFF722
:103AF000E9FDFFF7CDFD3046FFF7E4FDFFF7C8FD18
:103B000044B1013D15F8010FFFF7DCFDFFF7C0FDE3
:103B1000013CF7D1FFF71CFE70BD000080B56420AA
:103B2000FDF73AFEAE200021FFF7C2FF2020002162
:103B3000FFF7BEFF10200021FFF7BAFFB0200021E1
:103B4000FFF7B6FFC8200021FFF7B2FF00200021D9
:103B5000FFF7AEFF10200021FFF7AAFF4020002151
:103B6000FFF7A6FF81200021FFF7A2FFFF20002121
:103B7000FFF79EFFA0200021FFF79AFFC020002141
:103B8000FFF796FFA6200021FFF792FFA820002153
:103B9000FFF78EFF3F200021FFF78AFFA4200021BE
:103BA000FFF786FFD3200021FFF782FF00200021CE
:103BB000FFF77EFFD5200021FFF77AFFF0200021DC
:103BC000FFF776FFD9200021FFF772FF22200021A6
:103BD000FFF76EFFDA200021FFF76AFF12200021B5
:103BE000FFF766FFDB200021FFF762FF20200021A6
:103BF000FFF75EFF8D200021FFF75AFF1420002100
:103C0000FFF756FFAF200021FFF752FF0020FFF71C
:103C100021FFFFF72DFF80BD000000000000000025
:103C2000074B19680868B0E8F04F80F30988BFF3C4
:103C30006F8F4FF0000080F31188704700BF00BF06
:103C4000B406002080B500F0B9FE80BD70B541F229
:103C500000040126C4F20204054626EA00022046BA
:103C60004FF48071FDF77EFE26EA550220464FF4A0
:103C70000071FDF777FE26EA950220464FF4806139
:103C8000FDF770FE26EAD50220464FF40061FDF7ED
:103C900069FE26EA151220464FF48051FDF762FEB8
:103CA00026EA551220464FF40051FDF75BFE26EA46
:103CB000951220464FF48041FDF754FEE843C0B210
:103CC000C20920464FF40041FDF74CFE70BD0000D4
:103CD00084B04FF47A7002F0A3FE01F01BFCFFF7F2
:103CE0006DFAC7B2002F18BF012711D1002400BF01
:103CF0004FF4FA7002F094FEFFF760FAC7B2002F9B
:103D000018BF0127012C03D8000604F10104EFD0ED
:103D10009FED478A40F2D44B40F2D64840F2D84952
:103D20000024B3EE0E9A4FF0000A0026C2F2000BF8
:103D3000C2F20008C2F20009039704E00026039FC4
:103D4000012002F06DFE02F07BFE04F57A718842DC
:103D500024D302F075FE044601F0ECFBB4EE480AF1
:103D6000F1EE10FA1ADA40F63835C2F2000585EDA8
:103D7000000A2868FCF73FFC02462EA00B4604F020
:103D8000CBFD95ED000AB4EE490AF1EE10FA05DB21
:103D900040F63C310120C2F200010870002FCFD064
:103DA00002F04EFE0AF132018842C9D302F048FE09
:103DB0008246FFF7DDF840F2A440C2F20000B0F9FD
:103DC000001040F2A640C2F20000B0F9002040F21C
:103DD000A840C2F20000B0F90030BBF90000B8F909
:103DE0000070B9F90050CDE9000715A0029504F064
:103DF00093FDBBF90000BBF90010B8F90020B8F939
:103E000000305A43B9F90030B9F9007011FB0020B5
:103E100017FB0300B0F5FA5F90DD072E06F10106EF
:103E20008DDB40F2BC50C2F200000121017086E738
:103E30000000FA4274656D703A252E31660D0A0055
:103E40006178797A3A2536642025366420253664EF
:103E50002C6778797A3A2536642025366420253611
:103E6000640D0A00FDF740FC40F2D044C2F20004A9
:103E700003E000BF642002F0D3FD20680428F9D8D5
:103E8000DFE800F006090C0F0300FDF7A3F9F1E7E6
:103E9000FDF7E4F9EEE7FCF723FFEBE7FDF712F996
:103EA000E8E7FDF753F9E5E740F2B45640F2D047B2
:103EB00040F2B85A40F63C3948F2447BC2F2000660
:103EC000C2F2000700240FF23418C2F2000AC2F254
:103ED0000009C2F2000B03E0202D08BF3C6057E050
:103EE0003078F8B1FEF742FFC8B1DAF8005002F0BE
:103EF000A7FD95B1DAF8001001F6B83188420ED36B
:103F000040F2BC50C2F20000047089F80040CBF8C7
:103F100000403470CAF8004001E0CAF800000120F7
:103F200002F07EFD30780028DAD1FEF7B7FE0546B4
:103F300018B14046294604F0EFFC38680428CBD875
:103F4000DFE800F0030D31384100102D20D10120B1
:103F5000386040F2B050C2F20000046018E0681E01
:103F600040F2BD521F28C2F2000211D8DFE800F073
:103F70003914103C101010281010101010101010D0
:103F8000101010101010101010101010101010340D
:103F9000012002F045FDA3E7107800280CBF0220A5
:103FA00001381070F4E7202D16D0082D11D0012D06
:103FB000EED113E0202D0FD0082D12D0012DE7D126
:103FC00002203860E4E7202D06D0082D06D0012D10
:103FD000DED103203860DBE73C60D9E701203860A0
:103FE000D6E704203860D3E71078012802D80130E2
:103FF0001070CDE7022808BF1470C9E72530325889
:104000000A00000082B040F2D04A40F63C3740F24D
:10401000BC5848F2447B0020C2F2000AC2F20007FA
:10402000C2F2000801AEC2F2000B47F23059019013
:104030000CE000BF4FF02030019030460221FCF729
:10404000A7FDFCF7BBFC012002F0EAFCDAF8000057
:1040500020B10020FFF7FAFD02E000BF00F056FBA0
:10406000387898F800100843E4D0DBF8005002F0EC
:10407000E7FC002D00F08080DBF8001001EB090563
:10408000A8427CD240F2B4510120C2F20001B146F4
:10409000087002F0D5FC41F25971281ACDF2B7111F
:1040A000A0FB0112510B44F6D3524CF6CD46C1F29F
:1040B0006202CCF6CC46A0FB0223A1FB062C9A0997
:1040C00048F21F53C5F2EB13A0FB0334A2FB063EDC
:1040D0006309A0FB06043D46A3FB0607E008A0FB1E
:1040E00006464FEADC0404EB8404A1EB44018DF89E
:1040F00004104FEADE0101EB8101A2EB41018DF8D2
:104100000510F9082F4601EB8101A3EB4105F108E9
:104110003A7801EB8101A0EB4100012A8DF80650AD
:104120008DF807000FD145F3030000280BD405F0EC
:104130000F00012101FA00F010F0920F03D064206B
:104140002946FCF70FFC98F800004E46012847F27C
:1041500030597FF472AF05F00F0005283FF66DAFC0
:10416000012101FA00F010F0260F3FF466AF96200F
:104170002946FCF7F7FB60E7CBF800005DE740F26B
:10418000B4510020C2F2000188F800003870CBF86A
:104190000000087051E70000012002F041FCFBE73D
:1041A00080B54EF21000CEF20000006804F056F91F
:1041B000012818BF03F000FE80BD000070B592B06A
:1041C00006AC20463021FCF776F8002543F6400087
:1041D0000595CDE90355CDE901550095C4F20200DE
:1041E0000168022641F080510160006800F08050B3
:1041F0000090009847F200000095C4F200000168AA
:1042000041F4804101600068A82100F480400090E2
:104210000098012006904FF4803007904FF4800002
:104220000D9004200C960E90CDE90F1611902046AB
:10423000FDF782FD88B90F20CDE901064FF4A050AB
:1042400004904FF48050059001A805210395FDF7D7
:1042500043FC002804BF12B070BDFDF781F80000D8
:104260004EF68850CEF20000016841F47001016002
:104270007047000080B540F22450C2F20000FEF703
:10428000B5F880BD10B540F6FF3E0368C4F2000EDD
:1042900040F2004C7045C4F2010C0FDCB0F1804FCD
:1042A00019D040F20042C4F20002904213D040F60E
:1042B0000002C4F2000290420DD010E040F600422D
:1042C000C4F20002904206D0604504D00022C4F23D
:1042D0000102904203D14A6823F07003134341F670
:1042E000FF72C4F2000290420DDC70451FDCB0F199
:1042F000804F41D040F20042C4F2000290423BD0D5
:1043000040F6000221E043F6FF72C4F2010290423F
:1043100020DC42F20002C4F2000290422CD00022C3
:10432000C4F20102904227D0604525D028E040F633
:104330000042C4F2000290421ED041F60002C4F2D4
:104340000002904218D041F60042C4F200029042AE
:1043500012D015E044F20002C4F2010290420BD0E8
:1043600044F60002C4F20102904205D044F2004239
:10437000C4F20102904203D1CA6823F4407313438C
:1043800023F080024B69D1F800E08C681A43026088
:10439000C46240F48062C0F828E0624504BF096945
:1043A00001630121416110BD80B501F01F014FF093
:1043B000010CD0F820E00CFA01F32EEA03030362AB
:1043C000036A02FA01F11943016280BDD0F808C006
:1043D00011432CF47F4C41EA032141EA0C01816036
:1043E00070470000826822F07002114341F007011B
:1043F00081607047B0B5026A22F001020262026A6F
:10440000D0F804E083690C6823F073038D6843EAF5
:10441000040C40F2004422F0020240F48063C4F233
:104420000104A34242EA050205D1CD6822F00C0244
:1044300025F004052A43A34206D1D1E905542EF400
:1044400040732B4343EA040EC0F804E0C0F818C0E0
:10445000496841630262B0BD70B5026A22F0100281
:104460000262026AD0F804E083690C6823F4E64330
:104470008D6843EA042C40F2004422F0200240F40C
:104480008063C4F20104A34242EA051207D1CD6859
:104490006FF0400622F0C00206EA05152A43A34247
:1044A00007D1D1E905652EF4406343EA860343EA68
:1044B000850EC0F804E0C0F818C049688163026244
:1044C00070BD000070B5026A22F480720262026A56
:1044D000D0F804E0C3690C6823F073038D6843EAE5
:1044E000040C40F2004422F4007240F48063C4F2F1
:1044F0000104A34242EA052207D1CD6840F2FF46FB
:104500002D0222F44062B5432A43A34207D1D1E9E8
:1045100005652EF4405343EA061343EA051EC0F82E
:1045200004E0C0F81CC04968C163026270BD0000AD
:1045300010B5026A40F2004422F480520262D0F8C0
:1045400020C04268C369C4F2010423F4E64E40F47B
:104550008063A3420B688C684EEA032E2CF4005350
:1045600043EA043C04D14B6922F4804242EA8312BC
:104570004260C0F81CE049680164C0F820C010BD6A
:10458000D0F820C0036A23F001030362836923F09B
:10459000F00343EA02122CF00A031943826101621C
:1045A00070470000036A23F0100303628369D0F8A8
:1045B00020C023F4704343EA02322CF0A00343EA04
:1045C000011182610162704710B504460068D4E9A8
:1045D00002C22369016921F44051114301616269FA
:1045E00043EA0C01E3691143C268194349F20C63C1
:1045F0009A431143C1604169A26921F4407141F2BB
:104600000043114340F48062C4F201039A424161C5
:1046100002D1FDF749FB01E0FDF734FBE169636876
:104620001922B1F5004FA0FB02011CD15A00DB0F8B
:10463000FBF7C6FD48F21F51C5F2EB11A0FB0123A9
:104640005A096FF0630302FB0300322303EBC0003F
:10465000A0FB01014FF4F87000EA111000EB02100A
:10466000C1F342111AE09A009B0FFBF7A9FD48F233
:104670001F51C5F2EB11A0FB01235A096FF0630330
:1046800002FB0300322303EB0010A0FB0101F0202A
:1046900000EA511000EB0210C1F3431122680843F5
:1046A000906010BD2DE9F0410446006800680840A4
:1046B000884202D10020BDE8F0811D460E4690469A
:1046C0005F1C04E0206800683040B042F2D0002F48
:1046D000F8D02DB1FDF74CF9A0EB0800A842F1D9B4
:1046E0002068C16821F4D071C160416921F00101E5
:1046F0004161202084F83D0084F83E00002084F8C9
:104700003C000320BDE8F081FEE70000B0B540F2B8
:10471000B054C2F20004256802F092F98DB121680C
:1047200001F5FA5188420DD30020206040F2D040BC
:10473000C2F200000121016064200321FCF712F99C
:1047400000E0206040F29C44C2F200042078FFF7B1
:104750007DFA02F075F940F2A045C2F20005296821
:1047600001F5FA71884238BFB0BD2078C04320708F
:1047700002F066F92860B0BD2DE9F04381B0002455
:10478000C4F20204164689468046002A20464FF4A9
:1047900080514FF0000218BF01260025FDF7E2F816
:1047A00009F00F0025A1085CB9F10F0F40EAC61708
:1047B00004F5006688BF002720464FF40061002200
:1047C000FDF7D0F8F8B2C20930464FF48071FDF71A
:1047D000C9F820464FF4006101227F00FDF7C2F8BE
:1047E000072D05F10105E7D320464FF48071002223
:1047F000FDF7B8F820464FF480710122FDF7B2F8BA
:1048000008F0010220464FF40041FDF7ABF8C8F371
:10481000400230464FF48061FDF7A4F830464FF473
:1048200000610022FDF79EF820464FF480510122DE
:10483000FDF798F801B0BDE8F08300BF3F065B4F7D
:10484000666D7D077F6F777C395E797180B500F08A
:1048500001F880BDB0B50129B8BFB0BD0C46054612
:1048600007E000BF013CD0B2FCF780FD002C2846D9
:104870000BDD15F9012BB2F1FF3FF3DC4178851C0C
:10488000D0B2023CFCF7B4F8EEE7B0BDF0B581B0B1
:104890001C4615460E460746FEF700FB38462146E5
:1048A0002A46FEF7FBFA0136013C384631462246DD
:1048B000FEF71AFB284631462246FEF715FB01B0EB
:1048C000F0BD0000F0B581B000B30D4600294FF0F7
:1048D00000041CD406460078C8B1002441B2B1F1EE
:1048E000FF3F03DD0136013DC0B206E07178C0B282
:1048F000B71C023DFCF77CF83E46FCF7C1FE002DDC
:10490000044404D430780028E8D100E00024204694
:1049100001B0F0BD844601294FF0000017DB9CF880
:104920000030A3B1002009E001300CF1020C01308D
:104930008842A8BF70479CF8003043B15AB2B2F128
:10494000FF3FF1DD0A2B02D00CF1010CEFE77047BD
:1049500040F26001C2F200018882704740F26001BB
:10496000C2F20001C8827047002848BF704700F0BB
:104970001F01012202FA01F14EF200124009CEF2AB
:10498000000242F8201070474EF60C50CEF20000A4
:104990000068C0F3022070474EF6145300F00F0277
:1049A000CEF2000309011A4400F16043B0F1FF3F69
:1049B000C8BF03F564421170704700004EF61F50E7
:1049C000CEF2000000210170704700004EF60C513D
:1049D000CEF200010A684FF6FF031A4060F30A2284
:1049E00042F0806040F0FD700860704770B584B0A0
:1049F00001AE054630460C4600F0CAFD9FED220A86
:104A00009FED242A9FED213A9FED214A0021BFEE20
:104A1000001A4FF0010C002008E000BF0CFA01F270
:104A200010430131032906F104062AD055F821303C
:104A300054F821209B1A48BF5B4205EE103AB8EEAD
:104A4000C55A96ED006A25EE005AB5EE406AF1EEC1
:104A500010FA0BD085EE065A35EE015AB0EEC55A63
:104A6000B4EE425AF1EE10FADBDDD7E7B4EE435A6A
:104A7000F1EE10FAD2DBB4EE445AF1EE10FAD0DDCA
:104A8000CCE704B070BD00BF000080379A99993E12
:104A90003333733F295C0F3EB0B504464078E57868
:104AA000C0070BD040F2B040C2F2000002682AB149
:104AB00005F00700411CC5F3C2009047607800076D
:104AC00009D540F2B440C2F200000168002908BFD5
:104AD000B0BDA8098847B0BD82B040F20801C2F25B
:104AE000000109684DF68362C4F21B32A1FB021279
:104AF000920C41F204015043CEF20001019008688B
:104B0000009000BF0868009A019B801A9842F9D370
:104B100002B0704780B5FCF73FFE80BD80B582B023
:104B200000280EBF4FF0A33042F62000C3F630003D
:104B3000019001AA40F69E20042101F03FFF01F000
:104B4000ADFB02B080BD00002DE9F04184B0044609
:104B50004CF60220C0F6E3100DF10605CDF8060074
:104B6000682004212A4601F029FFA3206FF05C028F
:104B70006FF05C038DF8060014F0400618BF6FF06C
:104B80003F0218BF6FF037036FF05C076FF05C01F6
:104B900018BF6FF03D078DF807208DF808306FF0D3
:104BA0005C026FF05C038DF8097014F4C07718BFD5
:104BB0006FF03B021CBF6FF033036FF039018DF8CB
:104BC0000C104AF2A3318DF80A20ADF80D108DF8C3
:104BD0000F0040F6A7200A212A468DF80B3001F07D
:104BE000EDFE6FF0270014F0030818BF20208DF8A9
:104BF000060040F6B62001212A4601F0DFFEC4F38C
:104C0000401000F097F82FB36FF04D016FF0740271
:104C100014F4807008BF6FF04F0108BF6FF07F027F
:104C20006FF049036FF0640508BF6FF04B03002875
:104C300008BF6FF06F058DF806108DF807200DF195
:104C4000060240F6A22004218DF808308DF80950A4
:104C500001F0B4FEE0070AD1D8208DF806000DF16E
:104C600006024FF40B60012101F0A8FE27E0F820B6
:104C70008DF806000DF106024FF40B60012101F0E2
:104C80009DFE0720FA2100F05DFB072000F026FBC7
:104C9000012000F043FB642000F010FC4FF4FA7098
:104CA00000F022FC4EF20930C0F2CA20C82100F008
:104CB000D3FA282000F0E6FA0A2000F0F9FAA0075B
:104CC0006FF0260058BF6FF027008DF806000DF139
:104CD000060240F23D70012101F070FEC4F3800035
:104CE00000F04EF8C4F30010FFF718FF40F2BC418B
:104CF00044F00800C2F20001088001F0CFFA002E53
:104D000018BF0626002F40F2C24018BF0636C2F276
:104D1000000014F0140F067002D0017810310170F9
:104D2000B8F1000F02D0017804310170002004B006
:104D3000BDE8F08180B584B060B15D208DF80C00D5
:104D400049F6B400C3F20D5002904AF6B820C8F6F6
:104D5000B3500BE0C7208DF80C0048F6B000CCF241
:104D6000C35002904AF6B820CAF6AA20019001AAC0
:104D70004FF49760092101F021FE04B080BD0000CE
:104D800080B582B000280EBF4FF08B304CF2C020AF
:104D9000CCF2C460019001AA40F69820042101F0F1
:104DA0000DFE01F07BFA02B080BD000080B540F23C
:104DB000DC21C0F6010140F6F6304FF48062C823D2
:104DC00001F01CF980BD00002DE9F04788B01746BE
:104DD000DDE910820E460021A8F8001040F2C24121
:104DE000C2F200010978E94682460846494601F0C8
:104DF000CFF920B14FF0FF3008B0BDE8F08740F2A6
:104E0000BC40C2F20000B0F800C01CF0140F4ED03D
:104E10009DF801209DF800109DF8023012049DF8C5
:104E2000034042EA016141EA032222443A609DF8CC
:104E300005209DF80430120442EA03629DF8063012
:104E40009DF8074042EA032323447B609DF8093024
:104E50009DF808401B0443EA04639DF80A409DF84E
:104E60000B5043EA04242544BD609DF80D509DF885
:104E70000C4011FB31F12D0412FB321145EA04659F
:104E80009DF80E4013FB33119DF80F0015FB3511F3
:104E900045EA042401F171412044B1F1007FF8603A
:104EA0000AD901F0FBF90020A8F80000A2E70021D0
:104EB0005FEA4C600AD430E0B8F80000102140F4FA
:104EC0008070A8F800005FEA4C6026D541F001022E
:104ED00019F8010019F8022041F0030342EA00200A
:104EE00041F0020219F8022019F80330308043EA39
:104EF000022041F0040241F0050319F8022019F8DC
:104F00000330708043EA0220B080B8F8000041F01E
:104F1000060140F00800A8F800001CF4C07F18D07B
:104F200039F8010009EB010200BA5388000CAAF815
:104F3000000018BA9288000CAAF8020010BA000CFF
:104F4000AAF80400B8F80000063140F07000A8F894
:104F500000005FEA8C7003D009EB0100FFF79CFDB5
:104F6000002008B0BDE8F087B0B584B004460DF16C
:104F7000020000F0A7FE40F2B841C2F20001098829
:104F8000BDF802004B0701F003024FF00C0354F888
:104F9000222003EA51034FEAC03C48BF5242E35883
:104FA000880648BF5B42C1F3811054F82000C90550
:104FB00048BF40428CFB00018CFB02E2800F8CFB5F
:104FC000035440EA810C900D8DF80400900B8DF88D
:104FD000050090098DF80600A00D8DF80800A00BC3
:104FE0008DF80900A0098DF80A00880D8DF80C00D5
:104FF000880B4FEA9E73AD0F8DF80D00880943EAC8
:10500000820345EA84058DF80E0001AA4FF425704D
:105010000C218DF807308DF80B508DF80FC001F082
:10502000CDFC04B0B0BD000010B586B004464AF611
:10503000BB70CDF6DF7005904FF2AA10CDF6DF7091
:1050400004904FF2FE20CCF2AB40C82C039015D850
:10505000C820B0FBF4F001AA013800BA000CADF88A
:10506000040040F21620022101F0A8FC30B903AA86
:1050700040F6C1200C2101F0A1FC18B14FF0FF3027
:1050800006B010BD40F2C040C2F200000480002013
:1050900006B010BD70B582B040F2B841C2F2000156
:1050A00009880C2601F0030250F822204EF2093440
:1050B00006EA51064B0748BF5242C0F2CA2486593D
:1050C000C1F3811582FB042350F82550880648BFA0
:1050D0007642C8054FEA935148BF6D42900F8DF854
:1050E0000410990B40EA83008DF8051099098DF89A
:1050F00006108DF8070001AA4FF47470042101F026
:105100005DFC68B986FB0401800F40EA810000BAAB
:10511000019001AA4FF47570042101F04FFC18B101
:105120004FF0FF3002B070BD85FB0401800F40EAF4
:10513000810000BA019001AA4FF47670042101F0B9
:105140003DFC02B070BD0000B0B582B049F6C3515D
:10515000054600F00300C0F600010A5C49F6C054A1
:105160008DF80420C5F3C1028B5CC0F600048DF8F5
:105170000530C5F38113C95C205C8DF806108DF8ED
:105180000000A05CE15C8DF801008DF8021001AA1E
:1051900040F22640032101F011FCA0BB6A4640F218
:1051A0002A40032101F00AFC68BB76208DF8060036
:1051B00045F23660ADF8040044F22660ADF8000018
:1051C000662069078DF8020021D4A8062DD4E805D1
:1051D0000BD59DF806009DF8021040F001008DF8F7
:1051E000060041F001008DF8020001AA4FF488602A
:1051F000032101F0E3FB30B96A4640F2314003215C
:1052000001F0DCFB00B34FF0FF3002B0B0BD9DF801
:1052100004009DF8001040F001008DF8040041F0FA
:1052200001008DF80000A806D1D59DF805009DF875
:10523000011040F001008DF8050041F001008DF8EB
:105240000100E805C5D4D0E740F2B840C2F2000042
:105250000580002002B0B0BD80B582B044F6D352C4
:10526000C1F2620250FB02F0821102EBD07048439F
:1052700000BA019001AA4FF4AE70042101F09EFB28
:1052800002B080BD80B582B04CF6CD41CCF6CC41A9
:10529000A0FB0101880840BAADF806000DF1060236
:1052A0004FF4AD70022101F089FB02B080BD000017
:1052B00080B582B04CF6CD41CCF6CC41A0FB0101CB
:1052C000880840BAADF806000DF106024FF4AC7044
:1052D000022101F073FB02B080BD000080B582B0F6
:1052E00000F001025242410802F0300261F38202F2
:1052F00061F3C30240078DF8072005D59DF807002C
:1053000040F003008DF807000DF107024FF4A47080
:10531000012101F053FB02B080BD000080B582B0D6
:105320000428014628BF0421002818BF481E8DF814
:1053300007000DF1070240F24F10012101F03EFB82
:1053400002B080BDB0B52DED028B82B00446B1F540
:10535000C86F4FF0FF301DD814F007021AD000EECE
:10536000101A0DF10300B8EE408A00F08FFC9DF892
:105370000300811E4FEA7100072809D84908C9B205
:105380008B2222FA01F1C90708D14FF0FF3001E06A
:105390004FF0FF3002B0BDEC028BB0BD9FED360A7E
:1053A00036A188EE000A01EB800191ED001A3BA1C5
:1053B00001EB800090ED002A20EE011A20EE020A97
:1053C000BDEEC00A10EE100ABDEEC10A10EE101AB2
:1053D0000A0A8DF804208DF80510010A01AA951C0F
:1053E0008DF80610E1078DF8070005D1A0070DD450
:1053F000600720D40020CDE701AA4FF4EA70022113
:1054000001F0DCFA60B14FF0FF30C3E701AA4FF4BE
:10541000EC70022101F0D2FAB8B14FF0FF30B9E7D9
:105420004FF4927002212A4601F0C8FA0028DDD01C
:105430004FF0FF30AEE701AA4FF4EE70022101F009
:10544000BDFA68B14FF0FF30A4E74FF49470022129
:105450002A4601F0B3FA0028CAD04FF0FF3099E78E
:105460004FF4967002212A4601F0A8FA0028C1D014
:105470004FF0FF308EE700BF000048430000804639
:105480000000004600008046000080450000804685
:1054900000008046000080460000004500004046B5
:1054A0000000C04500004046000040450000404666
:1054B00000004046000040460000C04480B582B075
:1054C0004CF6CD41CCF6CC41A0FB0101880840BA96
:1054D000ADF806000DF106024FF4EF70022101F065
:1054E0006DFA02B080BD000080B582B04CF6CD41AF
:1054F000CCF6CC41A0FB0101880840BAADF806000B
:105500000DF106024FF4ED70022101F057FA02B0DE
:1055100080BD000080B5FBF725FBFBF701FBFEF724
:1055200069F97F2064218A22FBF766FAFBF7C4FA47
:1055300080BD000010B5FBF7BFFAFEF75BF9CC2089
:10554000FBF7C4FABE20FBF7C1FAFBF77FFA04466B
:10555000FBF77CFA44EA002000EE100A9FED031AE4
:10556000B8EE400A20EE010A10BD00BF0000803DE9
:1055700080B582B0019040F26C50C2F2000001A9E7
:1055800001224FF6FF73FDF7CBF9019802B080BD01
:10559000B0B582B040F21C01C2F200014968044675
:1055A000097801AB08460D21042200F0E9FA08B1A0
:1055B00002B0B0BD9DF804009DF807304FF01C0EFE
:1055C0009DF805109DF806C00EEAD000C3F3011245
:1055D00010448DF801000EEAD100C3F381010844A4
:1055E0008DF802000EEADC0003F0030141F27B4C6F
:1055F0009FED160A9FED161A08444FF0000E0DF1AC
:105600000101C3F6AE6C00238DF8030005E000BF76
:10561000C2F800E00133032BCAD0C85C04EB83025C
:105620000028F5D0C85CC2F800C001380506C8548F
:10563000F0D0C85CB0EE402A0138050622EE012AFF
:10564000FAD182ED002A01F803E0E3E77B14AE3ED5
:105650001D5A843F2DE9F04383B040F21C070546F4
:105660000120C2F200070C46ADF80000D7E9001097
:1056700016460078897C6B46022200F08BFA10B146
:105680004FF0FF378CE1C820FFF744FA00208DF877
:105690000000D7E900106B460078C97B012200F0BA
:1056A00079FA10B14FF0FF377AE1D7E900106B4675
:1056B00000784979012200F06DFA10B14FF0FF3700
:1056C0006EE1D7E900106B460078897C012200F07A
:1056D00061FA10B14FF0FF3762E1D7E900106B4675
:1056E0000078C97D012200F055FA10B14FF0FF3764
:1056F00056E1D7E900106B4600780979012200F0E5
:1057000049FA10B14FF0FF374AE10C208DF8000044
:10571000D7E900106B4600780979012200F03AFAC7
:1057200010B14FF0FF373BE10F20FFF7F3F9B86AF4
:105730003968407A7A688DF80000107889786B466D
:10574000012200F027FA10B14FF0FF3728E1B86AC4
:105750003968007A7A688DF80000107849786B46CD
:10576000012200F017FA10B14FF0FF3718E1B86AC4
:10577000D7E90012807A002E18BF40F0E0008DF8C3
:105780000000107889796B46012200F003FA10B10D
:105790004FF0FF3704E126B1B86AC07A60F01F000D
:1057A00000E018208DF80000D7E900106B46007863
:1057B000C979012200F0EEF910B14FF0FF37EFE0A8
:1057C00016B1C820FFF7A6F940208DF80000D7E9F0
:1057D00000106B4600780979012200F0DBF910B166
:1057E0004FF0FF37DCE078208DF80000D7E900109B
:1057F0006B4600784979012200F0CCF910B14FF0E6
:10580000FF37CDE03220FFF785F900208DF800004A
:10581000D7E900106B4600784979012200F0BAF907
:1058200010B14FF0FF37BBE0D7E900106B460078AE
:10583000897A022200F0A4F910B14FF0FF37AFE0EF
:10584000BDF800004AF6AB21000400BACAF6AA214E
:10585000A0FB01010020C5E90000A860C4E9000028
:10586000A060C1F3C709B9F1000F3ED00026E84699
:10587000D7E900100C220078C97A434600F080F97D
:10588000002840F08B80BDF80000BDF8021090FAAF
:1058900080FCBDF80420D4E9003009BA92FA82FEF7
:1058A000A26803EB2C4300EB2140C4E9003002EB7B
:1058B0002E41BDF80600A160BDF8081090FA80FCEA
:1058C000BDF80A20D5E9003009BA92FA82FEAA682A
:1058D00003EB2C4300EB21400136C5E90030F0B268
:1058E00002EB2E418145A960C2D895E8410183228F
:1058F000C117090441EA1041000400230027FAF708
:1059000090FC4A460023FAF78CFC2860F01700044C
:1059100040EA1641300483220023FAF782FC4A460B
:105920000023FAF77EFC68604FEAE870000440EA62
:1059300018414FEA084083220023FAF772FC4A46D6
:105940000023FAF76EFCA860D4E90006A568C11729
:10595000490141EAD06140014A460023FAF761FC5F
:105960002060F017400140EAD66170014A460023EA
:10597000FAF757FC6060E817400140EAD56168011A
:105980004A460023FAF74DFC4FF480310028C4BF8B
:105990000021CFF6FF710844A06001E04FF0FF370F
:1059A000384603B0BDE8F08370B582B040F21C0207
:1059B000C2F2000252680C4611780DF10506054648
:1059C00008460D210322334600F0DAF810B1072013
:1059D00002B070BD9DF805009DF806109DF80720E7
:1059E00000F01F008DF8050001F01F008DF8060083
:1059F00002F01F009FED2C0A9FED2E2A9FED2C5ADE
:105A00009FED2A6A8DF807004FF0000CB2EE041AE1
:105A10004FF0010EB3EE093ABFEE004A002300201A
:105A200006E000BF0EFA03F108430133032B38D020
:105A300055F8231054F82320891A48BF494207EE2D
:105A4000101AB8EEC77AF15C27EE007AF1B1F15C7A
:105A5000F0EE430A0139F15409060AD0F15CF0EE88
:105A6000430A00BF01390A0660EE860AFAD106F839
:105A700003C087EE207A37EE047AB0EEC77AB4EE30
:105A8000457AF1EE10FAD0DDCCE700BFB4EE417AF2
:105A9000F1EE10FAC6DBB4EE427AF1EE10FAC4DD94
:105AA000C0E702B070BD00BF0000803754E3853FFF
:105AB000295C0F3E0000D242F0B581B01C4615466D
:105AC0000E460746FDF742F840B37F00F8B2FDF7F7
:105AD0000FF8FDF799F818B33046FDF709F8FDF710
