:020000040800F2
:10000000488F00209D01000869420008E533000880
:1000100065420008650A0008AD5B000800000000AA
:10002000000000000000000000000000714C00080B
:10003000C10C000800000000A1430008695400083A
:10004000B7010008B7010008B7010008B7010008B0
:10005000B7010008B7010008B7010008B7010008A0
:10006000B7010008B7010008B7010008B701000890
:10007000B7010008B7010008B7010008B701000880
:10008000710A0008B7010008B7010008B7010008AD
:10009000B7010008B7010008B7010008B701000860
:1000A000B7010008B7010008B7010008B701000850
:1000B000B7010008B7010008B7010008B701000840
:1000C000B7010008B7010008B7010008B701000830
:1000D000B70100087D5B00088D5B0008B7010008D0
:1000E000B7010008B7010008B7010008B701000810
:1000F000B7010008B7010008B7010008B701000800
:10010000B7010008B7010008B7010008B7010008EF
:10011000B7010008B7010008B70100083D55000805
:10012000B7010008810A0008910A0008B701000819
:10013000B7010008B7010008B7010008B7010008BF
:10014000B7010008B7010008B7010008B7010008AF
:10015000B7010008B7010008B70100089D5B00085F
:10016000B7010008B7010008B7010008B70100088F
:10017000B7010008B7010008B7010008000000003F
:10018000B7010008B7010008DFF80CD000F096FBBB
:1001900000480047B5700008488F00200648804797
:1001A00006480047FEE7FEE7FEE7FEE7FEE7FEE75C
:1001B000FEE7FEE7FEE7FEE7295500088901000893
:1001C0002DE9F05F0546002092469B46884606468C
:1001D000814640241BE0284641464746224600F01F
:1001E0006FFA53465A46C01A914110D31146184629
:1001F000224600F056FA2D1A67EB01084F462246B8
:100200000120002100F04DFA17EB00094E41201E9D
:10021000A4F10104DFDC484631462A464346BDE8E6
:10022000F09F2DE9F0410024061B254671F10006E0
:1002300005DA01240027D0EB070067EB0101161E49
:1002400073F1000605DA0027D2EB0702012567EB00
:100250000303FFF7B5FF86460E4617469C46AC42A1
:1002600004D00025D0EB050E65EB010624B100207B
:10027000D2EB000760EB030C704631463A4663460A
:10028000BDE8F08140EA01039B0703D009E008C9FB
:10029000121F08C0042AFAD203E011F8013B00F84B
:1002A000013B521EF9D27047D2B201E000F8012B97
:1002B000491EFBD270470022F6E710B513460A46E6
:1002C00004461946FFF7F0FF204610BD30B504463E
:1002D0000020034600E05B1C934203D2E05CCD5C4F
:1002E000401BF8D030BD2DE9FE4F804681EA030067
:1002F000C00F0C46009021F0004123F00045B8EB00
:100300000200A94105D24046214690461C460B46B4
:10031000024623F00040104347D0270DC7F30A00E0
:10032000C3F30A510290401A019040286BDAC3F3DC
:10033000130040F4801B0098924620B10023D2EBBA
:10034000030A63EB0B0B01985946C0F1400250467B
:1003500000F0A7F906460D4650465946019A00F0AE
:10036000BFF910EB08006141002487EA115284EACA
:10037000E7731A4340D0009A62B3019A012A4FEA08
:10038000075215DC001B61EB02014FF0004202EA4C
:100390000752CDE90042001C41F5801132462B4640
:1003A00000F0F6F903B0BDE8F08F40462146F9E7CA
:1003B000001B61EB0201001C41F5801300185B413A
:1003C0002018A2F5001747EB030140EAD570B619D3
:1003D0006D4111E06D084FEA360645EAC0754FEAF7
:1003E0000752001B61EB0201001C41F58011490816
:1003F0004FEA30000019514132462B4603B0BDE8A8
:10040000F04F00F0B6B90098012240000023D0EB75
:10041000020263EBE073009821464FEAE074B8EB08
:10042000000061EB0401E9E783F000435BE781F042
:10043000004158E72DE9FE4F81EA030404F000442F
:1004400021F0004100944FF0000B23F0004350EAEC
:1004500001045ED052EA03045BD0C3F30A54C1F333
:100460000A552C44A4F2F3340194A0FB0254C1F3C6
:10047000130141F48011C3F3130343F4801301FB10
:10048000024400FB034E840A970A44EA815447EA77
:100490008357A4FB076802958D0A05FB07854FEA81
:1004A000932C04FB0C542705029D4FEA065847EA9B
:1004B0001637B5EB08056EEB070C870E920E47EA70
:1004C000811742EA8312A7FB0201B6EB0B0164EB32
:1004D00000042B0D43EA0C335E1844EB1C50DA4643
:1004E0005146E7FB0201C5F313044FEA0B3343EA1D
:1004F00014534FEA0432019C43EA0603A4F10C04AE
:100500000294009CCDE900B400F042F903B0BDE8CC
:10051000F08F00200146F9E72DE9F04D81EA030450
:1005200004F0004B21F0004514464FF0000A23F080
:10053000004150EA050220D054EA01021DD0C5F363
:100540000A570246C5F31303C1F31300C1F30A5659
:1005500040F4801543F48013A7EB0608101BD64621
:1005600008F2FD3873EB050002D308F1010801E041
:1005700092185B41B8F1000F03DA00200146BDE894
:10058000F08D00204FF48011064684460EE0171BC4
:1005900073EB050705D3121B63EB050306434CEA17
:1005A000010C49084FEA300092185B4150EA0107FC
:1005B000EDD152EA030012D082EA040083EA050179
:1005C000084305D0101BAB4106D20122002306E0F0
:1005D00000224FF0004302E06FF0010253101AEBCB
:1005E00006004CEB085110EB0A0041EB0B01BDE893
:1005F000F04D00F0BEB80EB5C10F80EAE0700844BF
:10060000CA07002140F233438DE80E000A460B462C
:1006100000F0BEF803B000BD00F0004230F0004032
:100620000AD0C10D01F56071C0F3160042EA015114
:10063000C20840071143704700200146704701F08F
:10064000004330B421F0004150EA010206D00A0D07
:10065000A2F56072C1F31301002A02DC30BC002055
:100660007047440F44EAC104C100E01830BC00EBFD
:10067000C25000F047B830B50B460146002020229A
:10068000012409E021FA02F59D4205D303FA02F59F
:10069000491B04FA02F52844151EA2F10102F1DCFF
:1006A00030BD202A04DB203A00FA02F10020704716
:1006B0009140C2F1200320FA03F3194390407047A0
:1006C000202A04DB203A21FA02F00021704721FAA7
:1006D00002F3D040C2F1200291400843194670470E
:1006E000202A06DBCB17203A41FA02F043EAE073F6
:1006F00006E041FA02F3D040C2F1200291400843E3
:10070000194670470029A8BF7047401C490008BF20
:1007100020F00100704710B4B0FA80FC00FA0CF031
:1007200050EA010404BF10BC704749B1CCF1200469
:1007300021FA04F411FA0CF118BF012121430843F6
:10074000A3EB0C01CB1D4FEA00614FEA102042BF22
:10075000002010BC704700EBC35010440029A4BF18
:1007600010BC7047401C490008BF20F0010010BCBD
:10077000704710B5141E73F1000408DA401C41F1F3
:10078000000192185B411A4301D120F0010010BD15
:100790002DE9F04D92469B4611B1B1FA81F202E08B
:1007A000B0FA80F220329046FFF77BFF04460F46F6
:1007B00040EA0A0041EA0B0153465A46084313D067
:1007C000114653EA010019D0C8F140025046FFF724
:1007D00077FF05460E46504659464246FFF761FFF1
:1007E000084305D0012004E020463946BDE8F08DDD
:1007F0000020054346EAE0762C4337430A98630518
:10080000E40AA0EB08000022FD0A44EA47540A303B
:1008100002D500200146E9E7010510196941DDE92B
:10082000084500196941BDE8F04DA2E7C1F30A523D
:10083000C1F3130140F2FF3341F480119A4202DA0E
:1008400000200146704740F233439A42A2F23342FD
:1008500002DC5242FFF734BFFFF723BF30B5041E5E
:1008600071F1000404DB4FF00044404264EB0101ED
:10087000141E73F1000405DB1C464FF00043524286
:1008800063EB04038B4208BF824230BD30B5041EC7
:1008900071F1000404DB4FF00044404264EB0101BD
:1008A000141E73F1000405DB1C464FF00043524256
:1008B00063EB0403994208BF904230BD064C074DDC
:1008C00006E0E06840F0010394E807009847103420
:1008D000AC42F6D3FFF75CFC8C3C0108AC3C010851
:1008E0002DE9F04D00231A461B1A8A4103DB002034
:1008F0000146BDE8F08DC1F30A52C1F3130141F482
:1009000080154FF0000BD10702D100186D41521E27
:100910000027044640F2FF11384601EB620A3E46CA
:100920008046024600204FF48011FFF7C9FEC2192D
:100930007141BB1846EB0100B4EB030C75EB000CE6
:1009400004D3E41A65EB000517460E46241908F196
:1009500001006D4180463428E3DDF91946EB0600BD
:10096000091BA84103D24FF0FF32134601E00022D9
:1009700013461BEB070046EB0A51BDE8F04DFFF7AD
:10098000F8BE0EB540F2334102910021CDE90011CD
:100990000A460B46FFF7FCFE03B000BD70B5C1F37D
:1009A0000A5201F000450024C1F3130140F2FF3365
:1009B00041F480119A4201DA002070BD40F23343C5
:1009C0009A42A2F2334203DC5242FFF779FE00E082
:1009D00090402C43F1D0404270BD000070B540F211
:1009E0004474C2F20004054620460E4601F01EFF84
:1009F000701E062888BF70BD4BF6CE40C0F60000C2
:100A000030F8160044F24021C0F20F01B1FBF0F0C3
:100A10002168C862E0604008486307F069FA40F264
:100A2000B4412844C2F2000108602046002102F0CF
:100A30006FF970BD10B540F2B444C2F200042068F2
:100A400070B107F055FA2168884238BF10BD002008
:100A5000206040F24470C2F20000002102F0D4F99C
:100A600010BD0000FEE7000041EA002070470000D2
:100A700080B540F28460C2F2000001F08DF880BDC4
:100A800080B540F2E460C2F2000001F085F880BD5C
:100A900080B540F22460C2F2000001F07DF880BD14
:100AA000D0F800C06FF00F024AF6AB2352FA8CF276
:100AB000CAF6AA230146A2FB0330000905A31B5C6A
:100AC00040F2FF302CEA00005F2A88BF0430C1E901
:100AD0001603704700061016000610168269816A18
:100AE000B2F5005F06D06AB9022912D0012914D0EC
:100AF000D1B90EE0032917D8DFE801F0020B020F8D
:100B00000120704703293CBF012070471CBF002013
:100B10007047C06AC0F300607047C06AA0F1C0703F
:100B2000B0FA80F0400970470020704770B5144655
:100B30000D46064603F066FDCC2000F061F84E201D
:100B400000F05EF8204600F05BF8284600F058F808
:100B5000304600F055F803F055FDCC2000F050F879
:100B6000482000F04DF841F20004C4F2020400BF36
:100B70002046012101F01EFA0028F9D070BD0000C6
:100B800070B541F20004C4F20204204601210122A2
:100B900001F016FA052005F0F1F90825204601219B
:100BA0000022C6F3460601F00BFA052005F0E6F92F
:100BB00020460121012201F003FA052005F0DEF9AB
:100BC0002046012101F0F6F900284FF0410018BF3E
:100BD00066F07F0605F0D2F920460121012201F0DE
:100BE000EFF9013D2806D9D1F0B270BD80B503F010
:100BF00009FDCC2000F004F8442000F001F880BD8D
:100C0000F0B581B041F2000405460826C4F20204A2
:100C100020460121002201F0D3F9052005F0AEF9AC
:100C200005F0010220460121EFB201F0C9F941208F
:100C300005F0A4F920460121012201F0C1F90220AA
:100C400005F09CF9013E30064FEA5705E0D101B0AE
:100C5000F0BD000080B586B000200590CDE903000E
:100C6000CDE90100009043F63000C4F202000168B3
:100C700041F010010160006801A900F0100000902F
:100C800000980120CDE9010041F20000C4F2020009
:100C900001F0C4F806B080BD4EF6FC50CEF2000064
:100CA000016841F08071016041F20000CEF2000065
:100CB000016841F0010101600021416070470000BE
:100CC0007047000070B504464D1E00202A1A215CB2
:100CD000B2FA82F2461C5209C0B204F09FFF012012
:100CE00007F0F6F8042E3046F0D170BD2DE9F04340
:100CF00081B00646147803F007000D46089F40F2C5
:100D000068099046C2F20009DFE800F004132231BE
:100D1000404F5E6D99F81C0061B2421E18BF01225F
:100D2000002948BF0246B0B2A9B203F093FE013FCA
:100D30006CD099F81C00731C421E18BF012261067A
:100D400048BF0246A9B298B203F084FE013F5DD0CD
:100D500099F81C00B31C421E18BF0122A10648BF0F
:100D60000246A9B298B203F075FE013F4ED099F841
:100D70001C00F31C421E18BF0122E10648BF0246B8
:100D8000A9B298B203F066FE013F3FD099F81C006B
:100D9000331D421E18BF0122210748BF0246A9B2D7
:100DA00098B203F057FE013F30D099F81C00731D34
:100DB000421E18BF0122610748BF0246A9B298B27D
:100DC00003F048FE013F21D099F81C00B31D421EDC
:100DD00018BF0122A10748BF0246A9B298B203F08A
:100DE00039FE013F12D099F81C00F31D421E18BFB6
:100DF0000122E10718BF0246A9B298B203F02AFE09
:100E0000013F03D018F8014F083683E701B0BDE871
:100E1000F0830000B0B586B000F0DCFC4EF29C1010
:100E2000C0F6000000F030FE002000F023FE43F684
:100E3000CE10C0F601000021002200F069FD012063
:100E400000F018FE43F6C510C0F6010000210E2286
:100E500000F05EFD43F6B910C0F6010000211A2231
:100E600000F056FD43F6B010C0F601000021272225
:100E700000F04EFD43F6DA10C0F6010000213422E6
:100E800000F046FD34200021802200F069FD302072
:100E90000021342200F086FD40F6AD00C2F20000D1
:100EA0000078022836D0012858D0002840F07781F9
:100EB000C9A03221002200F02BFDCAA032211A2243
:100EC00000F026FD40F62860C2F200000068FFF73F
:100ED000A3FB01AC02460B46C5A1204608F0DAFF91
:100EE00020465A210D2200F013FD40F6AC00C2F25C
:100EF0000000017843F6D71243F6C210C0F6010293
:100F0000C0F60100002908BF10465A21272200F030
:100F1000FFFC44E140F21C65C2F20005B5F9002077
:100F200001ACA1A1204608F0B5FF204632210022E5
:100F300000F0EEFCB5F90010B5F90000012931DB35
:100F400037214843C11700EB51405A2101EBE032F1
:100F50005A200D21102300F029FD35E040F2AC4568
:100F6000C2F20005B5F9002001AC95A1204608F0B9
:100F700091FF20463221002200F0CAFCB5F9001092
:100F8000B5F90000012943DB37214843C11700EBC5
:100F900051405A2101EBE0325A200D21102300F07C
:100FA00005FD47E0B0F1FF3F0EDCB5F90000372149
:100FB0004843C11700EB51405A21A1EBE0325A20BF
:100FC0000D21102300F0EAFC40F21E65C2F200057C
:100FD000B5F9002001AC76A1204608F05BFF204661
:100FE0003221112200F094FCB5F90010B5F900008F
:100FF000012943DB37214843C11700EB51405A21F7
:1010000001EBE0325A201E21212300F0CFFC47E003
:10101000B0F1FF3F0EDCB5F9000037214843C1179E
:1010200000EB51405A21A1EBE0325A200D21102350
:1010300000F0B4FC40F2AE45C2F20005B5F9002064
:1010400001AC61A1204608F025FF20463221112283
:1010500000F05EFCB5F90010B5F90000012943DB92
:1010600037214843C11700EB51405A2101EBE032D0
:101070005A201E21212300F099FC47E0B0F1FF3FE8
:101080000EDCB5F9000037214843C11700EB514091
:101090005A21A1EBE0325A201E21212300F07EFCD0
:1010A00040F22065C2F20005B5F9002001AC42A172
:1010B000204608F0EFFE20463221222200F028FCD4
:1010C000B5F90010B5F90000012943DB3721484389
:1010D000C11700EB51405A2101EBE0325A202F2179
:1010E000322300F063FC5AE0B0F1FF3F0EDCB5F9AB
:1010F000000037214843C11700EB51405A21A1EBB2
:10110000E0325A201E21212300F048FC40F2B04575
:10111000C2F20005B5F9002001AC2DA1204608F06F
:10112000B9FE20463221222200F0F2FBB5F9001070
:10113000B5F90000012920DB37214843C11700EB36
:1011400051405A2101EBE0325A202F21322300F086
:101150002DFC24E0B0F1FF3F21DCB5F90000372180
:101160004843C11700EB51405A21A1EBE0325A200D
:101170002F21322300F012FC11E0B0F1FF3F0EDC12
:10118000B5F9000037214843C11700EB51405A21FF
:10119000A1EBE0325A202F21322300F0FFFB00F0B8
:1011A00089FC06B0B0BD00BF67783A253664000000
:1011B00067793A2536640000677A3A25366400007C
:1011C00061783A253664000061793A25366400007A
:1011D000617A3A2536640000B5B1C7B0CEC2B6C850
:1011E000A3BA0000D5F0B6AFB1A8BEAFA3BA000055
:1011F000252E3166A1E60000B0B52DED028B88B03A
:1012000040F24C00C2F2000090ED008A00F0E2FAD9
:101210004EF29C10C0F6000000F036FC43F6CE10F3
:10122000C0F601000021002200F072FB002000F057
:1012300021FC43F6C510C0F6010000210E2200F08B
:1012400067FB012000F016FC43F6B910C0F6010060
:1012500000211A2200F05CFB43F6B010C0F601003A
:101260000021272200F054FB43F6DA10C0F60100FB
:101270000021342200F04CFB34200021802200F0B9
:101280006FFB30200021342200F08CFB2020332122
:10129000802200F065FB40F2C550C2F200000078E9
:1012A0000138032823D8DFE800F0026080A040F274
:1012B000CC40C2F200000068FFF7AEF902460B46D0
:1012C00064A10DF1020008F0E5FD40F2D8450024CC
:1012D000C2F200052A19295D537804F1330004F1A4
:1012E000340200F045FB01344C2CF3D194E0B3EE12
:1012F0000E0A30EE480AB3EE041A20EE010AB2EEEE
:10130000041A80EE010A40F62860C2F200009FED48
:10131000481A006830EE018AFFF77EF902460B4654
:1013200050A10DF1020008F0B5FD40F2C8550024AF
:10133000C2F200052A19295D537804F1330004F143
:10134000340200F015FB01344C2CF3D1BDEEC80A79
:1013500010EE104A302500BF2846214600F01AFB47
:10136000A81CC5B2802DF7D356E040F2D040C2F29F
:1013700000000068FFF750F902460B4631A10DF15D
:10138000020008F087FD40F228550024C2F2000553
:101390002A19295D537804F1330004F1340200F076
:1013A000E7FA01344C2CF3D136E040F2D440C2F2DB
:1013B00000000068FFF730F902460B461DA10DF151
:1013C000020008F067FD40F278550024C2F20005E3
:1013D0002A19295D537804F1330004F1340200F036
:1013E000C7FA01344C2CF3D116E040F2CC40C2F2E3
:1013F000000090ED000A40F2D040C2F20000D0EDB3
:10140000000A40F2D440C2F2000090ED001A012020
:101410004021102203F026F80DF1020033210022B2
:1014200000F076FA00F046FB08B0BDEC028BB0BDD0
:1014300000000042BABDCFF2BDC73A252E3166A1E9
:10144000E3000000BAE1B9F6BDC73A252E3166A126
:10145000E3000000B8A9D1F6BDC73A252E3166A138
:10146000E3000000CEC2B6C83A252E3166A1E600E0
:1014700080B500F0AFF94EF29C10C0F6000000F00D
:1014800003FB43F6CE10C0F601000021002200F05D
:101490003FFA43F6C510C0F6010000210E2200F00D
:1014A00037FA002000F0E6FA43F6B910C0F6010062
:1014B00000211A2200F02CFA012000F0DBFA43F69A
:1014C000B010C0F601000021272200F021FA43F6F7
:1014D000DA10C0F601000021342200F019FA34209D
:1014E0000021802200F03CFA30200021342200F05C
:1014F00059FA00F0DFFA80BD80B500F06BF94EF2CA
:101500009C10C0F6000000F0BFFA43F6CE10C0F603
:1015100001000021002200F0FBF943F6C510C0F6DF
:10152000010000210E2200F0F3F943F6B910C0F6D5
:10153000010000211A2200F0EBF9002000F09AFAD5
:1015400043F6B010C0F601000021272200F0E0F9B8
:10155000012000F08FFA43F6DA10C0F601000021F6
:10156000342200F0D5F934200021802200F0F8F96F
:1015700030200021342200F015FA00F09BFA80BDE3
:10158000B0B540F6A004C2F20004256806F0B0FC35
:10159000A5B1216801F5FA61884211D906F0A8FCCD
:1015A000216841F288321144884219D906F0A0FC22
:1015B000216801F5FA51884222D900202060B0BD8F
:1015C00000F008F94EF27C10C0F6000000F05CFA62
:1015D00016A040210C2200F0A5F900F06BFAB0BD76
:1015E00000F0F8F84EF25C10C0F6000000F04CFA83
:1015F00015A00021002200F08BF900F05BFAB0BDCD
:1016000000F0E8F842F63850C0F601000021002250
:1016100000F0A2F942F64850C0F601004021002235
:1016200000F09AF900F046FAB0BD00BFB7C0BBF0B9
:10163000A1A2B7C0B5C1D4B60AB3CCBCECB2E2C665
:10164000F7C9E8BCC6000000B3C9D4B131A3BACB16
:10165000EFEABBC8BB0A20202020202020313830F0
:1016600034313832300AB3C9D4B132A3BAB7BDBEAF
:10167000C5B4A80A20202020202020313830343161
:1016800038313100EFF3108072B600BFFEE7000082
:1016900080B50D2808BF80BD0A2802D100F0B4F83B
:1016A00080BD40F26801C2F20001096909688847FB
:1016B00080BD000010B582B0944602884388B0F81F
:1016C00004E0846808466146CDF800E0019402F029
:1016D00097F802B010BD00002DE9F04383B040F24E
:1016E0006808C2F20008D8F810500446A9690846F4
:1016F000214600F03DF8C0B301884668671A06EB42
:10170000C70999F80240B8F91400B8F9161016F88C
:1017100037202B7DD9F80450CDE9004502F070F850
:10172000D8F81000027D417D914213D9B8F8140019
:10173000B8F8163016F8377098F81C601A44074449
:101740000B44013E91B2BAB29BB218BF012600967B
:1017500003F0BEF8D8F8100099F80110807DB8F8B1
:10176000142010FB0120A8F8140003B0BDE8F0839A
:1017700001E000BF806838B102888A42FAD8428806
:101780008A4228BF7047F5E770470000B0B540F2C5
:101790006801C2F200010D690446A96908462146A4
:1017A000FFF7E6FF38B101884068611A10F8310090
:1017B000A97D4843B0BD0020B0BD000001200880D5
:1017C0007047000080B58069FFF7D2FF002818BF7E
:1017D000012080BD80B50020002100F023F9002009
:1017E00000218022402300F001F880BD80B582B046
:1017F0004FF0000C80B289B292B29BB2CDF800C01B
:1018000003F066F802B080BD80B500F0EBF840F25E
:101810006801C2F20001CA8A1044C88280BD00007B
:10182000002808BF70472DE9F04F83B0074600F04D
:10183000D9F840F26806C2F20006B6F814A0834652
:1018400000F0D8F8F18A0090081AF08211E000BF89
:10185000708B00F0030001380228504628BF00209A
:10186000B08238780A2808BFF48217F8010B0028E4
:1018700041D0387800283ED0384647F6FF7100F056
:101880002FF905463846294600F026F9718B01F0FC
:101890000301012906D0022912BF002100EBD071FB
:1018A000491000E00146B28AB6F81690511A01EBD1
:1018B0000008A8F1010009EB0B04ADF80800601E58
:1018C000B182ADF80410ADF80A003846294601AAE5
:1018D000ADF8069000F0F2F838462946A6F81690C2
:1018E00000F0E6F8395C07440D29B1D00A29AFD0E1
:1018F000A6F81480B9E7F08A00990844718BF08249
:1019000021F00300708303B0BDE8F04F7047000082
:1019100080B540F26803C2F200039982DA82FFF7D1
:101920007FFF80BDF0B581B00D4640F26801C2F284
:101930000001B1F91A10064641F00200144600F009
:10194000ADF80746304629462246FFF7E1FF384604
:1019500000F0A4F801B0F0BD80B5FFF7ABFE80BD8C
:1019600080B503460846194601F094FF80BD00008B
:1019700080B582B040F2680CC2F2000C9CF81CC02A
:1019800080B289B292B29BB2CDF800C002F0CCFF17
:1019900002B080BD80B501F0A3FF80BD80B504F02A
:1019A000C7F980BD80B501F0B7FF80BDF0B581B04B
:1019B00099420BDA1C4615460E4607463846314614
:1019C0002A4601F067FF0136B442F7D101B0F0BDFD
:1019D00080B540F26801C2F2000109694968884790
:1019E00080BD000040F26800C2F200000069407D46
:1019F0007047000040F26800C2F20000418B01F025
:101A00000C010C2918BF082903D10069007D40088A
:101A1000704704291CBF002070470069007D013811
:101A20007047000010B50C4604F0E4F9204604F0BD
:101A3000E7F9002010BD000080B540F28800C2F236
:101A400000002E21017040F268007F22C2F20000E7
:101A50000021C0F23F02C0E900124BF69052C0F6DE
:101A60000002C0E9042101214172017703F07EF8F0
:101A7000002080BD40F26801C2F200010A7F82426C
:101A800018BF08777047000040F26802C2F20002F7
:101A900001461069002918BF1161704740F26803C0
:101AA000C2F20003B3F91A10024608465A8370477F
:101AB0000846704780B503F003F880BD80B5126812
:101AC00040F2680C130CC2F2000CACF81420ACF815
:101AD000163004F00DF980BD80B504F045F980BDE5
:101AE00080B504F069F980BD70B5866D044600F0DC
:101AF0006DFA94F83510022928D105462068216C2A
:101B0000026822F016020260426922F080024261FD
:101B100009B9A16C19B1016821F0080101600168DF
:101B200021F00101016000BF20680068C00714D0E7
:101B300000F04CFA401B0628F6D3202060650020F8
:101B400084F83400032084F8350070BD802060657F
:101B5000002084F83400012070BDE06D3F2101FABF
:101B600000F0B0600020012184F8340084F83510C2
:101B700070BD000090F83510022909D1052180F8C8
:101B800035100068016821F00101016000207047F4
:101B90008021416501207047F0B581B004460020E6
:101BA000009040F20800C2F200000268D4E916601A
:101BB00048F2B51337680821C1F64E3381403942E7
:101BC000A2FB03250CD0226813685B0708D51368B5
:101BD00023F004031360B160616D41F001016165A0
:101BE00001218140394208D022685269120604D589
:101BF000B160616D41F002016165042181403942AB
:101C000008D022681268920704D5B160616D41F076
:101C10000401616510218140394215D020680268B5
:101C2000120711D5B16002680168520306D4C905D4
:101C300006D4016821F00801016001E0080342D4E4
:101C4000216C09B120468847E16D202000FA01F29D
:101C50003A4244D020680368DB0640D5B26094F86D
:101C600035300268052B1ED122F01602026042694F
:101C700022F080024261226C0AB9A26C1AB1026899
:101C800022F0080202603F208840B060002084F803
:101C90003400012084F83500216D002940D0204611
:101CA000884701B0F0BD0168520310D4C90512D4B1
:101CB000016821F010010160002084F83400012047
:101CC00084F8350007E0A16C0029BBD1BCE708030C
:101CD00001D4616C00E0E16B09B120468847606D7A
:101CE000F0B1606DC00717D0052084F8350020687A
:101CF000A90A026822F00102026000BF009A0132C4
:101D00008A42009202D80268D207F7D1002084F8F4
:101D10003400012084F83500E16C09B12046884781
:101D200001B0F0BD2DE9F041044600F04FF9C4B117
:101D30000546002084F83400022084F8350020682D
:101D4000016821F00101016026683068C0070BD0EE
:101D500000F03CF9401B0528F6D90321202203207E
:101D600042E00120BDE8F081306848F23F01CFF247
:101D70001001251D00EA010C2ECDD4E9050E41EA23
:101D80000C01114319432943D4E90778084340EA79
:101D90000E01606A3943042841EA080103D1D4E9FD
:101DA0000B231143194331607169042821F00701A5
:101DB00041EA00050CD1D4E90A1045EA010538B121
:101DC0002046FEF78BFE18B10121402201200BE0D6
:101DD00020467561FEF764FEE16D3F2202FA01F1D3
:101DE0008160002201210020626584F83510BDE881
:101DF000F0810000B0B5044600F0E8F8054640F276
:101E00005000C2F200000078611C18BF044400BFFB
:101E100000F0DCF8401BA042FAD3B0BD2DE9F04F32
:101E200083B000F13E4202F1FF724FEAB22241F666
:101E300000470192C4F2020708224FF0010E00256C
:101E40004FF0000A4FF00008B84208BF0722009286
:101E50000AE000BF08F101080AF1040AB8F1100F06
:101E600005F1020500F0A2800C680EFA08FB14EAE6
:101E70000B09EFD04C6804F0030CACF1010EBEF17D
:101E8000010F12D882680323CE6803FA05F7BA431C
:101E900006FA05F73A4382604268C4F3001722EA63
:101EA0000B0207FA08F73A434260BCF1030F1CD05B
:101EB000C26803238E6803FA05F7BA4306FA05F7EA
:101EC0003A43BCF1020FC2600FD16FF0030202EA85
:101ED000580202440AF01C060F23176A03FA06F49C
:101EE0000B69A743B3403B431362026803234F6867
:101EF000AB409A4307F00303AB401A43FB004FF09B
:101F0000010E0260A6D5002243F644030292C4F2F9
:101F100002031A6843F6004442F480421A601A68C9
:101F2000C4F2010402F480420292029A28F00302F1
:101F30004FF6084B2244CFF6FF7B52F80B300AF0E5
:101F40000C070F26BE4023EA060C019B009E072BC0
:101F500038BF1E4606FA07F747EA0C0342F80B3073
:101F600022684B6842EA0907DE0358BF22EA0907E4
:101F7000276062689E0342EA090758BF22EA090700
:101F80006760A268DE0242EA090758BF22EA090731
:101F9000A76043F60C47C4F201073A689B0242EA85
:101FA000090358BF22EA09033B6053E703B0BDE8C9
:101FB000F08F00000069084018BF01207047000042
:101FC000002A08BF090481617047000048F26430AC
:101FD000C2F200000068704740F2500048F26431DD
:101FE000C2F20000C2F2000100780A6810440860E2
:101FF0007047000080B543F60040C4F2020001685B
:1020000041F400710160016841F480610160016880
:1020100041F480710160032000F088F8002000F096
:1020200005F800F04BF8002080BD000010B586B028
:10203000014637200022002400F068F8372000F025
:1020400061F843F640000194C4F20200016841F0D7
:10205000200101600068694600F0200001900198AD
:1020600001A800F017F900F03BF94DF6836140003C
:10207000C4F21B31A0FB01014FF0FF3000EB914196
:1020800040F28C7041F20042C2F20000C4F2000241
:1020900040F2E733C0E90021C0E90243046100F0E7
:1020A0007BFB10B1012006B010BD40F28C70C2F273
:1020B000000000F00BFC06B010BD000080B582B03F
:1020C000002043F640010190C4F202014A6842F444
:1020D00080424A604A6802F480420192019A00906C
:1020E0000868002240F08050086008680F2100F066
:1020F0008050009000986FF0010000F007F802B0E7
:1021000080BD000080B503F081FE80BD70B514462F
:102110000D46064603F08AFE2946224602F0A6F83E
:102120000146304603F08AFE70BD000080B503F022
:102130009FFE80BD2DE9F041002800F08B8043F622
:102140000808C4F202080446D8F8F8030D4600F067
:102150000700884207D288F8F853D8F8F80300F04F
:102160000700A84276D12068810717D5410705D519
:10217000D8F8001041F4E051C8F80010010705D567
:10218000D8F8001041F46041C8F80010D8F80010E9
:10219000A26821F0F0011143C8F80010C0073FD138
:1021A000D8F8F80300F00700A84207D988F8F853D8
:1021B000D8F8F80300F00700A8424BD12068410787
:1021C00007D5D8F80010E26821F4E0511143C8F8AF
:1021D0000010000708D5D8F80000216920F46040FD
:1021E00040EAC100C8F8000000F09EF8D8F80010DE
:1021F0004BF6B642C1F30311C0F60002515C40F247
:10220000080220FA01F140F25400C2F20000006816
:10221000C2F200021160FFF709FF0020BDE8F08163
:102220006068811E022907D258F8081C89015CBF2A
:102230000120BDE8F08110E0012807D158F8081C02
:1022400089035CBF0120BDE8F08106E058F8081C56
:10225000890702D40120BDE8F081D8F8001021F0F0
:1022600003010843C8F80000FFF7B0FE064641F23C
:10227000883700BFD8F80000616800F00C00B0EBB0
:10228000810F8DD0FFF7A2FE801BB842F2D9032048
:10229000BDE8F0810F22026043F60802C4F2020298
:1022A000136803F003034360136803F0F0038360D3
:1022B000136803F4E053C360D2F800C04FF4E05356
:1022C00003EADC030361D2F8F80300F007000860BA
:1022D0007047000040F20800C2F20000006870473A
:1022E00080B5FFF7F7FF43F60801C4F20201096861
:1022F0004BF6C642C1F38221C0F60002515CC840D1
:1023000080BD000080B5FFF7E5FF43F60801C4F289
:10231000020109684BF6C642C1F34231C0F6000221
:10232000515CC84080BD000010B543F60404C4F2FF
:102330000204606800F00C0142F200400829C0F27B
:10234000F40007D0042918BF10BD41F20020C0F2EC
:102350007A0010BD216801F03F022168236849021C
:10236000C3F3881105D4A1FB00010023FDF728FF6A
:1023700006E041F20020C0F27A004843B0FBF2F0E0
:1023800021680222C1F3014102EB4101B0FBF1F0EF
:1023900010BD00002DE9F04182B0002800F09F80C0
:1023A0000446007843F60006C007C4F2020641D096
:1023B000B06800F00C00042805D13068800339D5DE
:1023C0006068B8BB8BE0B06800F00C00082802D150
:1023D00070684002F1D46568B5F5803F06D030687A
:1023E000B5F5A02F06D140F480203060306840F46D
:1023F000803005E020F480303060306820F48020A8
:102400003060FFF7E3FD002D054610D030688003F3
:1024100010D4FFF7DBFD401B6428F7D922E100BF91
:10242000FFF7D4FD401B64284FF0030054D83068F8
:102430008003F5D4207880071AD5B06810F00C0F0F
:1024400009D0B06800F00C00082840F08C8070685B
:10245000400200F188803068800702D5E0680128DA
:102460003DD13068216920F0F80040EAC1003060B9
:102470002078000737D4207840074AD4A56955B39F
:10248000B06800F00C00082840F0A080012D26D094
:102490007068E16900F480028A4220D1216A00F06C
:1024A0003F028A421BD147F6C071626A0140B1EB1C
:1024B000821F14D1A16A4FF6FF73C903994300F438
:1024C0004032A1F580318A4209D1E16A00F07060A2
:1024D000B0EB016F03D1002002B0BDE8F081012014
:1024E00002B0BDE8F0816069002840F20000C4F24B
:1024F00047205AD00121C0F8801EFFF767FD05462E
:10250000706F8007B7D4FFF761FD401B0228F7D931
:10251000A8E0306C4FF00008C0000CD4CDF8048067
:10252000306C4FF0010840F080503064306C00F0A7
:1025300080500190019847F20007C4F20007386804
:10254000C00525D4386840F480703860FFF73EFD40
:10255000054600BF3868C0051AD4FFF737FD401B99
:102560000228F7D97EE0E068002851D00020C4F2AC
:10257000472001210160FFF729FD054630688007EB
:102580003FF56FAFFFF722FD401B0228F6D969E047
:10259000A568012D05D0306F052D4DD140F0040008
:1025A0003067306F40F001004CE00021C0F8801E21
:1025B000FFF70CFD054600BF706F80077FF55BAF2E
:1025C000FFF704FD401B0228F6D94BE00027C4F2B8
:1025D000472700203866FFF7F9FC022D05460BD18E
:1025E0003068800156D5FFF7F1FC401B02284FF000
:1025F0000300F5D970E700BF306880017FF56BAF4D
:10260000FFF7E4FC401B02284FF00300F4D963E716
:102610000020C4F2472000210160FFF7D7FC0546E7
:10262000306880077FF524AFFFF7D0FC401B0228FD
:102630004FF00300F4D94FE720F001003067306F0E
:1026400020F004003067FFF7C1FC002D054641F281
:10265000883713D0306F800713D4FFF7B7FC401BC7
:10266000B842F7D9032002B0BDE8F081FFF7AEFC15
:10267000401BB8424FF003003FF62EAF306F80078B
:10268000F4D4B8F1000F3FF4F9AE306C20F0805074
:102690003064F3E604F11C052FCD084340EA8210B4
:1026A000D9034FF6FF729143A1F5803140EA0560EE
:1026B0000843706001203866FFF788FC044600BFBD
:1026C000306880013FF507AFFFF780FC001B022850
:1026D0004FF00300F4D9FFE6704700007047000098
:1026E00010B590F83C20012A4FF0020252D001238D
:1026F00080F83C3080F83D200268D2F804E0D2F83F
:1027000008C00C682EF07003234341F2FF74C4F23A
:102710000004A24253600DDC40F2FF73C4F20003D8
:102720009A4215DCB2F1804F29D040F20043C4F246
:10273000000322E040F2FF33C4F201039A4212DCAC
:1027400041F60003C4F200039A4218D0002312E0BD
:1027500040F60003C4F200039A4210D040F6004352
:10276000C4F2000309E044F20003C4F201039A42F8
:1027700005D040F20043C4F201039A4204D14968F3
:102780002CF08003194391600121002280F83D1054
:1027900080F83C20104610BD002804BF012070477F
:1027A00010B5044690F83D0028B9002084F83C009C
:1027B000204600F01FF8022084F83D002068211D0B
:1027C00002F0C4FE012084F8460084F83E0084F83C
:1027D0003F0084F8400084F8410084F8420084F807
:1027E000430084F8440084F8450084F83D0000204C
:1027F00010BD000081B0006840F20041C4F2000149
:10280000884201D001B070470020009043F640009C
:10281000C4F20200016841F002010160006800F0AA
:1028200002000090009801B07047000090F83D1041
:1028300001291CBF01207047022180F83D1000686B
:1028400041F2FF71C4F2000188420DDC40F2FF71D9
:10285000C4F20001884215DCB0F1804F29D040F26B
:102860000041C4F2000122E040F2FF31C4F2010154
:10287000884212DC41F60001C4F20001884218D0FF
:10288000002112E040F60001C4F20001884210D09D
:1028900040F60041C4F2000109E044F20001C4F234
:1028A0000101884205D040F20041C4F20101884292
:1028B00006D1816801F00701062904BF0020704796
:1028C000016841F0010101600020704790F83D105F
:1028D00001291CBF01207047022180F83D100068CB
:1028E00041F2FF72C168C4F20002904241F001015E
:1028F000C1600DDC40F2FF71C4F20001884215DCBA
:10290000B0F1804F29D040F20041C4F2000122E032
:1029100040F2FF31C4F20101884212DC41F60001AD
:10292000C4F20001884218D0002112E040F60001F4
:10293000C4F20001884210D040F60041C4F2000108
:1029400009E044F20001C4F20101884205D040F2DE
:102950000041C4F20101884206D1816801F00701FB
:10296000062904BF00207047016841F001010160A1
:102970000020704710B5044690F83C0001284FF045
:10298000020008BF10BD012284F83C2084F83D00FD
:1029900020684FF6777382689A4382600A683F2AFC
:1029A00014DD5F2A18DD602A28D0B2F5005F2DD033
:1029B000702A40D1D1E9012CCB68614602F06AFE51
:1029C0002068816841F07701816034E01F2A0FDCC4
:1029D00092B1102A10D02EE0402A23D0502A2AD1BA
:1029E0004B68CA68194602F02FFF2068502120E08A
:1029F000202A01D0302A1ED111461AE04B68CA683D
:102A0000194602F033FF2068602112E0D1E9012C61
:102A1000CB68614602F03EFE2068816841F4804147
:102A2000816008E04B68CA68194602F00DFF206813
:102A3000402102F03BFE012084F83D00002084F894
:102A40003C0010BD7047000010B5044600680169E5
:102A5000890744BFC1685FEA817138D42068016981
:102A6000490744BFC1685FEA41713CD420680169ED
:102A7000090744BFC1685FEA017141D42068016958
:102A8000C90644BFC1685FEAC16145D420680169D5
:102A9000C9071CBFC1685FEAC1714AD120680169DA
:102AA000090644BFC1685FEA016149D42068016931
:102AB000490644BFC1685FEA416148D420680169A2
:102AC000890644BFC1685FEA816147D410BD6FF0D9
:102AD00002010161012121778069800745D02046EC
:102AE000FFF7B0FF47E06FF0040101610221217799
:102AF000806910F4407F41D02046FFF7A3FF43E0F8
:102B00006FF00801016104212177C06980073ED080
:102B10002046FFF797FF40E06FF0100101610821A8
:102B20002177C06910F4407F3AD02046FFF78AFF32
:102B30003CE06FF001010161204600F0A7F9ADE72C
:102B40006FF0800101612046FFF7C6FDAEE76FF030
:102B500040010161204600F0A5F9AFE76FF02001C8
:102B600001612046FFF7BAFD10BD204600F050F885
:102B7000204600F0CBF8002020776FE7204600F0D9
:102B800047F8204600F0C2F8002020776EE7204684
:102B900000F03EF8204600F0B9F8002020776DE7FD
:102BA000204600F035F8204600F0B0F800202077ED
:102BB0006CE7000080B586B000220592CDE90322C3
:102BC00040F200410068C4F2000188420292019282
:102BD00001D006B080BD43F630000092C4F202007E
:102BE000036843F002030360006800F002000090F5
:102BF0000098102001900220CDE90202CDE90420C6
:102C000001F5003001A9FFF709F906B080BD000009
:102C100070470000B0B5044690F83C00012804BF9E
:102C20000220B0BD4FEAB2000D460121032884F80E
:102C30003C1036D8DFE800F0020A1222206829464C
:102C400002F03CFD206850F8181F0EE0206829466D
:102C500002F066FD206850F8181F16E0206829462B
:102C600002F094FD206850F81C1F41F0080101603B
:102C7000016821F00401016029690FE020682946FC
:102C800002F0BAFD206850F81C1F41F40061016099
:102C9000016821F480610160296909020268114319
:102CA0000160002084F83C00B0BD0000002804BF93
:102CB0000120704710B5044690F83D0028B9002067
:102CC00084F83C00204600F01FF8022084F83D0004
:102CD0002068211D02F03AFC012084F8460084F8A7
:102CE0003E0084F83F0084F8400084F8410084F8F6
:102CF000420084F8430084F8440084F8450084F8D6
:102D00003D00002010BD000070470000704700002B
:102D100010B5044641B1082909D0042914BF04F1B3
:102D2000410004F13F0004E004F13E0001E004F141
:102D30004000007801281CBF012010BD022041B1D5
:102D4000082909D0042914BF84F8410084F83F0001
:102D500004E084F83E0001E084F84000206801228D
:102D600002F086FC206840F2004140F48062C4F228
:102D700001018A4203D1426C42F40042426441F2B2
:102D8000FF72C4F2000290420DDC40F2FF71C4F207
:102D90000001884217DCB0F1804F27D040F200419B
:102DA000C4F2000120E040F2FF32C4F2010290427E
:102DB00014DC41F60001C4F20001884216D0002163
:102DC000C4F2010110E040F60001C4F200018842A3
:102DD0000CD040F60041C4F2000105E044F20002CC
:102DE000C4F20102904201D0884206D1816801F00C
:102DF0000701062904BF002010BD016841F0010150
:102E00000160002010BD0000B0B50446006800223B
:102E10000D4602F02DFC206840F2004240F4806133
:102E2000C4F2010291420DD1016A41F21112114224
:102E300008D1016A40F24442114203D1416C21F4AD
:102E400000414164016A41F21112114208D1016A44
:102E500040F24442114203D1016821F001010160B6
:102E60000120082D09D0042D0BD0002D14BF84F8AB
:102E7000410084F83E000020B0BD84F840000020EE
:102E8000B0BD84F83F000020B0BD000080B50068F0
:102E900041F20041C4F20001884208BFFFF79CF8EC
:102EA00080BD0000704700007047000070470000C0
:102EB00070B582B0016804460868CA684D6900F0C0
:102EC0002F03202B02F0200305D123B1204602F06E
:102ED0003BFD02B070BD5FEA007C07D005F0010E3B
:102EE00012F4907F8EF0010526D12DB3236B104094
:102EF000C20617D5012B15D100200190086801905A
:102F0000486801900198486940066CD4A08DE28D14
:102F1000E38D002B1CBF801A5FEA004240F09D80C9
:102F200002B070BD010600F187804006F8D520464A
:102F300002F0FEFC02B070BDC10718BF12F4807130
:102F400003D0216C41F00101216400F0040601214D
:102F500081EA96062E4303D1266C46F002062664CB
:102F600000F0020681EA5601294303D1216C41F0A9
:102F7000040121645EEA030118BF0121BCF1000FC6
:102F800004D519B1216C41F008012164216C00299C
:102F9000C6D01040800602D5204602F0D5FC20683D
:102FA0004069216C00F0400001F0080140184DD04C
:102FB000204602F0A7FC20684169490641D54169D5
:102FC00021F040014161A06BD8B345F6F501C0F690
:102FD00000010165FEF7CEFD0028A1D0A06B016DB8
:102FE000884702B070BDA06B0268526893B2002B94
:102FF00096D0A68DB34293D2E285C269B2F5807FA6
:1030000016D0CA6822F48072CA604A6922F00102AE
:103010004A614A6922F040024A61202284F83E2037
:1030200000222263CA6822F01002CA60FEF75CFD2B
:10303000A08DE18D401A21E0204602F043FD02B050
:1030400070BD2046FFF732FF02B070BD2046FFF78B
:103050002DFF0020206402B070BDCA6822F4907277
:10306000CA604A6922F001024A61202284F83E20A7
:1030700000222263CA6822F01002CA6081B2204690
:10308000FFF712FF02B070BD002804BF0120704797
:1030900010B5044690F83D0028B9002084F83C00A3
:1030A000204600F021F8242084F83D002068C16803
:1030B00021F40051C160204602F096FC20680169AD
:1030C00021F490410161416921F02A014161C16807
:1030D00041F40051C16000202021206484F83D109B
:1030E00084F83E1010BD000070B586B00026CDE912
:1030F0000466CDE902660446006844F20041C4F269
:103100000001884201965BD041F20041C4F2010106
:10311000884200F09E8041F20001C4F20101884221
:1031200040F0F380002643F630000096C4F202001F
:10313000416941F010014161416901F010010091C4
:1031400000990096016841F001010160006801A941
:1031500000F00100009000984FF4C0600190022040
:10316000CDE9020603200490072005900020C4F258
:103170000200FEF753FE46F28800C4F2020040F25D
:10318000246500F56E70C2F200054FF000614FF447
:10319000806285E843002846C5E90362C5E9056603
:1031A000C5E907666E62FEF7BDFD002800F09E804F
:1031B000FEF768FA40F224652526C2F200059AE07F
:1031C00043F630000096C4F20200016941F4003178
:1031D0000161016901F400310091009900960168D4
:1031E00041F001010160006801A900F001000090B8
:1031F00000980C2001900220CDE9020603200490E3
:10320000072005900020C4F20200FEF707FE40F2FE
:10321000846546F28800C2F20005C4F202004FF055
:1032200000614FF4806285E843002846C5E90362E7
:10323000C5E90566C5E907666E62FEF773FD0028FD
:1032400056D0FEF71FFA40F284652626C2F200052A
:1032500051E0002643F630000096C4F202004169B6
:1032600041F020014161416901F020010091009984
:103270000096016841F004010160006801A900F0B6
:10328000040000900098C02001900220CDE90206C1
:1032900003200490082005900020C4F2020000F5ED
:1032A0000060FEF7BBFD46F28800C4F2020040F267
:1032B000E46500F56870C2F200054FF020614FF43C
:1032C000806285E843002846C5E90362C5E90566D2
:1032D000C5E907666E62FEF725FD58B1FEF7D2F923
:1032E00040F2E4654726C2F2000504E0252602E02C
:1032F000262600E04726304605210022A563AC6360
:10330000FEF704FF3046FEF7FDFE06B070BD00007C
:10331000704700002DE9F04381B0044690F83D006D
:1033200020280BD10E4600294FF0010055D017463A
:10333000002A52D094F83C00012803D1022001B0A9
:10334000BDE8F083012084F83C004FF00009212003
:103350001D46C4F8409084F83D00FEF737FEA78470
:10336000E784A1680746B1F5805F07D1206900288E
:103370001CBF30464E46B046064601E04FF00008FE
:1033800084F83C9007E000BF16F8010B2168486004
:10339000E08C0138E084E08C80B1204680213A4600
:1033A0002B4602F0B9FB80B9002EEDD138F8020BA4
:1033B00021686FF35F2048600026E9E7204640213E
:1033C0003A462B4602F0A8FB18B1032001B0BDE835
:1033D000F083202084F83D00002001B0BDE8F08398
:1033E00070470000FEE7000010B540F20044C4F250
:1033F000020420464FF400410022FEF7E1FD00F0F8
:103400003BF920464FF400510022FEF7D9FD00F0B1
:1034100033F920464FF400410122FEF7D1FD00F0C0
:103420002BF920464FF400410022FEF7C9FD00F0C1
:1034300023F910BD10B540F20044C4F20204204646
:103440004FF400410022FEF7BBFD00F015F92046C5
:103450004FF400510122FEF7B3FD00F00DF92046B4
:103460004FF400410122FEF7ABFD00F005F92046C4
:103470004FF400410022FEF7A3FD00F0FDF810BD5F
:1034800070B540F20044C4F2020420464FF40051EB
:103490000122FEF795FD0826002500BF20464FF4C7
:1034A00000410022013EFEF78BFD00F0E5F82046CA
:1034B0004FF400410122FEF783FD00F0DDF82046C5
:1034C0004FF40051FEF776FD002818BF01203106A9
:1034D00040EA4505E2D120464FF400410022FEF7C4
:1034E0006FFDE8B270BD0000F0B581B040F200455C
:1034F000C4F20205044628464FF400410022FEF7BC
:103500005FFD072600F0B8F8E0B2C20928464FF484
:103510000051FEF755FD640000F0AEF828464FF468
:1035200000410122FEF74CFD00F0A6F828464FF4BA
:1035300000410022771EFEF743FD30063E46E1D1F2
:1035400001B0F0BDB0B540F20044C4F20204204620
:103550004FF400510122FEF733FD20464FF40041A5
:103560000122FEF72DFD00F087F820464FF40051B0
:10357000FEF720FD80B120464FF4005100220025C7
:10358000FEF71EFD00F078F820464FF40051FEF7DC
:1035900011FD18B12846B0BD0020B0BD20464FF443
:1035A00000510022FEF70CFD00F066F801252846C8
:1035B000B0BD000010B540F20044C4F20204204641
:1035C0004FF400410022FEF7FBFC00F055F82046C6
:1035D0004FF400510022FEF7F3FC00F04DF82046B6
:1035E0004FF400410122FEF7EBFC00F045F82046C5
:1035F0004FF400510122FEF7E3FC00F03DF810BD4E
:10360000B0B540F20044C4F2020420464FF4004139
:103610000022FEF7D5FC00F02FF820464FF40051B1
:103620000122FEF7CDFC00F027F820464FF40041C0
:103630000122FEF7C5FC00F01FF820464FF40051B0
:10364000FEF7B8FCB0FA80F0450920464FF400417F
:103650000022FEF7B5FC2846B0BD000081B00A206C
:103660000090009830B100BF009801380090009899
:103670000028F9D101B0704781B00A20009000986D
:1036800030B100BF00980138009000980028F9D1AF
:1036900001B07047B0B541F20004C4F20204204604
:1036A0000221FEF787FCB0FA80F04509204604218C
:1036B000FEF780FCB0FA80F0400945EA400520465C
:1036C0000821FEF777FCB0FA80F0400945EA800552
:1036D00020461021FEF76EFCB0FA80F0400945EA62
:1036E000C00520462021FEF765FC0138B0FA80F0C5
:1036F000400945EA001520464021FEF75BFC0138F1
:10370000B0FA80F040F2910C4009C2F2000C45EA98
:1037100040109CF80020010615D0C4B2944212D18A
:1037200040F2900EC2F2000E9EF8001003464D1CAF
:10373000E9B2022918BF002394428EF800500ED03F
:10374000022909D10BE0C1B240F29005C2F2000596
:10375000002391422B7002D000238CF80000D8B2D5
:10376000B0BD0000B0B541F20004C4F2020420462E
:103770000221FEF71FFCB0FA80F045092046042123
:10378000FEF718FC002820464FF0080108BF01355D
:10379000FEF710FC002820464FF0100108BF01354D
:1037A000FEF708FC40F2930CC2F2000C002808BFA0
:1037B0000135E9B29CF80030042914D3994212D1A2
:1037C00040F2920EC2F2000E9EF80020501CC4B2CD
:1037D000022C2A4618BF002299428EF800000DD014
:1037E000022C08D10AE040F29200C2F2000000224E
:1037F0009942027002D000228CF80050D0B2B0BDC5
:103800002DE9F04383B040F26806C2F200068E460E
:10381000B6F90210DDF82C90DDF82880A1EB0E0738
:103820009C46012F06DBACEB0703012B2FDB07FBCC
:10383000089901E063467146B6F906700CEB0E0577
:10384000FF432F44012F02DBDB1B012B1FDBB6F9EB
:1038500004401518B6F90070E6432E44002EC8BF88
:10386000921B87420BDD3F1A27F00706D21B09EB9C
:10387000E709304407F00706012A03DA07E00026CB
:10388000012A04DBCDE90089029600F06BF803B051
:10389000BDE8F08380B582B040F2680CC2F2000C43
:1038A000BCF902308B4219DCBCF906308B4215DBC7
:1038B000BCF90030BCF904E08342C8BF1846964505
:1038C000B8BF7246824209DB9CF81CC089B280B244
:1038D00092B20B46CDF800C001F026F802B080BDD0
:1038E00080B540F26802C2F20002B2F902308B42A7
:1038F00011DCB2F906308B420DDBB2F900308342A5
:1039000009DCB2F904308342B8BF80BD127F80B2B7
:1039100089B201F09FF880BD80B582B040F2680C9A
:10392000C2F2000CBCF90030834219DCBCF904304F
:10393000834215DBBCF90230BCF906E08B42C8BFFC
:1039400019469645B8BF72468A4209DB9CF81CC0EE
:1039500080B289B293B20246CDF800C000F0E4FF15
:1039600002B080BD2DE9F04782B0012B15DBDDF8F8
:103970003080DDE90AA51C4691460E46074600BF89
:10398000384631462A464346CDF80090FDF7AEF959
:103990005544013C06F10106F2D102B0BDE8F087C2
:1039A00010B5A0F1040C4FF0000E00BF6FF0030340
:1039B000604600BF50F8042FCC1804330C2B626013
:1039C000F8D10EF1010EBEF1040F0CF1100C01F153
:1039D000100108BF10BDE9E72DE9F041A1F1040C89
:1039E000A2F1040E4FF0000800EB08110A1D01F1CE
:1039F000080401F10C0504267746634691ED000AA0
:103A000093ED011A93ED052A20EE010A92ED001ABA
:103A100093ED093A21EE021A94ED002A93ED0D4A36
:103A200030EE010A22EE031A95ED002A30EE010A6B
:103A300022EE041A30EE010A043387ED010A04373E
:103A4000013EDBD108F10108B8F1040F0EF1100EB0
:103A500008BFBDE8F081C7E72DE9F04381B02DED47
:103A60000A8B8CB00DF11E000DF11D0700900DF1B9
:103A7000260008A903AA0BAB019702F0F7FBBDF8DB
:103A80001E00C00540F1D1809DED030A9FED844AE0
:103A90009DED041A9DED052A9DED063AB8EEC00A8B
:103AA00040F2180820EE040AC2F2000888ED000A6D
:103AB000B8EEC11A40F61C6921EE041AC2F20009E0
:103AC00089ED001AB8EEC22A40F6206622EE042ADA
:103AD000C2F2000686ED002AB8EEC33A23EE043A9D
:103AE00031EE011A30EE000A21EE031A20EE020A2E
:103AF00040F6246730EE410AC2F2000710EE100AC9
:103B000087ED003AFCF788FD41EC100B06F0F0F968
:103B100051EC100B9FED600B54EC105B2A462346D2
:103B2000FCF788FCFCF78BFD40F2CC41C2F20001AF
:103B3000086096ED009A98ED001A97ED000A99ED4D
:103B400000BA39EE09AA31EE011A2AEE000A21EE76
:103B50000B1A30EE010A10EE100AFCF75DFDB8EE0C
:103B6000000A2BEE000A2BEE000A29EE0A1A30EEAC
:103B7000410AB7EE001A30EE010A41EC180B10EEC4
:103B8000100AFCF749FD41EC110BB0EE480AF0EECB
:103B9000680A06F0C9FC51EC100B2A462346FCF7D4
:103BA00049FCFCF74CFD40F2D041C2F20001086034
:103BB00099ED009A96ED00AA98ED00BA97ED00CA2B
:103BC00029EE0A0A2BEE0C1A30EE010A30EE000A3A
:103BD00010EE100AFCF720FD2BEE0B0A29EE091A55
:103BE00031EE000A2AEE0A1A30EE410A2CEE0C1AC7
:103BF00030EE410A41EC180B10EE100AFCF70CFDF8
:103C000041EC110BB0EE480AF0EE680A06F08CFCAD
:103C100051EC100B2A462346FCF70CFCFCF70FFD79
:103C200040F2D441C2F200010860BDF81E0010F05D
:103C3000700F14D0BDF8261040F21C62C2F20002D0
:103C40001180BDF8281040F21E62C2F200021180FD
:103C5000BDF82A1040F22062C2F200021180000773
:103C600014D5BDF8200040F2AC41C2F2000108803A
:103C7000BDF8220040F2AE41C2F200010880BDF85A
:103C8000240040F2B041C2F2000108800CB0BDEC4B
:103C90000A8B01B0BDE8F0836666666666A64C4096
:103CA0000000803010B503F0F1FA00281CBF00209E
:103CB00010BD43A007F0A4FE782004F079F810B1FD
:103CC000002448A077E043F6F020C0F6010007F09A
:103CD00097FE782003F006FA10B100244BA06AE0AA
:103CE00043F6CD20C0F6010007F08AFE322004F032
:103CF00019F828B143F60F300024C0F601005AE04D
:103D000043F64120C0F6010007F07AFE02F0A0FA67
:103D100028B143F630300024C0F601004BE043F6F2
:103D2000EE10C0F6010007F06BFE03F08FF902F011
:103D30005DFC28B143F6EB300024C0F601003AE008
:103D400043F6A920C0F6010007F05AFE40F27310B6
:103D500002F04CF928B143F669300024C0F60100A6
:103D600029E043F61E20C0F6010007F049FE32208C
:103D700002F0ACFB28B143F695300024C0F60100F8
:103D800019E043F66520C0F6010007F039FE04F0A3
:103D9000ABFE012003F0D4FE0146B0FA80F04409E6
:103DA00043F6C03043F68722C0F60100C0F6010298
:103DB000002908BF104607F023FE204610BD00BFB3
:103DC0006D707520696E697469616C697A61746976
:103DD0006F6E20636F6D706C6574652E2E2E2E2EA7
:103DE0002E0000006D70755F7365745F73656E7390
:103DF0006F7220636F6D65206163726F73732065EE
:103E000072726F72202E2E2E2E2E2E006D70755F08
:103E1000636F6E6669677572655F6669666F20635A
:103E20006F6D65206163726F7373206572726F725C
:103E3000202E2E2E2E2E2E0080B582B0002043F68E
:103E400030010190C4F202010A6842F400120A60D3
:103E50000A6802F400120192019A00900868002298
:103E600040F4800008600868052100F4800000909C
:103E700000981020FEF74AF91020FEF743F9392088
:103E800005210022FEF742F93920FEF73BF93A20DE
:103E900005210022FEF73AF93A20FEF733F902B085
:103EA00080BD000080B545F2CD204EF2E012C0F694
:103EB0000000C0F60002002104F052F840F2980120
:103EC000C2F20001086045F209104EF2BC12C0F6C1
:103ED0000000C0F60002002104F042F840F2940114
:103EE000C2F20001086045F261404EF20422C0F6C1
:103EF0000000C0F60002002104F032F840F2A041B8
:103F0000C2F20001086045F2C5004BF66052C0F6EF
:103F10000000C0F60002002104F022F840F2640123
:103F2000C2F20001086044F66D504BF63C52C0F6F8
:103F30000000C0F60002002104F012F840F2600117
:103F4000C2F20001086080BD2DE9F04F87B0002467
:103F500043F630000694CDE90444CDE902440194CF
:103F6000C4F20200016841F2000641F01001016054
:103F70000168C4F2020601F0100101910199019457
:103F80000168012241F08001016001684FF0010BDE
:103F900001F08001019101990194016841F0010152
:103FA0000160016801F0010101910199019401682A
:103FB00041F002010160016801F0020101910199E3
:103FC0000194016841F004010160016801F00401FD
:103FD000019101990194016841F0080101600068B4
:103FE0004FF47F4100F00800019001983046FDF742
:103FF000E7FFA6F5406738464AF2C0410022FDF7C8
:10400000DFFFA6F5006948464FF470610022FDF716
:10401000D7FFA6F5805840464FF419410022FDF71E
:10402000CFFFA6F5806A504604210022FDF7C8FFA5
:10403000304601210022FDF7C3FF1E2002A902AD78
:1040400081E8110830462946FDF7E8FE6020CDE9F9
:1040500002040220049030462946FDF7DFFE4FF6A9
:104060000170CDE9020B30462946CDE90444FDF745
:10407000D5FE4FF48060CDE9020B38462946CDE9E4
:104080000444FDF7CBFE4AF2C00002901120CDE9B6
:104090000304384629460594FDF7C0FE4FF47060CE
:1040A000CDE9020B48462946CDE90444FDF7B6FEAA
:1040B0004FF41940CDE9020B40462946CDE90444AE
:1040C000FDF7ACFE0420CDE9020B50462946CDE9B0
:1040D0000444FDF7A3FE0820CDE90204504629461A
:1040E0000494FDF79BFE07B0BDE8F08F10B58EB0CD
:1040F00040F2447040F200420021C2F20000C4F2DB
:104100000002532340F2E7340D91CDE90B11CDE9C4
:104110000911CDE90711CDE90511CDE90311CDE96B
:104120000111C0E90023C0E9021401618161FEF7B9
:1041300033FB002818BFFDF7A5FA4FF480500A9012
:1041400040F24470C2F200000AA9FEF713FC0028F6
:1041500018BFFDF797FA40F24470C2F20000FEF774
:10416000A5FD002818BFFDF78DFA40F24470002429
:10417000C2F2000008A9CDE90844FEF7B1FA002810
:1041800018BFFDF77FFA602001904FF4FA70CDE977
:10419000020440F24470C2F2000001A9002205941A
:1041A000FEF738FD002818BFFDF76CFA40F24470A6
:1041B000C2F20000FEF7FEFC0EB010BD80B540F26A
:1041C000D47041F20001C2F20000C4F201010023E8
:1041D0004FF00C0C4FF4E13280E80E00C0E90333DD
:1041E000C0E905C3C361FEF74FFF002818BFFDF704
:1041F00049FA80BD80B540F6180044F20041C2F291
:104200000000C4F2000100234FF00C0C4FF41642E2
:1042100080E80E00C0E90333C0E905C3C361FEF7BF
:1042200033FF002818BFFDF72DFA80BD80B540F69A
:104230005C0041F20041C2F20000C4F2010100231F
:104240004FF00C0C4FF4E13280E80E00C0E903336C
:10425000C0E905C3C361FEF717FF002818BFFDF7CB
:1042600011FA80BDFEE70000FEE7000000F0070045
:1042700080F00703042B28BF04234FF0FF3C0338D2
:104280000CFA03F338BF0020994381400CFA00F088
:1042900022EA00000843704710B540F20044C4F21F
:1042A0000204204680210122FDF78AFEFFF7D6F99D
:1042B000204640210122FDF783FEFFF7CFF920467B
:1042C00040210022FDF77CFE10BD000070B540F2D9
:1042D0000045C4F20205044628464021002200267B
:1042E000FDF76EFEE0B2C20928468021FDF768FEA8
:1042F0006400FFF7B3F9284640210122FDF760FE74
:10430000FFF7ACF9284640210022FDF759FEFFF7E0
:10431000A5F9072E06F10106E4D370BD10B540F2F1
:104320000044C4F20204204680210122FDF748FE29
:10433000204640210122FDF743FEFFF78FF920467A
:1043400080210022FDF73CFEFFF788F9204640213E
:104350000022FDF735FE10BD10B540F20044C4F256
:104360000204204640210022FDF72AFE204680213B
:104370000022FDF725FEFFF771F9204640210122BA
:10438000FDF71EFE204680210122FDF719FEFFF7F2
:1043900065F910BD000000000000000000000000F2
:1043A000EFF30980BFF36F8F154B1A681EF0100FE3
:1043B00008BF20ED108A20E9F04F10602DE90900B8
:1043C0004FF0500080F31188BFF34F8FBFF36F8F12
:1043D00004F084FE4FF0000080F31188BDE809006E
:1043E00019680868B0E8F04F1EF0100F08BFB0EC75
:1043F000108A80F30988BFF36F8F704700BF00BF3A
:10440000A40900209FED152AB5EE401A20EE020AFD
:1044100031EE023A9FED124AF1EE10FA08BFB0EE0B
:10442000443A80EE030A20EE821A81EE031A02EE6D
:10443000101AB8EEC22A30EE020ABDEEC00A10EE23
:10444000101A00EE102A0160B8EEC00A31EE000A20
:10445000BDEEC00A10EE101A416070470000004423
:10446000004000442DE9F04F81B02DED068BAAB03D
:104470000DF168098046484614460E46B0EE418A62
:10448000B0EE609AB0EE40AA04F0C4FB48466FF06C
:1044900007016FF007026FF0070301F0F9F9B0EEC2
:1044A000000A4846F0EE400AB0EE401A00F0F6FB73
:1044B0004846B0EE4A0AF0EE490AB0EE481A00F05B
:1044C000E7F84846002100220023002501F0E0F92A
:1044D0004BF6DC40C0F6000008380FFA86FB27B226
:1044E0000DF1200A0AAC00BF00F1080191EC030AAB
:1044F00000F10C06484604F03FFE504659463A4645
:10450000FFF780FFDDE9081204EBC50044F8351021
:1045100080314260403201F07F0144F8351002F0F2
:104520003F0101354160082D3046DDD14046FDF7A1
:10453000A1FA0A9C0B9DDDE90C89204629464246DA
:104540004B4605940495CDF80C80CDF80890FDF706
:104550000FFADDE90E672046294632463B460196B2
:104560000097FDF705FA109C119D2046294642460A
:104570004B4607940695FDF7FBF92046294632463F
:104580003B46FDF7F5F90DF1480999E8C0033946B6
:10459000304642464B46FDF7EBF9DDE916AB3046B7
:1045A000394652465B46FDF7E3F9DDE918454246D8
:1045B000204629464B46FDF7DBF920462946524660
:1045C0005B46FDF7D5F9DDE9041032463B46FDF7C1
:1045D000CFF9DDE9021042464B46FDF7C9F9DDE9A6
:1045E000001052465B46FDF7C3F9DDE9061022468E
:1045F0002B46FDF7BDF92AB0BDEC068B01B0BDE836
:10460000F08F000070B541F20004C4F202042046AD
:1046100001210122FDF7D4FC322001F0AFFC20463D
:10462000012100220025FDF7CBFC4FF4FA7001F0C8
:10463000A5FC204601210122FDF7C2FC282001F043
:104640009DFC20460121FDF7B5FCA8B1002000BF6C
:104650000646012001F092FC20460121FDF7AAFC4C
:10466000B6F5F97F03D8002806F10100F0D1002546
:10467000B6F5F97F88BF01254FF4FA7001F07EFC92
:10468000204601210122FDF79BFC284670BD000059
:104690002DE9F0472DED048BD0B0804610EE100AC6
:1046A000B0EE418AB0EE609AFBF7B6FF9FED840B47
:1046B00055EC107B3A462B46FBF7BCFE9FED820B78
:1046C00054EC106B32462346FBF726FFFBF7B7FF8F
:1046D000824619EE100AFBF79FFF3A462B46FBF77E
:1046E000A9FE32462346FBF717FFFBF7A8FF8146DA
:1046F00018EE100AFBF790FF3A462B46FBF79AFE9E
:1047000032462346FBF708FFFBF799FF05464FF0BB
:104710007E5450462094FBF77FFF41EC180B002697
:10472000B0EE480AF0EE680ACDE92166CDE92366CD
:1047300005F0FAFF51EC100BFBF781FFB0EE480AD1
:10474000F0EE680A259006F053F851EC100BFBF7D9
:1047500076FFB0EE480A80F00040F0EE680ACDE93E
:104760002606289606F044F851EC100BFBF767FF7D
:10477000B0EE480AF0EE680A299005F0D5FF51EC3A
:10478000100BFBF75CFFCDE92A064846CDE92C6605
:10479000CDE92E64FBF740FF41EC180BB0EE480A60
:1047A000F0EE680A05F0C0FF51EC100BFBF747FF75
:1047B000B0EE480AF0EE680ACDE9100606F018F8E7
:1047C00051EC100BFBF73BFFB0EE480AF0EE680A25
:1047D000CDE91206CDE91464CDE9166606F008F8B5
:1047E00051EC100BFBF72BFFB0EE480A80F00040B5
:1047F000F0EE680ACDE9180605F096FF51EC100BB3
:10480000FBF71DFFCDE91A062846CDE91C66CDE968
:104810001E64FBF701FF41EC180BB0EE480AF0EE06
:10482000680A05F081FF51EC100BFBF708FFB0EEB2
:10483000480AF0EE680A009005F0DAFF51EC100B20
:10484000FBF7FDFEB0EE480A80F00040F0EE680A8B
:10485000CDE90106039605F0CBFF51EC100BFBF7F9
:10486000EEFEB0EE480AF0EE680A049005F05CFF38
:1048700051EC100BFBF7E3FECDE90506CDE9076629
:10488000CDE90964CDE90B66CDE90D660F9440AC26
:1048900020A940462246FFF79FF830AD10A92046D8
:1048A0002A46FFF799F8694628464246FFF794F8EA
:1048B00050B0BDEC048BBDE8F08700BF00BF00BF67
:1048C0004AD8124DFB2109400000000000806640DC
:1048D0002DE9F04381B07F2823D889463F2920D88D
:1048E00004461044DDF820807F2888BFC4F1800290
:1048F00003EB090011193F2888BFC9F140030020CC
:104900008EB29FB2002500BF484481B22046324695
:104910000B46CDF8008000F007F80135E8B2874279
:10492000F2D201B0BDE8F0832DE9F04F85B0054625
:104930007F280C464FF07F0128BF0D467F2A38BFE5
:1049400011463F2C4FF03F0A28BF54463F2B38BF3B
:104950009A46681A38BF481BB4EB0A0338BFAAEB63
:1049600004034FF0FF328D424FF0FF360E9F38BFE9
:1049700001260396544538BF0122049202043DD01B
:1049800006B20FFA83FB5E45CBF100000296D8BF5A
:1049900006B2BBF1000F46D00191284621463A46A7
:1049A00000F058F80E9A544502D1019885424DD036
:1049B00006EBD6704FEA60090298C0F1000800BF0C
:1049C0000FFA89F003994045C8BF0D440499584532
:1049D000B8BF0C440299AFB2A6B2B8BF89444045F3
:1049E00038463146C8BFA9EB0B0900F033F80E9AE0
:1049F0005645E5D101988742E2D127E0A2455646C7
:104A000038BF2646A94238BF0D46A24538BF544696
:104A1000A1B228463A4600F01DF801340E9F20B29C
:104A2000B042F5DD12E0A2450E4638BF5446A94219
:104A30003CBF2E460D4600BFA8B221463A4600F0C4
:104A400009F801350E9F28B2B042F5DD05B0BDE88A
:104A5000F08F00007F2898BF3F2900D9704740F2AF
:104A60009C03C2F200031B78B2FA82FC002B6FF0A9
:104A7000700318BF4FEA5C1201F0070C03EA011142
:104A8000084440F2A001C2F200010123012A0A5C9D
:104A900003FA0CF302BF1A430A5470479A430A54AC
:104AA0007047000080B50246002840F2A000C2F224
:104AB00000004FF4806118BFFF22FBF7F5FB80BDBB
:104AC000B0B540F2A0040025C2F20004A5F15000E8
:104AD000C0B2002100F014F80120002100F010F80D
:104AE0001020002100F00CF820468021402200F028
:104AF0001FF80135082D04F18004E7D1B0BD000096
:104B0000B0B50C460546FFF709FC7820FFF7DEFB41
:104B1000FFF7C2FB2046FFF7D9FBFFF7BDFB284696
:104B2000FFF7D4FBFFF7B8FBFFF716FCB0BD0000A2
:104B300070B516460C460546FFF7F0FB7820FFF7E8
:104B4000C5FBFFF7A9FB3046FFF7C0FBFFF7A4FB4F
:104B500044B1013D15F8010FFFF7B8FBFFF79CFBCF
:104B6000013CF7D1FFF7F8FB70BD000080B5642071
:104B7000FDF740F9AE200021FFF7C2FF2020002101
:104B8000FFF7BEFF10200021FFF7BAFFB020002181
:104B9000FFF7B6FFC8200021FFF7B2FF0020002179
:104BA000FFF7AEFF10200021FFF7AAFF40200021F1
:104BB000FFF7A6FF81200021FFF7A2FFFF200021C1
:104BC000FFF79EFFA0200021FFF79AFFC0200021E1
:104BD000FFF796FFA6200021FFF792FFA8200021F3
:104BE000FFF78EFF3F200021FFF78AFFA42000215E
:104BF000FFF786FFD3200021FFF782FF002000216E
:104C0000FFF77EFFD5200021FFF77AFFF02000217B
:104C1000FFF776FFD9200021FFF772FF2220002145
:104C2000FFF76EFFDA200021FFF76AFF1220002154
:104C3000FFF766FFDB200021FFF762FF2020002145
:104C4000FFF75EFF8D200021FFF75AFF142000219F
:104C5000FFF756FFAF200021FFF752FF0020FFF7BC
:104C600021FFFFF72DFF80BD0000000000000000C5
:104C7000074B19680868B0E8F04F80F30988BFF364
:104C80006F8F4FF0000080F31188704700BF00BFA6
:104C9000A409002080B501F0E3F880BDB0B5A0B054
:104CA000044600208DED000ACDE90100CDE90300A6
:104CB000CDED050ACDE90600CDE908008DED0A1A13
:104CC000CDE90B00CDE90D004FF07E5010AD0F90F7
:104CD000694620462A46FEF77FFE28462146FEF713
:104CE0005FFE20B0B0BD000070B541F200040126A7
:104CF000C4F20204054626EA000220464FF4807101
:104D0000FDF75EF926EA550220464FF40071FDF7E3
:104D100057F926EA950220464FF48061FDF750F9D5
:104D200026EAD50220464FF40061FDF749F926EA4C
:104D3000151220464FF48051FDF742F926EA55122C
:104D400020464FF40051FDF73BF926EA9512204624
:104D50004FF48041FDF734F9E843C0B2C209204660
:104D60004FF40041FDF72CF970BD00008AB04FF4FC
:104D70007A7003F0ADF801F01FFEFEF793FFC6B2A4
:104D8000002E18BF012611D1002400BF4FF4FA7085
:104D900003F09EF8FEF786FFC6B2002E18BF01266C
:104DA000012C03D8000604F10104EFD040F2C850F2
:104DB000C2F2000001309FEDB28A9FEDB29A40F638
:104DC000286540F21C089FEDB0DA03909FEDB2EA2F
:104DD0009FEDB2FA00204FF0000AC2F20005C2F2C5
:104DE0000008B3EE0EAAB3EE04BAB2EE04CA0890FD
:104DF00000244FF00009002000270990049610E0DD
:104E000040F628650027C2F200050DF1140A049E41
:104E100040F21C089AE81006C2F20008012003F0D4
:104E200057F803F065F804F57A71884206D303F069
:104E30005FF8044601F0D0FDB0EE408AB4EE498A36
:104E4000F1EE10FA4CDA85ED008A03F051F8D8F84B
:104E500000104944884243D303F04AF895ED000A14
:104E60005FFA8AF13AEE400A20EE0B0A80EE0C0A55
:104E70000AF1010A5FFA8AF24D2A40F2C8528146CD
:104E8000C2F2000230EE0D0ABDEEC00A10EE100AAA
:104E9000505409D340F2C8500399C2F200004C228A
:104EA0004FF04C0AFBF7EEF92868FBF7B5FB02461A
:104EB00076A00B4604F0DEFF40F24C00C2F2000088
:104EC00095ED000A90ED001AB4EE410AF1EE10FAE9
:104ED00006DB40F62C60C2F200000121017000BF29
:104EE000002E9BD003F004F8DDF824B00BF1320162
:104EF000884228BFFEF7B0FD02F0FAFFD8F8001094
:104F0000594488428AD305A880E8100602F0F0FFD1
:104F100040F2CC41C2F2000191ED000A40F2D843C8
:104F200020EE0B0A80EE0E0AC2F2000330EE0D0AEC
:104F3000BDEEC00ADDF8209010EE101A5FFA89F27B
:104F4000995440F2D041C2F2000191ED000A40F2C2
:104F5000285320EE0B0A80EE0F0AC2F2000309F17B
:104F600001093DEE400ABDEEC00A10EE101A995438
:104F700040F2D441C2F2000191ED000A5FFA89F1DA
:104F800020EE0B0A80EE0F0A09904D2940F278516D
:104F9000C2F200013DEE400ABDEEC00A10EE100A5A
:104FA000885419D340F2D840C2F20000411C4C2270
:104FB0004FF04C09FBF766F940F22850C2F20000AE
:104FC000411C4C22FBF75EF940F27850C2F200001F
:104FD000411C4C22FBF756F940F2AC40C2F20000F3
:104FE000B0F9001040F2AE40C2F20000B0F900206B
:104FF00040F2B04040F21C6A40F21E64C2F200006F
:10500000C2F2000AC2F2000440F2206BB0F9003094
:10501000BAF90000B4F90050C2F2000BBBF900600D
:10502000CDE900051EA0029604F024FFBAF90000A5
:10503000BAF90010B4F90020B4F900305A43BBF9B2
:105040000030BBF9006011FB002043F2015116FB58
:105050000300C0F20C018842CDF82090FFF6D0AEDC
:1050600040F62865072F07F10107C2F20005FFF699
:10507000CCAE40F6AC010120C2F200010870C4E6DB
:10508000000000000000FA420000004274656D70EC
:105090003A252E31660D0A000000B4C200003443E8
:1050A0006178797A3A25366420253664202536647D
:1050B0002C6778797A3A253664202536642025369F
:1050C000640D0A00FCF7B8FC40F21864C2F2000458
:1050D00003E000BF642002F0FBFE20680428F9D83A
:1050E000DFE800F006090C0F0300FCF705FAF1E712
:1050F000FCF746FAEEE7FBF78DFEEBE7FCF77CF8F2
:10510000E8E7FCF7B5F9E5E740F6A40640F21867D2
:1051100040F6A80A40F62C6948F6342BC2F2000685
:10512000C2F2000700240FF29C18C2F2000AC2F279
:105130000009C2F2000B03E0202D08BF3C6057E0DD
:105140003078F8B1FEF70EFBC8B1DAF8005002F083
:10515000CFFE95B1DAF8001001F6B83188420ED3CF
:1051600040F6AC00C2F20000047089F80040CBF8B1
:1051700000403470CAF8004001E0CAF800000A207C
:1051800002F0A6FE30780028DAD1FEF783FA054651
:1051900018B14046294604F06DFE38680428CBD883
:1051A000DFE800F0030D31545D00102D20D1012007
:1051B000386040F6A000C2F20000046018E0681EEB
:1051C00040F6AD021F28C2F2000211D8DFE800F05D
:1051D000521410581010104410101010101010100D
:1051E000101010101010101010101010101010507F
:1051F0000A2002F06DFEA3E7107800280CBF022001
:1052000001381070F4E7681E40F21C021F28C2F239
:105210000002EDD8DFE800F03111103A101010292B
:105220001010101010101049101010101010101045
:10523000101010101010102CDAE740F2C550C2F216
:10524000000000780028D3D0013828E0202D0FD0AE
:10525000082D0FD0012DCBD102203860C8E7202DBA
:1052600006D0082D09D0012DC2D103203860BFE738
:105270003C60BDE704203860BAE701203860B7E73A
:105280001078012819D801301070B1E740F2C550EC
:10529000C2F20000007803283FF6AAAF013040F2C6
:1052A000C551C2F200010870A2E71068322814BF8D
:1052B00032204FF47A7010609AE7022808BF147009
:1052C00096E700BF253032580A00000082B040F255
:1052D000186A40F62C6740F6AC0848F6342B0020DC
:1052E000C2F2000AC2F20007C2F2000801AEC2F226
:1052F000000B47F2305901900CE000BF4FF0203016
:10530000019030460221FBF7DDFCFBF793FB012007
:1053100002F0DEFDDAF8000020B10020FFF7E4FC27
:1053200002E000BF00F044FC387898F80010084311
:10533000E4D0DBF8005002F0DBFD002D00F08080AF
:10534000DBF8001001EB0905A8427CD240F6A4016D
:105350000120C2F20001B146087002F0C9FD41F21D
:105360005971281ACDF2B711A0FB0112510B44F666
:10537000D3524CF6CD46C1F26202CCF6CC46A0FB2D
:105380000223A1FB062C9A0948F21F53C5F2EB1326
:10539000A0FB0334A2FB063E6309A0FB06043D46C6
:1053A000A3FB0607E008A0FB06464FEADC0404EB7B
:1053B0008404A1EB44018DF804104FEADE0101EBF7
:1053C0008101A2EB41018DF80510F9082F4601EB90
:1053D0008101A3EB4105F1083A7801EB8101A0EBD3
:1053E0004100012A8DF806508DF807000FD145F3D2
:1053F000030000280BD405F00F00012101FA00F092
:1054000010F0920F03D064202946FBF7E7FA98F8D2
:1054100000004E46012847F230597FF472AF05F084
:105420000F0005283FF66DAF012101FA00F010F0E2
:10543000260F3FF466AF96202946FBF7CFFA60E7C8
:10544000CBF800005DE740F6A4010020C2F20001A5
:1054500088F800003870CBF80000087051E70000B1
:10546000012002F035FDFBE780B54EF21000CEF2D0
:105470000000006804F0A0FA012818BF03F04AFFFA
:1054800080BD000070B592B006AC20463021FAF71E
:1054900012FF002543F640000595CDE90355CDE9FF
:1054A00001550095C4F202000168022641F08051C6
:1054B0000160006800F080500090009847F2000002
:1054C0000095C4F20000016841F480410160006869
:1054D000A82100F4804000900098012006904FF42D
:1054E000803007904FF480000D9004200C960E90B1
:1054F000CDE90F1611902046FCF74CFF88B90F201C
:10550000CDE901064FF4A05004904FF4805005906F
:1055100001A805210395FCF70DFE002804BF12B079
:1055200070BDFCF7AFF800004EF68850CEF20000D8
:10553000016841F4700101607047000080B540F2DD
:105540008C70C2F20000FDF77FFA80BD10B540F606
:10555000FF3E0368C4F2000E40F2004C7045C4F2F6
:10556000010C0FDCB0F1804F19D040F20042C4F2C0
:105570000002904213D040F60002C4F200029042B2
:105580000DD010E040F60042C4F20002904206D076
:10559000604504D00022C4F20102904203D14A685F
:1055A00023F07003134341F6FF72C4F200029042ED
:1055B0000DDC70451FDCB0F1804F41D040F200425D
:1055C000C4F2000290423BD040F6000221E043F6D4
:1055D000FF72C4F20102904220DC42F20002C4F2E7
:1055E000000290422CD00022C4F20102904227D047
:1055F000604525D028E040F60042C4F20002904207
:105600001ED041F60002C4F20002904218D041F6CA
:105610000042C4F20002904212D015E044F20002AF
:10562000C4F2010290420BD044F60002C4F201021F
:10563000904205D044F20042C4F20102904203D1EC
:10564000CA6823F44073134323F080024B69D1F8F6
:1056500000E08C681A430260C46240F48062C0F8C3
:1056600028E0624504BF096901630121416110BD61
:1056700080B501F01F014FF0010CD0F820E00CFACA
:1056800001F32EEA03030362036A02FA01F11943EC
:10569000016280BDD0F808C011432CF47F4C41EA70
:1056A000032141EA0C01816070470000826822F00A
:1056B0007002114341F0070181607047B0B5026A82
:1056C00022F001020262026AD0F804E083690C68E9
:1056D00023F073038D6843EA040C40F2004422F087
:1056E000020240F48063C4F20104A34242EA0502CC
:1056F00005D1CD6822F00C0225F004052A43A3420F
:1057000006D1D1E905542EF440732B4343EA040E2D
:10571000C0F804E0C0F818C0496841630262B0BD37
:1057200070B5026A22F010020262026AD0F804E048
:1057300083690C6823F4E6438D6843EA042C40F245
:10574000004422F0200240F48063C4F20104A3422A
:1057500042EA051207D1CD686FF0400622F0C00280
:1057600006EA05152A43A34207D1D1E905652EF4BF
:10577000406343EA860343EA850EC0F804E0C0F8BC
:1057800018C049688163026270BD000070B5026A8A
:1057900022F480720262026AD0F804E0C3690C68E5
:1057A00023F073038D6843EA040C40F2004422F4B2
:1057B000007240F48063C4F20104A34242EA05226D
:1057C00007D1CD6840F2FF462D0222F44062B54376
:1057D0002A43A34207D1D1E905652EF4405343EA99
:1057E000061343EA051EC0F804E0C0F81CC049686F
:1057F000C163026270BD000010B5026A40F200444D
:1058000022F480520262D0F820C04268C369C4F218
:10581000010423F4E64E40F48063A3420B688C68D5
:105820004EEA032E2CF4005343EA043C04D14B69A6
:1058300022F4804242EA83124260C0F81CE04968C8
:105840000164C0F820C010BDD0F820C0036A23F066
:1058500001030362836923F0F00343EA02122CF090
:105860000A0319438261016270470000036A23F052
:10587000100303628369D0F820C023F4704343EA25
:1058800002322CF0A00343EA0111826101627047E9
:10589000B0B5A0B004464FF07E50002500EE101ABF
:1058A0000090CDE90155B8EEC00A8DED030A00EE77
:1058B000102ACDE904500695B8EEC00A8DED070A0E
:1058C00000EE103ACDE908550A90B8EEC00A8DED09
:1058D0000B0ACDE90C55CDE90E5010AD69462046B6
:1058E0002A46FEF779F828462146FEF759F820B0F7
:1058F000B0BD000080B5806B0021C185C184FDF77B
:10590000D5FA80BD0168CA6822F49072CA604A69FB
:1059100022F001024A61026B012A03D1CA6822F017
:105920001002CA60202180F83E10002101637047F8
:1059300080B50168CA6822F04002CA60202180F860
:105940003D10FDF74DFD80BD10B5044690F83E00BA
:10595000222847D1A168B1F5805F01D1206980B1CB
:10596000A06AB1F5805F07D009B9216921B121682A
:10597000496801F07F0101E0216849680170012058
:1059800006E02068A16A40686FF35F20088002206B
:10599000A16A0844A062E08D01380104E08518BFC7
:1059A00010BD2068C16821F02001C160C16821F4E8
:1059B0008071C160416921F001014161202184F8B9
:1059C0003E10216B012908D1C16821F01001C1608E
:1059D000A18D2046FDF768FA02E02046FDF798FC0D
:1059E0000020206310BD000010B504460068D4E913
:1059F00002C22369016921F44051114301616269C6
:105A000043EA0C01E3691143C268194349F20C638C
:105A10009A431143C1604169A26921F4407141F286
:105A20000043114340F48062C4F201039A42416191
:105A300002D1FCF767FC01E0FCF752FCE169636806
:105A40001922B1F5004FA0FB02011CD15A00DB0F57
:105A5000FAF7B6FB48F21F51C5F2EB11A0FB012388
:105A60005A096FF0630302FB0300322303EBC0000B
:105A7000A0FB01014FF4F87000EA111000EB0210D6
:105A8000C1F342111AE09A009B0FFAF799FB48F212
:105A90001F51C5F2EB11A0FB01235A096FF06303FC
:105AA00002FB0300322303EB0010A0FB0101F020F6
:105AB00000EA511000EB0210C1F3431122680843C1
:105AC000906010BD90F83D10212923D18168B1F577
:105AD000805F01D1016931B1016A02684B1C036228
