:020000040800F2
:1000000008AC00209D010008D94D00089D3E000865
:10001000D54D0008CD0A0008C96B0008000000009B
:10002000000000000000000000000000E157000890
:10003000590D000800000000114F000889620008F7
:10004000B7010008B7010008B7010008B7010008B0
:10005000B7010008B7010008B7010008B7010008A0
:10006000B7010008B7010008B7010008B701000890
:10007000B7010008B7010008B7010008B701000880
:10008000D90A0008B7010008B7010008B701000845
:10009000B7010008B7010008B7010008B701000860
:1000A000B7010008B7010008B7010008B701000850
:1000B000B7010008B7010008B7010008B701000840
:1000C000B7010008B7010008B7010008B701000830
:1000D000B7010008E16A0008F96A0008B7010008E2
:1000E000B7010008B7010008B7010008B701000810
:1000F000B7010008B7010008B7010008B701000800
:10010000B7010008B7010008B7010008B7010008EF
:10011000B7010008B7010008B70100085D630008D7
:10012000B7010008E90A0008F90A0008B701000849
:10013000B7010008B7010008B7010008B7010008BF
:10014000B7010008B7010008B7010008B7010008AF
:10015000B7010008B7010008B7010008096B0008E3
:10016000B7010008B7010008B7010008B70100088F
:10017000B7010008B7010008B7010008000000003F
:10018000B7010008B7010008DFF80CD000F0CAFB87
:1001900000480047D180000808AC0020064880478E
:1001A00006480047FEE7FEE7FEE7FEE7FEE7FEE75C
:1001B000FEE7FEE7FEE7FEE7496300088901000865
:1001C0002DE9F05F0546002092469B46884606468C
:1001D000814640241BE0284641464746224600F01F
:1001E000A3FA53465A46C01A914110D311461846F5
:1001F000224600F08AFA2D1A67EB01084F46224684
:100200000120002100F081FA17EB00094E41201E69
:10021000A4F10104DFDC484631462A464346BDE8E6
:10022000F09F2DE9F0410024061B254671F10006E0
:1002300005DA01240027D0EB070067EB0101161E49
:1002400073F1000605DA0027D2EB0702012567EB00
:100250000303FFF7B5FF86460E4617469C46AC42A1
:1002600004D00025D0EB050E65EB010624B100207B
:10027000D2EB000760EB030C704631463A4663460A
:10028000BDE8F08140EA01039B0703D009E008C9FB
:10029000121F08C0042AFAD203E011F8013B00F84B
:1002A000013B521EF9D27047D2B201E000F8012B97
:1002B000491EFBD270470022F6E710B513460A46E6
:1002C00004461946FFF7F0FF204610BD30B505463D
:1002D0002A460B4612F8010B13F8014B08B1A04255
:1002E000F8D01CB1002802D06D1CF1E7284630BDC3
:1002F00010B5044604E00B7800F8013B03B1491C3B
:10030000521EF8D2204610BD421C10F8011B0029D5
:10031000FBD1801A704730B504460020034600E048
:100320005B1C934203D2E05CCD5C401BF8D030BD37
:1003300030B505460020034600E05B1C934205D221
:10034000EC5CC85C201A01D1002CF6D130BD2DE93F
:10035000FE4F804681EA0300C00F0C46009021F05A
:10036000004123F00045B8EB0200A94105D2404608
:10037000214690461C460B46024623F0004010439F
:1003800047D0270DC7F30A00C3F30A510290401A61
:10039000019040286BDAC3F3130040F4801B0098EF
:1003A000924620B10023D2EB030A63EB0B0B0198BA
:1003B0005946C0F14002504600F0A7F906460D46E6
:1003C00050465946019A00F0BFF910EB0800614110
:1003D000002487EA115284EAE7731A4340D0009A56
:1003E00062B3019A012A4FEA075215DC001B61EB48
:1003F00002014FF0004202EA0752CDE90042001C20
:1004000041F5801132462B4600F0F6F903B0BDE805
:10041000F08F40462146F9E7001B61EB0201001C0A
:1004200041F5801300185B412018A2F5001747EB37
:10043000030140EAD570B6196D4111E06D084FEA2D
:10044000360645EAC0754FEA0752001B61EB020110
:10045000001C41F5801149084FEA30000019514154
:1004600032462B4603B0BDE8F04F00F0B6B9009815
:10047000012240000023D0EB020263EBE0730098FE
:1004800021464FEAE074B8EB000061EB0401E9E7B4
:1004900083F000435BE781F0004158E72DE9FE4F10
:1004A00081EA030404F0004421F0004100944FF07D
:1004B000000B23F0004350EA01045ED052EA03042B
:1004C0005BD0C3F30A54C1F30A552C44A4F2F334AD
:1004D0000194A0FB0254C1F3130141F48011C3F352
:1004E000130343F4801301FB024400FB034E840A10
:1004F000970A44EA815447EA8357A4FB07680295A8
:100500008D0A05FB07854FEA932C04FB0C54270545
:10051000029D4FEA065847EA1637B5EB08056EEB21
:10052000070C870E920E47EA811742EA8312A7FB57
:100530000201B6EB0B0164EB00042B0D43EA0C3314
:100540005E1844EB1C50DA465146E7FB0201C5F346
:1005500013044FEA0B3343EA14534FEA0432019C6D
:1005600043EA0603A4F10C040294009CCDE900B414
:1005700000F042F903B0BDE8F08F00200146F9E732
:100580002DE9F04D81EA030404F0004B21F0004511
:1005900014464FF0000A23F0004150EA050220D033
:1005A00054EA01021DD0C5F30A570246C5F31303EE
:1005B000C1F31300C1F30A5640F4801543F48013CD
:1005C000A7EB0608101BD64608F2FD3873EB0500B2
:1005D00002D308F1010801E092185B41B8F1000F65
:1005E00003DA00200146BDE8F08D00204FF48011B1
:1005F000064684460EE0171B73EB050705D3121B56
:1006000063EB050306434CEA010C49084FEA30004E
:1006100092185B4150EA0107EDD152EA030012D073
:1006200082EA040083EA0501084305D0101BAB41B0
:1006300006D20122002306E000224FF0004302E030
:100640006FF0010253101AEB06004CEB085110EB4F
:100650000A0041EB0B01BDE8F04D00F0BEB80EB54D
:10066000C10F80EAE0700844CA07002140F233431A
:100670008DE80E000A460B4600F0BEF803B000BD40
:1006800000F0004230F000400AD0C10D01F5607169
:10069000C0F3160042EA0151C208400711437047F7
:1006A00000200146704701F0004330B421F00041C2
:1006B00050EA010206D00A0DA2F56072C1F31301DF
:1006C000002A02DC30BC00207047440F44EAC10419
:1006D000C100E01830BC00EBC25000F047B830B5A4
:1006E0000B46014600202022012409E021FA02F5F0
:1006F0009D4205D303FA02F5491B04FA02F528448A
:10070000151EA2F10102F1DC30BD202A04DB203AE3
:1007100000FA02F1002070479140C2F1200320FA54
:1007200003F3194390407047202A04DB203A21FA52
:1007300002F00021704721FA02F3D040C2F12002FA
:100740009140084319467047202A06DBCB17203A10
:1007500041FA02F043EAE07306E041FA02F3D040C6
:10076000C2F1200291400843194670470029A8BFF2
:100770007047401C490008BF20F00100704710B4CA
:10078000B0FA80FC00FA0CF050EA010404BF10BC7F
:10079000704749B1CCF1200421FA04F411FA0CF1AC
:1007A00018BF012121430843A3EB0C01CB1D4FEAE5
:1007B00000614FEA102042BF002010BC704700EBE0
:1007C000C35010440029A4BF10BC7047401C49000E
:1007D00008BF20F0010010BC704710B5141E73F163
:1007E000000408DA401C41F1000192185B411A43F1
:1007F00001D120F0010010BD2DE9F04D92469B463D
:1008000011B1B1FA81F202E0B0FA80F220329046E2
:10081000FFF77BFF04460F4640EA0A0041EA0B015E
:1008200053465A46084313D0114653EA010019D0E3
:10083000C8F140025046FFF777FF05460E46504686
:1008400059464246FFF761FF084305D0012004E006
:1008500020463946BDE8F08D0020054346EAE076A3
:100860002C4337430A986305E40AA0EB08000022F2
:10087000FD0A44EA47540A3002D500200146E9E760
:10088000010510196941DDE9084500196941BDE814
:10089000F04DA2E7C1F30A52C1F3130140F2FF3356
:1008A00041F480119A4202DA00200146704740F27A
:1008B00033439A42A2F2334202DC5242FFF734BF82
:1008C000FFF723BF30B5041E71F1000404DB4FF0C5
:1008D0000044404264EB0101141E73F1000405DB87
:1008E0001C464FF00043524263EB04038B4208BFA7
:1008F000824230BD30B5041E71F1000404DB4FF0BC
:100900000044404264EB0101141E73F1000405DB56
:100910001C464FF00043524263EB0403994208BF68
:10092000904230BD064C074D06E0E06840F0010300
:1009300094E8070098471034AC42F6D3FFF728FC40
:10094000A4520108C45201082DE9F04D00231A46B3
:100950001B1A8A4103DB00200146BDE8F08DC1F37C
:100960000A52C1F3130141F480154FF0000BD10777
:1009700002D100186D41521E0027044640F2FF11BB
:10098000384601EB620A3E468046024600204FF49C
:100990008011FFF7C9FEC2197141BB1846EB010077
:1009A000B4EB030C75EB000C04D3E41A65EB000503
:1009B00017460E46241908F101006D41804634287F
:1009C000E3DDF91946EB0600091BA84103D24FF0FD
:1009D000FF32134601E0002213461BEB070046EBF3
:1009E0000A51BDE8F04DFFF7F8BE0EB540F23341B5
:1009F00002910021CDE900110A460B46FFF7FCFEEB
:100A000003B000BD70B5C1F30A5201F000450024E7
:100A1000C1F3130140F2FF3341F480119A4201DA2D
:100A2000002070BD40F233439A42A2F2334203DC0D
:100A30005242FFF779FE00E090402C43F1D0404253
:100A400070BD000070B541F2FC34C2F200040546EE
:100A500020460E4602F0FAFB701E062888BF70BDC5
:100A60004CF63650C0F6000030F8160044F2402133
:100A7000C0F20F01B1FBF0F02168C862E0604008ED
:100A8000486308F043FA40F2B4412844C2F200013E
:100A900008602046002102F04BFE70BD10B540F208
:100AA000B444C2F20004206870B108F02FFA216843
:100AB000884238BF10BD0020206041F2FC30C2F2F5
:100AC0000000002102F0B0FE10BD0000FEE70000B3
:100AD00041EA00207047000080B541F23C30C2F28C
:100AE000000001F037FD80BD80B541F29C30C2F2BC
:100AF000000001F02FFD80BD80B541F2DC20C2F284
:100B0000000001F027FD80BDD0F800C06FF00F029B
:100B10004AF6AB2352FA8CF2CAF6AA230146A2FB8C
:100B20000330000905A31B5C40F2FF302CEA0000F3
:100B30005F2A88BF0430C1E916037047000610160B
:100B4000000610168269816AB2F5005F06D06AB9A4
:100B5000022912D0012914D0D1B90EE0032917D8E7
:100B6000DFE801F0020B020F0120704703293CBFB0
:100B7000012070471CBF00207047C06AC0F30060AE
:100B80007047C06AA0F1C070B0FA80F040097047A9
:100B90000020704780B5D0F800C0D0F808E0DCF83D
:100BA0000000BEF1400F20F48020CCF80000084681
:100BB000CCF8043004BF10460A46CCF80800CCF844
:100BC0000C2080BD70B514460D46064604F0D2FADE
:100BD000CC2000F061F84E2000F05EF8204600F0D6
:100BE0005BF8284600F058F8304600F055F804F05D
:100BF000C1FACC2000F050F8482000F04DF841F246
:100C00000004C4F2020400BF2046012101F0E2FE0C
:100C10000028F9D070BD000070B541F20004C4F2A4
:100C2000020420460121012201F0DAFE052006F02F
:100C3000B3F90825204601210022C6F3460601F03B
:100C4000CFFE052006F0A8F920460121012201F07F
:100C5000C7FE052006F0A0F92046012101F0BAFEEA
:100C600000284FF0410018BF66F07F0606F094F9A7
:100C700020460121012201F0B3FE013D2806D9D111
:100C8000F0B270BD80B504F075FACC2000F004F825
:100C9000442000F001F880BDF0B581B041F20004BD
:100CA00005460826C4F2020420460121002201F074
:100CB00097FE052006F070F905F00102204601219B
:100CC000EFB201F08DFE412006F066F920460121C9
:100CD000012201F085FE022006F05EF9013E300699
:100CE0004FEA5705E0D101B0F0BD000080B586B0F5
:100CF00000200590CDE90300CDE90100009043F606
:100D00003000C4F20200016841F010010160006887
:100D100001A900F01000009000980120CDE9010029
:100D200041F20000C4F2020001F088FD06B080BD6F
:100D30004EF6FC50CEF20000016841F08071016077
:100D400041F20000CEF20000016841F001010160B3
:100D500000214160704700007047000070B50446F4
:100D60004D1E00202A1A215CB2FA82F2461C52095A
:100D7000C0B205F061FF012008F0B8F8042E30463B
:100D8000F0D170BD2DE9F04381B00646147803F030
:100D900007000D46089F40F268099046C2F200091C
:100DA000DFE800F004132231404F5E6D99F81C001B
:100DB00061B2421E18BF0122002948BF0246B0B2EC
:100DC000A9B204F0FFFB013F6CD099F81C00731C22
:100DD000421E18BF0122610648BF0246A9B298B25E
:100DE00004F0F0FB013F5DD099F81C00B31C421EDB
:100DF00018BF0122A10648BF0246A9B298B204F06A
:100E0000E1FB013F4ED099F81C00F31C421E18BFB5
:100E10000122E10648BF0246A9B298B204F0D2FB13
:100E2000013F3FD099F81C00331D421E18BF01221C
:100E3000210748BF0246A9B298B204F0C3FB013FA4
:100E400030D099F81C00731D421E18BF01226107A3
:100E500048BF0246A9B298B204F0B4FB013F21D0CA
:100E600099F81C00B31D421E18BF0122A10748BFFC
:100E70000246A9B298B204F0A5FB013F12D099F83E
:100E80001C00F31D421E18BF0122E10718BF0246D5
:100E9000A9B298B204F096FB013F03D018F8014FB5
:100EA000083683E701B0BDE8F0830000B0B586B036
:100EB00001F06EF94FF23C40C0F6000001F0C2FABA
:100EC000002001F0B5FA44F6D670C0F6010000210A
:100ED000002201F0FBF9012001F0AAFA44F6CD70DE
:100EE000C0F6010000210E2201F0F0F944F6BA70BC
:100EF000C0F6010000211A2201F0E8F944F6B170B1
:100F0000C0F601000021272201F0E0F944F6E2706A
:100F1000C0F601000021342201F0D8F9342000216C
:100F2000802201F0FBF930200021342201F018FA70
:100F300041F26550C2F200000078022836D0012844
:100F400058D0002840F07781C9A03221002201F05A
:100F5000BDF9CAA032211A2201F0B8F942F6E82000
:100F6000C2F200000068FFF78BFB01AC02460B46A3
:100F7000C5A1204609F0B6FF20465A210D2201F0F6
:100F8000A5F941F26450C2F20000017844F6DF7224
:100F900044F6C370C0F60102C0F60100002908BF84
:100FA00010465A21272201F091F944E141F2D4255B
:100FB000C2F20005B5F9002001ACA1A1204609F05C
:100FC00091FF20463221002201F080F9B5F900108E
:100FD000B5F90000012931DB37214843C11700EB87
:100FE00051405A2101EBE0325A200D21102301F02B
:100FF000BBF935E040F2AC45C2F20005B5F900207E
:1010000001AC95A1204609F06DFF20463221002257
:1010100001F05CF9B5F90010B5F90000012943DBD6
:1010200037214843C11700EB51405A2101EBE03210
:101030005A200D21102301F097F947E0B0F1FF3F4E
:101040000EDCB5F9000037214843C11700EB5140D1
:101050005A21A1EBE0325A200D21102301F07CF936
:1010600041F2D625C2F20005B5F9002001AC76A107
:10107000204609F037FF20463221112201F026F9DF
:10108000B5F90010B5F90000012943DB37214843C9
:10109000C11700EB51405A2101EBE0325A201E21CA
:1010A000212301F061F947E0B0F1FF3F0EDCB5F913
:1010B000000037214843C11700EB51405A21A1EBF2
:1010C000E0325A200D21102301F046F940F2AE45DE
:1010D000C2F20005B5F9002001AC61A1204609F07B
:1010E00001FF20463221112201F0F0F8B5F900107D
:1010F000B5F90000012943DB37214843C11700EB54
:1011000051405A2101EBE0325A201E21212301F0E7
:101110002BF947E0B0F1FF3F0EDCB5F900003721B5
:101120004843C11700EB51405A21A1EBE0325A204D
:101130001E21212301F010F941F2D825C2F2000549
:10114000B5F9002001AC42A1204609F0CBFE2046B3
:101150003221222201F0BAF8B5F90010B5F90000E9
:10116000012943DB37214843C11700EB51405A2185
:1011700001EBE0325A202F21322301F0F5F85AE03A
:10118000B0F1FF3F0EDCB5F9000037214843C1172D
:1011900000EB51405A21A1EBE0325A201E212123BD
:1011A00001F0DAF840F2B045C2F20005B5F90020CE
:1011B00001AC2DA1204609F095FE204632212222C5
:1011C00001F084F8B5F90010B5F90000012920DB21
:1011D00037214843C11700EB51405A2101EBE0325F
:1011E0005A202F21322301F0BFF824E0B0F1FF3F55
:1011F00021DCB5F9000037214843C11700EB51400D
:101200005A21A1EBE0325A202F21322301F0A4F819
:1012100011E0B0F1FF3F0EDCB5F900003721484383
:10122000C11700EB51405A21A1EBE0325A202F2187
:10123000322301F091F801F01BF906B0B0BD00BFF8
:1012400067783A253664000067793A2536640000ED
:10125000677A3A253664000061783A2536640000E2
:1012600061793A2536640000617A3A2536640000D7
:10127000B5B1C7B0CEC2B6C8A3BA0000D5F0B6AFFC
:10128000B1A8BEAFA3BA0000252E3166A1E60000CA
:10129000B0B52DED028B88B040F24C00C2F20000D8
:1012A00090ED008A00F074FF4FF23C40C0F6000061
:1012B00001F0C8F844F6D670C0F601000021002203
:1012C00001F004F8002001F0B3F844F6CD70C0F648
:1012D000010000210E2200F0F9FF012001F0A8F822
:1012E00044F6BA70C0F6010000211A2200F0EEFFA9
:1012F00044F6B170C0F601000021272200F0E6FF9D
:1013000044F6E270C0F601000021342200F0DEFF56
:1013100034200021802201F001F830200021342205
:1013200001F01EF841F27D20C2F200000078013881
:10133000032828D8DFE800F0026B91B72020332182
:10134000802200F0EBFF41F28010C2F20000006842
:10135000FFF796F902460B466DA10DF1020009F068
:10136000C1FD41F290150024C2F200052A19295D41
:10137000537804F1330004F1340200F0D7FF013454
:101380004C2CF3D1A6E0B3EE0E0A30EE480AB3EED1
:10139000041A20EE010AB2EE041A80EE010A9FED53
:1013A000531A20203321802230EE018A00F0B6FF4C
:1013B00042F6E820C2F200000068FFF761F9024639
:1013C0000B4657A10DF1020009F08CFD41F280257A
:1013D0000024C2F2000500BF2A19295D537804F1E8
:1013E000330004F1340200F0A1FF01344C2CF3D19E
:1013F000BDEEC80A10EE104A302500BF284621462F
:1014000000F0A6FFA81CC5B2802DF7D362E0202013
:101410003321802200F082FF41F28410C2F20000EA
:101420000068FFF72DF902460B4635A10DF10200C9
:1014300009F058FD41F2E0150024C2F2000500BF9A
:101440002A19295D537804F1330004F1340200F0C5
:101450006DFF01344C2CF3D13CE02020332180225D
:1014600000F05CFF41F28810C2F200000068FFF754
:1014700007F902460B461EA10DF1020009F032FDEC
:1014800041F230250024C2F2000500BF2A19295D6F
:10149000537804F1330004F1340200F047FF0134C3
:1014A0004C2CF3D116E041F28010C2F2000090ED16
:1014B000000A41F28410C2F20000D0ED000A41F2AD
:1014C0008810C2F2000090ED001A01204021102285
:1014D00003F080FD0DF102003321002200F0F6FE42
:1014E00000F0C6FF08B0BDEC028BB0BD00000042AA
:1014F000BABDCFF2BDC73A252E3166A1E300000088
:10150000BAE1B9F6BDC73A252E3166A1E300000065
:10151000B8A9D1F6BDC73A252E3166A1E300000077
:10152000CEC2B6C83A252E3166A1E600B0B588B065
:1015300000F02EFE4FF23C40C0F6000000F082FFAB
:1015400044F6D670C0F601000021002200F0BEFE75
:1015500044F6CD70C0F6010000210E2200F0B6FE68
:10156000002000F065FF44F6BA70C0F601000021CB
:101570001A2200F0ABFE012000F05AFF44F6B170D1
:10158000C0F601000021272200F0A0FE44F6E27020
:10159000C0F601000021342200F098FE40F2CC4554
:1015A000C2F2000505F545603221002200F08EFEF2
:1015B00044F66770C0F6010032210C2200F086FE6E
:1015C0000DF102041EA1204642F2127209F08AFCBB
:1015D00020463221182200F079FE95F8B21C44F61C
:1015E000787244F67570C0F60102C0F60100002959
:1015F00008BF10463221242200F068FE41F28C1010
:10160000C2F20000017844F6AA7244F6C670C0F631
:101610000102C0F60100002908BF1046552124220E
:1016200000F054FE34200021802200F077FE3020AC
:101630000021342200F094FE00F01AFF08B0B0BD83
:10164000B6CBBFDA3A25640080B500F0A1FD4FF2B9
:101650003C40C0F6000000F0F5FE44F6D670C0F63F
:1016600001000021002200F031FE44F6CD70C0F6EA
:10167000010000210E2200F029FE44F6BA70C0F6E7
:10168000010000211A2200F021FE002000F0D0FE0F
:1016900044F6B170C0F601000021272200F016FECA
:1016A000012000F0C5FE44F6E270C0F60100002102
:1016B000342200F00BFE34200021802200F02EFEA8
:1016C00030200021342200F04BFE00F0D1FE80BD1E
:1016D000B0B541F25854C2F20004256807F016FC78
:1016E000A5B1216801F5FA61884211D907F00EFC15
:1016F000216841F288321144884219D907F006FC6A
:10170000216801F5FA51884222D900202060B0BD3D
:1017100000F03EFD4FF21C40C0F6000000F092FECB
:1017200016A040210C2200F0DBFD00F0A1FEB0BDB0
:1017300000F02EFD4FF2FC30C0F6000000F082FEFB
:1017400015A00021002200F0C1FD00F091FEB0BD07
:1017500000F01EFD44F2D820C0F601000021002256
:1017600000F0D8FD44F2E820C0F60100402100223C
:1017700000F0D0FD00F07CFEB0BD00BFB7C0BBF0F4
:10178000A1A2B7C0B5C1D4B60AB3CCBCECB2E2C614
:10179000F7C9E8BCC6000000B3C9D4B131A3BACBC5
:1017A000EFEABBC8BB0A202020202020203138309F
:1017B00034313832300AB3C9D4B132A3BAB7BDBE5E
:1017C000C5B4A80A20202020202020313830343110
:1017D0003831310070B582B0044600680168C9062E
:1017E0000CD5002101910168019141680191019995
:1017F00041F20041C4F20101884201D002B070BD43
:10180000204602F063F841F29C30C2F2000000680A
:1018100040F2FF32416842F2E420C1F58065511A7E
:1018200040F2FD32C2F200009142056007D8012D5E
:1018300008D142F2E861C2F20001097811B9002131
:1018400001600DE041F6E466C2F2000642F2E86192
:10185000C2F2000130462A46FEF714FD0020705502
:10186000002042F2E86184F83C00C2F20001204608
:101870004FF4806202F08AFA02B070BD2DE9F043A5
:1018800081B0002846D01E46904607460D46FEF71A
:101890003BFD0446013840F2FE3188423AD840F21E
:1018A000CC49C2F20009484639462246FEF7EAFC16
:1018B0000027012E09F80470C9F89C4CC9F8A07CD7
:1018C000C9F8988C4FF0010498BF264689F8AC6C93
:1018D000A5B12846FEF718FD044609F58066304696
:1018E00029462246FEF7CEFC3755C9F8A84C89F8A0
:1018F000B37C89F8B17C01B0BDE8F08309F5806064
:101900004FF48061FEF7D7FCC9F8987CC9F8A87C31
:1019100089F8B14C01B0BDE8F083000070B5A2B009
:101920000C46054600F078FB02AE11A2304680213D
:101930002B46009409F0BCFA44F67571C0F601011B
:1019400030464FF4FA720323FFF798FF00F064FB70
:1019500040F2CC40C2F2000090F8B11C002918BF40
:10196000012180F8B21C90F8B10C22B070BD00BF0C
:1019700041542B43495053544152543D22544350F7
:10198000222C222573222C25640D0A0010B500F0AC
:1019900043FB44F675710CA0C0F601014FF47A7256
:1019A0000323FFF76BFF00F037FB40F2CC44C2F299
:1019B000000404F5406104F6284206A009F068FA24
:1019C00094F8B10C10BD00BF41542B43494653520B
:1019D0000D0A00004553502061705F616464723AE3
:1019E00025730A45535020737461745F6164647297
:1019F0003A25730A0000000080B500F00DFB44F6A4
:101A0000757108A0C0F601014FF4FA720323FFF7C5
:101A100035FF00F001FB40F2CC40C2F2000090F82C
:101A2000B10C80BD41542B43575341503F0D0A0028
:101A3000B0B540F2CC4441F21450C2F20004C2F2FC
:101A40000000C4F88C0C0025012084F8AF5C84F8F9
:101A5000B05C84F8B15C84F8AC5C84F8B25C84F867
:101A6000B30C41F6E460C2F2000084F8AE5CC4F846
:101A7000985CC4F8A45CC4F8900C42F2E420C2F272
:101A80000000C4F8940C04F500604FF48061FEF788
:101A900012FC20464FF48061C4F8A45CFEF70BFCF6
:101AA00004F580604FF48061C4F89C5CC4F8A05CCD
:101AB000FEF701FCC4F8A85C04F0A2FBB0BD000076
:101AC00080B500F0A9FA44F675710AA0C0F60101CC
:101AD0004FF4FA720323FFF7D1FE00F09DFA40F2B3
:101AE000CC40C2F2000090F8B11C80F8B01C90F815
:101AF000B00C80BD41540D0A0000000070B5A2B0CA
:101B00000C46054600F088FA02AE0DA23046802150
:101B10002B46009409F0CCF944F67571C0F601012A
:101B200030464FF4FA520223FFF7A8FE00F074FA91
:101B300040F2CC40C2F2000090F8B10C22B070BD6F
:101B400041542B43574A41503D222573222C2225D4
:101B500073220D0A000000002DE9F04F81B040F221
:101B6000CC44C2F2000494F8AF0C40B3D4F8940C07
:101B7000006808B3D4F8940C04F5006A0068C4F84F
:101B8000A40CD4F8A40CB0F5806F24BF40F2FF3051
:101B9000C4F8A40CD4F8901CD4F8A42C5046FEF73A
:101BA00071FBD4F8A40C00210AF80010D4F8940CAE
:101BB000016094F8AF0C38B301B0BDE8F08F94F831
:101BC000AC0C0028D2D007F0A1F9D4F8A01CD4F8AE
:101BD000982C11448842C9D307F098F9C4F8A00C96
:101BE00077A0214609F054F9D4F88C0CD4F89C1C49
:101BF0004FF6FF738AB2214602F0E8F894F8AC0C75
:101C0000013884F8AC0CB1E7D4F8A80C0028D3D084
:101C100094F800080028CFD004F580650FF2AC18C6
:101C20006EA704F5456604F5406B00BF2846FEF735
:101C30006BFB024650462946FEF77AFB38B9002076
:101C400084F8AC0C012084F8B10C84F8B30C504635
:101C50004146FEF73BFB0AF1020948450CD05046CD
:101C60005CA1FEF733FB48450BD194F8B20C40B1B0
:101C700094F8B20C013802E094F8B20C013084F808
:101C8000B20C504639460722FEF752FB00B35046CD
:101C900054A10B22FEF74CFB70B3504654A1FEF743
:101CA00015FB504546D2504655A1FEF70FFB504557
:101CB00052D30E30002100BF425C222A18BF002AF6
:101CC0006DD0631801310F2983F8282CF4D143E03B
:101CD0000AF1080130462822FEF70AFB01E000BFA6
:101CE00001300178002918BF2229F9D100210170A3
:101CF000DA4533D35AE000BF0AF10C0A0021002074
:101D000009E000BF0130214481F8782CC1B21129CB
:101D10000AF1010A20D29AF800203A2AF6D0222AA3
:101D200001D0002AEED16018002180F8781CDA4535
:101D300014D33BE00D300021425C222A18BF002A58
:101D400006D0631801310F2983F8002CF4D103E089
:101D50006018002180F8001CDA4527D2504600BFE9
:101D60000178D1B10D2906D00A2904D0013083456C
:101D70008246F5D11AE000F1010ADA4516D200BF19
:101D800041780D2918BF0A2904D1013004F6FF312A
:101D90008142F5D100F1010A08E0824606E06018B0
:101DA000002180F8281CDA45D8D300BFDA45BFF4FB
:101DB00003AF9AF8000000287FF438AFFCE600BFBC
:101DC000455350202D2D3E2025730000434F4E4E8D
:101DD00045435400434C4F53454400002B43575355
:101DE00041503A002B4349505354414D41433A002E
:101DF0002B43494653523A415049502C00000000B1
:101E00002B43494653523A53544149502C00000049
:101E100070B5A0B0044600F0FFF840F2CC46C2F224
:101E200000062CB345F26C226D46C0F6010228462E
:101E30008021234609F03CF844F67574C0F601048D
:101E4000284621464FF4FA720323FFF717FD00F0EE
:101E5000E3F81CA021464FF4FA720323FFF70EFDAE
:101E600096F8B10C00281CBF012086F8AF0C22E0C8
:101E7000002044F6F57186F8AF0C16A0C0F60101FB
:101E80004FF47A720123FFF7F9FC00F0C5F845F230
:101E90006C226C46C0F6010220468021002309F026
:101EA00007F844F67571C0F6010120464FF4FA7246
:101EB0000323FFF7E3FC00F0AFF896F8B10C20B075
:101EC00070BD00BF41542B43495053454E440D0A49
:101ED000000000002B2B2B00B0B5A0B0044600F092
:101EE0009BF86D460CA228468021234608F0E0FFAF
:101EF00044F67571C0F6010128464FF4FA720323C7
:101F0000FFF7BCFC00F088F840F2CC40C2F20000C1
:101F100090F8B10C20B0B0BD41542B4349504D5501
:101F2000583D25640D0A0000B0B5A0B0044600F08D
:101F300073F86D460FA228468021234608F0B8FFAB
:101F400044F67571C0F6010128464FF4FA72032376
:101F5000FFF794FC00F060F840F2CC40C2F20000C1
:101F600090F8B11C002918BF80F8AD4C90F8B10C66
:101F700020B0B0BD41542B43574D4F44453D2564DF
:101F80000D0A000070B5A2B00D46044600F044F8FA
:101F900094B102AE15A2304680212346009508F088
:101FA00087FF44F67571C0F6010130464FF4FA72AE
:101FB0000323FFF763FC09E044F6757111A0C0F636
:101FC00001014FF4FA720323FFF758FC00F024F8E4
:101FD00040F2CC40C2F20000002C18BF012480F86F
:101FE000AE4C90F8B10C22B070BD00BF41542B43F1
:101FF00049505345525645523D25642C25640D0ADF
:102000000000000041542B4349505345525645525D
:102010003D300D0A0000000010B540F2CC44C2F281
:10202000000400BF94F8AC0C40B194F8AF0C002849
:1020300018BF10BD642006F059FFF3E710BD000083
:10204000EFF3108072B600BFFEE7000080B50D28E8
:1020500008BF80BD0A2802D100F0B4F880BD40F26C
:102060006801C2F2000109690968884780BD000063
:1020700010B582B0944602884388B0F804E08468C2
:1020800008466146CDF800E0019402F06FF902B015
:1020900010BD00002DE9F04383B040F26808C2F2A1
:1020A0000008D8F810500446A9690846214600F0F7
:1020B0003DF8C0B301884668671A06EBC70999F86E
:1020C0000240B8F91400B8F9161016F837202B7D25
:1020D000D9F80450CDE9004502F048F9D8F81000CD
:1020E000027D417D914213D9B8F81400B8F816303A
:1020F00016F8377098F81C601A4407440B44013EE8
:1021000091B2BAB29BB218BF0126009603F098F9BB
:10211000D8F8100099F80110807DB8F8142010FB51
:102120000120A8F8140003B0BDE8F08301E000BF6F
:10213000806838B102888A42FAD842888A4228BF29
:102140007047F5E770470000B0B540F26801C2F291
:1021500000010D690446A96908462146FFF7E6FF1C
:1021600038B101884068611A10F83100A97D4843F0
:10217000B0BD0020B0BD0000012008807047000005
:1021800080B58069FFF7D2FF002818BF012080BD0D
:1021900080B50020002100F023F9002000218022DA
:1021A000402300F001F880BD80B582B04FF0000CF4
:1021B00080B289B292B29BB2CDF800C003F040F970
:1021C00002B080BD80B500F0EBF840F26801C2F2C9
:1021D0000001CA8A1044C88280BD0000002808BFE0
:1021E00070472DE9F04F83B0074600F0D9F840F270
:1021F0006806C2F20006B6F814A0834600F0D8F8CC
:10220000F18A0090081AF08211E000BF708B00F094
:10221000030001380228504628BF0020B0823878D9
:102220000A2808BFF48217F8010B002841D038783B
:1022300000283ED0384647F6FF7100F02FF90546DA
:102240003846294600F026F9718B01F00301012977
:1022500006D0022912BF002100EBD071491000E026
:102260000146B28AB6F81690511A01EB0008A8F19F
:10227000010009EB0B04ADF80800601EB182ADF857
:102280000410ADF80A003846294601AAADF80690B8
:1022900000F0F2F838462946A6F8169000F0E6F865
:1022A000395C07440D29B1D00A29AFD0A6F81480B3
:1022B000B9E7F08A00990844718BF08221F003009D
:1022C000708303B0BDE8F04F7047000080B540F266
:1022D0006803C2F200039982DA82FFF77FFF80BDB4
:1022E000F0B581B00D4640F26801C2F20001B1F9CB
:1022F0001A10064641F00200144600F0ADF80746F9
:10230000304629462246FFF7E1FF384600F0A4F8A0
:1023100001B0F0BD80B5FFF7ABFE80BD80B50346D0
:102320000846194602F06CF880BD000080B582B006
:1023300040F2680CC2F2000C9CF81CC080B289B25A
:1023400092B29BB2CDF800C003F0A6F802B080BDF7
:1023500080B502F07BF880BD80B504F0F7FC80BD4D
:1023600080B502F08FF880BDF0B581B099420BDAEC
:102370001C4615460E460746384631462A4602F0A8
:102380003FF80136B442F7D101B0F0BD80B540F25C
:102390006801C2F2000109694968884780BD0000F0
:1023A00040F26800C2F200000069407D7047000002
:1023B00040F26800C2F20000418B01F00C010C29D0
:1023C00018BF082903D10069007D4008704704291F
:1023D0001CBF002070470069007D01387047000075
:1023E00010B50C4604F014FD204604F017FD002043
:1023F00010BD000080B540F28800C2F200002E211E
:10240000017040F268007F22C2F200000021C0F299
:102410003F02C0E900124CF6F852C0F60002C0E9D3
:10242000042101214172017703F058F9002080BD99
:1024300040F26801C2F200010A7F824218BF0877A9
:102440007047000040F26802C2F2000201461069C3
:10245000002918BF1161704740F26803C2F20003FF
:10246000B3F91A10024608465A8370470846704767
:1024700080B503F0DDF880BD80B5126840F2680CCD
:10248000130CC2F2000CACF81420ACF8163004F0B7
:102490003DFC80BD80B504F075FC80BD80B504F0C6
:1024A00099FC80BD70B5866D044600F09FFA94F8E3
:1024B0003510022928D105462068216C026822F0D7
:1024C00016020260426922F08002426109B9A16CE1
:1024D00019B1016821F008010160016821F00101D2
:1024E000016000BF20680068C00714D000F07EFAC9
:1024F000401B0628F6D320206065002084F83400B5
:10250000032084F8350070BD80206065002084F8C9
:102510003400012070BDE06D3F2101FA00F0B06091
:102520000020012184F8340084F8351070BD0000CB
:1025300090F83510022909D1052180F8351000687E
:10254000016821F001010160002070478021416590
:1025500001207047F0B581B004460020009040F2A1
:102560000800C2F200000268D4E9166048F2B51310
:1025700037680821C1F64E3381403942A2FB03255A
:102580000CD0226813685B0708D5136823F0040396
:102590001360B160616D41F001016165012181400D
:1025A000394208D022685269120604D5B160616DC3
:1025B00041F00201616504218140394208D022685E
:1025C0001268920704D5B160616D41F00401616544
:1025D00010218140394215D020680268120711D5B8
:1025E000B16002680168520306D4C90506D40168C7
:1025F00021F00801016001E0080342D4216C09B117
:1026000020468847E16D202000FA01F23A4244D08A
:1026100020680368DB0640D5B26094F83530026864
:10262000052B1ED122F016020260426922F08002C0
:102630004261226C0AB9A26C1AB1026822F0080247
:1026400002603F208840B060002084F83400012000
:1026500084F83500216D002940D02046884701B01C
:10266000F0BD0168520310D4C90512D4016821F0ED
:1026700010010160002084F83400012084F8350046
:1026800007E0A16C0029BBD1BCE7080301D4616C51
:1026900000E0E16B09B120468847606DF0B1606DE4
:1026A000C00717D0052084F835002068A90A026801
:1026B00022F00102026000BF009A01328A420092B9
:1026C00002D80268D207F7D1002084F83400012034
:1026D00084F83500E16C09B12046884701B0F0BDAF
:1026E0002DE9F041044600F081F9C4B1054600200F
:1026F00084F83400022084F835002068016821F055
:102700000101016026683068C0070BD000F06EF947
:10271000401B0528F6D903212022032042E0012096
:10272000BDE8F081306848F23F01CFF21001251D6D
:1027300000EA010C2ECDD4E9050E41EA0C0111434B
:1027400019432943D4E90778084340EA0E01606A37
:102750003943042841EA080103D1D4E90B2311438A
:10276000194331607169042821F0070141EA00052D
:102770000CD1D4E90A1045EA010538B12046FEF72C
:10278000E1F918B10121402201200BE020467561DA
:10279000FEF7BAF9E16D3F2202FA01F181600022F1
:1027A00001210020626584F83510BDE8F081000049
:1027B000B0B5044690F83400012828D0012084F8F0
:1027C0003400A56D94F8350001281DD1022084F84D
:1027D0003500002060652046FEF7DCF9E26D3F23FE
:1027E000206803FA02F2216CAA60026842F0160225
:1027F000026019B1016841F008010160016841F00F
:10280000010101600020B0BD002084F834000220E6
:10281000B0BD0000B0B5044600F0E8F8054640F24F
:102820005000C2F200000078611C18BF044400BFD1
:1028300000F0DCF8401BA042FAD3B0BD2DE9F04F08
:1028400083B000F13E4202F1FF724FEAB22241F63C
:1028500000470192C4F2020708224FF0010E002542
:102860004FF0000A4FF00008B84208BF072200925C
:102870000AE000BF08F101080AF1040AB8F1100FDC
:1028800005F1020500F0A2800C680EFA08FB14EABC
:102890000B09EFD04C6804F0030CACF1010EBEF153
:1028A000010F12D882680323CE6803FA05F7BA43F2
:1028B00006FA05F73A4382604268C4F3001722EA39
:1028C0000B0207FA08F73A434260BCF1030F1CD031
:1028D000C26803238E6803FA05F7BA4306FA05F7C0
:1028E0003A43BCF1020FC2600FD16FF0030202EA5B
:1028F000580202440AF01C060F23176A03FA06F472
:102900000B69A743B3403B431362026803234F683C
:10291000AB409A4307F00303AB401A43FB004FF070
:10292000010E0260A6D5002243F644030292C4F2CF
:1029300002031A6843F6004442F480421A601A689F
:10294000C4F2010402F480420292029A28F00302C7
:102950004FF6084B2244CFF6FF7B52F80B300AF0BB
:102960000C070F26BE4023EA060C019B009E072B96
:1029700038BF1E4606FA07F747EA0C0342F80B3049
:1029800022684B6842EA0907DE0358BF22EA0907BA
:10299000276062689E0342EA090758BF22EA0907D6
:1029A0006760A268DE0242EA090758BF22EA090707
:1029B000A76043F60C47C4F201073A689B0242EA5B
:1029C000090358BF22EA09033B6053E703B0BDE89F
:1029D000F08F00000069084018BF01207047000018
:1029E000002A08BF09048161704700004AF22400F0
:1029F000C2F200000068704740F250004AF2240121
:102A0000C2F20000C2F2000100780A6810440860B7
:102A10007047000080B543F60040C4F20200016830
:102A200041F400710160016841F480610160016856
:102A300041F480710160032000F088F8002000F06C
:102A400005F800F04BF8002080BD000010B586B0FE
:102A5000014637200022002400F068F8372000F0FB
:102A600061F843F640000194C4F20200016841F0AD
:102A7000200101600068694600F020000190019883
:102A800001A800F017F900F03BF94DF68361400012
:102A9000C4F21B31A0FB01014FF0FF3000EB91416C
:102AA00041F2444041F20042C2F20000C4F200028E
:102AB00040F2E733C0E90021C0E90243046100F0BD
:102AC0007BFB10B1012006B010BD41F24440C2F2C0
:102AD000000000F00BFC06B010BD000080B582B015
:102AE000002043F640010190C4F202014A6842F41A
:102AF00080424A604A6802F480420192019A009042
:102B00000868002240F08050086008680F2100F03B
:102B10008050009000986FF0010000F007F802B0BC
:102B200080BD000080B504F07FF980BD70B514460B
:102B30000D46064604F088F92946224602F04EF971
:102B40000146304604F088F970BD000080B504F0FD
:102B50009DF980BD2DE9F041002800F08B8043F6FF
:102B60000808C4F202080446D8F8F8030D4600F03D
:102B70000700884207D288F8F853D8F8F80300F025
:102B80000700A84276D12068810717D5410705D5EF
:102B9000D8F8001041F4E051C8F80010010705D53D
:102BA000D8F8001041F46041C8F80010D8F80010BF
:102BB000A26821F0F0011143C8F80010C0073FD10E
:102BC000D8F8F80300F00700A84207D988F8F853AE
:102BD000D8F8F80300F00700A8424BD1206841075D
:102BE00007D5D8F80010E26821F4E0511143C8F885
:102BF0000010000708D5D8F80000216920F46040D3
:102C000040EAC100C8F8000000F09EF8D8F80010B3
:102C10004CF61E52C1F30311C0F60002515C40F2A3
:102C2000080220FA01F140F25400C2F200000068EC
:102C3000C2F200021160FFF709FF0020BDE8F08139
:102C40006068811E022907D258F8081C89015CBF00
:102C50000120BDE8F08110E0012807D158F8081CD8
:102C600089035CBF0120BDE8F08106E058F8081C2C
:102C7000890702D40120BDE8F081D8F8001021F0C6
:102C800003010843C8F80000FFF7B0FE064641F212
:102C9000883700BFD8F80000616800F00C00B0EB86
:102CA000810F8DD0FFF7A2FE801BB842F2D903201E
:102CB000BDE8F0810F22026043F60802C4F202026E
:102CC000136803F003034360136803F0F0038360A9
:102CD000136803F4E053C360D2F800C04FF4E0532C
:102CE00003EADC030361D2F8F80300F00700086090
:102CF0007047000040F20800C2F200000068704710
:102D000080B5FFF7F7FF43F60801C4F20201096836
:102D10004CF62E52C1F38221C0F60002515CC8402D
:102D200080BD000080B5FFF7E5FF43F60801C4F25F
:102D3000020109684CF62E52C1F34231C0F600027E
:102D4000515CC84080BD000010B543F60404C4F2D5
:102D50000204606800F00C0142F200400829C0F251
:102D6000F40007D0042918BF10BD41F20020C0F2C2
:102D70007A0010BD216801F03F02216823684902F2
:102D8000C3F3881105D4A1FB00010023FDF718FA55
:102D900006E041F20020C0F27A004843B0FBF2F0B6
:102DA00021680222C1F3014102EB4101B0FBF1F0C5
:102DB00010BD00002DE9F04182B0002800F09F8096
:102DC0000446007843F60006C007C4F2020641D06C
:102DD000B06800F00C00042805D13068800339D5B4
:102DE0006068B8BB8BE0B06800F00C00082802D126
:102DF00070684002F1D46568B5F5803F06D0306850
:102E0000B5F5A02F06D140F480203060306840F442
:102E1000803005E020F480303060306820F480207D
:102E20003060FFF7E3FD002D054610D030688003C9
:102E300010D4FFF7DBFD401B6428F7D922E100BF67
:102E4000FFF7D4FD401B64284FF0030054D83068CE
:102E50008003F5D4207880071AD5B06810F00C0FE5
:102E600009D0B06800F00C00082840F08C80706831
:102E7000400200F188803068800702D5E0680128B0
:102E80003DD13068216920F0F80040EAC10030608F
:102E90002078000737D4207840074AD4A56955B375
:102EA000B06800F00C00082840F0A080012D26D06A
:102EB0007068E16900F480028A4220D1216A00F042
:102EC0003F028A421BD147F6C071626A0140B1EBF2
:102ED000821F14D1A16A4FF6FF73C903994300F40E
:102EE0004032A1F580318A4209D1E16A00F0706078
:102EF000B0EB016F03D1002002B0BDE8F0810120EA
:102F000002B0BDE8F0816069002840F20000C4F220
:102F100047205AD00121C0F8801EFFF767FD054603
:102F2000706F8007B7D4FFF761FD401B0228F7D907
:102F3000A8E0306C4FF00008C0000CD4CDF804803D
:102F4000306C4FF0010840F080503064306C00F07D
:102F500080500190019847F20007C4F200073868DA
:102F6000C00525D4386840F480703860FFF73EFD16
:102F7000054600BF3868C0051AD4FFF737FD401B6F
:102F80000228F7D97EE0E068002851D00020C4F282
:102F9000472001210160FFF729FD054630688007C1
:102FA0003FF56FAFFFF722FD401B0228F6D969E01D
:102FB000A568012D05D0306F052D4DD140F00400DE
:102FC0003067306F40F001004CE00021C0F8801EF7
:102FD000FFF70CFD054600BF706F80077FF55BAF04
:102FE000FFF704FD401B0228F6D94BE00027C4F28E
:102FF000472700203866FFF7F9FC022D05460BD164
:103000003068800156D5FFF7F1FC401B02284FF0D5
:103010000300F5D970E700BF306880017FF56BAF22
:10302000FFF7E4FC401B02284FF00300F4D963E7EC
:103030000020C4F2472000210160FFF7D7FC0546BD
:10304000306880077FF524AFFFF7D0FC401B0228D3
:103050004FF00300F4D94FE720F001003067306FE4
:1030600020F004003067FFF7C1FC002D054641F257
:10307000883713D0306F800713D4FFF7B7FC401B9D
:10308000B842F7D9032002B0BDE8F081FFF7AEFCEB
:10309000401BB8424FF003003FF62EAF306F800761
:1030A000F4D4B8F1000F3FF4F9AE306C20F080504A
:1030B0003064F3E604F11C052FCD084340EA82108A
:1030C000D9034FF6FF729143A1F5803140EA0560C4
:1030D0000843706001203866FFF788FC044600BF93
:1030E000306880013FF507AFFFF780FC001B022826
:1030F0004FF00300F4D9FFE670470000704700006E
:1031000010B590F83C20012A4FF0020252D0012362
:1031100080F83C3080F83D200268D2F804E0D2F814
:1031200008C00C682EF07003234341F2FF74C4F210
:103130000004A24253600DDC40F2FF73C4F20003AE
:103140009A4215DCB2F1804F29D040F20043C4F21C
:10315000000322E040F2FF33C4F201039A4212DC82
:1031600041F60003C4F200039A4218D0002312E093
:1031700040F60003C4F200039A4210D040F6004328
:10318000C4F2000309E044F20003C4F201039A42CE
:1031900005D040F20043C4F201039A4204D14968C9
:1031A0002CF08003194391600121002280F83D102A
:1031B00080F83C20104610BD002804BF0120704755
:1031C00010B5044690F83D0028B9002084F83C0072
:1031D000204600F01FF8022084F83D002068211DE1
:1031E00003F0C4F8012084F8460084F83E0084F817
:1031F0003F0084F8400084F8410084F8420084F8DD
:10320000430084F8440084F8450084F83D00002021
:1032100010BD000081B0006840F20041C4F200011E
:10322000884201D001B070470020009043F6400072
:10323000C4F20200016841F002010160006800F080
:1032400002000090009801B07047000090F83D1017
:1032500001291CBF01207047022180F83D10006841
:1032600041F2FF71C4F2000188420DDC40F2FF71AF
:10327000C4F20001884215DCB0F1804F29D040F241
:103280000041C4F2000122E040F2FF31C4F201012A
:10329000884212DC41F60001C4F20001884218D0D5
:1032A000002112E040F60001C4F20001884210D073
:1032B00040F60041C4F2000109E044F20001C4F20A
:1032C0000101884205D040F20041C4F20101884268
:1032D00006D1816801F00701062904BF002070476C
:1032E000016841F0010101600020704790F83D1035
:1032F00001291CBF01207047022180F83D100068A1
:1033000041F2FF72C168C4F20002904241F0010133
:10331000C1600DDC40F2FF71C4F20001884215DC8F
:10332000B0F1804F29D040F20041C4F2000122E008
:1033300040F2FF31C4F20101884212DC41F6000183
:10334000C4F20001884218D0002112E040F60001CA
:10335000C4F20001884210D040F60041C4F20001DE
:1033600009E044F20001C4F20101884205D040F2B4
:103370000041C4F20101884206D1816801F00701D1
:10338000062904BF00207047016841F00101016077
:103390000020704710B5044690F83C0001284FF01B
:1033A000020008BF10BD012284F83C2084F83D00D3
:1033B00020684FF6777382689A4382600A683F2AD2
:1033C00014DD5F2A18DD602A28D0B2F5005F2DD009
:1033D000702A40D1D1E9012CCB68614603F06AF82C
:1033E0002068816841F07701816034E01F2A0FDC9A
:1033F00092B1102A10D02EE0402A23D0502A2AD190
:103400004B68CA68194603F02FF92068502120E064
:10341000202A01D0302A1ED111461AE04B68CA6812
:10342000194603F033F92068602112E0D1E9012C3C
:10343000CB68614603F03EF82068816841F4804122
:10344000816008E04B68CA68194603F00DF92068EE
:10345000402103F03BF8012084F83D00002084F86F
:103460003C0010BD7047000010B5044600680169BB
:10347000890744BFC1685FEA817138D42068016957
:10348000490744BFC1685FEA41713CD420680169C3
:10349000090744BFC1685FEA017141D4206801692E
:1034A000C90644BFC1685FEAC16145D420680169AB
:1034B000C9071CBFC1685FEAC1714AD120680169B0
:1034C000090644BFC1685FEA016149D42068016907
:1034D000490644BFC1685FEA416148D42068016978
:1034E000890644BFC1685FEA816147D410BD6FF0AF
:1034F00002010161012121778069800745D02046C2
:10350000FFF7B0FF47E06FF004010161022121776E
:10351000806910F4407F41D02046FFF7A3FF43E0CD
:103520006FF00801016104212177C06980073ED056
:103530002046FFF797FF40E06FF01001016108217E
:103540002177C06910F4407F3AD02046FFF78AFF08
:103550003CE06FF001010161204600F0A7F9ADE702
:103560006FF0800101612046FFF7C6FDAEE76FF006
:1035700040010161204600F0A5F9AFE76FF020019E
:1035800001612046FFF7BAFD10BD204600F050F85B
:10359000204600F0CBF8002020776FE7204600F0AF
:1035A00047F8204600F0C2F8002020776EE720465A
:1035B00000F03EF8204600F0B9F8002020776DE7D3
:1035C000204600F035F8204600F0B0F800202077C3
:1035D0006CE7000080B586B000220592CDE9032299
:1035E00040F200410068C4F2000188420292019258
:1035F00001D006B080BD43F630000092C4F2020054
:10360000036843F002030360006800F002000090CA
:103610000098102001900220CDE90202CDE904209B
:1036200001F5003001A9FFF709F906B080BD0000DF
:1036300070470000B0B5044690F83C00012804BF74
:103640000220B0BD4FEAB2000D460121032884F8E4
:103650003C1036D8DFE800F0020A12222068294622
:1036600002F03CFF206850F8181F0EE02068294641
:1036700002F066FF206850F8181F16E020682946FF
:1036800002F094FF206850F81C1F41F0080101600F
:10369000016821F00401016029690FE020682946D2
:1036A00002F0BAFF206850F81C1F41F4006101606D
:1036B000016821F4806101602969090202681143EF
:1036C0000160002084F83C00B0BD0000002804BF69
:1036D0000120704710B5044690F83D0028B900203D
:1036E00084F83C00204600F01FF8022084F83D00DA
:1036F0002068211D02F03AFE012084F8460084F87B
:103700003E0084F83F0084F8400084F8410084F8CB
:10371000420084F8430084F8440084F8450084F8AB
:103720003D00002010BD0000704700007047000001
:1037300010B5044641B1082909D0042914BF04F189
:10374000410004F13F0004E004F13E0001E004F117
:103750004000007801281CBF012010BD022041B1AB
:10376000082909D0042914BF84F8410084F83F00D7
:1037700004E084F83E0001E084F840002068012263
:1037800002F086FE206840F2004140F48062C4F2FC
:1037900001018A4203D1426C42F40042426441F288
:1037A000FF72C4F2000290420DDC40F2FF71C4F2DD
:1037B0000001884217DCB0F1804F27D040F2004171
:1037C000C4F2000120E040F2FF32C4F20102904254
:1037D00014DC41F60001C4F20001884216D0002139
:1037E000C4F2010110E040F60001C4F20001884279
:1037F0000CD040F60041C4F2000105E044F20002A2
:10380000C4F20102904201D0884206D1816801F0E1
:103810000701062904BF002010BD016841F0010125
:103820000160002010BD0000B0B504460068002211
:103830000D4602F02DFE206840F2004240F4806107
:10384000C4F2010291420DD1016A41F211121142FA
:1038500008D1016A40F24442114203D1416C21F483
:1038600000414164016A41F21112114208D1016A1A
:1038700040F24442114203D1016821F0010101608C
:103880000120082D09D0042D0BD0002D14BF84F881
:10389000410084F83E000020B0BD84F840000020C4
:1038A000B0BD84F83F000020B0BD000080B50068C6
:1038B00041F20041C4F20001884208BFFFF79CF8C2
:1038C00080BD0000704700007047000010B504463E
:1038D0000068416994F83D20212A0ED111F0800141
:1038E0000BD0416921F080014161606B002818BF55
:1038F000FEF7D8FD204602F095FF2068416994F854
:103900003E20222A0ED111F040010BD0416921F056
:1039100040014161A06B002818BFFEF7C3FD20469F
:1039200002F05EFF002010BD7047000070B582B04D
:10393000016804460868CA684D6900F02F03202B0F
:1039400002F0200305D123B1204602F075FF02B03A
:1039500070BD5FEA007C07D005F0010E12F4907F85
:103960008EF0010526D12DB3236B1040C20617D56A
:10397000012B15D100200190086801904868019042
:103980000198486940066CD4A08DE28DE38D002B30
:103990001CBF801A5FEA004240F09D8002B070BDFB
:1039A000010600F187804006F8D5204602F02EFF80
:1039B00002B070BDC10718BF12F4807103D0216C32
:1039C00041F00101216400F00406012181EA96061C
:1039D0002E4303D1266C46F00206266400F0020650
:1039E00081EA5601294303D1216C41F0040121648D
:1039F0005EEA030118BF0121BCF1000F04D519B123
:103A0000216C41F008012164216C0029C6D01040CE
:103A1000800602D5204602F00FFF20684069216C25
:103A200000F0400001F0080140184DD0204602F09F
:103A3000D7FE20684169490641D5416921F040011E
:103A40004161A06BD8B346F21571C0F60001016563
:103A5000FEF76EFD0028A1D0A06B016D884702B073
:103A600070BDA06B0268526893B2002B96D0A68DF1
:103A7000B34293D2E285C269B2F5807F16D0CA689C
:103A800022F48072CA604A6922F001024A614A69DE
:103A900022F040024A61202284F83E200022226364
:103AA000CA6822F01002CA60FEF7FCFCA08DE18D0E
:103AB000401A21E0204602F0B7FF02B070BD204658
:103AC000FFF732FF02B070BD2046FFF72DFF002048
:103AD000206402B070BDCA6822F49072CA604A695C
:103AE00022F001024A61202284F83E200022226353
:103AF000CA6822F01002CA6081B22046FFF7E4FED5
:103B000002B070BD002804BF0120704710B5044604
:103B100090F83D0028B9002084F83C00204600F0D1
:103B200021F8242084F83D002068C16821F4005168
:103B3000C160204602F0D0FE2068016921F4904166
:103B40000161416921F02A014161C16841F40051DC
:103B5000C16000202021206484F83D1084F83E10CC
:103B600010BD000070B586B00026CDE90466CDE931
:103B700002660446006844F20041C4F20001884233
:103B800001965BD041F20041C4F20101884200F08D
:103B90009E8041F20001C4F20101884240F0F380AE
:103BA000002643F630000096C4F20200416941F05D
:103BB00010014161416901F01001009100990096E6
:103BC000016841F001010160006801A900F00100F5
:103BD000009000984FF4C06001900220CDE90206E9
:103BE00003200490072005900020C4F20200FEF795
:103BF00025FE46F28800C4F2020041F2DC2500F501
:103C00006E70C2F200054FF000614FF4806285E8EB
:103C100043002846C5E90362C5E90566C5E90766AC
:103C20006E62FEF75DFD002800F09E80FEF708FA48
:103C300041F2DC252526C2F200059AE043F6300069
:103C40000096C4F20200016941F40031016101698A
:103C500001F40031009100990096016841F00101E2
:103C60000160006801A900F00100009000980C209C
:103C700001900220CDE90206032004900720059060
:103C80000020C4F20200FEF7D9FD41F23C3546F2B5
:103C90008800C2F20005C4F202004FF000614FF448
:103CA000806285E843002846C5E90362C5E90566E8
:103CB000C5E907666E62FEF713FD002856D0FEF7D1
:103CC000BFF941F23C352626C2F2000551E000263C
:103CD00043F630000096C4F20200416941F0200131
:103CE0004161416901F0200100910099009601684D
:103CF00041F004010160006801A900F00400009097
:103D00000098C02001900220CDE902060320049013
:103D1000082005900020C4F2020000F50060FEF7C4
:103D20008DFD46F28800C4F2020041F29C3500F598
:103D30006870C2F200054FF020614FF4806285E8A0
:103D400043002846C5E90362C5E90566C5E907667B
:103D50006E62FEF7C5FC58B1FEF772F941F29C3570
:103D60004726C2F2000504E0252602E0262600E0F0
:103D70004726304605210022A563AC63FEF7D6FE38
:103D80003046FEF7CFFE06B070BD000010B590F8CB
:103D90003E30202B0BD100294FF0010418BF002A20
:103DA00001D1204610BD90F83C30012B01D10220FA
:103DB00010BD0123002480F83C30046302F0FAFDBA
:103DC000204610BD70470000704700002DE9F04309
:103DD00081B0044690F83D0020280BD10E46002902
:103DE0004FF0010055D01746002A52D094F83C00FD
:103DF000012803D1022001B0BDE8F083012084F83E
:103E00003C004FF0000921201D46C4F8409084F882
:103E10003D00FEF7EBFDA784E784A1680746B1F5F6
:103E2000805F07D1206900281CBF30464E46B0464F
:103E3000064601E04FF0000884F83C9007E000BF20
:103E400016F8010B21684860E08C0138E084E08CB2
:103E500080B1204680213A462B4602F00FFE80B901
:103E6000002EEDD138F8020B21686FF35F20486017
:103E70000026E9E7204640213A462B4602F0FEFDA7
:103E800018B1032001B0BDE8F083202084F83D0084
:103E9000002001B0BDE8F08370470000FEE700009D
:103EA00010B540F20044C4F2020420464FF4004131
:103EB0000022FEF795FD00F03BF920464FF400513B
:103EC0000022FEF78DFD00F033F920464FF400414B
:103ED0000122FEF785FD00F02BF920464FF400414A
:103EE0000022FEF77DFD00F023F910BD10B540F271
:103EF0000044C4F2020420464FF400410022FEF7C1
:103F00006FFD00F015F920464FF400510122FEF735
:103F100067FD00F00DF920464FF400410122FEF745
:103F20005FFD00F005F920464FF400410022FEF746
:103F300057FD00F0FDF810BD70B540F20044C4F22A
:103F4000020420464FF400510122FEF749FD0826E5
:103F5000002500BF20464FF400410022013EFEF73D
:103F60003FFD00F0E5F820464FF400410122FEF746
:103F700037FD00F0DDF820464FF40051FEF72AFD32
:103F8000002818BF0120310640EA4505E2D120464D
:103F90004FF400410022FEF723FDE8B270BD00009F
:103FA000F0B581B040F20045C4F20205044628464F
:103FB0004FF400410022FEF713FD072600F0B8F889
:103FC000E0B2C20928464FF40051FEF709FD640033
:103FD00000F0AEF828464FF400410122FEF700FD44
:103FE00000F0A6F828464FF400410022771EFEF7A5
:103FF000F7FC30063E46E1D101B0F0BDB0B540F26D
:104000000044C4F2020420464FF400510122FEF79E
:10401000E7FC20464FF400410122FEF7E1FC00F0EE
:1040200087F820464FF40051FEF7D4FC80B12046BB
:104030004FF4005100220025FEF7D2FC00F078F882
:1040400020464FF40051FEF7C5FC18B12846B0BD1C
:104050000020B0BD20464FF400510022FEF7C0FC06
:1040600000F066F801252846B0BD000010B540F20A
:104070000044C4F2020420464FF400410022FEF73F
:10408000AFFC00F055F820464FF400510022FEF737
:10409000A7FC00F04DF820464FF400410122FEF746
:1040A0009FFC00F045F820464FF400510122FEF736
:1040B00097FC00F03DF810BDB0B540F20044C4F2EA
:1040C000020420464FF400410022FEF789FC00F074
:1040D0002FF820464FF400510122FEF781FC00F03A
:1040E00027F820464FF400410122FEF779FC00F04A
:1040F0001FF820464FF40051FEF76CFCB0FA80F038
:10410000450920464FF400410022FEF769FC28468D
:10411000B0BD000081B00A200090009830B100BF0F
:1041200000980138009000980028F9D101B070473C
:1041300081B00A200090009830B100BF009801388B
:10414000009000980028F9D101B0704780B5002098
:10415000FDF75EFEFDF7B4FC60B30320FDF7E4FE5F
:10416000FDF74AFC14A01AA1FDF7C8FC10B3FDF737
:104170000DFC00200021FDF705FF0020FDF7ACFE3F
:1041800040F2CC40C2F2000000F6284113A006F035
:104190007FFE44F66770C0F6010042F21271FDF72F
:1041A000BDFB002808BF80BD0120FDF731FE0FA038
:1041B00008F05AFC80BD00BF50616E646F726142AE
:1041C0006F782D322E34472D34333546334300007B
:1041D0003133303038393835333632005374617406
:1041E000696F6E2069703A25730A00004553503894
:1041F00032363620696E6974206F6B210000000032
:10420000B0B541F20004C4F2020420460221FEF7D8
:10421000E1FBB0FA80F0450920460421FEF7DAFB05
:10422000B0FA80F0400945EA400520460821FEF733
:10423000D1FBB0FA80F0400945EA80052046102104
:10424000FEF7C8FBB0FA80F0400945EAC0052046F9
:104250002021FEF7BFFB0138B0FA80F0400945EAA3
:10426000001520464021FEF7B5FB0138B0FA80F07A
:1042700040F2910C4009C2F2000C45EA40109CF853
:104280000020010615D0C4B2944212D140F2900E23
:10429000C2F2000E9EF8001003464D1CE9B202293E
:1042A00018BF002394428EF800500ED0022909D185
:1042B0000BE0C1B240F29005C2F20005002391422A
:1042C0002B7002D000238CF80000D8B2B0BD0000E3
:1042D000B0B541F20004C4F2020420460221FEF708
:1042E00079FBB0FA80F0450920460421FEF772FB05
:1042F000002820464FF0080108BF0135FEF76AFB91
:10430000002820464FF0100108BF0135FEF762FB80
:1043100040F2930CC2F2000C002808BF0135E9B24C
:104320009CF80030042914D3994212D140F2920E25
:10433000C2F2000E9EF80020501CC4B2022C2A4685
:1043400018BF002299428EF800000DD0022C08D12F
:104350000AE040F29200C2F200000022994202708C
:1043600002D000228CF80050D0B2B0BD2DE9F0434D
:1043700083B040F26806C2F200068E46B6F902101B
:10438000DDF82C90DDF82880A1EB0E079C46012F6C
:1043900006DBACEB0703012B2FDB07FB089901E0E1
:1043A00063467146B6F906700CEB0E05FF432F44C9
:1043B000012F02DBDB1B012B1FDBB6F904401518B4
:1043C000B6F90070E6432E44002EC8BF921B874208
:1043D0000BDD3F1A27F00706D21B09EBE709304433
:1043E00007F00706012A03DA07E00026012A04DBAA
:1043F000CDE90089029600F06BF803B0BDE8F083C8
:1044000080B582B040F2680CC2F2000CBCF90230F8
:104410008B4219DCBCF906308B4215DBBCF900304D
:10442000BCF904E08342C8BF18469645B8BF72463F
:10443000824209DB9CF81CC089B280B292B20B4662
:10444000CDF800C001F028F802B080BD80B540F280
:104450006802C2F20002B2F902308B4211DCB2F9FA
:1044600006308B420DDBB2F90030834209DCB2F931
:1044700004308342B8BF80BD127F80B289B201F0A0
:10448000A1F880BD80B582B040F2680CC2F2000C89
:10449000BCF90030834219DCBCF90430834215DBDF
:1044A000BCF90230BCF906E08B42C8BF19469645FC
:1044B000B8BF72468A4209DB9CF81CC080B289B240
:1044C00093B20246CDF800C000F0E6FF02B080BD16
:1044D0002DE9F04782B0012B15DBDDF83080DDE9F6
:1044E0000AA51C4691460E46074600BF384631468F
:1044F0002A464346CDF80090FCF744FC5544013C65
:1045000006F10106F2D102B0BDE8F08710B5A0F1C6
:10451000040C4FF0000E00BF6FF00303604600BFB5
:1045200050F8042FCC1804330C2B6260F8D10EF134
:10453000010EBEF1040F0CF1100C01F1100108BFC7
:1045400010BDE9E72DE9F041A1F1040CA2F1040E40
:104550004FF0000800EB08110A1D01F1080401F1F9
:104560000C0504267746634691ED000A93ED011A87
:1045700093ED052A20EE010A92ED001A93ED093A17
:1045800021EE021A94ED002A93ED0D4A30EE010A55
:1045900022EE031A95ED002A30EE010A22EE041AEB
:1045A00030EE010A043387ED010A0437013EDBD106
:1045B00008F10108B8F1040F0EF1100E08BFBDE8B4
:1045C000F081C7E7000000002DE9F04381B02DED38
:1045D0000A8B8CB00DF11E000DF11D0700900DF13E
:1045E000260008A903AA0BAB019702F04DFEBDF807
:1045F0001E00C00540F1D1809DED030A9FED844A65
:104600009DED041A9DED052A9DED063AB8EEC00A0F
:1046100040F2180820EE040AC2F2000888ED000AF1
:10462000B8EEC11A41F6D42921EE041AC2F20009EB
:1046300089ED001AB8EEC22A41F6D82622EE042AE5
:10464000C2F2000686ED002AB8EEC33A23EE043A21
:1046500031EE011A30EE000A21EE031A20EE020AB2
:1046600041F6DC2730EE410AC2F2000710EE100AD4
:1046700087ED003AFCF704F841EC100B06F060FC03
:1046800051EC100B9FED600B54EC105B2A46234657
:10469000FBF704FFFCF707F841F28011C2F20001BA
:1046A000086096ED009A98ED001A97ED000A99EDD2
:1046B00000BA39EE09AA31EE011A2AEE000A21EEFB
:1046C0000B1A30EE010A10EE100AFBF7D9FFB8EE14
:1046D000000A2BEE000A2BEE000A29EE0A1A30EE31
:1046E000410AB7EE001A30EE010A41EC180B10EE49
:1046F000100AFBF7C5FF41EC110BB0EE480AF0EED3
:10470000680A06F039FF51EC100B2A462346FBF7E6
:10471000C5FEFBF7C8FF41F28411C2F20001086038
:1047200099ED009A96ED00AA98ED00BA97ED00CAAF
:1047300029EE0A0A2BEE0C1A30EE010A30EE000ABE
:1047400010EE100AFBF79CFF2BEE0B0A29EE091A5C
:1047500031EE000A2AEE0A1A30EE410A2CEE0C1A4B
:1047600030EE410A41EC180B10EE100AFBF788FFFF
:1047700041EC110BB0EE480AF0EE680A06F0FCFEC0
:1047800051EC100B2A462346FBF788FEFBF78BFF04
:1047900041F28811C2F200010860BDF81E0010F05D
:1047A000700F14D0BDF8261041F2D422C2F20002DC
:1047B0001180BDF8281041F2D622C2F20002118009
:1047C000BDF82A1041F2D822C2F20002118000077F
:1047D00014D5BDF8200040F2AC41C2F200010880BF
:1047E000BDF8220040F2AE41C2F200010880BDF8DF
:1047F000240040F2B041C2F2000108800CB0BDECD0
:104800000A8B01B0BDE8F0836666666666A64C401A
:104810000000803010B503F047FD00281CBF0020C9
:1048200010BD43A008F020F9782004F0CFFA10B1B1
:10483000002448A077E045F2F800C0F6010008F037
:1048400013F9782003F05CFC10B100244BA06AE05F
:1048500045F2D500C0F6010008F006F9322004F058
:104860006FFA28B145F217100024C0F601005AE093
:1048700045F24900C0F6010008F0F6F802F0F6FC37
:1048800028B145F238100024C0F601004BE044F690
:10489000F670C0F6010008F0E7F803F0E5FB02F05F
:1048A000B3FE28B145F2F3100024C0F601003AE04F
:1048B00045F2B100C0F6010008F0D6F840F27310DE
:1048C00002F0A2FB28B145F271100024C0F60100ED
:1048D00029E045F22600C0F6010008F0C5F83220B4
:1048E00002F002FE28B145F29D100024C0F601003E
:1048F00019E045F26D00C0F6010008F0B5F805F0CA
:1049000001F9012004F02AF90146B0FA80F04409C7
:1049100045F2C81045F28F02C0F60100C0F6010250
:10492000002908BF104608F09FF8204610BD00BFC0
:104930006D707520696E697469616C697A617469FA
:104940006F6E20636F6D706C6574652E2E2E2E2E2B
:104950002E0000006D70755F7365745F73656E7314
:104960006F7220636F6D65206163726F7373206572
:1049700072726F72202E2E2E2E2E2E006D70755F8D
:10498000636F6E6669677572655F6669666F2063DF
:104990006F6D65206163726F7373206572726F72E1
:1049A000202E2E2E2E2E2E0080B582B0002043F613
:1049B00030010190C4F202010A6842F400120A6058
:1049C0000A6802F400120192019A0090086800221D
:1049D00040F4800008600868052100F48000009021
:1049E00000981020FEF7A2F81020FEF79BF839205F
:1049F00005210022FEF79AF83920FEF793F83A20B5
:104A000005210022FEF792F83A20FEF78BF802B05B
:104A100080BD000080B546F245004FF28042C0F6EE
:104A20000000C0F60002002104F0A8FA40F298014C
:104A3000C2F20001086045F6CD504FF25C42C0F66C
:104A40000000C0F60002002104F098FA40F2940140
:104A5000C2F20001086046F229204FF2A442C0F6DB
:104A60000000C0F60002002104F088FA40F2A041E4
:104A7000C2F20001086045F689504CF6C852C0F6F3
:104A80000000C0F60002002104F078FA40F2640150
:104A9000C2F20001086045F6DD004CF6A452C0F6F3
:104AA0000000C0F60002002104F068FA40F2600144
:104AB000C2F20001086080BD2DE9F04F87B00024EC
:104AC00043F630000694CDE90444CDE90244019454
:104AD000C4F20200016841F2000641F010010160D9
:104AE0000168C4F2020601F01001019101990194DC
:104AF0000168012241F08001016001684FF0010B63
:104B000001F08001019101990194016841F00101D6
:104B10000160016801F001010191019901940168AE
:104B200041F002010160016801F002010191019967
:104B30000194016841F004010160016801F0040181
:104B4000019101990194016841F008010160006838
:104B50004FF47F4100F00800019001983046FDF7C6
:104B60003FFFA6F5406738464AF2C0410022FDF7F4
:104B700037FFA6F5006948464FF470610022FDF743
:104B80002FFFA6F5805840464FF419410022FDF74B
:104B900027FFA6F5806A504604210022FDF720FF7A
:104BA000304601210022FDF71BFF1E2002A902ADA5
:104BB00081E8110830462946FDF740FE6020CDE926
:104BC00002040220049030462946FDF737FE4FF6D6
:104BD0000170CDE9020B30462946CDE90444FDF7CA
:104BE0002DFE4FF48060CDE9020B38462946CDE911
:104BF0000444FDF723FE4AF2C00002901120CDE9E3
:104C00000304384629460594FDF718FE4FF47060FA
:104C1000CDE9020B48462946CDE90444FDF70EFED6
:104C20004FF41940CDE9020B40462946CDE9044432
:104C3000FDF704FE0420CDE9020B50462946CDE9DC
:104C40000444FDF7FBFD0820CDE902045046294647
:104C50000494FDF7F3FD07B0BDE8F08F10B58EB0FA
:104C600041F2FC3040F200420021C2F20000C4F2E6
:104C70000002532340F2E7340D91CDE90B11CDE949
:104C80000911CDE90711CDE90511CDE90311CDE9F0
:104C90000111C0E90023C0E9021401618161FEF73E
:104CA0008BFA002818BFFDF7CBF94FF480500A901B
:104CB00041F2FC30C2F200000AA9FEF76BFB0028AB
:104CC00018BFFDF7BDF941F2FC30C2F20000FEF75B
:104CD000FDFC002818BFFDF7B3F941F2FC300024B9
:104CE000C2F2000008A9CDE90844FEF709FA00283D
:104CF00018BFFDF7A5F9602001904FF4FA70CDE9D7
:104D0000020441F2FC30C2F2000001A90022059425
:104D1000FEF790FC002818BFFDF792F941F2FC3035
:104D2000C2F20000FEF756FC0EB010BD80B541F295
:104D30008C4041F20001C2F20000C4F201010023E4
:104D40004FF00C0C4FF4E13280E80E00C0E9033361
:104D5000C0E905C3C361FEF7D5FE002818BFFDF703
:104D60006FF980BD80B541F2D04044F20041C2F2FB
:104D70000000C4F2000100234FF00C0C4FF4164267
:104D800080E80E00C0E90333C0E905C3C361FEF744
:104D9000B9FE002818BFFDF753F980BD80B541F278
:104DA000145041F20041C2F20000C4F2010100239C
:104DB0004FF00C0C4FF4E13280E80E00C0E90333F1
:104DC000C0E905C3C361FEF79DFE002818BFFDF7CB
:104DD00037F980BDFEE70000FEE7000000F00700A5
:104DE00080F00703042B28BF04234FF0FF3C033857
:104DF0000CFA03F338BF0020994381400CFA00F00D
:104E000022EA00000843704710B540F20044C4F2A3
:104E10000204204680210122FDF7E2FDFFF77AF926
:104E2000204640210122FDF7DBFDFFF773F9204604
:104E300040210022FDF7D4FD10BD000070B540F206
:104E40000045C4F2020504462846402100220026FF
:104E5000FDF7C6FDE0B2C20928468021FDF7C0FD7E
:104E60006400FFF757F9284640210122FDF7B8FDFD
:104E7000FFF750F9284640210022FDF7B1FDFFF76A
:104E800049F9072E06F10106E4D370BD10B540F2D2
:104E90000044C4F20204204680210122FDF7A0FD57
:104EA000204640210122FDF79BFDFFF733F9204604
:104EB00080210022FDF794FDFFF72CF920464021C8
:104EC0000022FDF78DFD10BD10B540F20044C4F284
:104ED0000204204640210022FDF782FD2046802169
:104EE0000022FDF77DFDFFF715F920464021012244
:104EF000FDF776FD204680210122FDF771FDFFF7C9
:104F000009F910BD000000000000000000000000D2
:104F1000EFF30980BFF36F8F154B1A681EF0100F67
:104F200008BF20ED108A20E9F04F10602DE909003C
:104F30004FF0500080F31188BFF34F8FBFF36F8F96
:104F400005F0DAF84FF0000080F31188BDE80900A1
:104F500019680868B0E8F04F1EF0100F08BFB0ECF9
:104F6000108A80F30988BFF36F8F704700BF00BFBE
:104F70005C1600209FED152AB5EE401A20EE020ABD
:104F800031EE023A9FED124AF1EE10FA08BFB0EE90
:104F9000443A80EE030A20EE821A81EE031A02EEF2
:104FA000101AB8EEC22A30EE020ABDEEC00A10EEA8
:104FB000101A00EE102A0160B8EEC00A31EE000AA5
:104FC000BDEEC00A10EE101A4160704700000044A8
:104FD000004000442DE9F04F81B02DED068BAAB0C2
:104FE0000DF168098046484614460E46B0EE418AE7
:104FF000B0EE609AB0EE40AA04F01AFE48466FF098
:1050000007016FF007026FF0070301F051FBB0EEEC
:10501000000A4846F0EE400AB0EE401A00F0F6FBF7
:105020004846B0EE4A0AF0EE490AB0EE481A00F0DF
:10503000E7F84846002100220023002501F038FB54
:105040004CF64450C0F6000008380FFA86FB27B231
:105050000DF1200A0AAC00BF00F1080191EC030A2F
:1050600000F10C06484605F095F8504659463A4678
:10507000FFF780FFDDE9081204EBC50044F83510A6
:1050800080314260403201F07F0144F8351002F077
:105090003F0101354160082D3046DDD14046FDF726
:1050A000C7F90A9C0B9DDDE90C892046294642463A
:1050B0004B4605940495CDF80C80CDF80890FDF78B
:1050C00035F9DDE90E672046294632463B46019612
:1050D0000097FDF72BF9109C119D2046294642466A
:1050E0004B4607940695FDF721F92046294632469E
:1050F0003B46FDF71BF90DF1480999E8C003394615
:10510000304642464B46FDF711F9DDE916AB304615
:10511000394652465B46FDF709F9DDE91845424636
:10512000204629464B46FDF701F9204629465246BE
:105130005B46FDF7FBF8DDE9041032463B46FDF720
:10514000F5F8DDE9021042464B46FDF7EFF8DDE9E0
:10515000001052465B46FDF7E9F8DDE906102246ED
:105160002B46FDF7E3F82AB0BDEC068B01B0BDE895
:10517000F08F000070B541F20004C4F20204204632
:1051800001210122FDF72CFC322001F005FF204611
:10519000012100220025FDF723FC4FF4FA7001F0F5
:1051A000FBFE204601210122FDF71AFC282001F018
:1051B000F3FE20460121FDF70DFCA8B1002000BF41
:1051C0000646012001F0E8FE20460121FDF702FC21
:1051D000B6F5F97F03D8002806F10100F0D10025CB
:1051E000B6F5F97F88BF01254FF4FA7001F0D4FEBF
:1051F000204601210122FDF7F3FB284670BD000087
:105200002DE9F0472DED048BD0B0804610EE100A4A
:10521000B0EE418AB0EE609AFBF732FA9FED840B54
:1052200055EC107B3A462B46FBF738F99FED820B85
:1052300054EC106B32462346FBF7A2F9FBF733FA26
:10524000824619EE100AFBF71BFA3A462B46FBF78B
:1052500025F932462346FBF793F9FBF724FA8146FA
:1052600018EE100AFBF70CFA3A462B46FBF716F934
:1052700032462346FBF784F9FBF715FA05464FF053
:105280007E5450462094FBF7FBF941EC180B0026A6
:10529000B0EE480AF0EE680ACDE92166CDE9236652
:1052A00006F06AFA51EC100BFBF7FDF9B0EE480A74
:1052B000F0EE680A259006F0C3FA51EC100BFBF7EC
:1052C000F2F9B0EE480A80F00040F0EE680ACDE94D
:1052D0002606289606F0B4FA51EC100BFBF7E3F91A
:1052E000B0EE480AF0EE680A299006F045FA51EC53
:1052F000100BFBF7D8F9CDE92A064846CDE92C6614
:10530000CDE92E64FBF7BCF941EC180BB0EE480A6E
:10531000F0EE680A06F030FA51EC100BFBF7C3F917
:10532000B0EE480AF0EE680ACDE9100606F088FAF9
:1053300051EC100BFBF7B7F9B0EE480AF0EE680A33
:10534000CDE91206CDE91464CDE9166606F078FAC7
:1053500051EC100BFBF7A7F9B0EE480A80F00040C3
:10536000F0EE680ACDE9180606F006FA51EC100BCB
:10537000FBF799F9CDE91A062846CDE91C66CDE977
:105380001E64FBF77DF941EC180BB0EE480AF0EE15
:10539000680A06F0F1F951EC100BFBF784F9B0EE56
:1053A000480AF0EE680A009006F04AFA51EC100B39
:1053B000FBF779F9B0EE480A80F00040F0EE680A99
:1053C000CDE90106039606F03BFA51EC100BFBF712
:1053D0006AF9B0EE480AF0EE680A049006F0CCF9DB
:1053E00051EC100BFBF75FF9CDE90506CDE9076637
:1053F000CDE90964CDE90B66CDE90D660F9440ACAB
:1054000020A940462246FFF79DF830AD10A920465E
:105410002A46FFF797F8694628464246FFF792F872
:1054200050B0BDEC048BBDE8F08700BF00BF00BFEB
:105430004AD8124DFB210940000000000080664060
:105440002DE9F04381B07F2823D889463F2920D811
:1054500004461044DDF820807F2888BFC4F1800214
:1054600003EB090011193F2888BFC9F14003002050
:105470008EB29FB2002500BF484481B2204632461A
:105480000B46CDF8008000F007F80135E8B28742FE
:10549000F2D201B0BDE8F0832DE9F04F85B00546AA
:1054A0007F280C464FF07F0128BF0D467F2A38BF6A
:1054B00011463F2C4FF03F0A28BF54463F2B38BFC0
:1054C0009A46681A38BF481BB4EB0A0338BFAAEBE8
:1054D00004034FF0FF328D424FF0FF360E9F38BF6E
:1054E00001260396544538BF0122049202043DD0A0
:1054F00006B20FFA83FB5E45CBF100000296D8BFDF
:1055000006B2BBF1000F46D00191284621463A462B
:1055100000F058F80E9A544502D1019885424DD0BA
:1055200006EBD6704FEA60090298C0F1000800BF90
:105530000FFA89F003994045C8BF0D4404995845B6
:10554000B8BF0C440299AFB2A6B2B8BF8944404577
:1055500038463146C8BFA9EB0B0900F033F80E9A64
:105560005645E5D101988742E2D127E0A24556464B
:1055700038BF2646A94238BF0D46A24538BF54461B
:10558000A1B228463A4600F01DF801340E9F20B221
:10559000B042F5DD12E0A2450E4638BF5446A9429E
:1055A0003CBF2E460D4600BFA8B221463A4600F049
:1055B00009F801350E9F28B2B042F5DD05B0BDE80F
:1055C000F08F00007F2898BF3F2900D9704740F234
:1055D0009C03C2F200031B78B2FA82FC002B6FF02E
:1055E000700318BF4FEA5C1201F0070C03EA0111C7
:1055F000084440F2A001C2F200010123012A0A5C22
:1056000003FA0CF302BF1A430A5470479A430A5430
:105610007047000080B50246002840F2A000C2F2A8
:1056200000004FF4806118BFFF22FAF73DFE80BDF5
:10563000B0B540F2A0040025C2F20004A5F150006C
:10564000C0B2002100F014F80120002100F010F891
:105650001020002100F00CF820468021402200F0AC
:105660001FF80135082D04F18004E7D1B0BD00001A
:10567000B0B50C460546FFF709FC7820FFF7DEFBC6
:10568000FFF7C2FB2046FFF7D9FBFFF7BDFB28461B
:10569000FFF7D4FBFFF7B8FBFFF716FCB0BD000027
:1056A00070B516460C460546FFF7F0FB7820FFF76D
:1056B000C5FBFFF7A9FB3046FFF7C0FBFFF7A4FBD4
:1056C00044B1013D15F8010FFFF7B8FBFFF79CFB54
:1056D000013CF7D1FFF7F8FB70BD000080B56420F6
:1056E000FDF798F8AE200021FFF7C2FF202000212F
:1056F000FFF7BEFF10200021FFF7BAFFB020002106
:10570000FFF7B6FFC8200021FFF7B2FF00200021FD
:10571000FFF7AEFF10200021FFF7AAFF4020002175
:10572000FFF7A6FF81200021FFF7A2FFFF20002145
:10573000FFF79EFFA0200021FFF79AFFC020002165
:10574000FFF796FFA6200021FFF792FFA820002177
:10575000FFF78EFF3F200021FFF78AFFA4200021E2
:10576000FFF786FFD3200021FFF782FF00200021F2
:10577000FFF77EFFD5200021FFF77AFFF020002100
:10578000FFF776FFD9200021FFF772FF22200021CA
:10579000FFF76EFFDA200021FFF76AFF12200021D9
:1057A000FFF766FFDB200021FFF762FF20200021CA
:1057B000FFF75EFF8D200021FFF75AFF1420002124
:1057C000FFF756FFAF200021FFF752FF0020FFF741
:1057D00021FFFFF72DFF80BD00000000000000004A
:1057E000074B19680868B0E8F04F80F30988BFF3E9
:1057F0006F8F4FF0000080F31188704700BF00BF2B
:105800005C16002080B501F039FB80BDB0B5A0B0BA
:10581000044600208DED000ACDE90100CDE903002A
:10582000CDED050ACDE90600CDE908008DED0A1A97
:10583000CDE90B00CDE90D004FF07E5010AD0F907B
:10584000694620462A46FEF77DFE28462146FEF799
:105850005DFE20B0B0BD000070B541F2000401262D
:10586000C4F20204054626EA000220464FF4807185
:10587000FDF7B6F826EA550220464FF40071FDF711
:10588000AFF826EA950220464FF48061FDF7A8F8AC
:1058900026EAD50220464FF40061FDF7A1F826EA7A
:1058A000151220464FF48051FDF79AF826EA55125A
:1058B00020464FF40051FDF793F826EA9512204652
:1058C0004FF48041FDF78CF8E843C0B2C20920468E
:1058D0004FF40041FDF784F870BD0000B2B04FF402
:1058E0007A7003F003FB02F075F8FEF793FFC0B285
:1058F000002818BF0120189011D100244FF4FA702D
:1059000003F0F4FAFEF786FFC1B2002918BF0121A7
:10591000012C189103D8000604F10104EED041F2E5
:105920008020C2F2000001300E9000209FED118A0D
:105930009FED119A42F6E8289FED10DA9FED10EAEC
:105940009FED10FA41F28C16169000204FF0000ADD
:10595000C2F20008F3EE0E8AB3EE04BAF2EE049A35
:10596000C2F2000600244FF0000B00251790002023
:105970000F900CE0000000000000FA42000000421E
:105980000000B4C200003443012003F0AFFA03F07A
:10599000BDFA04F57A71884206D303F0B7FA0446DB
:1059A00002F028F8B0EE408AB4EE498AF1EE10FA1F
:1059B00050DA88ED008A03F0A9FA40F21C01C2F225
:1059C000000109685944884244D303F09FFA98EDD6
:1059D000000A5FFA8AF138EEC00A20EE0B0A80EE68
:1059E000290A0AF1010A5FFA8AF24D2A41F280225D
:1059F0008346C2F2000230EE0D0ABDEEC00A10EE80
:105A0000100A505409D341F280200E99C2F20000CE
:105A10004C224FF04C0AFAF735FC40F24C00C2F22F
:105A2000000098ED000A90ED001AB4EE410AF1EE84
:105A300010FA0FDB42F6EC20C2F2000001210170E7
:105A4000D8F80000FAF71CFE0246C3A00B4605F08A
:105A50001FFA00BF1898002800F0DC8003F056FA07
:105A600005F13201884228BFFEF7AEFD03F04EFA81
:105A700040F21C01C2F20001096829448842C0F0CA
:105A8000C98003F043FA41F28011C2F2000191EDA6
:105A9000000A41F2901320EE0B0A80EE0E0AC2F2C9
:105AA0000003054630EE0D0ABDEEC00A179F10EE4A
:105AB000101AFAB2995441F28411C2F2000191ED28
:105AC000000A41F2E01320EE0B0A80EE0F0AC2F248
:105AD000000301373DEE400ABDEEC00A10EE101A79
