:020000040800F2
:1000000008AC00209D01000879550008354600081D
:10001000755500088D100008B97800080000000030
:10002000000000000000000000000000815F0008E8
:100030001913000800000000B15600087D6F000889
:10004000B7010008B7010008B7010008B7010008B0
:10005000B7010008B7010008B7010008B7010008A0
:10006000B7010008B7010008B7010008B701000890
:10007000B7010008B7010008B7010008B701000880
:1000800099100008B7010008B7010008B70100087F
:10009000B7010008B7010008B7010008B701000860
:1000A000B7010008B7010008B7010008B701000850
:1000B000B7010008B7010008B7010008B701000840
:1000C000B7010008B7010008B7010008B701000830
:1000D000B7010008D1770008E9770008B7010008E8
:1000E000B7010008B7010008B7010008B701000810
:1000F000B7010008B7010008B7010008B701000800
:10010000B7010008B7010008B7010008B7010008EF
:10011000B7010008B7010008B701000851700008D6
:10012000B7010008A9100008B9100008B7010008BD
:10013000B7010008B7010008B7010008B7010008BF
:10014000B7010008B7010008B7010008B7010008AF
:10015000B7010008B7010008B7010008F9770008E7
:10016000B7010008B7010008B7010008B70100088F
:10017000B7010008B7010008B7010008000000003F
:10018000B7010008B7010008DFF80CD000F090FCC0
:1001900000480047998D000808AC002006488047B9
:1001A00006480047FEE7FEE7FEE7FEE7FEE7FEE75C
:1001B000FEE7FEE7FEE7FEE73D7000088901000864
:1001C0002DE9F05F0546002092469B46884606468C
:1001D000814640241BE0284641464746224600F01F
:1001E000DCFA53465A46C01A914110D311461846BC
:1001F000224600F0C3FA2D1A67EB01084F4622464B
:100200000120002100F0BAFA17EB00094E41201E30
:10021000A4F10104DFDC484631462A464346BDE8E6
:10022000F09F2DE9F0410024061B254671F10006E0
:1002300005DA01240027D0EB070067EB0101161E49
:1002400073F1000605DA0027D2EB0702012567EB00
:100250000303FFF7B5FF86460E4617469C46AC42A1
:1002600004D00025D0EB050E65EB010624B100207B
:10027000D2EB000760EB030C704631463A4663460A
:10028000BDE8F08140EA01039B0703D009E008C9FB
:10029000121F08C0042AFAD203E011F8013B00F84B
:1002A000013B521EF9D27047D2B201E000F8012B97
:1002B000491EFBD270470022F6E710B513460A46E6
:1002C00004461946FFF7F0FF204610BD30B505463D
:1002D0002A460B4612F8010B13F8014B08B1A04255
:1002E000F8D01CB1002802D06D1CF1E7284630BDC3
:1002F00010B5044604E00B7800F8013B03B1491C3B
:10030000521EF8D2204610BD421C10F8011B0029D5
:10031000FBD1801A704730B504460020034600E048
:100320005B1C934203D2E05CCD5C401BF8D030BD37
:1003300030B505460020034600E05B1C934205D221
:10034000EC5CC85C201A01D1002CF6D130BD70B530
:1003500006460BF055FC046805460A22002130468B
:1003600000F092FA2C6070BD2DE9FE4F804681EAC4
:100370000300C00F0C46009021F0004123F000451F
:10038000B8EB0200A94105D24046214690461C46E2
:100390000B46024623F00040104347D0270DC7F319
:1003A0000A00C3F30A510290401A019040286BDA08
:1003B000C3F3130040F4801B0098924620B1002341
:1003C000D2EB030A63EB0B0B01985946C0F14002D4
:1003D000504600F0D3F906460D4650465946019A5C
:1003E00000F0EBF910EB08006141002487EA11529C
:1003F00084EAE7731A4340D0009A62B3019A012A53
:100400004FEA075215DC001B61EB02014FF000427E
:1004100002EA0752CDE90042001C41F58011324644
:100420002B4600F0AFFA03B0BDE8F08F40462146FE
:10043000F9E7001B61EB0201001C41F58013001875
:100440005B412018A2F5001747EB030140EAD57085
:10045000B6196D4111E06D084FEA360645EAC075E0
:100460004FEA0752001B61EB0201001C41F58011AD
:1004700049084FEA30000019514132462B4603B07B
:10048000BDE8F04F00F06FBA009801224000002351
:10049000D0EB020263EBE073009821464FEAE07470
:1004A000B8EB000061EB0401E9E783F000435BE790
:1004B00081F0004158E72DE9FE4F81EA030404F082
:1004C000004421F0004100944FF0000B23F0004362
:1004D00050EA01045ED052EA03045BD0C3F30A542D
:1004E000C1F30A552C44A4F2F3340194A0FB025446
:1004F000C1F3130141F48011C3F3130343F48013D8
:1005000001FB024400FB034E840A970A44EA81542B
:1005100047EA8357A4FB076802958D0A05FB078508
:100520004FEA932C04FB0C542705029D4FEA065812
:1005300047EA1637B5EB08056EEB070C870E920EEF
:1005400047EA811742EA8312A7FB0201B6EB0B01CF
:1005500064EB00042B0D43EA0C335E1844EB1C5093
:10056000DA465146E7FB0201C5F313044FEA0B33A9
:1005700043EA14534FEA0432019C43EA0603A4F110
:100580000C040294009CCDE900B400F0FBF903B028
:10059000BDE8F08F00200146F9E72DE9F04D81EA32
:1005A000030404F0004B21F0004514464FF0000A0C
:1005B00023F0004150EA050220D054EA01021DD088
:1005C000C5F30A570246C5F31303C1F31300C1F381
:1005D0000A5640F4801543F48013A7EB0608101B5D
:1005E000D64608F2FD3873EB050002D308F1010886
:1005F00001E092185B41B8F1000F03DA00200146D8
:10060000BDE8F08D00204FF48011064684460EE0D0
:10061000171B73EB050705D3121B63EB050306439A
:100620004CEA010C49084FEA300092185B4150EA4D
:100630000107EDD152EA030012D082EA040083EAF6
:100640000501084305D0101BAB4106D2012200234F
:1006500006E000224FF0004302E06FF00102531069
:100660001AEB06004CEB085110EB0A0041EB0B01B2
:10067000BDE8F04D00F077B90EB5C10F80EAE0702B
:100680000844CA07002140F233438DE80E000A46B1
:100690000B4600F077F903B000BD0EB540F23341D0
:1006A00002910021CDE900110A460B4600F06AF9DB
:1006B00003B000BD70B5C1F30A5201F0004500243B
:1006C000C1F3130140F2FF3341F480119A4201DA81
:1006D000002070BD40F233439A42A2F2334203DC61
:1006E000524200F05AF800E090402C43F1D04042D2
:1006F00070BD00F0004230F000400AD0C10D01F59D
:100700006071C0F3160042EA0151C208400711436C
:10071000704700200146704701F0004330B421F0DB
:10072000004150EA010206D00A0DA2F56072C1F341
:100730001301002A02DC30BC00207047440F44EA59
:10074000C104C100E01830BC00EBC25000F0D4B8C6
:1007500030B50B46014600202022012409E021FA91
:1007600002F59D4205D303FA02F5491B04FA02F58E
:100770002844151EA2F10102F1DC30BD202A04DB61
:10078000203A00FA02F1002070479140C2F12003A4
:1007900020FA03F3194390407047202A04DB203AE3
:1007A00021FA02F00021704721FA02F3D040C2F191
:1007B00020029140084319467047202A06DBCB17D8
:1007C000203A41FA02F043EAE07306E041FA02F30C
:1007D000D040C2F120029140084319467047000002
:1007E0000FB40B0010B58AB00FA900910E994FF00D
:1007F0000004234ACC60214CCDE9064200D00423FA
:100800006FF00042CDE901321E4A089202466B4663
:10081000002000F001FA0AB010BC5DF814FBF0B53E
:1008200085B007464FF0FF300091CDE901011E462B
:10083000002015460C4604903B466A46314604A803
:10084000FFF7CEFF04990346601825B109B10246AF
:1008500000E022462A6000290ED0002B02DD00991C
:10086000814209D00094001BCDE901043B466A4651
:10087000314604A8FFF7B4FF05B0F0BD510E0008E3
:100880006F0E0008DD0A00082DE9F04791460F467B
:1008900080460446002614F8015B2DB100F01AF9D9
:1008A0000068405DC007F6D12B2D02D02D2D18D049
:1008B000641E4A463946204600F0EAFA27B13968F4
:1008C000A14201D1C7F8008071054FF002040BD599
:1008D0004042002803DD0BF093F90460A007BDE857
:1008E000F08746F48066E4E70028F8DA0BF088F930
:1008F00004606FF00040F2E70029A8BF7047401C79
:10090000490008BF20F00100704710B4B0FA80FC25
:1009100000FA0CF050EA010404BF10BC704749B162
:10092000CCF1200421FA04F411FA0CF118BF0121D2
:1009300021430843A3EB0C01CB1D4FEA00614FEAB2
:10094000102042BF002010BC704700EBC350104481
:100950000029A4BF10BC7047401C490008BF20F00C
:10096000010010BC704710B5141E73F1000408DAC2
:10097000401C41F1000192185B411A4301D120F063
:10098000010010BD2DE9F04D92469B4611B1B1FA20
:1009900081F202E0B0FA80F220329046FFF7EEFEDC
:1009A00004460F4640EA0A0041EA0B0153465A4604
:1009B000084313D0114653EA010019D0C8F1400290
:1009C0005046FFF7EAFE05460E4650465946424657
:1009D000FFF7D4FE084305D0012004E02046394645
:1009E000BDE8F08D0020054346EAE0762C4337430E
:1009F0000A986305E40AA0EB08000022FD0A44EA15
:100A000047540A3002D500200146E9E701051019D4
:100A10006941DDE9084500196941BDE8F04DA2E7EB
:100A2000C1F30A52C1F3130140F2FF3341F48011C4
:100A30009A4202DA00200146704740F233439A425C
:100A4000A2F2334202DC5242FFF7A7BEFFF796BE86
:100A500030B5041E71F1000404DB4FF00044404245
:100A600064EB0101141E73F1000405DB1C464FF01A
:100A70000043524263EB04038B4208BF824230BD05
:100A800030B5041E71F1000404DB4FF00044404215
:100A900064EB0101141E73F1000405DB1C464FF0EA
:100AA0000043524263EB0403994208BF904230BDB9
:100AB000064C074D06E0E06840F0010394E80700AB
:100AC00098471034AC42F6D3FFF762FBB4620108DA
:100AD000D462010800487047B4DA000810B5044633
:100AE000FFF7F8FF0068005D00F0010010BD000096
:100AF0002DE9FF4F087883B09946FF2805D0491C9F
:100B00002D2804D00024002008E000200BE0012460
:100B1000F9E700EB800003EB4000491C0B78FF2B4A
:100B2000F7D104B1404200230293147819461D46C0
:100B30002D2C01D02B2C04D1521C2D2C13D0002491
:100B40000294AA461478FF2C0FD00A25A3FB05783F
:100B500001FB05814FF0000C03FB0C11521CE31943
:100B60004AEB0101EEE70124EAE7814453EA010080
:100B700002D019F5C87F06DA03980021C0E90011F8
:100B800007B0BDE8F08F0025AE4E2F46DFF8B882E3
:100B9000184600F02BFACDE90001B9F1000002DAA5
:100BA000C9F1000400E004460023A74A1AEB030B36
:100BB00042EB045A12E0E00707D02A463346384693
:100BC0004146FFF778FC074688462A4633461046DA
:100BD0001946FFF770FC05460E466410002CEAD15A
:100BE000DDE90001B9F1000F5A46534606DAFFF776
:100BF000D4FC3A464346FFF7D0FC05E0FFF75BFC28
:100C00003A464346FFF757FC029A0AB181F0004189
:100C1000039AC2E90001B3E72DE9FF4F1F468DB0EB
:100C2000D7E901464FF0FF382E2045464FF0000926
:100C30000B90B9696D1C0E988847396A82468847BF
:100C40000028F6D1BAF1FF3F0AD024F4D064002E78
:100C500011DDBAF12B0F08D0BAF12D0F0BD102E044
:100C6000404611B08DE744F48064B9696D1C0E985C
:100C700088478246761E6946600501D52D2000E032
:100C80002B208DF8000001F1010B0DF1200809E087
:100C9000B9696D1C0E98884782460F9844F4007419
:100CA000761E0560002E02DDBAF1300FF0D00B99F0
:100CB0008A453ED144F0800406E00F99681CA9F1F2
:100CC000010944F400740860B9696D1C761E0E9821
:100CD000884782463028F0D02BE00B998A4505D111
:100CE000200603D444F08004761E18E050460CF031
:100CF00085F908B30DF11302761EAAF1300044F411
:100D00000074934506D20BF8010B200607D5A9F114
:100D1000010003E0200602D409F101008146A0058C
:100D200002D50F99681C0860B9696D1C0E98884738
:100D30008246002ED1DC53E0002E51DDBAF1650F62
:100D400002D0BAF1450F4BD1A00549D5B9696D1C48
:100D500024F44074761E0E9888478246002E0CDDDF
:100D60002B2804D0BAF12D0F07D144F48074B9694F
:100D70006D1C0E9888478246761EE00501D52D2110
:100D800000E02B2108F8011BCDF82C8021E00DF1AB
:100D90002901761E44F4007488450CD2AAF1300073
:100DA00010F0FF0088F8000002D10B99884509D99E
:100DB00008F1010806E0E00501D5244801E042F20F
:100DC0000F708146B9696D1C0E98884782460F984E
:100DD0000560002E04DD50460CF010F90028D6D135
:100DE000F9690E988847FF208BF8000088F800000A
:100DF0000020069007904B466A4608A906A8FFF710
:100E000077FEA00502D46FF001002AE714F0240F4A
:100E10000AD0E00714D1DDE906123868031D3B60F3
:100E20000068C0E900120BE0DDE90601FFF774FC81
:100E30000146E00704D13868021D3A60006801608D
:100E400028460EE7000014400000F03FF1D8FFFFF5
:100E5000426842B1016811F8013B23B1521EC0E95A
:100E60000012184670470121C160881E7047426811
:100E70005AB1C368016843B983688B4205D0491EE3
:100E8000521CC0E90012002070474FF0FF3070473D
:100E90002DE9F05F82460078002715468B460AF15F
:100EA0000104B946302801D09DB113E014F8010BBC
:100EB0000127782803D0582801D045B10AE00DB1A8
:100EC000102D07D10027102514F8010B02E008258A
:100ED00000E00A250026B0460EE005FB080005FBF1
:100EE00006F1012701EB10461FFA80F8B6F5803FA6
:100EF00000D3B94614F8010B294600F069F8002820
:100F0000EBDABBF1000F05D00FB1641E00E05446D0
:100F1000CBF80040B9F1000F06D00AF071FE0221B3
:100F20000160C81EBDE8F09F48EA0640FAE72DE9D7
:100F3000F04D00231A461B1A8A4103DB00200146AC
:100F4000BDE8F08DC1F30A52C1F3130141F48015DD
:100F50004FF0000BD10702D100186D41521E00273F
:100F6000044640F2FF11384601EB620A3E468046D5
:100F7000024600204FF48011FFF70FFCC2197141A7
:100F8000BB1846EB0100B4EB030C75EB000C04D36B
:100F9000E41A65EB000517460E46241908F1010016
:100FA0006D4180463428E3DDF91946EB0600091B44
:100FB000A84103D24FF0FF32134601E0002213464E
:100FC0001BEB070046EB0A51BDE8F04DFFF7CBBC29
:100FD0003A2800D2303820F02002412A01D3A2F171
:100FE0003700884201D34FF0FF3070470EB540F212
:100FF000334202920022CDE900221346FFF7C2FCE1
:1010000003B000BD70B541F2FC34C2F200040546E5
:1010100020460E4602F0D2FC701E062888BF70BD26
:101020004DF6D620C0F6000030F8160044F24021FC
:10103000C0F20F01B1FBF0F02168C862E060400827
:10104000486308F0C9FD40F2B4412844C2F20001EF
:1010500008602046002102F023FF70BD10B540F269
:10106000B444C2F20004206870B108F0B5FD2168F4
:10107000884238BF10BD0020206041F2FC30C2F22F
:101080000000002102F09EFF10BD0000FEE70000FE
:1010900041EA00207047000080B541F23C30C2F2C6
:1010A000000001F00DFE80BD80B541F29C30C2F21F
:1010B000000001F005FE80BD80B541F2DC20C2F2E7
:1010C000000001F0FDFD80BDD0F800C06FF00F0200
:1010D0004AF6AB2352FA8CF2CAF6AA230146A2FBC7
:1010E0000330000905A31B5C40F2FF302CEA00002E
:1010F0005F2A88BF0430C1E9160370470006101646
:10110000000610168269816AB2F5005F06D06AB9DE
:10111000022912D0012914D0D1B90EE0032917D821
:10112000DFE801F0020B020F0120704703293CBFEA
:10113000012070471CBF00207047C06AC0F30060E8
:101140007047C06AA0F1C070B0FA80F040097047E3
:101150000020704780B5D0F800C0D0F808E0DCF877
:101160000000BEF1400F20F48020CCF800000846BB
:10117000CCF8043004BF10460A46CCF80800CCF87E
:101180000C2080BD70B514460D46064604F0BEFB2B
:10119000CC2000F061F84E2000F05EF8204600F010
:1011A0005BF8284600F058F8304600F055F804F097
:1011B000ADFBCC2000F050F8482000F04DF841F293
:1011C0000004C4F2020400BF2046012101F0B8FF70
:1011D0000028F9D070BD000070B541F20004C4F2DF
:1011E000020420460121012201F0B0FF052006F093
:1011F0004BFD0825204601210022C6F3460601F0DA
:10120000A5FF052006F040FD20460121012201F046
:101210009DFF052006F038FD2046012101F090FFDA
:1012200000284FF0410018BF66F07F0606F02CFD45
:1012300020460121012201F089FF013D2806D9D174
:10124000F0B270BD80B504F061FBCC2000F004F872
:10125000442000F001F880BDF0B581B041F20004F7
:1012600005460826C4F2020420460121002201F0AE
:101270006DFF052006F008FD05F001022046012162
:10128000EFB201F063FF412006F0FEFC2046012191
:10129000012201F05BFF022006F0F6FC013E300661
:1012A0004FEA5705E0D101B0F0BD000080B586B02F
:1012B00000200590CDE90300CDE90100009043F640
:1012C0003000C4F20200016841F0100101600068C2
:1012D00001A900F01000009000980120CDE9010064
:1012E00041F20000C4F2020001F05EFE06B080BDD3
:1012F0004EF6FC50CEF20000016841F080710160B2
:1013000041F20000CEF20000016841F001010160ED
:1013100000214160704700007047000070B504462E
:101320004D1E00202A1A215CB2FA82F2461C520994
:10133000C0B206F0F9FA012008F03EFC042E304657
:10134000F0D170BD2DE9F04381B00646147803F06A
:1013500007000D460FF21401089F01EB800140F2D7
:1013600068099046C2F20009DFE800F00414233255
:1013700041505F6E99F81C0061B2421E18BF0122F5
:10138000B1F1FF3FD8BF0246B0B2A9B204F0E4FC0D
:10139000013F6CD099F81C00731C421E18BF01223B
:1013A000610648BF0246A9B298B204F0D5FC013FDD
:1013B0005DD099F81C00B31C421E18BF0122A10683
:1013C00048BF0246A9B298B204F0C6FC013F4ED015
:1013D00099F81C00F31C421E18BF0122E10648BF09
:1013E0000246A9B298B204F0B7FC013F3FD099F889
:1013F0001C00331D421E18BF0122210748BF0246B0
:10140000A9B298B204F0A8FC013F30D099F81C00B2
:10141000731D421E18BF0122610748BF0246A9B2D0
:1014200098B204F099FC013F21D099F81C00B31D3B
:10143000421E18BF0122A10748BF0246A9B298B2B6
:1014400004F08AFC013F12D099F81C00F31D421EE3
:1014500018BF0122E10718BF0246A9B298B204F0F2
:101460007BFC013F03D018F8014F083682E701B03A
:10147000BDE8F083B0B586B001F044FA40F2EC204C
:10148000C0F6010001F098FB002001F08BFB45F64F
:10149000E370C0F601000021002201F0D1FA012022
:1014A00001F080FB45F6DA70C0F6010000210E2243
:1014B00001F0C6FA45F6C770C0F6010000211A22F5
:1014C00001F0BEFA45F6BE70C0F6010000212722E9
:1014D00001F0B6FA45F6EF70C0F6010000213422A3
:1014E00001F0AEFA34200021802201F0D1FA302040
:1014F0000021342201F0EEFA41F26650C2F20000FF
:101500000078022836D0012858D0002840F0778192
:10151000C9A03221002201F093FACAA032211A2276
:1015200001F08EFA42F6E820C2F200000068FFF7F0
:10153000E0F801AC02460B46C5A120460AF034FB98
:1015400020465A210D2201F07BFA41F26450C2F28A
:101550000000017845F6EC7245F6D070C0F6010245
:10156000C0F60100002908BF10465A21272201F0C9
:1015700067FA44E141F2D425C2F20005B5F9002032
:1015800001ACA1A120460AF00FFB20463221002227
:1015900001F056FAB5F90010B5F90000012931DB68
:1015A00037214843C11700EB51405A2101EBE0328B
:1015B0005A200D21102301F091FA35E040F2AC459C
:1015C000C2F20005B5F9002001AC95A120460AF051
:1015D000EBFA20463221002201F032FAB5F9001070
:1015E000B5F90000012943DB37214843C11700EB5F
:1015F00051405A2101EBE0325A200D21102301F015
:101600006DFA47E0B0F1FF3F0EDCB5F9000037217D
:101610004843C11700EB51405A21A1EBE0325A2058
:101620000D21102301F052FA41F2D625C2F2000535
:10163000B5F9002001AC76A120460AF0B5FA2046A3
:101640003221112201F0FCF9B5F90010B5F90000C2
:10165000012943DB37214843C11700EB51405A2190
:1016600001EBE0325A201E21212301F037FA47E036
:10167000B0F1FF3F0EDCB5F9000037214843C11738
:1016800000EB51405A21A1EBE0325A200D211023EA
:1016900001F01CFA40F2AE45C2F20005B5F9002097
:1016A00001AC61A120460AF07FFA204632211122C6
:1016B00001F0C6F9B5F90010B5F90000012943DBC6
:1016C00037214843C11700EB51405A2101EBE0326A
:1016D0005A201E21212301F001FA47E0B0F1FF3F1B
:1016E0000EDCB5F9000037214843C11700EB51402B
:1016F0005A21A1EBE0325A201E21212301F0E6F904
:1017000041F2D825C2F20005B5F9002001AC42A192
:1017100020460AF049FA20463221222201F090F9AF
:10172000B5F90010B5F90000012943DB3721484322
:10173000C11700EB51405A2101EBE0325A202F2112
:10174000322301F0CBF95AE0B0F1FF3F0EDCB5F9DE
:10175000000037214843C11700EB51405A21A1EB4B
:10176000E0325A201E21212301F0B0F940F2B045A9
:10177000C2F20005B5F9002001AC2DA120460AF007
:1017800013FA20463221222201F05AF9B5F900104D
:10179000B5F90000012920DB37214843C11700EBD0
:1017A00051405A2101EBE0325A202F21322301F01F
:1017B00095F924E0B0F1FF3F21DCB5F900003721B5
:1017C0004843C11700EB51405A21A1EBE0325A20A7
:1017D0002F21322301F07AF911E0B0F1FF3F0EDC46
:1017E000B5F9000037214843C11700EB51405A2199
:1017F000A1EBE0325A202F21322301F067F901F0EA
:10180000F1F906B0B0BD00BF67783A253664000034
:1018100067793A2536640000677A3A253664000015
:1018200061783A253664000061793A253664000013
:10183000617A3A2536640000B5B1C7B0CEC2B6C8E9
:10184000A3BA0000D5F0B6AFB1A8BEAFA3BA0000EE
:10185000252E3166A1E6000070B52DED048B88B011
:1018600042F6E82540F25004C2F20005C2F200043C
:1018700095ED009A94ED008A01F044F840F2EC20D6
:10188000C0F6010001F098F945F6E370C0F60100DA
:101890000021002201F0D4F8002001F083F945F680
:1018A000DA70C0F6010000210D2201F0C9F8012014
:1018B00001F078F945F6C770C0F6010000211A2240
:1018C00001F0BEF845F6BE70C0F6010000212722E7
:1018D00001F0B6F845F6EF70C0F6010000213422A1
:1018E00001F0AEF834200021802201F0D1F8302040
:1018F0000021342201F0EEF841F27D20C2F2000016
:1019000000780138032828D8DFE800F0028FB5DB23
:1019100020203321802201F0BBF841F28010C2F276
:1019200000000068FEF7E5FE02460B467FA10DF1C0
:1019300002000AF039F941F290150024C2F20005C4
:101940002A19295D537804F1330004F1340201F0BF
:10195000A7F801344C2CF3D1CAE0BDEEC90A10EE51
:10196000100A46F267610230C6F2666150FB01F070
:10197000411001EBD07000EB8006A6F10A0000EEEA
:10198000100A202033218022B8EEC09A01F080F89E
:101990002868FEF7AEFE02460B4668A10DF1020074
:1019A0000AF002F994ED000AB4EE490AF1EE10FAD9
:1019B00028DB06F10A0001EE100AB8EEC11AB4EEF7
:1019C000410AF1EE10FA1DDCB3EE0E0A30EE480AC1
:1019D000B3EE041A20EE010AB2EE041A80EE010AF8
:1019E0009FED491A302530EE010ABDEEC00A10EE17
:1019F000104A00BF2846214601F064F8A81CC5B271
:101A0000802DF7D341F280250024C2F2000500BFEB
:101A10002A19295D537804F1330004F1340201F0EE
:101A20003FF801344C2CF3D162E020203321802296
:101A300001F02EF841F28410C2F200000068FEF7B7
:101A400058FE02460B4635A10DF102000AF0ACF833
:101A500041F2E0150024C2F2000500BF2A19295DF9
:101A6000537804F1330004F1340201F019F8013421
:101A70004C2CF3D13CE020203321802201F008F8E7
:101A800041F28810C2F200000068FEF732FE024602
:101A90000B461EA10DF102000AF086F841F2302536
:101AA0000024C2F2000500BF2A19295D537804F111
:101AB000330004F1340200F0F3FF01344C2CF3D175
:101AC00016E041F28010C2F2000090ED000A41F2EF
:101AD0008410C2F20000D0ED000A41F28810C2F278
:101AE000000090ED001A01204021102203F042FE78
:101AF0000DF102003321002200F0A2FF01F072F884
:101B000008B0BDEC048B70BD00000042BABDCFF23E
:101B1000BDC73A252E3166A1E3000000BAE1B9F64F
:101B2000BDC73A252E3166A1E3000000B8A9D1F661
:101B3000BDC73A252E3166A1E3000000CEC2B6C86B
:101B40003A252E3166A1E600B0B588B000F0DAFE85
:101B500040F2EC20C0F6010001F02EF845F6E370EB
:101B6000C0F601000021002200F06AFF45F6DA709D
:101B7000C0F6010000210D2200F062FF002001F0FC
:101B800011F845F6C770C0F6010000211A2200F0D6
:101B900057FF012001F006F845F6BE70C0F60100BF
:101BA0000021272200F04CFF45F6EF70C0F601003F
:101BB0000021342200F044FF40F2CC45C2F200057F
:101BC00005F545603221002200F03AFF45F66570C8
:101BD000C0F6010032210C2200F032FF0DF10204A8
:101BE0001EA1204641F2E10209F0DEFF204632212B
:101BF000182200F025FF95F8B21C45F6817245F6D3
:101C00007E70C0F60102C0F60100002908BF104630
:101C10003221242200F014FF41F28C10C2F20000A5
:101C2000017845F6B77245F6D370C0F60102C0F6EA
:101C30000100002908BF10465521242200F000FFB2
:101C400034200021802200F023FF302000213422A4
:101C500000F040FF00F0C6FF08B0B0BDB6CBBFDA61
:101C60003A256400B0B586B000F04CFE40F2EC209E
:101C7000C0F6010000F0A0FF45F6E370C0F60100D9
:101C80000021002200F0DCFE45F6DA70C0F601000B
:101C900000210D2200F0D4FE45F6C770C0F6010009
:101CA00000211A2200F0CCFE002000F07BFF45F658
:101CB000BE70C0F601000021272200F0C1FE012005
:101CC00000F070FF45F6EF70C0F6010000213422ED
:101CD00000F0B6FE34200021802200F0D9FE302032
:101CE0000021342200F0F6FE45A03221002200F04F
:101CF000A7FE46A032210D2200F0A2FE46A032210E
:101D00001A2200F09DFE47A03221272200F098FE03
:101D100040F25000C2F200000068FEF7EAFC024602
:101D20000B4643A101A809F03FFF41F27E25C2F214
:101D30000005287810B9002000F034FF01AC2046DF
:101D40006821002200F07CFE012000F02BFF40F211
:101D50000C00C2F20000027837A1204609F024FFEF
:101D60002878012802D1002000F01CFF01AC204699
:101D700074210D2200F064FE012000F013FF40F2F8
:101D80001000C2F2000002782CA1204609F00CFFDE
:101D90002878022802D1002000F004FF01AC204680
:101DA00068211A2200F04CFE012000F0FBFE40F2F8
:101DB0000E00C2F2000000889FED211A00EE100A0A
:101DC000B8EE400A80EE010A10EE100AFEF791FC10
:101DD00002460B461BA1204609F0E6FE28780328A0
:101DE00002D1002000F0DEFE01A86821272200F0C9
:101DF00027FE012000F0D6FE00F0F4FE06B0B0BDD4
:101E0000CEC2B6C8C9CFCFDE3A000000D5F0B6AF1B
:101E1000C1E9C3F4B6C83A00B1A8BEAFCAB1B3A411
:101E20003A000000C9CFB4ABBCE4B8F43A000000FB
:101E3000252E3066A1E600002564000025645300CD
:101E400000007A44252E316653000000B0B541F2FF
:101E50005854C2F20004256807F0BEFEA5B12168FF
:101E600001F5FA61884211D907F0B6FE216841F206
:101E700088321144884219D907F0AEFE216801F575
:101E8000FA51884222D900202060B0BD00F03AFD0E
:101E900040F2CC20C0F6010000F08EFE16A04021DA
:101EA0000C2200F0D7FD00F09DFEB0BD00F02AFD31
:101EB00040F2AC20C0F6010000F07EFE15A000212B
:101EC000002200F0BDFD00F08DFEB0BD00F01AFD57
:101ED00045F2C020C0F601000021002200F0D4FD30
:101EE00045F2D020C0F601004021002200F0CCFDD8
:101EF00000F078FEB0BD00BFB7C0BBF0A1A2B7C074
:101F0000B5C1D4B60AB3CCBCECB2E2C6F7C9E8BCE2
:101F1000C6000000B3C9D4B131A3BACBEFEABBC845
:101F2000BB0A2020202020202031383034313832A4
:101F3000300AB3C9D4B132A3BAB7BDBEC5B4A80A7A
:101F40002020202020202031383034313831310019
:101F500070B582B0044600680168C9060CD500213E
:101F600001910168019141680191019941F200419B
:101F7000C4F20101884201D002B070BD204602F0D7
:101F800073F841F29C30C2F20000006840F2FF3268
:101F9000416842F2E420C1F58065511A40F2FD32F9
:101FA000C2F200009142056007D8012D08D142F22B
:101FB000E861C2F20001097811B9002101600DE069
:101FC00041F6E466C2F2000642F2E861C2F20001A4
:101FD00030462A46FEF756F900207055002042F29E
:101FE000E86184F83C00C2F2000120464FF48062B0
:101FF00002F098FA02B070BD2DE9F04381B00028DC
:1020000046D01E46904607460D46FEF77DF904462B
:10201000013840F2FE3188423AD840F2CC49C2F24F
:102020000009484639462246FEF72CF90027012EC2
:1020300009F80470C9F89C4CC9F8A07CC9F8988CC0
:102040004FF0010498BF264689F8AC6CA5B128462C
:10205000FEF75AF9044609F58066304629462246BD
:10206000FEF710F93755C9F8A84C89F8B37C89F800
:10207000B17C01B0BDE8F08309F580604FF4806168
:10208000FEF719F9C9F8987CC9F8A87C89F8B14C11
:1020900001B0BDE8F083000070B5A2B00C46054663
:1020A00000F074FB02AE11A2304680212B46009452
:1020B00009F060FD45F67E71C0F6010130464FF42F
:1020C000FA720323FFF798FF00F060FB40F2CC4068
:1020D000C2F2000090F8B11C002918BF012180F85D
:1020E000B21C90F8B10C22B070BD00BF41542B431C
:1020F000495053544152543D22544350222C2225DE
:1021000073222C25640D0A0010B500F03FFB45F644
:102110007E710CA0C0F601014FF47A720323FFF721
:102120006BFF00F033FB40F2CC44C2F2000404F534
:10213000406104F6284206A009F00CFD94F8B10CA9
:1021400010BD00BF41542B43494653520D0A0000B5
:102150004553502061705F616464723A25730A458B
:10216000535020737461745F616464723A25730A1A
:102170000000000080B500F009FB45F67E7108A064
:10218000C0F601014FF4FA720323FFF735FF00F0A8
:10219000FDFA40F2CC40C2F2000090F8B10C80BDD4
:1021A00041542B43575341503F0D0A00B0B540F204
:1021B000CC4441F21450C2F20004C2F20000C4F850
:1021C0008C0C0025012084F8AF5C84F8B05C84F8A6
:1021D000B15C84F8AC5C84F8B25C84F8B30C41F672
:1021E000E460C2F2000084F8AE5CC4F8985CC4F805
:1021F000A45CC4F8900C42F2E420C2F20000C4F8DF
:10220000940C04F500604FF48061FEF754F820460A
:102210004FF48061C4F8A45CFEF74DF804F58060CB
:102220004FF48061C4F89C5CC4F8A05CFEF743F8EE
:10223000C4F8A85C04F024FDB0BD000080B500F037
:10224000A5FA45F67E710AA0C0F601014FF4FA72B4
:102250000323FFF7D1FE00F099FA40F2CC40C2F21E
:10226000000090F8B11C80F8B01C90F8B00C80BD54
:1022700041540D0A0000000070B5A2B00C4605469E
:1022800000F084FA02AE0DA2304680212B46009465
:1022900009F070FC45F67E71C0F6010130464FF43E
:1022A000FA520223FFF7A8FE00F070FA40F2CC4089
:1022B000C2F2000090F8B10C22B070BD41542B4323
:1022C000574A41503D222573222C222573220D0AA4
:1022D000000000002DE9F04F81B040F2CC44C2F282
:1022E000000494F8AF0C40B3D4F8940C006808B321
:1022F000D4F8940C04F5006A0068C4F8A40CD4F86F
:10230000A40CB0F5806F24BF40F2FF30C4F8A40CD9
:10231000D4F8901CD4F8A42C5046FDF7B3FFD4F8A1
:10232000A40C00210AF80010D4F8940C016094F871
:10233000AF0C38B301B0BDE8F08F94F8AC0C0028B6
:10234000D2D007F049FCD4F8A01CD4F8982C114442
:102350008842C9D307F040FCC4F8A00C75A0214600
:1023600009F0F8FBD4F88C0CD4F89C1C4FF6FF73E2
:102370008AB2214602F0F6F894F8AC0C013884F8E1
:10238000AC0CB1E7D4F8A80C0028D3D094F800081E
:102390000028CFD004F580654FF000096CA704F544
:1023A000456604F5406B00BF2846FDF7ADFF0246C9
:1023B00050462946FDF7BCFF30B9012084F8AC9C9B
:1023C00084F8B10C84F8B30C50465DA1FDF77EFF94
:1023D0000AF1020840450DD050465BA1FDF776FF9B
:1023E00040450CD194F8B20C48B194F8B20C0138C5
:1023F00003E000BF94F8B20C013084F8B20C5046F0
:1024000039460722FDF794FF00B3504652A10B2234
:10241000FDF78EFF60B3504652A1FDF757FF5045C0
:1024200043D2504653A1FDF751FF50454ED30E30D5
:10243000002100BF425C222A6DD0002A6BD06318B5
:1024400001310F2983F8282CF4D13FE00AF108016B
:1024500030462822FDF74CFF017819B1222901D01E
:102460000130F9E780F80090DA4531D358E000BF39
:102470000AF10C0A0021002009E000BF01302144CC
:1024800081F8782CC1B211290AF1010A1ED29AF8FA
:1024900000203A2AF6D0222A01D0002AEED1601874
:1024A00080F8789CDA4513D33AE00D30002100BF64
:1024B000425C222A07D032B1631801310F2983F818
:1024C000002CF5D102E0601880F8009CDA4527D294
:1024D000504600BF0178E1B10D2907D00A2905D087
:1024E000013083458246F5D11AE000BF00F1010AB0
:1024F000DA4506D314E000BF013004F6FF31814213
:1025000004D041780D29F7D00A29F5D000F1010A4D
:1025100006E0824604E0601880F8289CDA45D7D3AC
:10252000DA45BFF407AF9AF8000000287FF43CAF0B
:1025300000E700BF455350202D2D3E20257300009D
:10254000434F4E4E45435400434C4F5345440000C7
:102550002B43575341503A002B4349505354414D5C
:1025600041433A002B43494653523A415049502C7B
:10257000000000002B43494653523A5354414950FE
:102580002C00000070B5A0B0044600F0FFF840F247
:10259000CC46C2F200062CB346F279226D46C0F654
:1025A000010228468021234609F0E4FA45F67E74AC
:1025B000C0F60104284621464FF4FA720323FFF7C0
:1025C0001BFD00F0E3F81CA021464FF4FA72032330
:1025D000FFF712FD96F8B10C00281CBF012086F809
:1025E000AF0C22E0002046F2020186F8AF0C16A0E4
:1025F000C0F601014FF47A720123FFF7FDFC00F0F1
:10260000C5F846F279226C46C0F6010220468021C8
:10261000002309F0AFFA45F67E71C0F601012046AD
:102620004FF4FA720323FFF7E7FC00F0AFF896F8D7
:10263000B10C20B070BD00BF41542B4349505345ED
:102640004E440D0A000000002B2B2B00B0B5A0B0AB
:10265000044600F09BF86D460CA2284680212346D4
:1026600009F088FA45F67E71C0F6010128464FF45C
:10267000FA720323FFF7C0FC00F088F840F2CC4068
:10268000C2F2000090F8B10C20B0B0BD41542B4311
:1026900049504D55583D25640D0A0000B0B5A0B015
:1026A000044600F073F86D460FA2284680212346A9
:1026B00009F060FA45F67E71C0F6010128464FF434
:1026C000FA720323FFF798FC00F060F840F2CC4068
:1026D000C2F2000090F8B11C002918BF80F8AD4C80
:1026E00090F8B10C20B0B0BD41542B43574D4F442E
:1026F000453D25640D0A000070B5A2B00D460446A4
:1027000000F044F894B102AE15A230468021234671
:10271000009509F02FFA45F67E71C0F601013046AA
:102720004FF4FA720323FFF767FC09E045F67E7168
:1027300011A0C0F601014FF4FA720323FFF75CFC0D
:1027400000F024F840F2CC40C2F20000002C18BF88
:10275000012480F8AE4C90F8B10C22B070BD00BFDF
:1027600041542B4349505345525645523D25642C04
:1027700025640D0A0000000041542B434950534585
:10278000525645523D300D0A0000000010B540F28F
:10279000CC44C2F2000407E094F8AF0C002818BF44
:1027A00010BD642007F008FA94F8AC0C0028F3D1AF
:1027B00010BD0000EFF3108072B600BFFEE700000E
:1027C00080B50D2808BF80BD0A2802D100F0B4F8FA
:1027D00080BD40F26801C2F20001096909688847BA
:1027E00080BD000010B582B0944602884388B0F8DE
:1027F00004E0846808466146CDF800E0019402F0E8
:1028000087F902B010BD00002DE9F04383B040F21B
:102810006808C2F20008D8F810500446A9690846B2
:10282000214600F03DF8C0B301884668671A06EB00
:10283000C70999F80240B8F91400B8F9161016F84B
:1028400037202B7DD9F80450CDE9004502F060F91E
:10285000D8F81000027D417D914213D9B8F81400D8
:10286000B8F8163016F8377098F81C601A44074408
:102870000B44013E91B2BAB29BB218BF012600963A
:1028800003F0AAF9D8F8100099F80110807DB8F883
:10289000142010FB0120A8F8140003B0BDE8F08359
:1028A00005E000BF42888A4228BF7047806818B19F
:1028B00002888A42F6D9F9E770470000B0B540F2C5
:1028C0006801C2F200010D690446A9690846214663
:1028D000FFF7E6FF38B101884068611A10F831004F
:1028E000A97D4843B0BD0020B0BD00000120088094
:1028F0007047000080B58069FFF7D2FF002818BF3D
:10290000012080BD80B50020002100F023F90020C7
:1029100000218022402300F001F880BD80B582B004
:102920004FF0000C80B289B292B29BB2CDF800C0D9
:1029300003F052F902B080BD80B500F0EBF840F230
:102940006801C2F20001CA8A1044C88280BD00003A
:10295000002808BF70472DE9F04F83B0074600F00C
:10296000D9F840F26806C2F20006B6F814A0834611
:1029700000F0D8F8F18A0090081AF08211E000BF48
:10298000708B00F0030001380228504628BF002059
:10299000B08238780A2808BFF48217F8010B0028A3
:1029A00041D0387800283ED0384647F6FF7100F015
:1029B0002BF905463846294600F022F9718B01F0C3
:1029C0000301012906D0022912BF002100EBD071BA
:1029D000491000E00146B28AB6F81690511A01EB90
:1029E0000008A8F1010009EB0B04ADF80800601E17
:1029F000B182ADF80410ADF80A003846294601AAA4
:102A0000ADF8069000F0F2F838462946A6F8169080
:102A100000F0E6F8395C07440D29B1D00A29AFD09F
:102A2000A6F81480B9E7F08A00990844718BF08207
:102A300021F00300708303B0BDE8F04F7047000041
:102A400080B540F26803C2F200039982DA82FFF790
:102A50007FFF80BDF0B581B00D4640F26801C2F243
:102A60000001B1F91A10064641F00200144600F0C8
:102A7000ADF80746304629462246FFF7E1FF3846C3
:102A800000F0A4F801B0F0BD80B5FFF7ABFE80BD4B
:102A900080B503460846194602F084F880BD000060
:102AA00080B582B040F2680CC2F2000C9CF81CC0E9
:102AB00080B289B292B29BB2CDF800C003F0B8F8F0
:102AC00002B080BD80B502F093F880BD80B504F0FF
:102AD000B5FF80BD80B502F0A7F880BDF0B581B02C
:102AE00099420BDA1C4615460E46074638463146D3
:102AF0002A4602F057F80136B442F7D101B0F0BDD2
:102B000080B540F26801C2F200010969496888474E
:102B100080BD000040F26800C2F200000069407D04
:102B20007047000040F26800C2F20000418B01F0E3
:102B30000C010C2918BF082903D10069007D400849
:102B4000704704291CBF002070470069007D0138D0
:102B50007047000010B50C4604F0D2FF204604F088
:102B6000D5FF002010BD000080B540F28800C2F201
:102B700000002E21017040F268007F22C2F20000A6
:102B80000021C0F23F02C0E900124DF69832C0F6B3
:102B90000002C0E9042101214172017703F06CF9C0
:102BA000002080BD40F26801C2F200010A7F82422B
:102BB00018BF08777047000040F26802C2F20002B6
:102BC00001461069002918BF1161704740F268037F
:102BD000C2F20003B3F91A10024608465A8370473E
:102BE0000846704780B503F0F1F880BD80B51268E3
:102BF00040F26803C2F200035A6104F0FFFE80BD98
:102C000080B504F037FF80BD80B504F05BFF80BD68
:102C100070B5866D044600F09FFA94F835100229CD
:102C200028D105462068216C026822F01602026055
:102C3000426922F08002426109B9A16C19B10168B0
:102C400021F008010160016821F00101016000BF6D
:102C500020680068C00714D000F07EFA401B0628E8
:102C6000F6D320206065002084F83400032084F827
:102C7000350070BD80206065002084F8340001209C
:102C800070BDE06D3F2101FA00F0B060002001212D
:102C900084F8340084F8351070BD000090F83510C9
:102CA000022909D1052180F835100068016821F05A
:102CB00001010160002070478021416501207047BB
:102CC000F0B581B004460020009040F20800C2F246
:102CD00000000268D4E9166048F2B513376808218D
:102CE000C1F64E3381403942A2FB03250CD0226845
:102CF00013685B0708D5136823F004031360B16001
:102D0000616D41F00101616501218140394208D0C6
:102D100022685269120604D5B160616D41F002016A
:102D2000616504218140394208D022681268920707
:102D300004D5B160616D41F00401616510218140ED
:102D4000394215D020680268120711D5B1600268B7
:102D50000168520306D4C90506D4016821F00801B0
:102D6000016001E0080342D4216C09B12046884784
:102D7000E16D202000FA01F23A4244D02068036855
:102D8000DB0640D5B26094F835300268052B1ED1C1
:102D900022F016020260426922F080024261226C37
:102DA0000AB9A26C1AB1026822F0080202603F2040
:102DB0008840B060002084F83400012084F8350099
:102DC000216D002940D02046884701B0F0BD016840
:102DD000520310D4C90512D4016821F0100101601A
:102DE000002084F83400012084F8350007E0A16C4D
:102DF0000029BBD1BCE7080301D4616C00E0E16BA2
:102E000009B120468847606DF0B1606DC00717D0EA
:102E1000052084F835002068A90A026822F0010222
:102E2000026000BF009A01328A42009202D8026812
:102E3000D207F7D1002084F83400012084F835004F
:102E4000E16C09B12046884701B0F0BD2DE9F041A1
:102E5000044600F081F9C4B10546002084F834002E
:102E6000022084F835002068016821F0010101602A
:102E700026683068C0070BD000F06EF9401B0528AB
:102E8000F6D903212022032042E00120BDE8F08191
:102E9000306848F23F01CFF21001251D00EA010C15
:102EA0002ECDD4E9050E41EA0C0111431943294303
:102EB000D4E90778084340EA0E01606A39430428E0
:102EC00041EA080103D1D4E90B23114319433160CE
:102ED0007169042821F0070141EA00050CD1D4E909
:102EE0000A1045EA010538B12046FEF70BF918B182
:102EF0000121402201200BE020467561FEF7E4F835
:102F0000E16D3F2202FA01F18160002201210020DF
:102F1000626584F83510BDE8F0810000B0B5044664
:102F200090F83400012828D0012084F83400A56DE1
:102F300094F8350001281DD1022084F835000020C6
:102F400060652046FEF706F9E26D3F23206803FA2C
:102F500002F2216CAA60026842F01602026019B106
:102F6000016841F008010160016841F00101016060
:102F70000020B0BD002084F834000220B0BD000065
:102F8000B0B5044600F0E8F8054640F25400C2F23D
:102F900000000078611C18BF044400BF00F0DCF89A
:102FA000401BA042FAD3B0BD2DE9F04F83B000F131
:102FB0003E4202F1FF724FEAB22241F6004701920F
:102FC000C4F2020708224FF0010E00254FF0000A5C
:102FD0004FF00008B84208BF072200920AE000BF85
:102FE00008F101080AF1040AB8F1100F05F1020511
:102FF00000F0A2800C680EFA08FB14EA0B09EFD06F
:103000004C6804F0030CACF1010EBEF1010F12D8B4
:1030100082680323CE6803FA05F7BA4306FA05F778
:103020003A4382604268C4F3001722EA0B0207FAAF
:1030300008F73A434260BCF1030F1CD0C268032377
:103040008E6803FA05F7BA4306FA05F73A43BCF16E
:10305000020FC2600FD16FF0030202EA580202446D
:103060000AF01C060F23176A03FA06F40B69A7433C
:10307000B3403B431362026803234F68AB409A435B
:1030800007F00303AB401A43FB004FF0010E026050
:10309000A6D5002243F644030292C4F202031A6842
:1030A00043F6004442F480421A601A68C4F20104F4
:1030B00002F480420292029A28F003024FF6084B73
:1030C0002244CFF6FF7B52F80B300AF00C070F2694
:1030D000BE4023EA060C019B009E072B38BF1E460C
:1030E00006FA07F747EA0C0342F80B3022684B68F0
:1030F00042EA0907DE0358BF22EA0907276062682F
:103100009E0342EA090758BF22EA09076760A268DE
:10311000DE0242EA090758BF22EA0907A76043F620
:103120000C47C4F201073A689B0242EA090358BF00
:1031300022EA09033B6053E703B0BDE8F08F0000CB
:103140000069084018BF012070470000002A08BF2E
:1031500009048161704700004AF22400C2F20000B5
:103160000068704740F254004AF22401C2F20000A5
:10317000C2F2000100780A6810440860704700003D
:1031800080B543F60040C4F20200016841F40071CA
:103190000160016841F480610160016841F480715F
:1031A0000160032000F088F8002000F005F800F02E
:1031B0004BF8002080BD000010B586B001463720D6
:1031C0000022002400F068F8372000F061F843F690
:1031D00040000194C4F20200016841F02001016046
:1031E0000068694600F020000190019801A800F0F5
:1031F00017F900F03BF94DF683614000C4F21B3132
:10320000A0FB01014FF0FF3000EB914141F244403F
:1032100041F20042C2F20000C4F2000240F2E73381
:10322000C0E90021C0E90243046100F07DFB10B158
:10323000012006B010BD41F24440C2F2000000F08F
:103240000DFC06B010BD000080B582B0002043F632
:1032500040010190C4F202014A6842F480424A608F
:103260004A6802F480420192019A009008680022A4
:1032700040F08050086008680F2100F080500090F6
:1032800000986FF0010000F007F802B080BD000068
:1032900080B504F041FC80BD70B514460D4606466D
:1032A00004F04AFC2946224602F068F901463046FD
:1032B00004F04AFC70BD000080B504F05FFC80BDE6
:1032C0002DE9F041002800F08B8043F60808C4F295
:1032D00002080446D8F8F8030D4600F007008842BB
:1032E00007D288F8F853D8F8F80300F00700A8428E
:1032F00076D12068810717D5410705D5D8F8001089
:1033000041F4E051C8F80010010705D5D8F80010C5
:1033100041F46041C8F80010D8F80010A26821F00C
:10332000F0011143C8F80010C0073FD1D8F8F803E6
:1033300000F00700A84207D988F8F853D8F8F80336
:1033400000F00700A8424BD12068410707D5D8F804
:103350000010E26821F4E0511143C8F800100007A2
:1033600008D5D8F80000216920F4604040EAC10087
:10337000C8F8000000F09EF8D8F800104DF6BE2204
:10338000C1F30311C0F60002515C40F2080220FABA
:1033900001F140F25800C2F200000068C2F20002DF
:1033A0001160FFF709FF0020BDE8F0816068811E11
:1033B000022907D258F8081C89015CBF0120BDE82A
:1033C000F08110E0012807D158F8081C89035CBF80
:1033D0000120BDE8F08106E058F8081C890702D4F6
:1033E0000120BDE8F081D8F8001021F00301084366
:1033F000C8F80000FFF7B0FE064641F2883700BF6C
:10340000D8F80000616800F00C00B0EB810F8DD09F
:10341000FFF7A2FE801BB842F2D90320BDE8F0817D
:103420000F22026043F60802C4F20202136803F09E
:1034300003034360136803F0F0038360136803F42D
:10344000E053C360D2F800C04FF4E05303EADC035A
:103450000361D2F8F80300F007000860704700002D
:1034600040F20800C2F200000068704780B5FFF724
:10347000F7FF43F60801C4F2020109684DF6CE22B7
:10348000C1F38221C0F60002515CC84080BD00003B
:1034900080B5FFF7E5FF43F60801C4F202010968B1
:1034A0004DF6CE22C1F34231C0F60002515CC84055
:1034B00080BD000010B543F60404C4F20204606845
:1034C00000F00C0142F200400829C0F2F40007D0DD
:1034D000042918BF10BD41F20020C0F27A0010BDCF
:1034E000216801F03F02216823684902C3F3881173
:1034F00005D4A1FB00010023FCF762FE06E041F2C7
:103500000020C0F27A004843B0FBF2F021680222AA
:10351000C1F3014102EB4101B0FBF1F010BD00002D
:103520002DE9F04182B0002800F0A2800446007826
:1035300043F60006C007C4F2020643D0B06800F0AC
:103540000C00042805D1306880033BD56068C8BBF7
:103550008EE0B06800F00C00082802D170684002CC
:10356000F1D46568B5F5A02F0AD0B5F5803F0BD032
:10357000306820F480303060306820F4802006E02D
:10358000306840F480203060306840F48030306033
:10359000FFF7E2FD002D054611D000BF3068800323
:1035A00010D4FFF7D9FD401B6428F7D922E100BFF2
:1035B000FFF7D2FD401B64284FF0030055D8306858
:1035C0008003F5D4207880071AD5B06810F00C0F6E
:1035D00009D0B06800F00C00082840F08A807068BC
:1035E000400200F186803068800702D5E06801283B
:1035F0003ED13068216920F0F80040EAC100306017
:103600002078000738D4207840074CD4A5695DB3F2
:10361000B06800F00C00082840F09E80012D27D0F3
:103620007068E16900F480028A4221D1216A00F0C9
:103630003F028A421CD147F6C071626A0140B1EB79
:10364000821F15D1A26A0023CFF6FF7303EBC232AB
:1036500000F440316FF30F02914209D1E16A00F0AA
:103660007060B0EB016F03D1002002B0BDE8F081C3
:10367000012002B0BDE8F0816069002840F200003E
:10368000C4F2472057D00121C0F8801EFFF764FD27
:10369000054600BF706F8007B5D4FFF75DFD401B86
:1036A0000228F7D9A6E0306C10F080580AD100202B
:1036B0000190306C40F080503064306C00F08050ED
:1036C0000190019847F20007C4F200073868C0056E
:1036D00024D4386840F480703860FFF73DFD05461B
:1036E0003868C0051AD4FFF737FD401B0228F7D908
:1036F00080E0E068002851D00020C4F2472001217A
:103700000160FFF729FD0546306880073FF571AF7E
:10371000FFF722FD401B0228F6D96BE0A568052DB6
:1037200050D0012D52D0306F20F001003067306F43
:1037300020F004004DE00021C0F8801EFFF70CFDD2
:10374000054600BF706F80077FF55DAFFFF704FD92
:10375000401B0228F6D94DE00027C4F2472700207D
:103760003866FFF7F9FC022D05460BD13068800161
:1037700058D5FFF7F1FC401B02284FF00300F5D9A4
:1037800073E700BF306880017FF56EAFFFF7E4FCA0
:10379000401B02284FF00300F4D966E70020C4F272
:1037A000472000210160FFF7D7FC054630688007FD
:1037B0007FF526AFFFF7D0FC401B02284FF0030037
:1037C000F4D952E7306F40F004003067306F40F0BA
:1037D00001003067FFF7C0FC002D054641F2883735
:1037E00014D000BF306F800713D4FFF7B5FC401B27
:1037F000B842F7D9032002B0BDE8F081FFF7ACFC76
:10380000401BB8424FF003003FF62FAF306F8007E8
:10381000F4D4B8F1000F7FF4F9AE306C20F0805092
:103820003064F3E604F11C052FCD08430021CFF6E8
:10383000FF7140EA821001EBC3316FF30F0140EAE0
:1038400005600843706001203866FFF785FC044678
:10385000306880013FF508AFFFF77EFC001B0228AF
:103860004FF00300F4D900E77047000070470000F4
:1038700010B590F83C20012A4FF0020252D00123EB
:1038800080F83C3080F83D200268D2F804E0D2F89D
:1038900008C00C682EF07003234341F2FF74C4F299
:1038A0000004A24253600DDC40F2FF73C4F2000337
:1038B0009A4215DCB2F1804F29D040F20043C4F2A5
:1038C000000322E040F2FF33C4F201039A4212DC0B
:1038D00041F60003C4F200039A4218D0002312E01C
:1038E00040F60003C4F200039A4210D040F60043B1
:1038F000C4F2000309E044F20003C4F201039A4257
:1039000005D040F20043C4F201039A4204D1496851
:103910002CF08003194391600121002280F83D10B2
:1039200080F83C20104610BD002804BF01207047DD
:1039300010B5044690F83D0028B9002084F83C00FA
:10394000204600F01FF8022084F83D002068211D69
:1039500003F086FB012084F8460084F83E0084F8DA
:103960003F0084F8400084F8410084F8420084F865
:10397000430084F8440084F8450084F83D000020AA
:1039800010BD000081B0006840F20041C4F20001A7
:10399000884201D001B070470020009043F64000FB
:1039A000C4F20200016841F002010160006800F009
:1039B00002000090009801B07047000090F83D10A0
:1039C00001291CBF01207047022180F83D100068CA
:1039D00041F2FF71C4F2000188420DDC40F2FF7138
:1039E000C4F20001884215DCB0F1804F29D040F2CA
:1039F0000041C4F2000122E040F2FF31C4F20101B3
:103A0000884212DC41F60001C4F20001884218D05D
:103A1000002112E040F60001C4F20001884210D0FB
:103A200040F60041C4F2000109E044F20001C4F292
:103A30000101884205D040F20041C4F201018842F0
:103A400006D1816801F00701062904BF00207047F4
:103A5000016841F0010101600020704790F83D10BD
:103A600001291CBF01207047022180F83D10006829
:103A700041F2FF72C168C4F20002904241F00101BC
:103A8000C1600DDC40F2FF71C4F20001884215DC18
:103A9000B0F1804F29D040F20041C4F2000122E091
:103AA00040F2FF31C4F20101884212DC41F600010C
:103AB000C4F20001884218D0002112E040F6000153
:103AC000C4F20001884210D040F60041C4F2000167
:103AD00009E044F20001C4F20101884205D040F23D
:103AE0000041C4F20101884206D1816801F007015A
:103AF000062904BF00207047016841F00101016000
:103B00000020704710B5044690F83C0001284FF0A3
:103B1000020008BF10BD012284F83C2084F83D005B
:103B200020684FF6777382689A4382600A683F2A5A
:103B300014DD5F2A18DD602A28D0B2F5005F2DD091
:103B4000702A40D1D1E9012CCB68614603F02CFBEF
:103B50002068816841F07701816034E01F2A0FDC22
:103B600092B1102A10D02EE0402A23D0502A2AD118
:103B70004B68CA68194603F0EFFB2068502120E02B
:103B8000202A01D0302A1ED111461AE04B68CA689B
:103B9000194603F0F3FB2068602112E0D1E9012C03
:103BA000CB68614603F000FB2068816841F48041E6
:103BB000816008E04B68CA68194603F0CDFB2068B5
:103BC000402103F0FDFA012084F83D00002084F834
:103BD0003C0010BD7047000010B504460068016944
:103BE000890744BFC1685FEA817138D420680169E0
:103BF000490744BFC1685FEA41713CD4206801694C
:103C0000090744BFC1685FEA017141D420680169B6
:103C1000C90644BFC1685FEAC16145D42068016933
:103C2000C9071CBFC1685FEAC1714AD12068016938
:103C3000090644BFC1685FEA016149D4206801698F
:103C4000490644BFC1685FEA416148D42068016900
:103C5000890644BFC1685FEA816147D410BD6FF037
:103C600002010161012121778069800745D020464A
:103C7000FFF7B0FF47E06FF00401016102212177F7
:103C8000806910F4407F41D02046FFF7A3FF43E056
:103C90006FF00801016104212177C06980073ED0DF
:103CA0002046FFF797FF40E06FF010010161082107
:103CB0002177C06910F4407F3AD02046FFF78AFF91
:103CC0003CE06FF001010161204600F0BDF9ADE775
:103CD0006FF0800101612046FFF7C6FDAEE76FF08F
:103CE00040010161204600F0BBF9AFE76FF0200111
:103CF00001612046FFF7BAFD10BD204600F050F8E4
:103D0000204600F0CBF8002020776FE7204600F037
:103D100047F8204600F0C2F8002020776EE72046E2
:103D200000F03EF8204600F0B9F8002020776DE75B
:103D3000204600F035F8204600F0B0F8002020774B
:103D40006CE7000080B586B040F200410068C4F224
:103D50000001002288420592CDE9032202920192DD
:103D600001D006B080BD43F630000092C4F20200DC
:103D7000036843F002030360006800F00200009053
:103D80000098102001900220CDE90202CDE9042024
:103D900001F5003001A9FFF707F906B080BD00006A
:103DA00070470000B0B5044690F83C00012804BFFD
:103DB0000220B0BD4FEAB2000D460121032884F86D
:103DC0003C1036D8DFE800F0020A122220682946AB
:103DD00003F0FEF9206850F8181F0EE0206829460D
:103DE00003F028FA206850F8181F16E020682946CA
:103DF00003F056FA206850F81C1F41F008010160DA
:103E0000016821F00401016029690FE0206829465A
:103E100003F07AFA206850F81C1F41F40061016039
:103E2000016821F480610160296909020268114377
:103E30000160002084F83C00B0BD0000002804BFF1
:103E40000120704710B5044690F83D0028B90020C5
:103E500084F83C00204600F01FF8022084F83D0062
:103E60002068211D03F0FCF8012084F8460084F846
:103E70003E0084F83F0084F8400084F8410084F854
:103E8000420084F8430084F8440084F8450084F834
:103E90003D00002010BD000070470000704700008A
:103EA00010B5044641B1082909D0042914BF04F112
:103EB000410004F13F0004E004F13E0001E004F1A0
:103EC0004000007801281CBF012010BD022041B134
:103ED000082909D0042914BF84F8410084F83F0060
:103EE00004E084F83E0001E084F8400020680122EC
:103EF00003F048F9206841F2FF71C4F200018842E2
:103F00000FDC40F2FF71C4F20001884217DCB0F10F
:103F1000804F49D040F20041C4F20001884243D0B2
:103F200049E040F2FF32C4F20102904214DC41F653
:103F30000003C4F20003984236D0002314E040F698
:103F40000001C4F2000188422ED040F60041C4F2C4
:103F50000001884228D02EE044F20003C4F201039D
:103F6000984221D040F20043C4F20103984222D18A
:103F7000436C884243F400434364C2DD904207DC53
:103F800041F60001C4F2000188420DD0002107E093
:103F900044F20001C4F20101884205D040F2004120
:103FA000C4F20101884206D1816801F007010629A7
:103FB00004BF002010BD016841F001010160002034
:103FC00010BD0000B0B50446006800220D4603F0A5
:103FD000D9F8206840F2004240F48061C4F2010246
:103FE00091420DD1016A41F21112114208D1016AC8
:103FF00040F24442114203D1416C21F4004141643A
:10400000016A41F21112114208D1016A40F24442A0
:10401000114203D1016821F0010101600120082D46
:1040200009D0042D0BD0002D14BF84F8410084F872
:104030003E000020B0BD84F840000020B0BD84F8F0
:104040003F000020B0BD000080B5006841F2004193
:10405000C4F20001884208BFFFF784F880BD000069
:10406000704700007047000010B5044600684169C1
:1040700094F83D20212A0ED111F080010BD0416926
:1040800021F080014161606B002818BFFEF7C0FD80
:10409000204603F03FFA2068416994F83E20222A26
:1040A0000ED111F040010BD0416921F04001416176
:1040B000A06B002818BFFEF7ABFD204603F008FAFE
:1040C000002010BD70470000B0B582B00168054601
:1040D0000868CA684C6900F02F03202B02F0200307
:1040E00005D123B1284603F01FFA02B0B0BD5FEA44
:1040F000007C1EBF04F0010E02F4907414EB0E0459
:1041000024D12B6B1040C20617D5012B15D10020EE
:10411000019008680190486801900198486940063C
:104120001CD4A88DEA8DEB8D002B1CBF801A5FEA92
:10413000004240F09B8002B0B0BD010637D440067B
:10414000F9D5284603F0DAF902B0B0BDC10718BFAF
:1041500012F4807130D1410734D43AE0A86B026880
:10416000526893B2002BE6D0AC8DA342E3D2EA852D
:10417000C269B2F5807F16D0CA6822F48072CA6024
:104180004A6922F001024A614A6922F040024A610A
:10419000202285F83E2000222A63CA6822F01002FD
:1041A000CA60FEF735FDA88DE98D401A6FE02846FC
:1041B00003F0B2FA02B0B0BD296C41F001012964EC
:1041C000410706D5BEF1000F03D0296C41F0020172
:1041D0002964810706D5BEF1000F03D0296C41F098
:1041E00004012964BCF1000F06D55EEA030103D087
:1041F000296C41F008012964296C00299BD01040EA
:10420000800602D5284603F08FF928684069296C9A
:1042100000F0400001F00801401820D0284603F0CB
:1042200057F928684169490614D5416921F04001D0
:104230004161A86B70B147F20541C0F6000101650C
:10424000FEF72CFD00283FF476AFA86B016D884780
:1042500002B0B0BD2846FFF735FF02B0B0BD28461A
:10426000FFF730FF0020286402B0B0BDCA6822F416
:104270009072CA604A6922F001024A61202285F8E0
:104280003E2000222A63CA6822F01002CA6081B26E
:104290002846FFF7E7FE02B0B0BD0000002804BFCB
:1042A0000120704710B5044690F83D0028B9002061
:1042B00084F83C00204600F021F8242084F83D00DA
:1042C0002068C16821F40051C160204603F07CF9E8
:1042D0002068016921F490410161416921F02A01BE
:1042E0004161C16841F40051C16000202021206477
:1042F00084F83D1084F83E1010BD000070B586B003
:104300000446006844F20041C4F2000100268842DD
:10431000CDE90466CDE9026601965BD041F2004129
:10432000C4F20101884200F09E8041F20001C4F213
:104330000101884240F0F380002643F630000096E9
:10434000C4F20200416941F010014161416901F08C
:104350001001009100990096016841F0010101608F
:10436000006801A900F00100009000984FF4C060BF
:1043700001900220CDE90206032004900720059059
:104380000020C4F20200FEF70FFE46F28800C4F2DD
:10439000020041F2DC2500F56E70C2F200054FF01C
:1043A00000614FF4806285E843002846C5E9036256
:1043B000C5E90566C5E907666E62FEF747FD002898
:1043C00000F09E80FEF7F6F941F2DC252526C2F2C8
:1043D00000059AE043F630000096C4F2020001693D
:1043E00041F400310161016901F40031009100994B
:1043F0000096016841F001010160006801A900F028
:104400000100009000980C2001900220CDE90206E6
:1044100003200490072005900020C4F20200FEF75C
:10442000C3FD41F23C3546F28800C2F20005C4F2F9
:1044300002004FF000614FF4806285E84300284697
:10444000C5E90362C5E90566C5E907666E62FEF760
:10445000FDFC002856D0FEF7ADF941F23C3526268A
:10446000C2F2000551E0002643F630000096C4F287
:104470000200416941F020014161416901F02001E0
:10448000009100990096016841F004010160006804
:1044900001A900F0040000900098C02001900220C3
:1044A000CDE9020603200490082005900020C4F204
:1044B000020000F50060FEF777FD46F28800C4F2C6
:1044C000020041F29C3500F56870C2F200054FF021
:1044D00020614FF4806285E843002846C5E9036205
:1044E000C5E90566C5E907666E62FEF7AFFC58B11F
:1044F000FEF760F941F29C354726C2F2000504E060
:10450000252602E0262600E0472630460521002227
:10451000A563AC63FEF7C0FE3046FEF7B9FE06B0F9
:1045200070BD000010B590F83E30202B0BD1002953
:104530004FF0010418BF002A01D1204610BD90F8A9
:104540003C30012B01D1022010BD0123002480F852
:104550003C30046303F0A6F8204610BD704700000D
:10456000704700002DE9F04381B0044690F83D000B
:1045700020280BD10E4600294FF0010055D01746D8
:10458000002A52D094F83C00012803D1022001B047
:10459000BDE8F083012084F83C004FF000092120A1
:1045A0001D46C4F8409084F83D00FEF7D5FDA78471
:1045B000E784A1680746B1F5805F07D1206900282C
:1045C0001CBF30464E46B046064601E04FF000089C
:1045D00084F83C9007E000BF16F8010B21684860A2
:1045E000E08C0138E084E08C80B1204680213A469E
:1045F0002B4603F0BBF880B9002EEDD138F8020B42
:1046000021686FF35F2048600026E9E720464021DB
:104610003A462B4603F0AAF818B1032001B0BDE8D2
:10462000F083202084F83D00002001B0BDE8F08335
:1046300070470000FEE7000010B540F20044C4F2ED
:10464000020420464FF400410022FEF77FFD00F0F7
:104650003BF920464FF400510022FEF777FD00F0B1
:1046600033F920464FF400410122FEF76FFD00F0C0
:104670002BF920464FF400410022FEF767FD00F0C1
:1046800023F910BD10B540F20044C4F202042046E4
:104690004FF400410022FEF759FD00F015F92046C5
:1046A0004FF400510122FEF751FD00F00DF92046B4
:1046B0004FF400410122FEF749FD00F005F92046C4
:1046C0004FF400410022FEF741FD00F0FDF810BD5F
:1046D00070B540F20044C4F2020420464FF4005189
:1046E0000122FEF733FD0826002500BF20464FF4C7
:1046F00000410022013EFEF729FD00F0E5F82046CA
:104700004FF400410122FEF721FD00F0DDF82046C4
:104710004FF40051FEF714FD002818BF01203106A8
:1047200040EA4505E2D120464FF400410022FEF761
:104730000DFDE8B270BD000070B540F200440546C2
:104740000726C4F2020400BF20464FF400410022B5
:10475000FEF7FCFC00F0B8F8E8B2C20920464FF4BE
:104760000051FEF7F3FC6D0000F0AEF820464FF468
:1047700000410122FEF7EAFC00F0A6F83006A6F19F
:104780000106E1D120464FF400410022FEF7DEFC95
:1047900070BD0000B0B540F20044C4F202042046EF
:1047A0004FF400510122FEF7D1FC20464FF40041A6
:1047B0000122FEF7CBFC00F087F820464FF40051B1
:1047C000FEF7BEFC80B120464FF4005100220025C8
:1047D000FEF7BCFC00F078F820464FF40051FEF7DD
:1047E000AFFC18B12846B0BD0020B0BD20464FF444
:1047F00000510022FEF7AAFC00F066F801252846C9
:10480000B0BD000010B540F20044C4F202042046DE
:104810004FF400410022FEF799FC00F055F82046C5
:104820004FF400510022FEF791FC00F04DF82046B5
:104830004FF400410122FEF789FC00F045F82046C4
:104840004FF400510122FEF781FC00F03DF810BD4D
:10485000B0B540F20044C4F2020420464FF40041D7
:104860000022FEF773FC00F02FF820464FF40051B1
:104870000122FEF76BFC00F027F820464FF40041C0
:104880000122FEF763FC00F01FF820464FF40051B0
:10489000FEF756FCB0FA80F0450920464FF400417F
:1048A0000022FEF753FC2846B0BD000081B00A206C
:1048B0000090009830B100BF009801380090009837
:1048C0000028F9D101B0704781B00A20009000980B
:1048D00030B100BF00980138009000980028F9D14D
:1048E00001B0704710B541F26550C2F20000007887
:1048F000012842D0002818BF10BD0020FDF742FE5D
:10490000FDF79CFC002800F085800320FDF7C6FE23
:10491000FDF730FC45F6B07045F67471C0F6010045
:10492000C0F60101FDF7A8FC002873D0FDF7ECFBF1
:1049300000200021FDF7E0FE0020FDF787FE40F299
:10494000CC40C2F2000000F6284145F64370C0F6A4
:10495000010007F0FFF845F66570C0F6010041F26E
:10496000E101FDF799FB002855D00120FDF70AFE73
:104970002EA008F007FF002010BD0020FDF702FE6A
:10498000FDF75CFC002845D00320FDF787FEFDF70E
:10499000F1FB45F6B07045F67471C0F60100C0F643
:1049A0000101FDF769FCA8B3FDF7AEFB0020002173
:1049B000FDF7A2FE0020FDF749FE40F2CC40C2F216
:1049C000000000F6284145F64370C0F6010007F0EC
:1049D000C1F812A040F21371FDF75EFBD8B10120BF
:1049E000FDF7D0FD11A008F0CDFE45F6527441F25E
:1049F0001450C0F60104C2F200002146122202F057
:104A000007FF45F6B470C0F60100214607F0A2F892
:104A1000002010BD10BD012010BD00BF3138332E65
:104A20003233302E34302E343000000045535038AD
:104A300032363620696E6974206F6B2100000000E9
:104A4000B0B541F20004C4F2020420460221FEF790
:104A500077FBB0FA80F0450920460421FEF770FB91
:104A6000B0FA80F0400945EA400520460821FEF7EB
:104A700067FBB0FA80F0400945EA80052046102126
:104A8000FEF75EFBB0FA80F0400945EAC00520461B
:104A90002021FEF755FB0138B0FA80F0400945EAC5
:104AA000001520464021FEF74BFB0138B0FA80F09C
:104AB00040F2910C4009C2F2000C45EA40109CF80B
:104AC0000020010615D0C4B2944212D140F2900EDB
:104AD000C2F2000E9EF8001003464D1CE9B20229F6
:104AE00018BF002394428EF800500ED0022909D13D
:104AF0000BE0C1B240F29005C2F2000500239142E2
:104B00002B7002D000238CF80000D8B2B0BD00009A
:104B10002DE9F04383B040F26806C2F200068E46EB
:104B2000B6F90210DDF82C90DDF82880A1EB0E0715
:104B30009C46012F06DBACEB0703012B2FDB07FBA9
:104B4000089901E063467146B6F906700CEB0E0554
:104B5000FF432F44012F02DBDB1B012B1FDBB6F9C8
:104B600004401518B6F90070E6432E44002EC8BF65
:104B7000921B87420BDD3F1A27F00706D21B09EB79
:104B8000E709304407F00706012A03DA07E00026A8
:104B9000012A04DBCDE90089029600F06BF803B02E
:104BA000BDE8F08380B582B040F2680CC2F2000C20
:104BB000BCF902308B4219DCBCF906308B4215DBA4
:104BC000BCF90030BCF904E08342C8BF18469645E2
:104BD000B8BF7246824209DB9CF81CC089B280B221
:104BE00092B20B46CDF800C001F022F802B080BDB1
:104BF00080B540F26802C2F20002B2F902308B4284
:104C000011DCB2F906308B420DDBB2F90030834281
:104C100009DCB2F904308342B8BF80BD127F80B294
:104C200089B201F099F880BD80B582B040F2680C7D
:104C3000C2F2000CBCF90030834219DCBCF904302C
:104C4000834215DBBCF90230BCF906E08B42C8BFD9
:104C500019469645B8BF72468A4209DB9CF81CC0CB
:104C600080B289B293B20246CDF800C000F0E0FFF6
:104C700002B080BD2DE9F04782B0012B15DBDDF8D5
:104C80003080DDE90AA51C4691460E46074600BF66
:104C9000384631462A464346CDF80090FCF752FB91
:104CA0005544013C06F10106F2D102B0BDE8F0879F
:104CB00010B5A0F1040C4FF0000E00BF6FF003031D
:104CC000604600BF50F8042FCC1804330C2B6260F0
:104CD000F8D10EF1010EBEF1040F0CF1100C01F130
:104CE000100108BF10BDE9E72DE9F041A1F1040C66
:104CF000A2F1040E4FF0000800EB08110A1D01F1AB
:104D0000080401F10C0504267746634691ED000A7C
:104D100093ED011A93ED052A20EE010A92ED001A97
:104D200093ED093A21EE021A94ED002A93ED0D4A13
:104D300030EE010A22EE031A95ED002A30EE010A48
:104D400022EE041A30EE010A043387ED010A04371B
:104D5000013EDBD108F10108B8F1040F0EF1100E8D
:104D600008BFBDE8F081C7E72DE9F04381B02DED24
:104D70000A8B8CB00DF11E000DF11D0700900DF196
:104D8000260008A903AA0BAB019703F0EBF8BDF8C6
:104D90001E00C00540F1D1809DED030A9DED041A6F
:104DA0009DED052A9DED063A9FED814AB8EEC00AB9
:104DB00040F21C08B8EEC11A41F6D42920EE040ACC
:104DC000C2F2000821EE041AC2F20009B8EEC22AAB
:104DD000B8EEC33A88ED000A89ED001A22EE042AE3
:104DE00023EE043A31EE011A30EE000A21EE031AE6
:104DF00020EE020A41F6D82641F6DC2730EE410AC1
:104E0000C2F20006C2F2000710EE100A86ED002A78
:104E100087ED003AFBF76DFC41EC100B06F0F4FE59
:104E200051EC100B9FED600B54EC105B2A462346AF
:104E3000FBF741FBFBF770FC41F28011C2F200016D
:104E4000086096ED009A98ED001A97ED000A99ED2A
:104E500000BA39EE09AA31EE011A2AEE000A21EE53
:104E60000B1A30EE010A10EE100AFBF742FCB8EE06
:104E7000000A2BEE000A2BEE000A29EE0A1A30EE89
:104E8000410AB7EE001A30EE010A41EC180B10EEA1
:104E9000100AFBF72EFC41EC110BB0EE480AF0EEC5
:104EA000680A07F0CDF951EC100B2A462346FBF7B0
:104EB00002FBFBF731FC41F28411C2F200010860F1
:104EC00099ED009A96ED00AA98ED00BA97ED00CA08
:104ED00029EE0A0A2BEE0C1A30EE010A30EE000A17
:104EE00010EE100AFBF705FC2BEE0B0A29EE091A4F
:104EF00031EE000A2AEE0A1A30EE410A2CEE0C1AA4
:104F000030EE410A41EC180B10EE100AFBF7F1FBF2
:104F100041EC110BB0EE480AF0EE680A07F090F988
:104F200051EC100B2A462346FBF7C5FAFBF7F4FBBE
:104F300041F28811C2F200010860BDF81E0010F0B5
:104F4000700F14D0BDF8261041F2D422C2F2000234
:104F50001180BDF8281041F2D622C2F20002118061
:104F6000BDF82A1041F2D822C2F2000211800007D7
:104F700014D5BDF8200040F2AC41C2F20001088017
:104F8000BDF8220040F2AE41C2F200010880BDF837
:104F9000240040F2B041C2F2000108800CB0BDEC28
:104FA0000A8B01B0BDE8F0836666666666A64C4073
:104FB0000000803010B503F0E1FF00281CBF002086
:104FC00010BD43A008F0DEFB782004F065FD10B1B1
:104FD000002448A077E046F20510C0F6010008F072
:104FE000D1FB782003F0F0FE10B100244BA06AE062
:104FF00046F2E200C0F6010008F0C4FB322004F0E3
:1050000005FD28B146F224100024C0F601005AE044
:1050100046F25600C0F6010008F0B4FB02F094FF1F
:1050200028B146F245100024C0F601004BE046F2DC
:105030000300C0F6010008F0A5FB03F079FE03F0C1
:1050400057F928B146F200200024C0F601003AE0EA
:1050500046F2BE00C0F6010008F094FB40F2731067
:1050600002F04AFE28B146F27E100024C0F601008C
:1050700029E046F23300C0F6010008F083FB32203D
:1050800003F09EF828B146F2AA100024C0F60100F1
:1050900019E046F27A00C0F6010008F073FB05F053
:1050A0009DFB012004F0C0FB0146B0FA80F04409EA
:1050B00046F2D51046F29C02C0F60100C0F601028D
:1050C000002908BF104608F05DFB204610BD00BF58
:1050D0006D707520696E697469616C697A61746953
:1050E0006F6E20636F6D706C6574652E2E2E2E2E84
:1050F0002E0000006D70755F7365745F73656E736D
:105100006F7220636F6D65206163726F73732065CA
:1051100072726F72202E2E2E2E2E2E006D70755FE5
:10512000636F6E6669677572655F6669666F206337
:105130006F6D65206163726F7373206572726F7239
:10514000202E2E2E2E2E2E0080B582B0002043F66B
:1051500030010190C4F202010A6842F400120A60B0
:105160000A6802F400120192019A00900868002275
:1051700040F4800008600868052100F48000009079
:1051800000981020FEF788F81020FEF781F83920EB
:1051900005210022FEF780F83920FEF779F83A2041
:1051A00005210022FEF778F83A20FEF771F802B0E8
:1051B00080BD000080B546F6B12040F23032C0F626
:1051C0000000C0F60102002104F03EFD40F298010B
:1051D000C2F20001086046F2BD6040F20C32C0F637
:1051E0000000C0F60102002104F02EFD40F29401FF
:1051F000C2F20001086046F6A94040F25432C0F6FF
:105200000000C0F60102002104F01EFD40F2A041A2
:10521000C2F20001086046F279604DF66832C0F6CD
:105220000000C0F60002002104F00EFD40F264010F
:10523000C2F20001086046F27D004DF64432C0F62D
:105240000000C0F60002002104F0FEFC40F2600104
:10525000C2F20001086080BD2DE9F04F87B0002444
:1052600043F630000694CDE90444CDE902440194AC
:10527000C4F20200016841F2000641F01001016031
:105280000168C4F2020601F0100101910199019434
:105290000168012241F08001016001684FF0010BBB
:1052A00001F08001019101990194016841F001012F
:1052B0000160016801F00101019101990194016807
:1052C00041F002010160016801F0020101910199C0
:1052D0000194016841F004010160016801F00401DA
:1052E000019101990194016841F008010160006891
:1052F0004FF47F4100F00800019001983046FDF71F
:1053000025FFA6F5406738464AF2C0410022FDF766
:105310001DFFA6F5006948464FF470610022FDF7B5
:1053200015FFA6F5805840464FF419410022FDF7BD
:105330000DFFA6F5806A504604210022FDF706FF06
:10534000304601210022FDF701FF1E2002A902AD17
:1053500081E8110830462946FDF726FE6020CDE998
:1053600002040220049030462946FDF71DFE4FF648
:105370000170CDE9020B30462946CDE90444FDF722
:1053800013FE4FF48060CDE9020B38462946CDE983
:105390000444FDF709FE4AF2C00002901120CDE955
:1053A0000304384629460594FDF7FEFD4FF470606E
:1053B000CDE9020B48462946CDE90444FDF7F4FD4A
:1053C0004FF41940CDE9020B40462946CDE904448B
:1053D000FDF7EAFD0420CDE9020B50462946CDE950
:1053E0000444FDF7E1FD0820CDE9020450462946BA
:1053F0000494FDF7D9FD07B0BDE8F08F10B58EB06D
:1054000041F2FC3040F200420021C2F20000C4F23E
:105410000002532340F2E7340D91CDE90B11CDE9A1
:105420000911CDE90711CDE90511CDE90311CDE948
:105430000111C0E90023C0E9021401618161FEF796
:1054400073FA002818BFFDF7B5F94FF480500A90A1
:1054500041F2FC30C2F200000AA9FEF753FB00281B
:1054600018BFFDF7A7F941F2FC30C2F20000FEF7C9
:10547000E5FC002818BFFDF79DF941F2FC3000243F
:10548000C2F2000008A9CDE90844FEF7F1F90028AE
:1054900018BFFDF78FF9602001904FF4FA70CDE945
:1054A000020441F2FC30C2F2000001A9002205947E
:1054B000FEF778FC002818BFFDF77CF941F2FC30BC
:1054C000C2F20000FEF73EFC0EB010BD80B541F206
:1054D0008C4041F20001C2F20000C4F2010100233D
:1054E0004FF00C0C4FF4E13280E80E00C0E90333BA
:1054F000C0E905C3C361FEF7D1FE002818BFFDF760
:1055000059F980BD80B541F2D04044F20041C2F269
:105510000000C4F2000100234FF00C0C4FF41642BF
:1055200080E80E00C0E90333C0E905C3C361FEF79C
:10553000B5FE002818BFFDF73DF980BD80B541F2EA
:10554000145041F20041C2F20000C4F201010023F4
:105550004FF00C0C4FF4E13280E80E00C0E9033349
:10556000C0E905C3C361FEF799FE002818BFFDF727
:1055700021F980BDFEE70000FEE7000000F0070013
:1055800080F00703042B28BF04234FF0FF3C0338AF
:105590000CFA03F338BF0020994381400CFA00F065
:1055A00022EA00000843704710B540F20044C4F2FC
:1055B0000204204680210122FDF7C8FDFFF776F99D
:1055C000204640210122FDF7C1FDFFF76FF920467B
:1055D00040210022FDF7BAFD10BD000070B540F279
:1055E0000045C4F202050446284640210022002658
:1055F000FDF7ACFDE0B2C20928468021FDF7A6FD0B
:105600006400FFF753F9284640210122FDF79EFD73
:10561000FFF74CF9284640210022FDF797FDFFF7E0
:1056200045F9072E06F10106E4D370BD10B540F22E
:105630000044C4F20204204680210122FDF786FDC9
:10564000204640210122FDF781FDFFF72FF920467A
:1056500080210022FDF77AFDFFF728F9204640213E
:105660000022FDF773FD10BD10B540F20044C4F2F6
:105670000204204640210022FDF768FD20468021DB
:105680000022FDF763FDFFF711F9204640210122BA
:10569000FDF75CFD204680210122FDF757FDFFF755
:1056A00005F910BD0000000000000000000000002F
:1056B000EFF30980BFF36F8F154B1A681EF0100FC0
:1056C00008BF20ED108A20E9F04F10602DE9090095
:1056D0004FF0500080F31188BFF34F8FBFF36F8FEF
:1056E00005F072FB4FF0000080F31188BDE809005F
:1056F00019680868B0E8F04F1EF0100F08BFB0EC52
:10570000108A80F30988BFF36F8F704700BF00BF16
:105710005C1600209FED152AB5EE401A20EE020A15
:1057200031EE023A9FED124AF1EE10FA08BFB0EEE8
:10573000443A80EE030A20EE821A81EE031A02EE4A
:10574000101AB8EEC22A30EE020ABDEEC00A10EE00
:10575000101A00EE102AB8EEC00A31EE000ABDEEB3
:10576000C00A10EE102AC0E9001270470000004481
:10577000004000442DE9F04F81B02DED068BAAB01A
:105780000DF168098046484617460C46B0EE418A3E
:10579000B0EE609AB0EE40AA05F0B6F848466FF059
:1057A00007016FF007026FF0070301F0F9FDB0EE9B
:1057B000000A4846F0EE400AB0EE401A00F0F6FB50
:1057C0004846B0EE4A0AF0EE490AB0EE481A00F038
:1057D000E3F84846002100220023002501F0E0FD07
:1057E0004DF6E420C0F60000A0F108060FFA84FB95
:1057F0003FB20DF1200A0AAC06F1080090EC030A52
:1058000048460C3605F02EFB504659463A46FFF7FF
:1058100081FFDDE9081204EBC50044F8351001F002
:105820007F01426044F83510013502F03F01082D38
:105830004160E1D14046FDF7B5F90A9C0B9DDDE9D9
:105840000C892046294642464B4605940495CDF8DE
:105850000C80CDF80890FDF723F9DDE90E672046AE
:10586000294632463B4601960097FDF719F9109CF0
:10587000119D2046294642464B4607940695FDF762
:105880000FF92046294632463B46FDF709F90DF14E
:10589000480999E8C0033946304642464B46FDF771
:1058A000FFF8DDE916AB3046394652465B46FDF758
:1058B000F7F8DDE918454246204629464B46FDF7F4
:1058C000EFF82046294652465B46FDF7E9F8DDE948
:1058D000041032463B46FDF7E3F8DDE9021042468C
:1058E0004B46FDF7DDF8DDE9001052465B46FDF75B
:1058F000D7F8DDE9061022462B46FDF7D1F82AB08D
:10590000BDEC068B01B0BDE8F08F000070B541F230
:105910000004C4F20204204601210122FDF716FC16
:10592000322002F0B1F92046012100220025FDF7C6
:105930000DFC4FF4FA7002F0A7F920460121012274
:10594000FDF704FC282002F09FF920460121FDF715
:10595000F7FBA8B1002000BF0646012002F094F931
:1059600020460121FDF7ECFBB6F5F97F03D80028AE
:1059700006F10100F0D10025B6F5F97F88BF0125B9
:105980004FF4FA7002F080F9204601210122FDF760
:10599000DDFB284670BD00002DE9F0472DED048B9E
:1059A000D0B0804610EE100AB0EE418AB0EE609A98
:1059B000FAF79FFE9FED840B55EC107B3A462B4681
:1059C000FAF779FD9FED820B54EC106B32462346BB
:1059D000FAF7E3FDFAF7A0FE824619EE100AFAF78D
:1059E00088FE3A462B46FAF766FD32462346FAF71A
:1059F000D4FDFAF791FE814618EE100AFAF779FE07
:105A00003A462B46FAF757FD32462346FAF7C5FDCC
:105A1000FAF782FE05464FF07E5450462094FAF77E
:105A200068FE41EC180B0026B0EE480AF0EE680A5A
:105A3000CDE92166CDE9236606F01EFD51EC100B81
:105A4000FAF76AFEB0EE480AF0EE680A259006F012
:105A500077FD51EC100BFAF75FFEB0EE480A80F0CC
:105A60000040F0EE680ACDE92606289606F068FDAB
:105A700051EC100BFAF750FEB0EE480AF0EE680A4F
:105A8000299006F0F9FC51EC100BFAF745FECDE930
:105A90002A064846CDE92C66CDE92E64FAF729FEA0
:105AA00041EC180BB0EE480AF0EE680A06F0E4FC90
:105AB00051EC100BFAF730FEB0EE480AF0EE680A2F
:105AC000CDE9100606F03CFD51EC100BFAF724FE70
:105AD000B0EE480AF0EE680ACDE91206CDE914648A
