:020000040800F2
:10000000A08D00209D01000889380008D92B000828
:1000100085380008ED090008494B00080000000081
:10002000000000000000000000000000513E000839
:100030008D0B000800000000C1390008E1450008F0
:10004000B7010008B7010008B7010008B7010008B0
:10005000B7010008B7010008B7010008B7010008A0
:10006000B7010008B7010008B7010008B701000890
:10007000B7010008B7010008B7010008B701000880
:10008000B7010008B7010008B7010008B701000870
:10009000B7010008B7010008B7010008B701000860
:1000A000B7010008B7010008B7010008B701000850
:1000B000B7010008B7010008B7010008B701000840
:1000C000B7010008B7010008B7010008B701000830
:1000D000B7010008B7010008B7010008B701000820
:1000E000B7010008B7010008B7010008B701000810
:1000F000B7010008B7010008B7010008B701000800
:10010000B7010008B7010008B7010008B7010008EF
:10011000B7010008B7010008B7010008B54600089C
:10012000B7010008B7010008B7010008B7010008CF
:10013000B7010008B7010008B7010008B7010008BF
:10014000B7010008B7010008B7010008B7010008AF
:10015000B7010008B7010008B7010008B70100089F
:10016000B7010008B7010008B7010008B70100088F
:10017000B7010008B7010008B7010008000000003F
:10018000B7010008B7010008DFF80CD000F086FBCB
:100190000048004751600008A08D002006488047B5
:1001A00006480047FEE7FEE7FEE7FEE7FEE7FEE75C
:1001B000FEE7FEE7FEE7FEE7A1460008890100082A
:1001C0002DE9F05F0546002092469B46884606468C
:1001D000814640241BE0284641464746224600F01F
:1001E0005EFA53465A46C01A914110D3114618463A
:1001F000224600F045FA2D1A67EB01084F462246C9
:100200000120002100F03CFA17EB00094E41201EAE
:10021000A4F10104DFDC484631462A464346BDE8E6
:10022000F09F2DE9F0410024061B254671F10006E0
:1002300005DA01240027D0EB070067EB0101161E49
:1002400073F1000605DA0027D2EB0702012567EB00
:100250000303FFF7B5FF86460E4617469C46AC42A1
:1002600004D00025D0EB050E65EB010624B100207B
:10027000D2EB000760EB030C704631463A4663460A
:10028000BDE8F08140EA01039B0703D009E008C9FB
:10029000121F08C0042AFAD203E011F8013B00F84B
:1002A000013B521EF9D27047D2B201E000F8012B97
:1002B000491EFBD270470022F6E710B513460A46E6
:1002C00004461946FFF7F0FF204610BD30B504463E
:1002D0000020034600E05B1C934203D2E05CCD5C4F
:1002E000401BF8D030BD2DE9FE4F804681EA030067
:1002F000C00F0C46009021F0004123F00045B8EB00
:100300000200A94105D24046214690461C460B46B4
:10031000024623F00040104347D0270DC7F30A00E0
:10032000C3F30A510290401A019040286BDAC3F3DC
:10033000130040F4801B0098924620B10023D2EBBA
:10034000030A63EB0B0B01985946C0F1400250467B
:1003500000F096F906460D4650465946019A00F0BF
:10036000AEF910EB08006141002487EA115284EADB
:10037000E7731A4340D0009A62B3019A012A4FEA08
:10038000075215DC001B61EB02014FF0004202EA4C
:100390000752CDE90042001C41F5801132462B4640
:1003A00000F0E5F903B0BDE8F08F40462146F9E7DB
:1003B000001B61EB0201001C41F5801300185B413A
:1003C0002018A2F5001747EB030140EAD570B619D3
:1003D0006D4111E06D084FEA360645EAC0754FEAF7
:1003E0000752001B61EB0201001C41F58011490816
:1003F0004FEA30000019514132462B4603B0BDE8A8
:10040000F04F00F0A5B90098012240000023D0EB86
:10041000020263EBE073009821464FEAE074B8EB08
:10042000000061EB0401E9E783F000435BE781F042
:10043000004158E72DE9FE4F81EA030404F000442F
:1004400021F0004100944FF0000B23F0004350EAEC
:1004500001045ED052EA03045BD0C3F30A54C1F333
:100460000A552C44A4F2F3340194A0FB0254C1F3C6
:10047000130141F48011C3F3130343F4801301FB10
:10048000024400FB034E840A970A44EA815447EA77
:100490008357A4FB076802958D0A05FB07854FEA81
:1004A000932C04FB0C542705029D4FEA065847EA9B
:1004B0001637B5EB08056EEB070C870E920E47EA70
:1004C000811742EA8312A7FB0201B6EB0B0164EB32
:1004D00000042B0D43EA0C335E1844EB1C50DA4643
:1004E0005146E7FB0201C5F313044FEA0B3343EA1D
:1004F00014534FEA0432019C43EA0603A4F10C04AE
:100500000294009CCDE900B400F031F903B0BDE8DD
:10051000F08F00200146F9E72DE9F04D81EA030450
:1005200004F0004B21F0004514464FF0000A23F080
:10053000004150EA050220D054EA01021DD0C5F363
:100540000A570246C5F31303C1F31300C1F30A5659
:1005500040F4801543F48013A7EB0608101BD64621
:1005600008F2FD3873EB050002D308F1010801E041
:1005700092185B41B8F1000F03DA00200146BDE894
:10058000F08D00204FF48011064684460EE0171BC4
:1005900073EB050705D3121B63EB050306434CEA17
:1005A000010C49084FEA300092185B4150EA0107FC
:1005B000EDD152EA030012D082EA040083EA050179
:1005C000084305D0101BAB4106D20122002306E0F0
:1005D00000224FF0004302E06FF0010253101AEBCB
:1005E00006004CEB085110EB0A0041EB0B01BDE893
:1005F000F04D00F0ADB800F0004230F000400AD0FD
:10060000C10D01F56071C0F3160042EA0151C20844
:1006100040071143704700200146704701F0004336
:1006200030B421F0004150EA010206D00A0DA2F5D3
:100630006072C1F31301002A02DC30BC0020704755
:10064000440F44EAC104C100E01830BC00EBC250C2
:1006500000F047B830B50B460146002020220124A7
:1006600009E021FA02F59D4205D303FA02F5491B80
:1006700004FA02F52844151EA2F10102F1DC30BD96
:10068000202A04DB203A00FA02F100207047914052
:10069000C2F1200320FA03F3194390407047202A47
:1006A00004DB203A21FA02F00021704721FA02F31C
:1006B000D040C2F120029140084319467047202AD9
:1006C00006DBCB17203A41FA02F043EAE07306E07A
:1006D00041FA02F3D040C2F120029140084319468A
:1006E00070470029A8BF7047401C490008BF20F090
:1006F0000100704710B4B0FA80FC00FA0CF050EA28
:10070000010404BF10BC704749B1CCF1200421FAA8
:1007100004F411FA0CF118BF012121430843A3EBA3
:100720000C01CB1D4FEA00614FEA102042BF0020B0
:1007300010BC704700EBC35010440029A4BF10BC8C
:100740007047401C490008BF20F0010010BC7047F2
:1007500010B5141E73F1000408DA401C41F10001C9
:1007600092185B411A4301D120F0010010BD2DE920
:10077000F04D92469B4611B1B1FA81F202E0B0FA17
:1007800080F220329046FFF77BFF04460F4640EA96
:100790000A0041EA0B0153465A46084313D011465A
:1007A00053EA010019D0C8F140025046FFF777FF25
:1007B00005460E46504659464246FFF761FF08433C
:1007C00005D0012004E020463946BDE8F08D002028
:1007D000054346EAE0762C4337430A986305E40A6A
:1007E000A0EB08000022FD0A44EA47540A3002D573
:1007F00000200146E9E7010510196941DDE90845D6
:1008000000196941BDE8F04DA2E7C1F30A52C1F3F6
:10081000130140F2FF3341F480119A4202DA0020C2
:100820000146704740F233439A42A2F2334202DC5F
:100830005242FFF734BFFFF723BF000030B5041E5C
:1008400071F1000404DB4FF00044404264EB01010D
:10085000141E73F1000405DB1C464FF000435242A6
:1008600063EB04038B4208BF824230BD30B5041EE7
:1008700071F1000404DB4FF00044404264EB0101DD
:10088000141E73F1000405DB1C464FF00043524276
:1008900063EB0403994208BF904230BD064C074DFC
:1008A00006E0E06840F0010394E807009847103440
:1008B000AC42F6D3FFF76CFC7C2101089C210108B7
:1008C0002DE9F04D00231A461B1A8A4103DB002054
:1008D0000146BDE8F08DC1F30A52C1F3130141F4A2
:1008E00080154FF0000BD10702D100186D41521E48
:1008F0000027044640F2FF11384601EB620A3E46EB
:100900008046024600204FF48011FFF7C8FEC2194E
:100910007141BB1846EB0100B4EB030C75EB000C06
:1009200004D3E41A65EB000517460E46241908F1B6
:1009300001006D4180463428E3DDF91946EB0600DD
:10094000091BA84103D24FF0FF32134601E00022F9
:1009500013461BEB070046EB0A51BDE8F04DFFF7CD
:10096000F7BE000070B540F22464C2F200040546F0
:1009700020460E4601F022FD701E062888BF70BD7D
:100980004AF21E20C0F6000030F8160044F2402162
:10099000C0F20F01B1FBF0F02168C862E0604008CE
:1009A000486306F06DFA40F2B4412844C2F20001F7
:1009B00008602046002101F073FF70BD10B540F2C1
:1009C000B444C2F20004206870B106F059FA2168FC
:1009D000884238BF10BD0020206040F22460C2F27F
:1009E0000000002101F0D8FF10BD0000FEE700006C
:1009F00041EA00207047000070B514460D460646D7
:100A000003F010F8CC2000F061F84E2000F05EF802
:100A1000204600F05BF8284600F058F8304600F019
:100A200055F802F0FFFFCC2000F050F8482000F00D
:100A30004DF841F20004C4F2020400BF2046012137
:100A400001F080F80028F9D070BD000070B541F2C7
:100A50000004C4F2020420460121012201F078F8CA
:100A6000052004F059FA0825204601210022C6F38A
:100A7000460601F06DF8052004F04EFA20460121EB
:100A8000012201F065F8052004F046FA2046012114
:100A900001F058F800284FF0410018BF66F07F06BB
:100AA00004F03AFA20460121012201F051F8013DFB
:100AB0002806D9D1F0B270BD80B502F0B3FFCC20CA
:100AC00000F004F8442000F001F880BDF0B581B0DA
:100AD00041F2000405460826C4F202042046012122
:100AE000002201F035F8052004F016FA05F00102A5
:100AF00020460121EFB201F02BF8412004F00CFA5E
:100B000020460121012201F023F8022004F004FA1A
:100B1000013E30064FEA5705E0D101B0F0BD0000BC
:100B200080B586B000200590CDE90300CDE9010035
:100B3000009043F63000C4F20200016841F0100159
:100B40000160006801A900F01000009000980120E9
:100B5000CDE9010041F20000C4F2020000F026FFDE
:100B600006B080BD4EF6FC50CEF20000016841F0A8
:100B70008071016041F20000CEF20000016841F096
:100B800001010160002141607047000070470000D2
:100B900070B504464D1E00202A1A215CB2FA82F27A
:100BA000461C5209C0B204F007F8012006F058F9BB
:100BB000042E3046F0D170BD2DE9F04381B00646D9
:100BC000147803F007000D46089F40F2680990462C
:100BD000C2F20009DFE800F004132231404F5E6DDD
:100BE00099F81C0061B2421E18BF0122002948BFBB
:100BF0000246B0B2A9B203F01DF8013F6CD099F8DB
:100C00001C00731C421E18BF0122610648BF024629
:100C1000A9B298B203F00EF8013F5DD099F81C001C
:100C2000B31C421E18BF0122A10648BF0246A9B24A
:100C300098B202F0FFFF013F4ED099F81C00F31C60
:100C4000421E18BF0122E10648BF0246A9B298B26F
:100C500002F0F0FF013F3FD099F81C00331D421E07
:100C600018BF0122210748BF0246A9B298B202F07C
:100C7000E1FF013F30D099F81C00731D421E18BFE0
:100C80000122610748BF0246A9B298B202F0D2FF22
:100C9000013F21D099F81C00B31D421E18BF01224C
:100CA000A10748BF0246A9B298B202F0C3FF013FB4
:100CB00012D099F81C00F31D421E18BF0122E10753
:100CC00018BF0246A9B298B202F0B4FF013F03D0A8
:100CD00018F8014F083683E701B0BDE8F083000043
:100CE000B0B586B000F0C4FC4CF28C60C0F60000D9
:100CF00000F018FE002000F00BFE41F6BE60C0F6CA
:100D000001000021002200F051FD012000F000FE52
:100D100041F6B560C0F6010000210E2200F046FD4C
:100D200041F6A960C0F6010000211A2200F03EFD44
:100D300041F6A060C0F601000021272200F036FD38
:100D400041F6CA60C0F601000021342200F02EFDF9
:100D500034200021802200F051FD30200021342277
:100D600000F06EFD40F20570C2F20000007802282B
:100D700036D0012858D0002840F07781C9A0322110
:100D8000002200F013FDCAA032211A2200F00EFD4D
:100D900040F68040C2F200000068FFF72CFC01AC76
:100DA00002460B46C5A1204607F0E6FF20465A2121
:100DB0000D2200F0FBFC40F20470C2F2000001784A
:100DC00041F6C76241F6B260C0F60102C0F601000A
:100DD000002908BF10465A21272200F0E7FC44E111
:100DE00040F21C65C2F20005B5F9002001ACA1A1DA
:100DF000204607F0C1FF20463221002200F0D6FC39
:100E0000B5F90010B5F90000012931DB372148435D
:100E1000C11700EB51405A2101EBE0325A200D215D
:100E2000102300F011FD35E040F2AC45C2F20005A0
:100E3000B5F9002001AC95A1204607F09DFF2046A2
:100E40003221002200F0B2FCB5F90010B5F9000023
:100E5000012943DB37214843C11700EB51405A2198
:100E600001EBE0325A200D21102300F0EDFC47E0A9
:100E7000B0F1FF3F0EDCB5F9000037214843C11740
:100E800000EB51405A21A1EBE0325A200D211023F2
:100E900000F0D2FC40F21E65C2F20005B5F9002058
:100EA00001AC76A1204607F067FF204632211122CF
:100EB00000F07CFCB5F90010B5F90000012943DB16
:100EC00037214843C11700EB51405A2101EBE03272
:100ED0005A201E21212300F0B7FC47E0B0F1FF3F6C
:100EE0000EDCB5F9000037214843C11700EB514033
:100EF0005A21A1EBE0325A200D21102300F09CFC76
:100F000040F2AE45C2F20005B5F9002001AC61A186
:100F1000204607F031FF20463221112200F046FC26
:100F2000B5F90010B5F90000012943DB372148432A
:100F3000C11700EB51405A2101EBE0325A201E212B
:100F4000212300F081FC47E0B0F1FF3F0EDCB5F952
:100F5000000037214843C11700EB51405A21A1EB53
:100F6000E0325A201E21212300F066FC40F2206569
:100F7000C2F20005B5F9002001AC42A1204607F0FD
:100F8000FBFE20463221222200F010FCB5F90010B1
:100F9000B5F90000012943DB37214843C11700EBB5
:100FA00051405A2101EBE0325A202F21322300F028
:100FB0004BFC5AE0B0F1FF3F0EDCB5F900003721E1
:100FC0004843C11700EB51405A21A1EBE0325A20AF
:100FD0001E21212300F030FC40F2B045C2F2000592
:100FE000B5F9002001AC2DA1204607F0C5FE204632
:100FF0003221222200F0DAFBB5F90010B5F9000029
:10100000012920DB37214843C11700EB51405A2109
:1010100001EBE0325A202F21322300F015FC24E0AE
:10102000B0F1FF3F21DCB5F9000037214843C1177B
:1010300000EB51405A21A1EBE0325A202F213223FC
:1010400000F0FAFB11E0B0F1FF3F0EDCB5F9000053
:1010500037214843C11700EB51405A21A1EBE03240
:101060005A202F21322300F0E7FB00F071FC06B07C
:10107000B0BD00BF67783A253664000067793A252D
:1010800036640000677A3A253664000061783A25B4
:101090003664000061793A2536640000617A3A25A9
:1010A00036640000B5B1C7B0CEC2B6C8A3BA00005E
:1010B000D5F0B6AFB1A8BEAFA3BA0000252E3166F9
:1010C000A1E60000B0B52DED028B88B040F24C00D7
:1010D000C2F2000090ED008A00F0CAFA4CF28C6077
:1010E000C0F6000000F01EFC41F6BE60C0F6010034
:1010F0000021002200F05AFB002000F009FC41F61C
:10110000B560C0F6010000210E2200F04FFB012067
:1011100000F0FEFB41F6A960C0F6010000211A2292
:1011200000F044FB41F6A060C0F601000021272238
:1011300000F03CFB41F6CA60C0F6010000213422F9
:1011400000F034FB34200021802200F057FB3020D7
:101150000021342200F074FB20203321802200F093
:101160004DFB40F2C550C2F2000000780138032860
:1011700023D8DFE800F00260809F40F2CC40C2F24A
:1011800000000068FFF737FA02460B4658A10DF140
:10119000020007F0F1FD40F2D8450024C2F200053C
:1011A0002A19295D537804F1330004F1340200F068
:1011B0002DFB01344C2CF3D17CE0B3EE0E0A30EE63
:1011C000480AB3EE041A20EE010AB2EE041A80EEC9
:1011D000010A40F68040C2F200009FED3C1A006810
:1011E00030EE018AFFF707FA02460B4644A10DF1E3
:1011F000020007F0C1FD40F2C8550024C2F200050C
:101200002A19295D537804F1330004F1340200F007
:10121000FDFA01344C2CF3D1BDEEC80A10EE104A91
:10122000302500BF2846214600F002FBA81CC5B2AD
:10123000802DF7D33EE040F2D040C2F200000068BB
:10124000FFF7D9F902460B4625A10DF1020007F080
:1012500093FD40F228550024C2F200052A19295DA9
:10126000537804F1330004F1340200F0CFFA013472
:101270004C2CF3D11EE040F2D440C2F200000068D2
:10128000FFF7B9F902460B4611A10DF1020007F074
:1012900073FD40F278550024C2F200052A19295D39
:1012A000537804F1330004F1340200F0AFFA013452
:1012B0004C2CF3D10DF102003321002200F076FA1C
:1012C00000F046FB08B0BDEC028BB0BD0000004250
:1012D000BABDCFF2BDC73A252E3166A1E3000000AA
:1012E000BAE1B9F6BDC73A252E3166A1E300000088
:1012F000B8A9D1F6BDC73A252E3166A1E30000009A
:10130000CEC2B6C83A252E3166A1E60080B500F0FF
:10131000AFF94CF28C60C0F6000000F003FB41F620
:10132000BE60C0F601000021002200F03FFA41F645
:10133000B560C0F6010000210E2200F037FA00204F
:1013400000F0E6FA41F6A960C0F6010000211A2279
:1013500000F02CFA012000F0DBFA41F6A060C0F6A4
:1013600001000021272200F021FA41F6CA60C0F6F0
:1013700001000021342200F019FA342000218022DB
:1013800000F03CFA30200021342200F059FA00F03D
:10139000DFFA80BD80B500F06BF94CF28C60C0F6CE
:1013A000000000F0BFFA41F6BE60C0F60100002167
:1013B000002200F0FBF941F6B560C0F60100002103
:1013C0000E2200F0F3F941F6A960C0F601000021F9
:1013D0001A2200F0EBF9002000F09AFA41F6A06022
:1013E000C0F601000021272200F0E0F9012000F002
:1013F0008FFA41F6CA60C0F601000021342200F0E5
:10140000D5F934200021802200F0F8F930200021A5
:10141000342200F015FA00F09BFA80BDB0B540F21E
:10142000F864C2F20004256805F02AFDA5B1216820
:1014300001F5FA61884211D905F022FD216841F2D7
:1014400088321144884219D905F01AFD216801F546
:10145000FA51884222D900202060B0BD00F008F97E
:101460004CF26C60C0F6000000F05CFA16A040215F
:101470000C2200F0A5F900F06BFAB0BD00F0F8F80E
:101480004CF24C60C0F6000000F04CFA15A00021B0
:10149000002200F08BF900F05BFAB0BD00F0E8F834
:1014A00041F22820C0F601000021002200F0A2F93C
:1014B00041F23820C0F601004021002200F09AF9E4
:1014C00000F046FAB0BD00BFB7C0BBF0A1A2B7C0E4
:1014D000B5C1D4B60AB3CCBCECB2E2C6F7C9E8BC1D
:1014E000C6000000B3C9D4B131A3BACBEFEABBC880
:1014F000BB0A2020202020202031383034313832DF
:10150000300AB3C9D4B132A3BAB7BDBEC5B4A80AB4
:101510002020202020202031383034313831310053
:10152000EFF3108072B600BFFEE7000080B50D2813
:1015300008BF80BD0A2802D100F0B4F880BD40F297
:101540006801C2F2000109690968884780BD00008E
:1015500010B582B0944602884388B0F804E08468ED
:1015600008466146CDF800E0019401F043FD02B069
:1015700010BD00002DE9F04383B040F26808C2F2CC
:101580000008D8F810500446A9690846214600F022
:101590003DF8C0B301884668671A06EBC70999F899
:1015A0000240B8F91400B8F9161016F837202B7D50
:1015B000D9F80450CDE9004501F01CFDD8F8100021
:1015C000027D417D914213D9B8F81400B8F8163065
:1015D00016F8377098F81C601A4407440B44013E13
:1015E00091B2BAB29BB218BF0126009602F060FA1F
:1015F000D8F8100099F80110807DB8F8142010FB7D
:101600000120A8F8140003B0BDE8F08301E000BF9A
:10161000806838B102888A42FAD842888A4228BF54
:101620007047F5E770470000B0B540F26801C2F2BC
:1016300000010D690446A96908462146FFF7E6FF47
:1016400038B101884068611A10F83100A97D48431B
:10165000B0BD0020B0BD0000012008807047000030
:1016600080B58069FFF7D2FF002818BF012080BD38
:1016700080B50020002100F023F900200021802205
:10168000402300F001F880BD80B582B04FF0000C1F
:1016900080B289B292B29BB2CDF800C002F008FAD3
:1016A00002B080BD80B500F0EBF840F26801C2F2F4
:1016B0000001CA8A1044C88280BD0000002808BF0B
:1016C00070472DE9F04F83B0074600F0D9F840F29B
:1016D0006806C2F20006B6F814A0834600F0D8F8F7
:1016E000F18A0090081AF08211E000BF708B00F0C0
:1016F000030001380228504628BF0020B082387805
:101700000A2808BFF48217F8010B002841D0387866
:1017100000283ED0384647F6FF7100F02FF9054605
:101720003846294600F026F9718B01F003010129A2
:1017300006D0022912BF002100EBD071491000E051
:101740000146B28AB6F81690511A01EB0008A8F1CA
:10175000010009EB0B04ADF80800601EB182ADF882
:101760000410ADF80A003846294601AAADF80690E3
:1017700000F0F2F838462946A6F8169000F0E6F890
:10178000395C07440D29B1D00A29AFD0A6F81480DE
:10179000B9E7F08A00990844718BF08221F00300C8
:1017A000708303B0BDE8F04F7047000080B540F291
:1017B0006803C2F200039982DA82FFF77FFF80BDDF
:1017C000F0B581B00D4640F26801C2F20001B1F9F6
:1017D0001A10064641F00200144600F0ADF8074624
:1017E000304629462246FFF7E1FF384600F0A4F8CC
:1017F00001B0F0BD80B5FFF7ABFE80BD80B50346FC
:101800000846194601F040FC80BD000080B582B05A
:1018100040F2680CC2F2000C9CF81CC080B289B285
:1018200092B29BB2CDF800C002F06EF902B080BD5A
:1018300080B501F04FFC80BD80B503F047FA80BD54
:1018400080B501F063FC80BDF0B581B099420BDA40
:101850001C4615460E460746384631462A4601F0D4
:1018600013FC0136B442F7D101B0F0BD80B540F2AF
:101870006801C2F2000109694968884780BD00001B
:1018800040F26800C2F200000069407D704700002D
:1018900040F26800C2F20000418B01F00C010C29FB
:1018A00018BF082903D10069007D4008704704294A
:1018B0001CBF002070470069007D013870470000A0
:1018C00010B50C4603F064FA204603F067FA0020D6
:1018D00010BD000080B540F28800C2F200002E2149
:1018E000017040F268007F22C2F200000021C0F2C5
:1018F0003F02C0E900124AF28022C0F60002C0E9AD
:10190000042101214172017702F020FA002080BDFC
:1019100040F26801C2F200010A7F824218BF0877D4
:101920007047000040F26802C2F2000201461069EE
:10193000002918BF1161704740F26803C2F200032A
:10194000B3F91A10024608465A8370470846704792
:1019500080B502F0A5F980BD80B5126840F2680C30
:10196000130CC2F2000CACF81420ACF8163003F0E3
:101970008DF980BD80B503F0C5F980BD80B503F059
:10198000E9F980BDB0B5044600F0E8F8054640F23C
:101990005000C2F200000078611C18BF044400BF70
:1019A00000F0DCF8401BA042FAD3B0BD2DE9F04FA7
:1019B00083B000F13E4202F1FF724FEAB22241F6DB
:1019C00000470192C4F2020708224FF0010E0025E1
:1019D0004FF0000A4FF00008B84208BF07220092FB
:1019E0000AE000BF08F101080AF1040AB8F1100F7B
:1019F00005F1020500F0A2800C680EFA08FB14EA5B
:101A00000B09EFD04C6804F0030CACF1010EBEF1F1
:101A1000010F12D882680323CE6803FA05F7BA4390
:101A200006FA05F73A4382604268C4F3001722EAD7
:101A30000B0207FA08F73A434260BCF1030F1CD0CF
:101A4000C26803238E6803FA05F7BA4306FA05F75E
:101A50003A43BCF1020FC2600FD16FF0030202EAF9
:101A6000580202440AF01C060F23176A03FA06F410
:101A70000B69A743B3403B431362026803234F68DB
:101A8000AB409A4307F00303AB401A43FB004FF00F
:101A9000010E0260A6D5002243F644030292C4F26E
:101AA00002031A6843F6004442F480421A601A683E
:101AB000C4F2010402F480420292029A28F0030266
:101AC0004FF6084B2244CFF6FF7B52F80B300AF05A
:101AD0000C070F26BE4023EA060C019B009E072B35
:101AE00038BF1E4606FA07F747EA0C0342F80B30E8
:101AF00022684B6842EA0907DE0358BF22EA090759
:101B0000276062689E0342EA090758BF22EA090774
:101B10006760A268DE0242EA090758BF22EA0907A5
:101B2000A76043F60C47C4F201073A689B0242EAF9
:101B3000090358BF22EA09033B6053E703B0BDE83D
:101B4000F08F00000069084018BF012070470000B6
:101B5000002A08BF090481617047000048F2BC10E8
:101B6000C2F200000068704740F2500048F2BC1119
:101B7000C2F20000C2F2000100780A681044086056
:101B80007047000080B543F60040C4F202000168CF
:101B900041F400710160016841F4806101600168F5
:101BA00041F480710160032000F088F8002000F00B
:101BB00005F800F04BF8002080BD000010B586B09D
:101BC000014637200022002400F068F8372000F09A
:101BD00061F843F640000194C4F20200016841F04C
:101BE000200101600068694600F020000190019822
:101BF00001A800F017F900F03BF94DF683614000B1
:101C0000C4F21B31A0FB01014FF0FF3000EB91410A
:101C100040F26C6041F20042C2F20000C4F20002E5
:101C200040F2E733C0E90021C0E90243046100F05B
:101C30007BFB10B1012006B010BD40F26C60C2F217
:101C4000000000F00BFC06B010BD000080B582B0B3
:101C5000002043F640010190C4F202014A6842F4B8
:101C600080424A604A6802F480420192019A0090E0
:101C70000868002240F08050086008680F2100F0DA
:101C80008050009000986FF0010000F007F802B05B
:101C900080BD000080B503F087F880BD70B51446A4
:101CA0000D46064603F090F82946224601F0EEFD67
:101CB0000146304603F090F870BD000080B503F097
:101CC000A5F880BD2DE9F041002800F08B8043F697
:101CD0000808C4F202080446D8F8F8030D4600F0DC
:101CE0000700884207D288F8F853D8F8F80300F0C4
:101CF0000700A84276D12068810717D5410705D58E
:101D0000D8F8001041F4E051C8F80010010705D5DB
:101D1000D8F8001041F46041C8F80010D8F800105D
:101D2000A26821F0F0011143C8F80010C0073FD1AC
:101D3000D8F8F80300F00700A84207D988F8F8534C
:101D4000D8F8F80300F00700A8424BD120684107FB
:101D500007D5D8F80010E26821F4E0511143C8F823
:101D60000010000708D5D8F80000216920F4604071
:101D700040EAC100C8F8000000F09EF8D8F8001052
:101D80004AF20622C1F30311C0F60002515C40F290
:101D9000080220FA01F140F25400C2F2000000688B
:101DA000C2F200021160FFF709FF0020BDE8F081D8
:101DB0006068811E022907D258F8081C89015CBF9F
:101DC0000120BDE8F08110E0012807D158F8081C77
:101DD00089035CBF0120BDE8F08106E058F8081CCB
:101DE000890702D40120BDE8F081D8F8001021F065
:101DF00003010843C8F80000FFF7B0FE064641F2B1
:101E0000883700BFD8F80000616800F00C00B0EB24
:101E1000810F8DD0FFF7A2FE801BB842F2D90320BC
:101E2000BDE8F0810F22026043F60802C4F202020C
:101E3000136803F003034360136803F0F003836047
:101E4000136803F4E053C360D2F800C04FF4E053CA
:101E500003EADC030361D2F8F80300F0070008602E
:101E60007047000040F20800C2F2000000687047AE
:101E700080B5FFF7F7FF43F60801C4F202010968D5
:101E80004AF21622C1F38221C0F60002515CC8401A
:101E900080BD000080B5FFF7E5FF43F60801C4F2FE
:101EA000020109684AF21622C1F34231C0F600026B
:101EB000515CC84080BD000010B543F60404C4F274
:101EC0000204606800F00C0142F200400829C0F2F0
:101ED000F40007D0042918BF10BD41F20020C0F261
:101EE0007A0010BD216801F03F0221682368490291
:101EF000C3F3881105D4A1FB00010023FEF760F9AC
:101F000006E041F20020C0F27A004843B0FBF2F054
:101F100021680222C1F3014102EB4101B0FBF1F063
:101F200010BD00002DE9F04182B0002800F09F8034
:101F30000446007843F60006C007C4F2020641D00A
:101F4000B06800F00C00042805D13068800339D552
:101F50006068B8BB8BE0B06800F00C00082802D1C4
:101F600070684002F1D46568B5F5803F06D03068EE
:101F7000B5F5A02F06D140F480203060306840F4E1
:101F8000803005E020F480303060306820F480201C
:101F90003060FFF7E3FD002D054610D03068800368
:101FA00010D4FFF7DBFD401B6428F7D922E100BF06
:101FB000FFF7D4FD401B64284FF0030054D830686D
:101FC0008003F5D4207880071AD5B06810F00C0F84
:101FD00009D0B06800F00C00082840F08C807068D0
:101FE000400200F188803068800702D5E06801284F
:101FF0003DD13068216920F0F80040EAC10030602E
:102000002078000737D4207840074AD4A56955B313
:10201000B06800F00C00082840F0A080012D26D008
:102020007068E16900F480028A4220D1216A00F0E0
:102030003F028A421BD147F6C071626A0140B1EB90
:10204000821F14D1A16A4FF6FF73C903994300F4AC
:102050004032A1F580318A4209D1E16A00F0706016
:10206000B0EB016F03D1002002B0BDE8F081012088
:1020700002B0BDE8F0816069002840F20000C4F2BF
:1020800047205AD00121C0F8801EFFF767FD0546A2
:10209000706F8007B7D4FFF761FD401B0228F7D9A6
:1020A000A8E0306C4FF00008C0000CD4CDF80480DC
:1020B000306C4FF0010840F080503064306C00F01C
:1020C00080500190019847F20007C4F20007386879
:1020D000C00525D4386840F480703860FFF73EFDB5
:1020E000054600BF3868C0051AD4FFF737FD401B0E
:1020F0000228F7D97EE0E068002851D00020C4F221
:10210000472001210160FFF729FD0546306880075F
:102110003FF56FAFFFF722FD401B0228F6D969E0BB
:10212000A568012D05D0306F052D4DD140F004007C
:102130003067306F40F001004CE00021C0F8801E95
:10214000FFF70CFD054600BF706F80077FF55BAFA2
:10215000FFF704FD401B0228F6D94BE00027C4F22C
:10216000472700203866FFF7F9FC022D05460BD102
:102170003068800156D5FFF7F1FC401B02284FF074
:102180000300F5D970E700BF306880017FF56BAFC1
:10219000FFF7E4FC401B02284FF00300F4D963E78B
:1021A0000020C4F2472000210160FFF7D7FC05465C
:1021B000306880077FF524AFFFF7D0FC401B022872
:1021C0004FF00300F4D94FE720F001003067306F83
:1021D00020F004003067FFF7C1FC002D054641F2F6
:1021E000883713D0306F800713D4FFF7B7FC401B3C
:1021F000B842F7D9032002B0BDE8F081FFF7AEFC8A
:10220000401BB8424FF003003FF62EAF306F8007FF
:10221000F4D4B8F1000F3FF4F9AE306C20F08050E8
:102220003064F3E604F11C052FCD084340EA821028
:10223000D9034FF6FF729143A1F5803140EA056062
:102240000843706001203866FFF788FC044600BF31
:10225000306880013FF507AFFFF780FC001B0228C4
:102260004FF00300F4D9FFE670470000704700000C
:1022700010B590F83C20012A4FF0020252D0012301
:1022800080F83C3080F83D200268D2F804E0D2F8B3
:1022900008C00C682EF07003234341F2FF74C4F2AF
:1022A0000004A24253600DDC40F2FF73C4F200034D
:1022B0009A4215DCB2F1804F29D040F20043C4F2BB
:1022C000000322E040F2FF33C4F201039A4212DC21
:1022D00041F60003C4F200039A4218D0002312E032
:1022E00040F60003C4F200039A4210D040F60043C7
:1022F000C4F2000309E044F20003C4F201039A426D
:1023000005D040F20043C4F201039A4204D1496867
:102310002CF08003194391600121002280F83D10C8
:1023200080F83C20104610BD002804BF01207047F3
:1023300010B5044690F83D0028B9002084F83C0010
:10234000204600F01FF8022084F83D002068211D7F
:1023500002F0B8F9012084F8460084F83E0084F8C1
:102360003F0084F8400084F8410084F8420084F87B
:10237000430084F8440084F8450084F83D000020C0
:1023800010BD000081B0006840F20041C4F20001BD
:10239000884201D001B070470020009043F6400011
:1023A000C4F20200016841F002010160006800F01F
:1023B00002000090009801B07047000090F83D10B6
:1023C00001291CBF01207047022180F83D100068E0
:1023D00041F2FF71C4F2000188420DDC40F2FF714E
:1023E000C4F20001884215DCB0F1804F29D040F2E0
:1023F0000041C4F2000122E040F2FF31C4F20101C9
:10240000884212DC41F60001C4F20001884218D073
:10241000002112E040F60001C4F20001884210D011
:1024200040F60041C4F2000109E044F20001C4F2A8
:102430000101884205D040F20041C4F20101884206
:1024400006D1816801F00701062904BF002070470A
:10245000016841F0010101600020704790F83D10D3
:1024600001291CBF01207047022180F83D1000683F
:1024700041F2FF72C168C4F20002904241F00101D2
:10248000C1600DDC40F2FF71C4F20001884215DC2E
:10249000B0F1804F29D040F20041C4F2000122E0A7
:1024A00040F2FF31C4F20101884212DC41F6000122
:1024B000C4F20001884218D0002112E040F6000169
:1024C000C4F20001884210D040F60041C4F200017D
:1024D00009E044F20001C4F20101884205D040F253
:1024E0000041C4F20101884206D1816801F0070170
:1024F000062904BF00207047016841F00101016016
:102500000020704710B5044690F83C0001284FF0B9
:10251000020008BF10BD012284F83C2084F83D0071
:1025200020684FF6777382689A4382600A683F2A70
:1025300014DD5F2A18DD602A28D0B2F5005F2DD0A7
:10254000702A40D1D1E9012CCB68614602F05EF9D6
:102550002068816841F07701816034E01F2A0FDC38
:1025600092B1102A10D02EE0402A23D0502A2AD12E
:102570004B68CA68194602F023FA2068502120E00F
:10258000202A01D0302A1ED111461AE04B68CA68B1
:10259000194602F027FA2068602112E0D1E9012CE7
:1025A000CB68614602F032F92068816841F48041CD
:1025B000816008E04B68CA68194602F001FA206899
:1025C000402102F02FF9012084F83D00002084F81A
:1025D0003C0010BD7047000010B50446006801695A
:1025E000890744BFC1685FEA817138D420680169F6
:1025F000490744BFC1685FEA41713CD42068016962
:10260000090744BFC1685FEA017141D420680169CC
:10261000C90644BFC1685FEAC16145D42068016949
:10262000C9071CBFC1685FEAC1714AD1206801694E
:10263000090644BFC1685FEA016149D420680169A5
:10264000490644BFC1685FEA416148D42068016916
:10265000890644BFC1685FEA816147D410BD6FF04D
:1026600002010161012121778069800745D0204660
:10267000FFF7B0FF47E06FF004010161022121770D
:10268000806910F4407F41D02046FFF7A3FF43E06C
:102690006FF00801016104212177C06980073ED0F5
:1026A0002046FFF797FF40E06FF01001016108211D
:1026B0002177C06910F4407F3AD02046FFF78AFFA7
:1026C0003CE06FF001010161204600F0A7F9ADE7A1
:1026D0006FF0800101612046FFF7C6FDAEE76FF0A5
:1026E00040010161204600F0A5F9AFE76FF020013D
:1026F00001612046FFF7BAFD10BD204600F050F8FA
:10270000204600F0CBF8002020776FE7204600F04D
:1027100047F8204600F0C2F8002020776EE72046F8
:1027200000F03EF8204600F0B9F8002020776DE771
:10273000204600F035F8204600F0B0F80020207761
:102740006CE7000080B586B000220592CDE9032237
:1027500040F200410068C4F20001884202920192F6
:1027600001D006B080BD43F630000092C4F20200F2
:10277000036843F002030360006800F00200009069
:102780000098102001900220CDE90202CDE904203A
:1027900001F5003001A9FFF709F906B080BD00007E
:1027A00070470000B0B5044690F83C00012804BF13
:1027B0000220B0BD4FEAB2000D460121032884F883
:1027C0003C1036D8DFE800F0020A122220682946C1
:1027D00002F030F8206850F8181F0EE020682946F3
:1027E00002F05AF8206850F8181F16E020682946B1
:1027F00002F088F8206850F81C1F41F008010160C1
:10280000016821F00401016029690FE02068294670
:1028100002F0AEF8206850F81C1F41F4006101601E
:10282000016821F48061016029690902026811438D
:102830000160002084F83C00B0BD0000002804BF07
:102840000120704710B5044690F83D0028B90020DB
:1028500084F83C00204600F01FF8022084F83D0078
:102860002068211D01F02EFF012084F8460084F825
:102870003E0084F83F0084F8400084F8410084F86A
:10288000420084F8430084F8440084F8450084F84A
:102890003D00002010BD00007047000070470000A0
:1028A00010B5044641B1082909D0042914BF04F128
:1028B000410004F13F0004E004F13E0001E004F1B6
:1028C0004000007801281CBF012010BD022041B14A
:1028D000082909D0042914BF84F8410084F83F0076
:1028E00004E084F83E0001E084F840002068012202
:1028F00001F07AFF206840F2004140F48062C4F2A7
:1029000001018A4203D1426C42F40042426441F226
:10291000FF72C4F2000290420DDC40F2FF71C4F27B
:102920000001884217DCB0F1804F27D040F200410F
:10293000C4F2000120E040F2FF32C4F201029042F2
:1029400014DC41F60001C4F20001884216D00021D7
:10295000C4F2010110E040F60001C4F20001884217
:102960000CD040F60041C4F2000105E044F2000240
:10297000C4F20102904201D0884206D1816801F080
:102980000701062904BF002010BD016841F00101C4
:102990000160002010BD0000B0B5044600680022B0
:1029A0000D4601F021FF206840F2004240F48061B2
:1029B000C4F2010291420DD1016A41F21112114299
:1029C00008D1016A40F24442114203D1416C21F422
:1029D00000414164016A41F21112114208D1016AB9
:1029E00040F24442114203D1016821F0010101602B
:1029F0000120082D09D0042D0BD0002D14BF84F820
:102A0000410084F83E000020B0BD84F84000002062
:102A1000B0BD84F83F000020B0BD000080B5006864
:102A200041F20041C4F20001884208BFFFF79CF860
:102A300080BD000070470000002804BF01207047DF
:102A400010B5044690F83D0028B9002084F83C00F9
:102A5000204600F021F8242084F83D002068C16859
:102A600021F40051C160204601F0CEFF20680169C9
:102A700021F490410161416921F02A014161C1685D
:102A800041F40051C16000202021206484F83D10F1
:102A900084F83E1010BD000080B586B0002205927B
:102AA000CDE9032241F200010068C4F2010188422D
:102AB0000292019201D006B080BD43F63000009230
:102AC000C4F20200436943F010034361436903F019
:102AD00010030093009B0092036843F0010303601E
:102AE000006800F00100009000984FF4C060019071
:102AF0000220CDE90202032004900720059001F591
:102B0000704001A9FEF752FF06B080BD2DE9F043E9
:102B100081B0044690F83D0020280BD10E460029D4
:102B20004FF0010055D01746002A52D094F83C00CF
:102B3000012803D1022001B0BDE8F083012084F810
:102B40003C004FF0000921201D46C4F8409084F855
:102B50003D00FFF703F8A784E784A1680746B1F5B5
:102B6000805F07D1206900281CBF30464E46B04622
:102B7000064601E04FF0000884F83C9007E000BFF3
:102B800016F8010B21684860E08C0138E084E08C85
:102B900080B1204680213A462B4601F0A3FF80B940
:102BA000002EEDD138F8020B21686FF35F204860EA
:102BB0000026E9E7204640213A462B4601F092FFE5
:102BC00018B1032001B0BDE8F083202084F83D0057
:102BD000002001B0BDE8F083FEE7000010B540F230
:102BE0000044C4F2020420464FF400410022FEF7E4
:102BF000AFFF00F03BF920464FF400510022FEF7F2
:102C0000A7FF00F033F920464FF400410122FEF700
:102C10009FFF00F02BF920464FF400410022FEF701
:102C200097FF00F023F910BD10B540F20044C4F244
:102C3000020420464FF400410022FEF789FF00F015
:102C400015F920464FF400510122FEF781FF00F0F4
:102C50000DF920464FF400410122FEF779FF00F004
:102C600005F920464FF400410022FEF771FF00F005
:102C7000FDF810BD70B540F20044C4F202042046D5
:102C80004FF400510122FEF763FF0826002500BF24
:102C900020464FF400410022013EFEF759FF00F0AC
:102CA000E5F820464FF400410122FEF751FF00F005
:102CB000DDF820464FF40051FEF744FF002818BF0E
:102CC0000120310640EA4505E2D120464FF400419B
:102CD0000022FEF73DFFE8B270BD0000F0B581B004
:102CE00040F20045C4F20205044628464FF4004174
:102CF0000022FEF72DFF072600F0B8F8E0B2C20967
:102D000028464FF40051FEF723FF640000F0AEF8B0
:102D100028464FF400410122FEF71AFF00F0A6F802
:102D200028464FF400410022771EFEF711FF3006BF
:102D30003E46E1D101B0F0BDB0B540F20044C4F26E
:102D4000020420464FF400510122FEF701FF204605
:102D50004FF400410122FEF7FBFE00F087F8204609
:102D60004FF40051FEF7EEFE80B120464FF40051C3
:102D700000220025FEF7ECFE00F078F820464FF424
:102D80000051FEF7DFFE18B12846B0BD0020B0BDEF
:102D900020464FF400510022FEF7DAFE00F066F8FC
:102DA00001252846B0BD000010B540F20044C4F231
:102DB000020420464FF400410022FEF7C9FE00F055
:102DC00055F820464FF400510022FEF7C1FE00F0F6
:102DD0004DF820464FF400410122FEF7B9FE00F005
:102DE00045F820464FF400510122FEF7B1FE00F0F5
:102DF0003DF810BDB0B540F20044C4F202042046D4
:102E00004FF400410022FEF7A3FE00F02FF8204609
:102E10004FF400510122FEF79BFE00F027F82046F8
:102E20004FF400410122FEF793FE00F01FF8204608
:102E30004FF40051FEF786FEB0FA80F045092046B7
:102E40004FF400410022FEF783FE2846B0BD00008B
:102E500081B00A200090009830B100BF009801387E
:102E6000009000980028F9D101B0704781B00A2085
:102E70000090009830B100BF009801380090009891
:102E80000028F9D101B07047B0B541F20004C4F296
:102E9000020420460221FEF755FEB0FA80F04509F3
:102EA00020460421FEF74EFEB0FA80F0400945EAC4
:102EB000400520460821FEF745FEB0FA80F04009A3
:102EC00045EA800520461021FEF73CFEB0FA80F06E
:102ED000400945EAC00520462021FEF733FE0138AF
:102EE000B0FA80F0400945EA001520464021FEF77F
:102EF00029FE0138B0FA80F040F2910C4009C2F28C
:102F0000000C45EA40109CF80020010615D0C4B220
:102F1000944212D140F2900EC2F2000E9EF80010C0
:102F200003464D1CE9B2022918BF002394428EF8D3
:102F300000500ED0022909D10BE0C1B240F2900539
:102F4000C2F20005002391422B7002D000238CF8BE
:102F50000000D8B2B0BD0000B0B541F20004C4F228
:102F6000020420460221FEF7EDFDB0FA80F045098B
:102F700020460421FEF7E6FD002820464FF0080118
:102F800008BF0135FEF7DEFD002820464FF0100196
:102F900008BF0135FEF7D6FD40F2930CC2F2000CDB
:102FA000002808BF0135E9B29CF80030042914D389
:102FB000994212D140F2920EC2F2000E9EF8002009
:102FC000501CC4B2022C2A4618BF002299428EF827
:102FD00000000DD0022C08D10AE040F29200C2F2AB
:102FE000000000229942027002D000228CF80050AA
:102FF000D0B2B0BD2DE9F04383B040F26806C2F212
:1030000000068E46B6F90210DDF82C90DDF8288017
:10301000A1EB0E079C46012F06DBACEB0703012B4F
:103020002FDB07FB089901E063467146B6F906708D
:103030000CEB0E05FF432F44012F02DBDB1B012BA2
:103040001FDBB6F904401518B6F90070E6432E44AC
:10305000002EC8BF921B87420BDD3F1A27F00706E0
:10306000D21B09EBE709304407F00706012A03DA0F
:1030700007E00026012A04DBCDE90089029600F072
:103080006BF803B0BDE8F08380B582B040F2680C05
:10309000C2F2000CBCF902308B4219DCBCF90630DC
:1030A0008B4215DBBCF90030BCF904E08342C8BF99
:1030B00018469645B8BF7246824209DB9CF81CC090
:1030C00089B280B292B20B46CDF800C000F01CFD70
:1030D00002B080BD80B540F26802C2F20002B2F9CF
:1030E00002308B4211DCB2F906308B420DDBB2F9B3
:1030F0000030834209DCB2F904308342B8BF80BD9E
:10310000127F80B289B200F095FD80BD80B582B09B
:1031100040F2680CC2F2000CBCF90030834219DCAA
:10312000BCF90430834215DBBCF90230BCF906E07F
:103130008B42C8BF19469645B8BF72468A4209DB22
:103140009CF81CC080B289B293B20246CDF800C090
:1031500000F0DAFC02B080BD2DE9F04782B0012B0F
:1031600015DBDDF83080DDE90AA51C4691460E46E8
:10317000074600BF384631462A464346CDF8009000
:10318000FDF71AFD5544013C06F10106F2D102B0EB
:10319000BDE8F087000000002DE9F04381B02DED7F
:1031A0000A8B8CB00DF11E000DF11D0700900DF182
:1031B000260008A903AA0BAB019702F025F8BDF879
:1031C0001E00C00540F1D1809DED030A9FED844AA9
:1031D0009DED041A9DED052A9DED063AB8EEC00A54
:1031E00040F2180820EE040AC2F2000888ED000A36
:1031F000B8EEC11A40F6744921EE041AC2F2000971
:1032000089ED001AB8EEC22A40F6784622EE042A6A
:10321000C2F2000686ED002AB8EEC33A23EE043A65
:1032200031EE011A30EE000A21EE031A20EE020AF6
:1032300040F67C4730EE410AC2F2000710EE100A59
:1032400087ED003AFDF7D7F941EC100B05F0C0FD12
:1032500051EC100B9FED600B54EC105B2A4623469B
:10326000FDF7E8F8FDF7DAF940F2CC41C2F20001CF
:10327000086096ED009A98ED001A97ED000A99ED16
:1032800000BA39EE09AA31EE011A2AEE000A21EE3F
:103290000B1A30EE010A10EE100AFDF7ACF9B8EE89
:1032A000000A2BEE000A2BEE000A29EE0A1A30EE75
:1032B000410AB7EE001A30EE010A41EC180B10EE8D
:1032C000100AFDF798F941EC110BB0EE480AF0EE48
:1032D000680A06F099F851EC100B2A462346FDF7D0
:1032E000A9F8FDF79BF940F2D041C2F20001086055
:1032F00099ED009A96ED00AA98ED00BA97ED00CAF4
:1033000029EE0A0A2BEE0C1A30EE010A30EE000A02
:1033100010EE100AFDF76FF92BEE0B0A29EE091AD1
:1033200031EE000A2AEE0A1A30EE410A2CEE0C1A8F
:1033300030EE410A41EC180B10EE100AFDF75BF974
:1033400041EC110BB0EE480AF0EE680A06F05CF8AA
:1033500051EC100B2A462346FDF76CF8FDF75EF999
:1033600040F2D441C2F200010860BDF81E0010F026
:10337000700F14D0BDF8261040F21C62C2F2000299
:103380001180BDF8281040F21E62C2F200021180C6
:10339000BDF82A1040F22062C2F20002118000073C
:1033A00014D5BDF8200040F2AC41C2F20001088003
:1033B000BDF8220040F2AE41C2F200010880BDF823
:1033C000240040F2B041C2F2000108800CB0BDEC14
:1033D0000A8B01B0BDE8F0836666666666A64C405F
:1033E0000000803010B502F019FF00281CBF00203B
:1033F00010BD43A006F040FE782003F0A1FC10B100
:10340000002448A077E041F6E070C0F6010006F025
:1034100033FE782002F02EFE10B100244BA06AE0AB
:1034200041F6BD70C0F6010006F026FE322003F022
:1034300041FC28B141F6FF700024C0F601005AE0BB
:1034400041F63170C0F6010006F016FE01F0CEFE26
:1034500028B142F220000024C0F601004BE041F602
:10346000DE60C0F6010006F007FE02F0BDFD02F0CE
:103470008BF828B142F2DB000024C0F601003AE0EC
:1034800041F69970C0F6010006F0F6FD40F27310A7
:1034900001F07AFD28B142F259000024C0F6010083
:1034A00029E041F60E70C0F6010006F0E5FD32207D
:1034B00001F0DAFF28B142F285000024C0F60100D5
:1034C00019E041F65570C0F6010006F0D5FD04F094
:1034D000D3FA012003F0FCFA0146B0FA80F0440967
:1034E00042F2B00041F67772C0F60100C0F6010268
:1034F000002908BF104606F0BFFD204610BD00BFE2
:103500006D707520696E697469616C697A6174693E
:103510006F6E20636F6D706C6574652E2E2E2E2E6F
:103520002E0000006D70755F7365745F73656E7358
:103530006F7220636F6D65206163726F73732065B6
:1035400072726F72202E2E2E2E2E2E006D70755FD1
:10355000636F6E6669677572655F6669666F206323
:103560006F6D65206163726F7373206572726F7225
:10357000202E2E2E2E2E2E0080B544F245404CF2E9
:10358000D062C0F60000C0F60002002103F0B0FCDB
:1035900040F29801C2F20001086044F281204CF22E
:1035A000AC62C0F60000C0F60002002103F0A0FCEF
:1035B00040F29401C2F20001086044F2D9504CF28A
:1035C000F462C0F60000C0F60002002103F090FC97
:1035D00040F2A041C2F20001086044F23D204AF2EC
:1035E0005022C0F60000C0F60002002103F080FC6B
:1035F00040F26401C2F20001086043F601704AF231
:103600002C22C0F60000C0F60002002103F070FC7E
:1036100040F26001C2F20001086080BD2DE9F04F68
:1036200087B0002543F630000695CDE90455CDE975
:1036300002550195C4F20200016841F2000741F011
:10364000100101600168C4F2020701F0100101914C
:10365000019901950168012241F080010160016832
:103660004FF0010A01F08001019101990195016873
:1036700041F002010160016801F00201019101992C
:103680000195016841F004010160016801F0040145
:10369000019101990195016841F001010160006803
:1036A0004FF47F4100F00100019001983846FEF789
:1036B0004FFAA7F5406630464AF2C0410022FEF7B5
:1036C00047FAA7F5006948464FF4706100224FF4AD
:1036D000706BFEF73DFAA7F5805840464FF419414C
:1036E0000022FEF735FA384601210022FEF730FAB3
:1036F0001E2002A902AC81E8210438462146FEF7CB
:1037000055F96020CDE90205022004903846214693
:10371000FEF74CF94FF60170CDE9020A3846214612
:10372000CDE90455FEF742F94FF48060CDE9020A75
:1037300030462146CDE90455FEF738F94AF2C0007B
:1037400002901120CDE90305304621460595FEF78C
:103750002DF948462146CDE902BACDE90455FEF7D8
:1037600025F94FF41940CDE9020A40462146CDE93A
:103770000455FEF71BF907B0BDE8F08F10B58EB009
:1037800040F2246040F200420021C2F20000C4F284
:103790000002532340F2E7340D91CDE90B11CDE93E
:1037A0000911CDE90711CDE90511CDE90311CDE9E5
:1037B0000111C0E90023C0E9021401618161FEF733
:1037C000B3FD002818BFFDF7ABFE4FF480500A9000
:1037D00040F22460C2F200000AA9FEF793FE00281E
:1037E00018BFFDF79DFE40F22460C2F20000FFF713
:1037F00025F8002818BFFDF793FE40F2246000244E
:10380000C2F2000008A9CDE90844FEF731FD002806
:1038100018BFFDF785FE602001904FF4FA70CDE9E6
:10382000020440F22460C2F2000001A900220594C3
:10383000FEF7B8FF002818BFFDF772FE40F22460C3
:10384000C2F20000FEF77EFF0EB010BD80B540F260
:10385000B46041F20001C2F20000C4F20101002391
:103860004FF00C0C4FF4E13280E80E00C0E9033356
:10387000C0E905C3C361FFF7DFF8002818BFFDF7F3
:103880004FFE80BDFEE70000FEE7000000F00700ED
:1038900080F00703042B28BF04234FF0FF3C0338BC
:1038A0000CFA03F338BF0020994381400CFA00F072
:1038B00022EA00000843704710B540F20044C4F209
:1038C0000204204680210122FEF742F9FFF7C0FAE8
:1038D000204640210122FEF73BF9FFF7B9FA2046C6
:1038E00040210022FEF734F910BD000070B540F20F
:1038F0000045C4F202050446284640210022002665
:10390000FEF726F9E0B2C20928468021FEF720F929
:103910006400FFF79DFA284640210122FEF718F9BE
:10392000FFF796FA284640210022FEF711F9FFF72B
:103930008FFA072E06F10106E4D370BD10B540F2F0
:103940000044C4F20204204680210122FEF700F95F
:10395000204640210122FEF7FBF8FFF779FA2046C6
:1039600080210022FEF7F4F8FFF772FA204640218A
:103970000022FEF7EDF810BD10B540F20044C4F28D
:103980000204204640210022FEF7E2F82046802172
:103990000022FEF7DDF8FFF75BFA20464021012206
:1039A000FEF7D6F8204680210122FEF7D1F8FFF776
:1039B0004FFA10BD000000000000000000000000F1
:1039C000EFF30980BFF36F8F154B1A681EF0100FCD
:1039D00008BF20ED108A20E9F04F10602DE90900A2
:1039E0004FF0500080F31188BFF34F8FBFF36F8FFC
:1039F00004F028FB4FF0000080F31188BDE80900B7
:103A000019680868B0E8F04F1EF0100F08BFB0EC5E
:103A1000108A80F30988BFF36F8F704700BF00BF23
:103A2000FC07002070B541F20004C4F202042046F5
:103A300001210122FEF78CF8322001F06DFA2046B8
:103A4000012100220025FEF783F84FF4FA7001F0FF
:103A500063FA204601210122FEF77AF8282001F0BE
:103A60005BFA20460121FEF76DF8A8B1002000BFE7
:103A70000646012001F050FA20460121FEF762F8C7
:103A8000B6F5F97F03D8002806F10100F0D1002532
:103A9000B6F5F97F88BF01254FF4FA7001F03CFAC2
:103AA000204601210122FEF753F8284670BD000090
:103AB0002DE9F04381B07F2823D889463F2920D8BB
:103AC00004461044DDF820807F2888BFC4F18002BE
:103AD00003EB090011193F2888BFC9F140030020FA
:103AE0008EB29FB2002500BF484481B220463246C4
:103AF0000B46CDF8008000F007F80135E8B28742A8
:103B0000F2D201B0BDE8F0832DE9F04F85B0054653
:103B10007F280C464FF07F0128BF0D467F2A38BF13
:103B200011463F2C4FF03F0A28BF54463F2B38BF69
:103B30009A46681A38BF481BB4EB0A0338BFAAEB91
:103B400004034FF0FF328D424FF0FF360E9F38BF17
:103B500001260396544538BF0122049202043DD049
:103B600006B20FFA83FB5E45CBF100000296D8BF88
:103B700006B2BBF1000F46D00191284621463A46D5
:103B800000F058F80E9A544502D1019885424DD064
:103B900006EBD6704FEA60090298C0F1000800BF3A
:103BA0000FFA89F003994045C8BF0D440499584560
:103BB000B8BF0C440299AFB2A6B2B8BF8944404521
:103BC00038463146C8BFA9EB0B0900F033F80E9A0E
:103BD0005645E5D101988742E2D127E0A2455646F5
:103BE00038BF2646A94238BF0D46A24538BF5446C5
:103BF000A1B228463A4600F01DF801340E9F20B2CB
:103C0000B042F5DD12E0A2450E4638BF5446A94247
:103C10003CBF2E460D4600BFA8B221463A4600F0F2
:103C200009F801350E9F28B2B042F5DD05B0BDE8B8
:103C3000F08F00007F2898BF3F2900D9704740F2DD
:103C40009C03C2F200031B78B2FA82FC002B6FF0D7
:103C5000700318BF4FEA5C1201F0070C03EA011170
:103C6000084440F2A001C2F200010123012A0A5CCB
:103C700003FA0CF302BF1A430A5470479A430A54DA
:103C80007047000080B50246002840F2A000C2F252
:103C900000004FF4806118BFFF22FCF705FB80BDD8
:103CA000B0B540F2A0040025C2F20004A5F1500016
:103CB000C0B2002100F014F80120002100F010F83B
:103CC0001020002100F00CF820468021402200F056
:103CD0001FF80135082D04F18004E7D1B0BD0000C4
:103CE000B0B50C460546FFF729FE7820FFF7FEFD2C
:103CF000FFF7E2FD2046FFF7F9FDFFF7DDFD28465F
:103D0000FFF7F4FDFFF7D8FDFFF736FEB0BD00006A
:103D100070B516460C460546FFF710FE7820FFF7F3
:103D2000E5FDFFF7C9FD3046FFF7E0FDFFF7C4FDF5
:103D300044B1013D15F8010FFFF7D8FDFFF7BCFDB9
:103D4000013CF7D1FFF718FE70BD000080B564207C
:103D5000FDF718FEAE200021FFF7C2FF2020002152
:103D6000FFF7BEFF10200021FFF7BAFFB0200021AF
:103D7000FFF7B6FFC8200021FFF7B2FF00200021A7
:103D8000FFF7AEFF10200021FFF7AAFF402000211F
:103D9000FFF7A6FF81200021FFF7A2FFFF200021EF
:103DA000FFF79EFFA0200021FFF79AFFC02000210F
:103DB000FFF796FFA6200021FFF792FFA820002121
:103DC000FFF78EFF3F200021FFF78AFFA42000218C
:103DD000FFF786FFD3200021FFF782FF002000219C
:103DE000FFF77EFFD5200021FFF77AFFF0200021AA
:103DF000FFF776FFD9200021FFF772FF2220002174
:103E0000FFF76EFFDA200021FFF76AFF1220002182
:103E1000FFF766FFDB200021FFF762FF2020002173
:103E2000FFF75EFF8D200021FFF75AFF14200021CD
:103E3000FFF756FFAF200021FFF752FF0020FFF7EA
:103E400021FFFFF72DFF80BD0000000000000000F3
:103E5000074B19680868B0E8F04F80F30988BFF392
:103E60006F8F4FF0000080F31188704700BF00BFD4
:103E7000FC07002080B500F0C1FF80BD70B541F2A5
:103E800000040126C4F20204054626EA0002204688
:103E90004FF48071FDF75CFE26EA550220464FF490
:103EA0000071FDF755FE26EA950220464FF4806129
:103EB000FDF74EFE26EAD50220464FF40061FDF7DD
:103EC00047FE26EA151220464FF48051FDF740FECA
:103ED00026EA551220464FF40051FDF739FE26EA36
:103EE000951220464FF48041FDF732FEE843C0B200
:103EF000C20920464FF40041FDF72AFE70BD0000C4
:103F000088B04FF47A7002F0ABFF01F023FDFFF7A9
:103F100069FA5FFA80F9B9F1000F18BF4FF0010993
:103F200013D100244FF4FA7002F09AFFFFF75AFA07
:103F30005FFA80F9B9F1000F18BF4FF00109012CA9
:103F400003D8000604F10104ECD040F21C059FEDFB
:103F5000B09A9FEDABAA9FEDAFBA9FEDA8CA40F60D
:103F6000804A4FF00008C2F20005B3EE048AB3EEB7
:103F70000EDAB2EE04EAC2F2000A0024002600279C
:103F80004FF0000BCDF8109012E040F21C050498A1
:103F9000DDF81C8040F6804A0027C2F20005C2F21C
:103FA000000ADDE90546CB468146012002F058FFB4
:103FB00002F066FF2968214488424DD302F060FF79
:103FC000044601F0D7FCB4EE4C0AF1EE10FA43DAE5
:103FD0008AED000A9AED000A5FFA88F13DEE400A88
:103FE00020EE080A80EE0E0A08F101085FFA88F256
:103FF0004D2A40F2C852C2F2000230EE0A0ABDEE6B
:10400000C00A10EE100A505409D340F2C850C2F250
:104010000000411C4C224FF04C08FCF733F9DAF851
:104020000000FCF7E8FA024676A00B4604F094FE86
:1040300040F24C00C2F200009AED000A90ED001A26
:10404000B4EE410AF1EE10FA06DB40F6844101209D
:10405000C2F20001087000BFB9F1000FA5D002F054
:104060000FFF06F13201884204D302F009FF064631
:10407000FFF792F802F004FF29683144884294D394
:1040800005A880E8500140F2CC40C2F2000090ED5B
:10409000000A40F2D84220EE080A80EE090A5FFAD0
:1040A0008BF1C2F200020BF1010B30EE0A0ABDEEF9
:1040B000C00A10EE100A505440F2D040C2F2000084
:1040C00090ED000A40F2285220EE080A80EE0B0A1A
:1040D000C2F200023AEE400ABDEEC00A10EE100A2B
:1040E000505440F2D440C2F2000090ED000A5FFA52
:1040F0008BF220EE080A80EE0B0A4D2A40F278522D
:10410000C2F200023AEE400ABDEEC00A10EE100AFA
:10411000505419D340F2D840C2F20000411C4C2246
:104120004FF04C0BFCF7AEF840F22850C2F2000002
:10413000411C4C22FCF7A6F840F27850C2F2000075
:10414000411C4C22FCF79EF840F2AC40C2F2000049
:10415000B0F9001040F2AE40C2F20000B0F9002009
:1041600040F2B04040F21C6440F21E68D946C2F2F0
:104170000000C2F20004C2F2000840F2206BB0F965
:104180000030B4F90000B8F90060C2F2000BBBF9CE
:104190000050CDE9000620A0029504F0DDFDB4F941
:1041A0000000B4F90010B8F90020B8F900305A4303
:1041B000BBF90030BBF9006011FB002043F2015154
:1041C00016FB0300C0F20C018842FFF6DEAE40F69B
:1041D000804A072F07F10107C2F2000A05DB40F20F
:1041E0000470C2F200000121017040F21C05049825
:1041F000DDF81C80C2F20005D3E600BF0000FA42E1
:104200000000004274656D703A252E31660D0A007B
:104210000000B4C2000034436178797A3A253664EC
:1042200020253664202536642C6778797A3A25363D
:104230006420253664202536640D0A00FDF74AFB0C
:1042400040F21864C2F2000403E000BF642002F0F0
:1042500007FE20680428F9D8DFE800F006090C0FF3
:104260000300FDF797F8F1E7FDF7D8F8EEE7FCF764
:1042700037FDEBE7FCF726FFE8E7FDF747F8E5E752
:1042800040F2FC6640F2186740F2007A40F684493A
:1042900048F68C0BC2F20006C2F2000700240FF2AF
:1042A0009C18C2F2000AC2F20009C2F2000B03E03D
:1042B000202D08BF3C6057E03078F8B1FEF74CFE87
:1042C000C8B1DAF8005002F0DBFD95B1DAF8001061
:1042D00001F6B83188420ED340F20470C2F20000F9
:1042E000047089F80040CBF800403470CAF80040F0
:1042F00001E0CAF80000012002F0B2FD3078002889
:10430000DAD1FEF7C1FD054618B14046294604F052
:1043100023FD38680428CBD8DFE800F0030D3154C2
:104320005D00102D20D10120386040F2F860C2F20B
:104330000000046018E0681E40F205721F28C2F2F7
:10434000000211D8DFE800F0521410581010104489
:10435000101010101010101010101010101010105D
:104360001010101010101050012002F079FDA3E77A
:10437000107800280CBF022001381070F4E7681E86
:1043800040F21C021F28C2F20002EDD8DFE800F064
:104390003111103A1010102910101010101010497F
:1043A0001010101010101010101010101010102CF1
:1043B000DAE740F2C550C2F2000000780028D3D0FE
:1043C000013828E0202D0FD0082D0FD0012DCBD1A2
:1043D00002203860C8E7202D06D0082D09D0012D15
:1043E000C2D103203860BFE73C60BDE704203860DD
:1043F000BAE701203860B7E71078012819D80130F2
:104400001070B1E740F2C550C2F2000000780228F7
:104410003FF6AAAF013040F2C551C2F20001087068
:10442000A2E71068322814BF32204FF47A7010606F
:104430009AE7022808BF147096E700BF253032586B
:104440000A00000082B040F2186A40F6844740F249
:10445000047848F68C0B0020C2F2000AC2F2000772
:10446000C2F2000801AEC2F2000B47F230590190CF
:104470000CE000BF4FF02030019030460221FCF7E5
:1044800087FBFCF79BFA012002F0EAFCDAF8000057
:1044900020B10020FFF7F2FC02E000BF00F056FB65
:1044A000387898F800100843E4D0DBF8005002F0A8
:1044B000E7FC002D00F08080DBF8001001EB09051F
:1044C000A8427CD240F2FC610120C2F20001B14658
:1044D000087002F0D5FC41F25971281ACDF2B711DB
:1044E000A0FB0112510B44F6D3524CF6CD46C1F25B
:1044F0006202CCF6CC46A0FB0223A1FB062C9A0953
:1045000048F21F53C5F2EB13A0FB0334A2FB063E97
:104510006309A0FB06043D46A3FB0607E008A0FBD9
:1045200006464FEADC0404EB8404A1EB44018DF859
:1045300004104FEADE0101EB8101A2EB41018DF88D
:104540000510F9082F4601EB8101A3EB4105F108A5
:104550003A7801EB8101A0EB4100012A8DF8065069
:104560008DF807000FD145F3030000280BD405F0A8
:104570000F00012101FA00F010F0920F03D0642027
:104580002946FCF7EFF998F800004E46012847F25B
:1045900030597FF472AF05F00F0005283FF66DAF7C
:1045A000012101FA00F010F0260F3FF466AF9620CB
:1045B0002946FCF7D7F960E7CBF800005DE740F249
:1045C000FC610020C2F2000188F800003870CBF8CE
:1045D0000000087051E70000012002F041FCFBE7F9
:1045E00080B54EF21000CEF20000006804F056F9DB
:1045F000012818BF03F000FE80BD000070B592B026
:1046000006AC20463021FBF756FE002543F640005D
:104610000595CDE90355CDE901550095C4F2020099
:104620000168022641F080510160006800F080506E
:104630000090009847F200000095C4F20000016865
:1046400041F4804101600068A82100F4804000909E
:104650000098012006904FF4803007904FF48000BE
:104660000D9004200C960E90CDE90F161190204667
:10467000FDF758FC88B90F20CDE901064FF4A05092
:1046800004904FF48050059001A805210395FDF793
:1046900019FB002804BF12B070BDFCF741FF0000F9
:1046A0004EF68850CEF20000016841F470010160BE
:1046B0007047000080B540F26C60C2F20000FDF768
:1046C0008BFF80BD10B540F6FF3E0368C4F2000EBC
:1046D00040F2004C7045C4F2010C0FDCB0F1804F89
:1046E00019D040F20042C4F20002904213D040F6CA
:1046F0000002C4F2000290420DD010E040F60042E9
:10470000C4F20002904206D0604504D00022C4F2F8
:104710000102904203D14A6823F07003134341F62B
:10472000FF72C4F2000290420DDC70451FDCB0F154
:10473000804F41D040F20042C4F2000290423BD090
:1047400040F6000221E043F6FF72C4F201029042FB
:1047500020DC42F20002C4F2000290422CD000227F
:10476000C4F20102904227D0604525D028E040F6EF
:104770000042C4F2000290421ED041F60002C4F290
:104780000002904218D041F60042C4F2000290426A
:1047900012D015E044F20002C4F2010290420BD0A4
:1047A00044F60002C4F20102904205D044F20042F5
:1047B000C4F20102904203D1CA6823F44073134348
:1047C00023F080024B69D1F800E08C681A43026044
:1047D000C46240F48062C0F828E0624504BF096901
:1047E00001630121416110BD80B501F01F014FF04F
:1047F000010CD0F820E00CFA01F32EEA0303036267
:10480000036A02FA01F11943016280BDD0F808C0C1
:1048100011432CF47F4C41EA032141EA0C018160F1
:1048200070470000826822F07002114341F00701D6
:1048300081607047B0B5026A22F001020262026A2A
:10484000D0F804E083690C6823F073038D6843EAB1
:10485000040C40F2004422F0020240F48063C4F2EF
:104860000104A34242EA050205D1CD6822F00C0200
:1048700025F004052A43A34206D1D1E905542EF4BC
:1048800040732B4343EA040EC0F804E0C0F818C09C
:10489000496841630262B0BD70B5026A22F010023D
:1048A0000262026AD0F804E083690C6823F4E643EC
:1048B0008D6843EA042C40F2004422F0200240F4C8
:1048C0008063C4F20104A34242EA051207D1CD6815
:1048D0006FF0400622F0C00206EA05152A43A34203
:1048E00007D1D1E905652EF4406343EA860343EA24
:1048F000850EC0F804E0C0F818C049688163026200
:1049000070BD000070B5026A22F480720262026A11
:10491000D0F804E0C3690C6823F073038D6843EAA0
:10492000040C40F2004422F4007240F48063C4F2AC
:104930000104A34242EA052207D1CD6840F2FF46B6
:104940002D0222F44062B5432A43A34207D1D1E9A4
:1049500005652EF4405343EA061343EA051EC0F8EA
:1049600004E0C0F81CC04968C163026270BD000069
:1049700010B5026A40F2004422F480520262D0F87C
:1049800020C04268C369C4F2010423F4E64E40F437
:104990008063A3420B688C684EEA032E2CF400530C
:1049A00043EA043C04D14B6922F4804242EA831278
:1049B0004260C0F81CE049680164C0F820C010BD26
:1049C000D0F820C0036A23F001030362836923F057
:1049D000F00343EA02122CF00A03194382610162D8
:1049E00070470000036A23F0100303628369D0F864
:1049F00020C023F4704343EA02322CF0A00343EAC0
:104A0000011182610162704710B504460068D4E963
:104A100002C22369016921F44051114301616269B5
:104A200043EA0C01E3691143C268194349F20C637C
:104A30009A431143C1604169A26921F4407141F276
:104A40000043114340F48062C4F201039A42416181
:104A500002D1FDF71FFA01E0FDF70AFAE169636888
:104A60001922B1F5004FA0FB02011CD15A00DB0F47
:104A7000FBF7A6FB48F21F51C5F2EB11A0FB012387
:104A80005A096FF0630302FB0300322303EBC000FB
:104A9000A0FB01014FF4F87000EA111000EB0210C6
:104AA000C1F342111AE09A009B0FFBF789FB48F211
:104AB0001F51C5F2EB11A0FB01235A096FF06303EC
:104AC00002FB0300322303EB0010A0FB0101F020E6
:104AD00000EA511000EB0210C1F3431122680843B1
:104AE000906010BD2DE9F041044600680068084060
:104AF000884202D10020BDE8F0811D460E46904656
:104B00005F1C04E0206800683040B042F2D0002F03
:104B1000F8D02DB1FDF722F8A0EB0800A842F1D99A
:104B20002068C16821F4D071C160416921F00101A0
:104B30004161202084F83D0084F83E00002084F884
:104B40003C000320BDE8F081FEE70000B0B540F274
:104B5000F864C2F20004256802F092F98DB1216870
:104B600001F5FA5188420DD30020206040F2186010
:104B7000C2F200000121016064200321FBF7F2FE74
:104B800000E0206040F2A444C2F200042078FFF765
:104B900075F902F075F940F2A845C2F200052968DE
:104BA00001F5FA71884238BFB0BD2078C04320704B
:104BB00002F066F92860B0BD2DE9F04381B0002411
:104BC000C4F20204164689468046002A20464FF465
:104BD00080514FF0000218BF01260025FCF7B8FFF6
:104BE00009F00F0025A1085CB9F10F0F40EAC617C4
:104BF00004F5006688BF002720464FF400610022BC
:104C0000FCF7A6FFF8B2C20930464FF48071FCF7FA
:104C10009FFF20464FF4006101227F00FCF798FFC0
:104C2000072D05F10105E7D320464FF480710022DE
:104C3000FCF78EFF20464FF480710122FCF788FFBD
:104C400008F0010220464FF40041FCF781FFC8F351
:104C5000400230464FF48061FCF77AFF30464FF453
:104C600000610022FCF774FF20464FF480510122BE
:104C7000FCF76EFF01B0BDE8F08300BF3F065B4F5D
:104C8000666D7D077F6F777C395E797180B500F046
:104C900001F880BDB0B50129B8BFB0BD0C460546CE
:104CA00007E000BF013CD0B2FCF740FC002C2846D6
:104CB0000BDD15F9012BB2F1FF3FF3DC4178851CC8
:104CC000D0B2023CFBF794FEEEE7B0BDF0B581B088
:104CD0001C4615460E460746FEF7D6F938462146CD
:104CE0002A46FEF7D1F90136013C384631462246C4
:104CF000FEF70CFA284631462246FEF707FA01B0C5
:104D0000F0BD0000F0B581B000B30D4600294FF0B2
:104D100000041CD406460078C8B1002441B2B1F1A9
:104D2000FF3F03DD0136013DC0B206E07178C0B23D
:104D3000B71C023DFBF75CFE3E46FCF797FD002DDD
:104D4000044404D430780028E8D100E00024204650
:104D500001B0F0BD844601294FF0000017DB9CF83C
:104D60000030A3B1002009E001300CF1020C013049
:104D70008842A8BF70479CF8003043B15AB2B2F1E4
:104D8000FF3FF1DD0A2B02D00CF1010CEFE7704779
:104D900040F26801C2F200018882704740F2680167
:104DA000C2F20001C8827047002848BF704700F077
:104DB0001F01012202FA01F14EF200124009CEF267
:104DC000000242F8201070474EF60C50CEF2000060
:104DD0000068C0F3022070474EF6145300F00F0233
:104DE000CEF2000309011A4400F16043B0F1FF3F25
:104DF000C8BF03F564421170704700004EF61F50A3
:104E0000CEF2000000210170704700004EF60C51F8
:104E1000CEF200010A684FF6FF031A4060F30A223F
:104E200042F0806040F0FD700860704770B584B05B
:104E300001AE054630460C4600F0CAFD9FED220A41
:104E40009FED242A9FED213A9FED214A0021BFEEDC
:104E5000001A4FF0010C002008E000BF0CFA01F22C
:104E600010430131032906F104062AD055F82130F8
:104E700054F821209B1A48BF5B4205EE103AB8EE69
:104E8000C55A96ED006A25EE005AB5EE406AF1EE7D
:104E900010FA0BD085EE065A35EE015AB0EEC55A1F
:104EA000B4EE425AF1EE10FADBDDD7E7B4EE435A26
:104EB000F1EE10FAD2DBB4EE445AF1EE10FAD0DD86
:104EC000CCE704B070BD00BF000080379A99993ECE
:104ED0003333733F295C0F3EB0B504464078E57824
:104EE000C0070BD040F2B840C2F2000002682AB1FD
:104EF00005F00700411CC5F3C20090476078000729
:104F000009D540F2BC40C2F200000168002908BF88
:104F1000B0BDA8098847B0BD82B040F20801C2F216
:104F2000000109684DF68362C4F21B32A1FB021234
:104F3000920C41F204015043CEF200010190086846
:104F4000009000BF0868009A019B801A9842F9D32C
:104F500002B0704780B5FCF715FD80BD80B582B00A
:104F600000280EBF4FF0A33042F62000C3F63000F9
:104F7000019001AA40F69E20042101F03FFF01F0BC
:104F8000ADFB02B080BD00002DE9F04184B00446C5
:104F90004CF60220C0F6E3100DF10605CDF8060030
:104FA000682004212A4601F029FFA3206FF05C024B
:104FB0006FF05C038DF8060014F0400618BF6FF028
:104FC0003F0218BF6FF037036FF05C076FF05C01B2
:104FD00018BF6FF03D078DF807208DF808306FF08F
:104FE0005C026FF05C038DF8097014F4C07718BF91
:104FF0006FF03B021CBF6FF033036FF039018DF887
:105000000C104AF2A3318DF80A20ADF80D108DF87E
:105010000F0040F6A7200A212A468DF80B3001F038
:10502000EDFE6FF0270014F0030818BF20208DF864
:10503000060040F6B62001212A4601F0DFFEC4F347
:10504000401000F097F82FB36FF04D016FF074022D
:1050500014F4807008BF6FF04F0108BF6FF07F023B
:105060006FF049036FF0640508BF6FF04B03002831
:1050700008BF6FF06F058DF806108DF807200DF151
:10508000060240F6A22004218DF808308DF8095060
:1050900001F0B4FEE0070AD1D8208DF806000DF12A
:1050A00006024FF40B60012101F0A8FE27E0F82072
:1050B0008DF806000DF106024FF40B60012101F09E
:1050C0009DFE0720FA2100F05DFB072000F026FB83
:1050D000012000F043FB642000F010FC4FF4FA7054
:1050E00000F022FC4EF20930C0F2CA20C82100F0C4
:1050F000D3FA282000F0E6FA0A2000F0F9FAA00717
:105100006FF0260058BF6FF027008DF806000DF1F4
:10511000060240F23D70012101F070FEC4F38000F0
:1051200000F04EF8C4F30010FFF718FF40F2C4413E
:1051300044F00800C2F20001088001F0CFFA002E0E
:1051400018BF0626002F40F2CA4018BF0636C2F22A
:10515000000014F0140F067002D0017810310170B5
:10516000B8F1000F02D0017804310170002004B0C2
:10517000BDE8F08180B584B060B15D208DF80C0091
:1051800049F6B400C3F20D5002904AF6B820C8F6B2
:10519000B3500BE0C7208DF80C0048F6B000CCF2FD
:1051A000C35002904AF6B820CAF6AA20019001AA7C
:1051B0004FF49760092101F021FE04B080BD00008A
:1051C00080B582B000280EBF4FF08B304CF2C0206B
:1051D000CCF2C460019001AA40F69820042101F0AD
:1051E0000DFE01F07BFA02B080BD000080B541F2F7
:1051F0005821C0F6010140F6F6304FF48062C82312
:1052000001F01CF980BD00002DE9F04788B0174679
:10521000DDE910820E460021A8F8001040F2CA41D4
:10522000C2F200010978E94682460846494601F083
:10523000CFF920B14FF0FF3008B0BDE8F08740F261
:10524000C440C2F20000B0F800C01CF0140F4ED0F1
:105250009DF801209DF800109DF8023012049DF881
:10526000034042EA016141EA032222443A609DF888
:1052700005209DF80430120442EA03629DF80630CE
:105280009DF8074042EA032323447B609DF80930E0
:105290009DF808401B0443EA04639DF80A409DF80A
:1052A0000B5043EA04242544BD609DF80D509DF841
:1052B0000C4011FB31F12D0412FB321145EA04655B
:1052C0009DF80E4013FB33119DF80F0015FB3511AF
:1052D00045EA042401F171412044B1F1007FF860F6
:1052E0000AD901F0FBF90020A8F80000A2E700218C
:1052F0005FEA4C600AD430E0B8F80000102140F4B6
:105300008070A8F800005FEA4C6026D541F00102E9
:1053100019F8010019F8022041F0030342EA0020C5
:1053200041F0020219F8022019F80330308043EAF4
:10533000022041F0040241F0050319F8022019F897
:105340000330708043EA0220B080B8F8000041F0DA
:10535000060140F00800A8F800001CF4C07F18D037
:1053600039F8010009EB010200BA5388000CAAF8D1
:10537000000018BA9288000CAAF8020010BA000CBB
:10538000AAF80400B8F80000063140F07000A8F850
:1053900000005FEA8C7003D009EB0100FFF79CFD71
:1053A000002008B0BDE8F087B0B584B004460DF128
:1053B000020000F0A7FE40F2C041C2F200010988DD
:1053C000BDF802004B0701F003024FF00C0354F844
:1053D000222003EA51034FEAC03C48BF5242E3583F
:1053E000880648BF5B42C1F3811054F82000C9050C
:1053F00048BF40428CFB00018CFB02E2800F8CFB1B
:10540000035440EA810C900D8DF80400900B8DF848
:10541000050090098DF80600A00D8DF80800A00B7E
:105420008DF80900A0098DF80A00880D8DF80C0090
:10543000880B4FEA9E73AD0F8DF80D00880943EA83
:10544000820345EA84058DF80E0001AA4FF4257009
:105450000C218DF807308DF80B508DF80FC001F03E
:10546000CDFC04B0B0BD000010B586B004464AF6CD
:10547000BB70CDF6DF7005904FF2AA10CDF6DF704D
:1054800004904FF2FE20CCF2AB40C82C039015D80C
:10549000C820B0FBF4F001AA013800BA000CADF846
:1054A000040040F21620022101F0A8FC30B903AA42
:1054B00040F6C1200C2101F0A1FC18B14FF0FF30E3
:1054C00006B010BD40F2C840C2F2000004800020C7
:1054D00006B010BD70B582B040F2C041C2F200010A
:1054E00009880C2601F0030250F822204EF20934FC
:1054F00006EA51064B0748BF5242C0F2CA248659F9
:10550000C1F3811582FB042350F82550880648BF5B
:105510007642C8054FEA935148BF6D42900F8DF80F
:105520000410990B40EA83008DF8051099098DF855
:1055300006108DF8070001AA4FF47470042101F0E1
:105540005DFC68B986FB0401800F40EA810000BA67
:10555000019001AA4FF47570042101F04FFC18B1BD
:105560004FF0FF3002B070BD85FB0401800F40EAB0
:10557000810000BA019001AA4FF47670042101F075
:105580003DFC02B070BD0000B0B582B04AF203210C
:10559000054600F00300C0F600010A5C4AF2002450
:1055A0008DF80420C5F3C1028B5CC0F600048DF8B1
:1055B0000530C5F38113C95C205C8DF806108DF8A9
:1055C0000000A05CE15C8DF801008DF8021001AADA
:1055D00040F22640032101F011FCA0BB6A4640F2D4
:1055E0002A40032101F00AFC68BB76208DF80600F2
:1055F00045F23660ADF8040044F22660ADF80000D4
:10560000662069078DF8020021D4A8062DD4E8058C
:105610000BD59DF806009DF8021040F001008DF8B2
:10562000060041F001008DF8020001AA4FF48860E5
:10563000032101F0E3FB30B96A4640F23140032117
:1056400001F0DCFB00B34FF0FF3002B0B0BD9DF8BD
:1056500004009DF8001040F001008DF8040041F0B6
:1056600001008DF80000A806D1D59DF805009DF831
:10567000011040F001008DF8050041F001008DF8A7
:105680000100E805C5D4D0E740F2C040C2F20000F6
:105690000580002002B0B0BD80B582B044F6D35280
:1056A000C1F2620250FB02F0821102EBD07048435B
:1056B00000BA019001AA4FF4AE70042101F09EFBE4
:1056C00002B080BD80B582B04CF6CD41CCF6CC4165
:1056D000A0FB0101880840BAADF806000DF10602F2
:1056E0004FF4AD70022101F089FB02B080BD0000D3
:1056F00080B582B04CF6CD41CCF6CC41A0FB010187
:10570000880840BAADF806000DF106024FF4AC70FF
:10571000022101F073FB02B080BD000080B582B0B1
:1057200000F001025242410802F0300261F38202AD
:1057300061F3C30240078DF8072005D59DF80700E7
:1057400040F003008DF807000DF107024FF4A4703C
:10575000012101F053FB02B080BD000080B582B092
:105760000428014628BF0421002818BF481E8DF8D0
:1057700007000DF1070240F24F10012101F03EFB3E
:1057800002B080BDB0B52DED028B82B00446B1F5FC
:10579000C86F4FF0FF301DD814F007021AD000EE8A
:1057A000101A0DF10300B8EE408A00F08FFC9DF84E
:1057B0000300811E4FEA7100072809D84908C9B2C1
:1057C0008B2222FA01F1C90708D14FF0FF3001E026
:1057D0004FF0FF3002B0BDEC028BB0BD9FED360A3A
:1057E00036A188EE000A01EB800191ED001A3BA181
:1057F00001EB800090ED002A20EE011A20EE020A53
:10580000BDEEC00A10EE100ABDEEC10A10EE101A6D
:105810000A0A8DF804208DF80510010A01AA951CCA
:105820008DF80610E1078DF8070005D1A0070DD40B
:10583000600720D40020CDE701AA4FF4EA700221CE
:1058400001F0DCFA60B14FF0FF30C3E701AA4FF47A
:10585000EC70022101F0D2FAB8B14FF0FF30B9E795
:105860004FF4927002212A4601F0C8FA0028DDD0D8
:105870004FF0FF30AEE701AA4FF4EE70022101F0C5
:10588000BDFA68B14FF0FF30A4E74FF494700221E5
:105890002A4601F0B3FA0028CAD04FF0FF3099E74A
:1058A0004FF4967002212A4601F0A8FA0028C1D0D0
:1058B0004FF0FF308EE700BF0000484300008046F5
:1058C0000000004600008046000080450000804641
:1058D0000000804600008046000000450000404671
:1058E0000000C04500004046000040450000404622
:1058F00000004046000040460000C04480B582B031
:105900004CF6CD41CCF6CC41A0FB0101880840BA51
:10591000ADF806000DF106024FF4EF70022101F020
:105920006DFA02B080BD000080B582B04CF6CD416A
:10593000CCF6CC41A0FB0101880840BAADF80600C6
:105940000DF106024FF4ED70022101F057FA02B09A
:1059500080BD000080B5FBF705F9FBF7E1F8FEF725
:1059600061F87F2064218A22FBF746F8FBF7A4F850
:1059700080BD000010B5FBF79FF8FEF753F8CC2070
:10598000FBF7A4F8BE20FBF7A1F8FBF75FF804468D
:10599000FBF75CF844EA002000EE100A9FED031AC2
:1059A000B8EE400A20EE010A10BD00BF0000803DA5
:1059B00080B582B0019040F2B460C2F2000001A94B
:1059C00001224FF6FF73FDF7A1F8019802B080BDE8
:1059D000B0B582B040F22001C2F20001496804462D
:1059E000097801AB08460D21042200F0E9FA08B15C
:1059F00002B0B0BD9DF804009DF807304FF01C0EBA
:105A00009DF805109DF806C00EEAD000C3F3011200
:105A100010448DF801000EEAD100C3F3810108445F
:105A20008DF802000EEADC0003F0030141F27B4C2A
:105A30009FED160A9FED161A08444FF0000E0DF167
:105A40000101C3F6AE6C00238DF8030005E000BF32
:105A5000C2F800E00133032BCAD0C85C04EB830218
:105A60000028F5D0C85CC2F800C001380506C8544B
:105A7000F0D0C85CB0EE402A0138050622EE012ABB
:105A8000FAD182ED002A01F803E0E3E77B14AE3E91
:105A90001D5A843F2DE9F04383B040F220070546AC
:105AA0000120C2F200070C46ADF80000D7E9001053
:105AB00016460078897C6B46022200F08BFA10B102
:105AC0004FF0FF378CE1C820FFF744FA00208DF833
:105AD0000000D7E900106B460078C97B012200F076
